:100000000C9495010C94C6010C94C6010C94C60185
:100010000C94C6010C94C6010C94C6010C94C60144
:100020000C94C6010C94860B0C94860B0C94860BD6
:100030000C94C6010C9439030C94C6010C94C601AF
:100040000C94C6010C9405070C94C6010C94C601CF
:100050000C94C6010C94C6010C94C6010C94250F97
:100060000C94C6010C94A8040C947E040C94C60154
:100070000C94C6010C94C6010C94C6010C94C601E4
:100080000C94C6010C94C6010C94C6010C94C601D4
:100090000C94C6010C94C6010C94C6010C94900BF0
:1000A0000C94C6010C94C6010C94C6010C94C601B4
:1000B0000C94C6010C94C6010C94C6010C94D20495
:1000C0000C94C6010C94C6010C94C6010C94540403
:1000D0000C942A040C94C6010C9400040C94D603CE
:1000E0000C94C601F105F605FB0505060F0688060A
:1000F00019062106290633063D0647065606600600
:1001000088066A0674067E06E909EC09DB09DF0940
:10011000E509230AF009F409FA09FE09020A080AA6
:100120000C0A100A230A160A1A0A1E0A0C941A0A42
:100130000C9456090C94DF090C9414030C94020AD5
:100140000C94100A0C94F1050C9460060C9429068A
:100150000C94FE090C9445090C9401020C940E03B6
:100160000C9474060C947E060C9472090C949F09EE
:100170000C946A090C9433060C9421060C94DB0948
:100180000C946A060C94E9090C94160A0C94F40970
:100190000C94F2010C946F020C9456060C94150208
:1001A0000C940C0A0C9405060C9444090C942F151D
:1001B0000C94EC090C9429150C94FB050C94BC02CE
:1001C0000C94E5090C94F0090C943D060C94470638
:1001D0000C94C8010C9447090C9488060C94F605FD
:1001E0000C9446090C94FA090C941E0A0C94230AE8
:1001F0000C9423020C940F030C940F060C94190614
:100200000C94080A0200002100240027002A002D77
:10021000003000330001010000040107010A010061
:10022000002200250028002B002E0031003400029F
:10023000010000050108010B010000200023002639
:100240000029002C002F00320000010000030106ED
:10025000010901050505050705080808080202024D
:10026000020A0A0808040404040101010101010151
:10027000010303030303030303040707070C0C0C28
:100280000C0C0C0C0C020202020606060606060600
:10029000060B0B0B0B0B0B0B0B010210202008089D
:1002A00010204010204080020102010804020101D8
:1002B00002040810204080804020100804020180C1
:1002C0000402018040201008040201080402010118
:1002D0000204081020408001020408102040800021
:1002E000000A0B02090C0D0E0807030401000000B0
:1002F00000000000000000000000000000000000FE
:1003000000000000000000000000001211100000BA
:1003100000000000000000000000000000000000DD
:100320000000000000002F15291511241FBECFEF7B
:10033000D1E2DEBFCDBF00E00CBF12E0A0E0B2E032
:10034000ECEEF7E300E00BBF02C007900D92AA3C71
:10035000B107D9F727E0AAECB2E001C01D92AC3A90
:10036000B207E1F711E0C4E9D1E000E006C021974F
:100370000109802FFE010E94A218C339D10780E035
:100380000807A9F70E946F0F0C94E41B0C9400005F
:10039000CF92DF92EF92FF920F931F93CF93DF9351
:1003A0006C017A018B01C0E0D0E0CE15DF0581F051
:1003B000D8016D918D01D601ED91FC910190F081F4
:1003C000E02DC6011995892B11F02196EECF7E0103
:1003D000C701DF91CF911F910F91FF90EF90DF90B8
:1003E000CF900895FC01538D448D252F30E0842F4C
:1003F00090E0821B930B541710F0CF96089501974D
:100400000895FC01918D828D981761F0828DDF0136
:10041000A80FB11D5D968C91928D9F5F9F73928FF7
:1004200090E008958FEF9FEF0895FC01918D828DEC
:10043000981731F0828DE80FF11D858D90E00895B9
:100440008FEF9FEF0895FC01918D228D892F90E011
:10045000805C9F4F821B91098F739927089589EBC8
:1004600093E00E94230221E0892B09F420E0822FEF
:10047000089586E594E00E94230221E0892B09F487
:1004800020E0822F089583EF94E00E94230221E070
:10049000892B09F420E0822F0895FC01848DDF016F
:1004A000A80FB11DA35ABF4F2C91848D90E00196E7
:1004B0008F739927848FA689B7892C93A089B189D6
:1004C0008C91837080648C93938D848D981306C077
:1004D0000288F389E02D80818F7D80830895EF92DB
:1004E000FF920F931F93CF93DF93EC0181E0888FEE
:1004F0009B8D8C8D981305C0E889F989808185FDD5
:1005000026C0F62E0B8D10E00F5F1F4F0F731127C3
:10051000E02E8C8DE8120CC00FB607FCFACFE889EC
:10052000F989808185FFF5CFCE010E944D02F1CF80
:100530008B8DFE01E80FF11DE35AFF4FF0829FB74C
:10054000F8940B8FEA89FB89808180620AC09FB78B
:10055000F894EE89FF896083E889F9898081837046
:10056000806480839FBF81E090E0DF91CF911F91F5
:100570000F91FF90EF900895CF93DF93EC01888D5A
:100580008823C9F0EA89FB89808185FD05C0A88997
:10059000B9898C9186FD0FC00FB607FCF5CF80811D
:1005A00085FFF2CFA889B9898C9185FFEDCFCE0167
:1005B0000E944D02E7CFDF91CF910895E0E0F0E097
:1005C000199480E090E0892B21F00E944302811170
:1005D00019C080E090E0892B41F080E090E0892B09
:1005E00021F00E940000811110C00E943902811187
:1005F0000FC080E090E0892B81F00E942F028111D2
:100600000AC008950E940000E4CF0E940000EDCFD0
:100610000E94DE02EECF0C9400000895089580E061
:1006200090E008950E94CF1B0F931F93CF93DF9309
:100630008C01C62FD62FD07FD1606D2F0E94450B25
:100640006D2FC8010E94580B80E1C89FB001112492
:10065000C62FC1606C2FC8010E94450B6C2FC801CA
:100660000E94580B81E090E0DF91CF911F910F9194
:1006700008951F920F920FB60F9211240BB60F928E
:100680002F933F934F935F936F937F938F939F939A
:10069000AF93BF93EF93FF938091F3029091F40295
:1006A000A091F502B091F602892B8A2B8B2B49F190
:1006B0009091F20280910000892780930000809140
:1006C000F3029091F402A091F502B091F60218168F
:1006D00019061A061B060CF056C08091F302909181
:1006E000F402A091F502B091F6020197A109B109B7
:1006F0008093F3029093F402A093F502B093F60274
:1007000042C080910402E4E0F2E0E4919FEF909314
:100710000402E230C9F050F4EE2399F0E13081F5A3
:1007200090916F009D7F90936F002AC0E43019F183
:10073000E0F0E53029F5909173009D7F9093730070
:100740001FC010926E001CC0909170009D7F90930E
:10075000700091E09093B0009091B100987F946008
:100760009093B1001092B3000BC0909171009D7FE7
:100770009093710005C0909172009D7F90937200DC
:1007800060E00E94EB0CFF91EF91BF91AF919F91C0
:100790008F917F916F915F914F913F912F910F902A
:1007A0000BBE0F900FBE0F901F9018951F920F92C7
:1007B0000FB60F9211240BB60F922F933F934F93C6
:1007C0005F936F937F938F939F93AF93BF93EF93B9
:1007D000FF9389EB93E00E944D02FF91EF91BF914F
:1007E000AF919F918F917F916F915F914F913F91C9
:1007F0002F910F900BBE0F900FBE0F901F9018956A
:100800001F920F920FB60F9211240BB60F922F93D7
:100810003F934F935F936F937F938F939F93AF9388
:10082000BF93EF93FF9389EB93E00E946D0BFF91D1
:10083000EF91BF91AF919F918F917F916F915F9158
:100840004F913F912F910F900BBE0F900FBE0F90C5
:100850001F9018951F920F920FB60F9211240BB68E
:100860000F922F933F934F935F936F937F938F9349
:100870009F93AF93BF93EF93FF9386E594E00E941D
:100880004D02FF91EF91BF91AF919F918F917F9119
:100890006F915F914F913F912F910F900BBE0F90F1
:1008A0000FBE0F901F9018951F920F920FB60F92C8
:1008B00011240BB60F922F933F934F935F936F9337
:1008C0007F938F939F93AF93BF93EF93FF9386E5AF
:1008D00094E00E946D0BFF91EF91BF91AF919F91BA
:1008E0008F917F916F915F914F913F912F910F90D9
:1008F0000BBE0F900FBE0F901F9018951F920F9276
:100900000FB60F9211240BB60F922F933F934F9374
:100910005F936F937F938F939F93AF93BF93EF9367
:10092000FF9383EF94E00E944D02FF91EF91BF91FE
:10093000AF919F918F917F916F915F914F913F9177
:100940002F910F900BBE0F900FBE0F901F90189518
:100950001F920F920FB60F9211240BB60F922F9386
:100960003F934F935F936F937F938F939F93AF9337
:10097000BF93EF93FF9383EF94E00E946D0BFF9181
:10098000EF91BF91AF919F918F917F916F915F9107
:100990004F913F912F910F900BBE0F900FBE0F9074
:1009A0001F9018951F920F920FB60F9211240BB63D
:1009B0000F922F933F934F935F936F937F938F93F8
:1009C0009F93AF93BF93EF93FF93809191050E9404
:1009D000C20C20919505309196052F5F3F4F3093C3
:1009E00096052093950590919405953618F096E01C
:1009F00090939005909190059430C9F128F492302D
:100A000069F09330D1F05EC0953009F451C0963052
:100A100009F058C091E09093610651C0811152C015
:100A200020919505309196052436310508F442C091
:100A300010926106109294051CC0813009F042C0EA
:100A4000E091940591E09E0F90939405F0E0209141
:100A5000950530919605EE0FFF1FE057FA4F30874E
:100A60002783109296051092950594E029C0811174
:100A700017C0E091940591E09E0F90939405F0E0EB
:100A80002091950530919605EE0FFF1FE057FA4F24
:100A900030872783109296051092950593E010C039
:100AA00020919505309196052536310558F007C0FF
:100AB000811108C0109296051092950503C095E02B
:100AC00090939005909193059923B9F081110AC0F4
:100AD00080919205882321F08091920561E009C000
:100AE0002F9A0BC080919205882331F08091920556
:100AF00060E00E94EB0C01C02F98FF91EF91BF9135
:100B0000AF919F918F917F916F915F914F913F91A5
:100B10002F910F900BBE0F900FBE0F901F90189546
:100B20008F929F92AF92BF92CF92DF92EF92FF92FD
:100B30000F931F93CF93DF938C016A017B0120E019
:100B400030E04FE753E4C701B6010E947D174B0127
:100B50005C0120E030E0A9010E94BF1918161CF4C6
:100B6000C501B40103C0C501B40190580E948919A0
:100B7000EB0120E030E0A901C701B6010E94BF19D6
:100B8000181614F460E001C061E0F80181810E9450
:100B9000EB0CCF3FD10509F014F4DD2702C0CFEFF5
:100BA000D0E0F801108161E0812F0E941A0D20979A
:100BB00009F4B1C0CF3FD10509F4AFC0E12FF0E097
:100BC000E152FD4FE4918E2F90E0FC013197E2312C
:100BD000F10508F09DC08827EE58FF4F8F4F0C9409
:100BE000A21884B5806884BDC7BDA7C084B58062E3
:100BF00084BDC8BDA2C080918000806880938000C1
:100C0000D0938900C093880098C080918000806252
:100C100080938000D0938B00C0938A008EC0809117
:100C20008000886080938000D0938D00C0938C00FA
:100C300084C08091B00080688093B000C093B300FE
:100C40007CC08091B00080628093B000C093B400FB
:100C500074C080919000806880939000D093990038
:100C6000C09398006AC08091900080628093900049
:100C7000D0939B00C0939A0060C0809190008860E0
:100C800080939000D0939D00C0939C0056C08091AB
:100C9000A00080688093A0008091A0008F7B80934B
:100CA000A000D093A900C093A80047C08091A000E5
:100CB00080628093A000D093AB00C093AA003DC097
:100CC0008091A00088608093A000D093AD00C09375
:100CD000AC0033C080912001806880932001D093C4
:100CE0002901C093280129C080912001806280934E
:100CF0002001D0932B01C0932A011FC080912001B5
:100D0000886080932001D0932D01C0932C0115C0E1
:100D1000C038D10514F460E001C061E0812FDF919B
:100D2000CF911F910F91FF90EF90DF90CF90BF90E8
:100D3000AF909F908F900C94EB0CDF91CF911F910F
:100D40000F91FF90EF90DF90CF90BF90AF909F906A
:100D50008F9008951F93CF93DF93EC01162F888116
:100D60008C3008F04DC061E0812F0E941A0DE8819F
:100D700095E09E9FF0011124EE59F94F1F73808179
:100D8000807C182B10831382E8819E9FF001112430
:100D9000EE59F94F148288816CE00E9496189CE00D
:100DA000899FA001112420E030E095E0BA01620F94
:100DB000731F969FF001979FF00D1124EE59F94F84
:100DC000608166FD13C02F5F3F4F2C30310571F7F6
:100DD00081110CC01092800082E0809381001092FB
:100DE00085001092840086BB80936F00E88185E0C7
:100DF000E89FF0011124EE59F94F808180648083CF
:100E00008881DF91CF911F9108951F920F920FB6A5
:100E10000F9211240BB60F922F933F934F935F9332
:100E20006F937F938F939F93AF93BF93EF93FF93B2
:100E30008091F10287FF05C0109285001092840016
:100E400016C02091F102022E000C330B80919E06F9
:100E500090E0281739075CF43091F10225E0320365
:100E6000F0011124EE59F94F808186FD15C0809163
:100E7000F1028F5F8093F1022091F102022E000CAB
:100E8000330B80919E0690E02817390794F48091E7
:100E9000F1028C302CF10DC03091F1023203F001DF
:100EA0001124EE59F94F808160E08F730E94EB0CA2
:100EB000DECF809184009091850084349C4918F4A1
:100EC00080E49CE905C0809184009091850004969F
:100ED00090938900809388008FEF8093F1022AC05D
:100EE00040918400509185003091F10225E0320359
:100EF000F0011124EE59F94F81819281840F951FE1
:100F000090938900809388003091F1023203F001C0
:100F10001124EE59F94F808186FF0CC03091F10207
:100F20003203F0011124EE59F94F808161E08F7393
:100F30000E94EB0CFF91EF91BF91AF919F918F9128
:100F40007F916F915F914F913F912F910F900BBEC9
:100F50000F900FBE0F901F9018958EBD00000DB41E
:100F600007FEFDCF8EB50895CF93DF93EC0160E0CF
:100F700088810E94EB0C88E90E94AD0780E00E9406
:100F8000AD0780E00E94AD0780E00E94AD0780E0E1
:100F90000E94AD0761E088810E94EB0C8BE891E034
:100FA0000197F1F760E088810E94EB0C80EE0E94CF
:100FB000AD0761E08881DF91CF910C94EB0CAF928B
:100FC000BF92CF92DF92EF92FF920F931F93CF9336
:100FD000DF93CDB7DEB760970FB6F894DEBF0FBED4
:100FE000CDBF5C0160E0FC0180810E94EB0C80E6DB
:100FF0000E94AD078E010F5F1F4F7E01F1E1EF0EE2
:10100000F11C680180E00E94AD0790E0A0E0B0E034
:10101000F60181939193A193B1936F01EE15FF05B2
:1010200089F761E0F50180810E94EB0C80E090E09F
:10103000DC01F80141915191619171918F01BA2FB9
:10104000A92F982F8827840F951FA61FB71FEE156D
:10105000FF0579F79C01AD0166277727CB01621B5D
:10106000730B840B950B60960FB6F894DEBF0FBE22
:10107000CDBFDF91CF911F910F91FF90EF90DF9047
:10108000CF90BF90AF900895CF93DF93C7ECD6E099
:10109000688570E087ED96E00E94AA06698570E099
:1010A00088ED96E0DF91CF910C94AA0683EC96E050
:1010B0000E94DF0783EC96E00E94B40785EC96E07F
:1010C0000E94DF0785EC96E00C94B40740E050E006
:1010D000BA018FEB96E00E94900540E050E060E09E
:1010E00070E881EC96E00E94900583EC96E00E9407
:1010F000DF0783EC96E00E94B40785EC96E00E943F
:10110000DF0785EC96E00C94B407CF92DF92EF9264
:10111000FF9286E30E94560DBC01990F880B990B34
:101120000E941E1720E030E048E453E40E941719A3
:101130006B017C018AE792E00E94AF0D42E0C7019B
:10114000B6010E94240A87E492E00E94AF0D62E398
:1011500070E080E090E00E94750DC701B601FF903D
:10116000EF90DF90CF900895CF92DF92EF92FF92B1
:1011700087E30E94560DBC01990F880B990B0E94C2
:101180001E1720E030E048E453E40E9417196B0179
:101190007C018AE792E00E94AF0D42E0C701B601F0
:1011A0000E94240A87E492E00E94AF0D62E370E09F
:1011B00080E090E00E94750DC701B601FF90EF90AE
:1011C000DF90CF9008950E94440864E670E080E0CC
:1011D00090E00E94750D6DE780E00E94620E6EE166
:1011E00081E00E94620E64EF71E080E090E00E9476
:1011F000750DA7ECB6E05096EC91509785E08E9F68
:10120000F0011124EE59F94F90819F7B9083519604
:10121000EC918E9FF0011124EE59F94F80818F7B64
:101220008083089585ED8093BC008091BC0084FD8F
:10123000FCCF10928803089540913D03262F30E0A3
:10124000240F311D21323105DCF420918803243034
:10125000C9F4FC0180E090E0861758F430913D031A
:101260002191DC01A35EBC4FA30FB11D2C9301960D
:10127000F3CF80913D03680F60933D0380E00895B4
:1012800081E0089582E00895089508950895E09119
:10129000F8028091F702E81730F4F0E0E350FD4FD8
:1012A000808190E008958FEF9FEF08959091F8026C
:1012B0008091F702981750F4E92FF0E0E350FD4FCA
:1012C000208130E09F5F9093F80202C02FEF3FEF44
:1012D000C90108958091F70290E02091F802821BE5
:1012E00091090895CF92DF92EF92FF920F931F938F
:1012F000CF93DF937C01CB018A01209189032223C4
:1013000089F0EB016B01C40ED51ECC15DD0569F02B
:101310006991D701ED91FC910190F081E02DC70119
:101320001995F3CF642F0E941C09C801DF91CF915A
:101330001F910F91FF90EF90DF90CF900895CF9382
:10134000DF931F92CDB7DEB76983209189032223F3
:10135000D1F02091AC03203240F021E030E0FC01DC
:101360003383228380E090E015C080918A03E82FC8
:10137000F0E0E557FC4F998190838F5F80938A035B
:101380008093AC0305C061E0CE0101960E941C0968
:1013900081E090E00F90DF91CF91089590E0FC0103
:1013A0003197E231F10508F04EC08827EC57FF4F26
:1013B0008F4F0C94A218809180008F7703C080918A
:1013C00080008F7D80938000089580918000877FCA
:1013D000F9CF84B58F7702C084B58F7D84BD089521
:1013E0008091B0008F7703C08091B0008F7D809393
:1013F000B0000895809190008F7707C08091900091
:101400008F7D03C080919000877F80939000089526
:101410008091A0008F7707C08091A0008F7D03C0CE
:101420008091A000877F8093A00008958091200183
:101430008F7707C0809120018F7D03C080912001AC
:10144000877F8093200108952F923F924F925F9261
:101450006F927F928F929F92AF92BF92CF92DF92C4
:10146000EF92FF920F931F93CF93DF93CDB7DEB729
:10147000A4970FB6F894DEBF0FBECDBF4B015C0141
:10148000F42E9B01AC010E94C419882319F08FE847
:1014900092E027C024013501E89477F82FEF3FEF61
:1014A0004FE75FE7C301B2010E94C41981110DC06B
:1014B0002FEF3FEF4FE75FE7C301B2010E9417171D
:1014C00018161CF483E992E00CC02FEF3FEF4FE7B2
:1014D0005FE4C501B4010E94BF1918162CF487E916
:1014E00092E00E94AF0DB8C02FEF3FEF4FE75FECE7
:1014F000C501B4010E94171787FDF1CF20E030E04D
:10150000A901C501B4010E94171787FF0BC06DE246
:1015100083EF94E00E946F023C01B7FAB094B7F8F1
:10152000B09402C0612C712C10E060E070E080E0AB
:101530009FE3F11641F020E030E040E251E40E94E8
:1015400017191F5FF6CFA50194010E94AB184B013C
:101550005C010E9490196AA3C72ED82EE92E19A209
:10156000262F372F482F592F8E010F5D1F4F0BA3AA
:101570001CA39AE0292E312C412C512CCA01B9010F
:10158000A20191010E946518605DF80162938F01CC
:10159000211531054105510589F7CF010E94AF0D95
:1015A0008301080F191FFF2009F455C06AA17C2D83
:1015B0008D2D9E2D0E941C179B01AC01C501B4010D
:1015C0000E94AA184B015C016EE283EF94E00E9436
:1015D0006F02080F191F8AE0282E312C412C512C44
:1015E00020E030E040E251E4C501B4010E947D17E3
:1015F0004B015C010E9490199B0140E050E019A250
:10160000CBA0DCA0762E3AA3642EE52ECA01B90148
:10161000A20191010E946518605DF60162936F015D
:10162000211531054105510589F7CF010E94AF0D04
:10163000080F191F672D7AA1862D9E2D0E941C1759
:101640009B01AC01C501B4010E94AA184B015C01C9
:10165000FA94F110C5CFC801A4960FB6F894DEBF76
:101660000FBECDBFDF91CF911F910F91FF90EF90F3
:10167000DF90CF90BF90AF909F908F907F906F90B2
:101680005F904F903F902F900895FC01248131E0AE
:10169000309389032093AB0310928A031092AC031A
:1016A0008485682B8DEA93E00E949F090C94CF0DEE
:1016B0000F931F93CF938C01C62F64600E94450B3C
:1016C0006C2F6B7FC8010E94450B83EC90E0019763
:1016D000F1F7CF911F910F910895FC01A089B18975
:1016E0008C91A689B78982FD0FC09C91818D8F5FF7
:1016F0008F73228D821749F0218DDF01A20FB11D5A
:101700005D969C93818F08958C9108951F920F92FE
:101710000FB60F9211240F900FBE0F901F901895C7
:101720001F920F920FB60F9211240BB60F922F93A8
:101730003F934F935F936F937F938F939F93AF9359
:10174000BF93EF93FF938091B900887F803609F4AF
:101750009CC068F5883209F45BC090F4803109F4CC
:1017600054C038F4882309F4F6C0883009F44DC019
:10177000F6C0883109F44CC0803209F45DC0EFC076
:10178000803409F468C048F4803309F455C08833C4
:1017900009F0E5C080938603D8C0803509F44FC0B6
:1017A000883509F45DC0883409F0D9C0D6C08839BD
:1017B00009F4C7C0A8F4883709F467C038F488363C
:1017C00009F463C0803709F460C0C9C0883809F4DF
:1017D000B8C0803909F45FC0803809F0C0C05BC070
:1017E000803B09F486C038F4803A09F466C0883A30
:1017F00009F47FC0B4C0803C09F4A7C0883C09F458
:10180000A4C0883B09F48AC0AAC08091630310C0B9
:101810009091850380918403981770F5E09185037A
:1018200081E08E0F80938503F0E0EC59FC4F8081BE
:101830008093BB0085EC86C0809386038EC0E091C8
:10184000850381E08E0F809385038091BB00F0E0DB
:10185000EC59FC4F808390918503809184036EC086
:10186000E091850381E08E0F809385038091BB001A
:10187000F0E0EC59FC4F80838091870381116DC0AB
:1018800081E08093620384EA61C083E080938803EF
:1018900010925F03CFCF80915F03803208F051C078
:1018A000E0915F0381E08E0F80935F038091BB0026
:1018B000F0E0E15CFC4F8083BDCF85EC8093BC0001
:1018C0001092880380915F03803230F4E0915F03CF
:1018D000F0E0E15CFC4F108260915F0370E0E0910A
:1018E000FB02F091FC028FE393E0199510925F03E5
:1018F00036C084E08093880310923E0310923D032B
:10190000E091F902F091FA02199580913D0381115D
:1019100005C081E080933D0310921D03E0913E03DA
:1019200081E08E0F80933E03F0E0E35EFC4F808108
:101930008093BB0090913E0380913D03981708F47B
:1019400079CF85E88093BC000AC085EC8093BC0009
:101950001092880304C0109286030E941209FF911E
:10196000EF91BF91AF919F918F917F916F915F9117
:101970004F913F912F910F900BBE0F900FBE0F9084
:101980001F901895CF93DF93282F30E0F901E15293
:10199000FD4F8491F901E756FD4FD491F901ED5ABD
:1019A000FD4FC491CC2391F081110E94CE09EC2F00
:1019B000F0E0EE0FFF1FE75CFD4FA591B491EC91B5
:1019C000ED2381E090E021F480E002C080E090E02F
:1019D000DF91CF9108951F93CF93DF93282F30E0AD
:1019E000F901E152FD4F8491F901E756FD4FD49181
:1019F000F901ED5AFD4FC491CC23C1F0162F81118E
:101A00000E94CE09EC2FF0E0EE0FFF1FE15EFD4FCC
:101A1000A591B4919FB7F894111104C08C91D09501
:101A2000D82302C0EC91DE2BDC939FBFDF91CF91D6
:101A30001F910895CF93DF9390E0FC01E756FD4F8F
:101A40002491FC01ED5AFD4F8491882361F190E0CF
:101A5000880F991FFC01EB5FFD4FC591D491FC01EC
:101A6000E15EFD4FA591B491611109C09FB7F89453
:101A70008881209582238883EC912E230BC06230CD
:101A800061F49FB7F8948881322F3095832388833F
:101A9000EC912E2B2C939FBF06C08FB7F894E88152
:101AA0002E2B28838FBFDF91CF910895863308F0C6
:101AB000865390917B00282F2870977F922B9093CC
:101AC0007B008770806480937C0080917A008064C2
:101AD00080937A0080917A0086FDFCCF8091780017
:101AE0002091790090E0922B08958F929F92AF926F
:101AF000BF92CF92DF92EF92FF926B017C010E9426
:101B0000000F4B015C01C114D104E104F104F1F0B8
:101B10000E94000FDC01CB0188199909AA09BB09B1
:101B2000883E9340A105B10570F321E0C21AD108A7
:101B3000E108F10888EE880E83E0981EA11CB11C14
:101B4000C114D104E104F10419F7DDCFFF90EF9047
:101B5000DF90CF90BF90AF909F908F9008950097A7
:101B600069F0FC0101900020E9F73197AF01481BB3
:101B7000590BBC0183EF94E00C94C80180E090E025
:101B80000895CF93DF930E94AF0DEC0187E492E0BC
:101B90000E94AF0D8C0F9D1FDF91CF910895309162
:101BA000AC03313208F04BC0809188038111FCCF27
:101BB0009091AB0322E02093880321E020938703D8
:101BC0002FEF209386031092850330938403EBE874
:101BD000F3E0A4E6B3E020E0321721F041914D9309
:101BE0002F5FFACF1092630320916303990F922B1A
:101BF0009093630390916203913061F410926203B9
:101C0000909163039093BB009091BC0093FDF8CF3B
:101C100095EC01C095EE9093BC00909188039230B2
:101C2000E1F3909186039F3F79F0809186038032A3
:101C300041F080918603803331F084E005C081E07B
:101C400003C082E001C083E010928A031092AC03CB
:101C50001092890308950F931F93CF93DF93162F4C
:101C6000072FC6EAD6E09C8521E020938903909354
:101C7000AB0310928A031092AC03AA85BB85ED9149
:101C8000FC9111970190F081E02D682FCD011995FD
:101C90008A859B85DC01ED91FC910190F081E02D1E
:101CA000602F19958A859B85DC01ED91FC9101904F
:101CB000F081E02D612F1995DF91CF911F910F9148
:101CC0000C94CF0DCF92DF92EF92FF92CF93DF93E0
:101CD000823018F08BE992E00AC09091D106691722
:101CE00020F09091D206961750F48DEA92E0DF91A1
:101CF000CF91FF90EF90DF90CF900C94C10DE82F23
:101D0000F0E0E953F94FC089CC3008F072C0262FBB
:101D100030E0D0E085E08C9FF0018D9FF00D112424
:101D2000EE59F94F8381283C31059CF528E830E0D5
:101D30006901C81AD10887FDD394CC0CDD1CCC0CEA
:101D4000DD1C0D2C000CEE08FF08848128E532E034
:101D5000281B310987FD3395220F331F220F331FB4
:101D6000C901330FAA0BBB0B9C01AD012C193D0916
:101D70004E095F09A62FB0E00E945A1824EB30E00C
:101D800040E050E00E943B18C20ED31EE41EF51E38
:101D90001EC048E850E06A01C81AD10887FDD394F4
:101DA000CC0CDD1CCC0CDD1C2C153D0584F04481D5
:101DB00088E592E0841B910947FD9395880F991F50
:101DC000880F991F69018C159D050CF46C018FB764
:101DD000F89495E09C9FF0019D9FF00D1124EE5921
:101DE000F94F96E0C91AD108CC0CDD1CD282C18211
:101DF0008FBFDF91CF91FF90EF90DF90CF9008954C
:101E00003FB7F8948091A4079091A507A091A607E9
:101E1000B091A70726B5A89B05C02F3F19F00196E2
:101E2000A11DB11D3FBFBA2FA92F982F8827820F60
:101E3000911DA11DB11DBC01CD0142E0660F771FB0
:101E4000881F991F4A95D1F708951F920F920FB6D8
:101E50000F9211242F933F938F939F93AF93BF9330
:101E60008091A0079091A107A091A207B091A3072C
:101E700030919F0723E0230F2D3720F40196A11DF9
:101E8000B11D05C026E8230F0296A11DB11D2093A8
:101E90009F078093A0079093A107A093A207B093F8
:101EA000A3078091A4079091A507A091A607B091E0
:101EB000A7070196A11DB11D8093A4079093A507C4
:101EC000A093A607B093A707BF91AF919F918F9161
:101ED0003F912F910F900FBE0F901F901895CF93A9
:101EE000DF93CDB7DEB728970FB6F894DEBF0FBEED
:101EF000CDBF789484B5826084BD84B5816084BD93
:101F000085B5826085BD85B5816085BD80916E0097
:101F1000816080936E0010928100809181008260C8
:101F20008093810080918100816080938100809105
:101F300080008160809380008091B10084608093F4
:101F4000B1008091B00081608093B00080919100D9
:101F500082608093910080919100816080939100D4
:101F6000809190008160809390008091A1008260B8
:101F70008093A1008091A10081608093A100809155
:101F8000A00081608093A0008091210182608093F5
:101F900021018091210181608093210180912001A4
:101FA00081608093200180917A00846080937A0020
:101FB00080917A00826080937A0080917A008160BB
:101FC00080937A0080917A00806880937A001092E2
:101FD000C100E0910305F091040582E08083E09167
:101FE000FF04F09100051082E0910105F0910205D7
:101FF0008FEC808310920B05E0910705F0910805A6
:1020000086E08083E0910505F0910605808180617E
:102010008083E0910505F0910605808188608083CA
:10202000E0910505F0910605808180688083E0914C
:102030000505F091060580818F7D808361E08091A8
:10204000A7060E941A0D60E08091A7060E94EB0C83
:1020500060E08091A6060E941A0D8DEA93E09093AD
:10206000B1068093B0061092F8021092F702109217
:102070008A031092AC031092880381E08093870357
:102080001092620361E084E10E94EB0C61E085E163
:102090000E94EB0C8091B9008E7F8093B9008091F3
:1020A000B9008D7F8093B90088E48093B80085E4FF
:1020B0008093BC0084E499E09093FA028093F90243
:1020C00085E499E09093FC028093FB0280E090E12C
:1020D000A0E0B0E08093B3069093B406A093B50659
:1020E000B093B6068AE090E0A0E0B0E08093B70637
:1020F0009093B806A093B906B093BA0680E090E03A
:10210000A0E0B0E48093BB069093BC06A093BD060C
:10211000B093BE0660E070E185E00E942B0E6FE98F
:1021200079E380E00E942B0E86EA96E09A83898309
:102130008C0122E0722E38E8A32E32E0B32E4EEC52
:10214000842E42E0942E5BECE52E57E0F52ED8016C
:1021500014969C91149712968C91E981FA81818F43
:10216000928F61E00E941A0D61E0A981BA815A96AE
:102170008C910E941A0DF80190858681C980DA80C1
:10218000FDE1CF0ED11CA981BA815D968C935D973C
:102190005E969C9361E00E941A0D60E0E981FA81ED
:1021A000868D0E941A0D61E0A981BA815D968C919D
:1021B0000E94EB0C6FB6F8948091CA02811126C080
:1021C000F5018491F4012491E82FF0E0EE0FFF1F58
:1021D000EB5FFD4FA591B4919C91822F892321F44F
:1021E00061E085E30E94EB0C61E085E30E941A0D3B
:1021F0008CB580618CBD8CB580648CBD61E084E35E
:102200000E941A0D61E083E30E941A0D8091CA02B8
:102210008F5F8093CA026FBEC7010197F1F760E03C
:10222000A981BA815D968C910E94EB0C88E80E948E
:10223000AD0783E00E94AD0761E0E981FA81858DF9
:102240000E94EB0CC7010197F1F7C6010E94B40789
:102250007A940F5F1F4F89819A8102969A838983AE
:10226000711075CFABECB6E0BA83A9830FEC16E022
:1022700060E0E981FA818191FA83E9830E941A0D75
:1022800089819A818F5C964099F7E7ECF6E0FA83B2
:10229000E98381EDC82E86E0D82E7801FFEFEF1A92
:1022A000FF0AD8016C9170E0C80108960E94AA0646
:1022B000F70195818381A981BA8152968C935297B7
:1022C00053969C9360E00E941A0D61E0E981FA81C7
:1022D00083890E941A0D60E0A981BA8153968C917E
:1022E0000E94EB0CE981FA813296FA83E983870137
:1022F000CE14DF0491F6F8941092200189E08093C7
:10230000210180E293E090932901809328011092AB
:1023100025011092240182E08093730078948093C9
:102320009005109294058091910560E00E941A0D2D
:102330000E94E30860E08FE20E941A0D64EF71E0F2
:1023400080E090E00E94750D83E492E00E94C10D50
:102350008091CE060E94C20C892B39F464E670E0AD
:1023600080E090E00E94750DF3CF68E873E180E0B3
:1023700090E00E94750D11E005E00E94E3080E94C4
:10238000B4082CEC3CEC4CE85FE30E94BF1987FFDB
:102390000BC00E94B4082DEC3CEC4CE650E40E94CB
:1023A000BF1987FD43C00BC00E94B40820E030E095
:1023B00040EC5FE30E94171718165CF4EACF0E9406
:1023C000B40823E333E343E850E40E9417171816D8
:1023D0006CF11093D3020E94B40829E939E949E16C
:1023E00050E40E94BF1987FF0BC00E94B4082DEC77
:1023F0003CEC4CE650E40E94BF1987FD5BC00BC06B
:102400000E94B40823E333E343E350E40E94171728
:1024100018167CF4EACF0E94B40823E333E343E8C0
:1024200050E40E941717181624F444C01092D302E7
:10243000D2CF1093D7020E94850827ED33EA40EDF2
:102440005FE30E94BF1987FF0BC00E94850828E741
:102450003EEB4FED5EE30E94BF1987FF0CC015C035
:102460000E94850825E83BEE41E050E40E941717E2
:1024700018161CF5EACF0E94850822EA35E446E5E5
:102480005FE30E9417171816C4F40E9485082DEC0C
:102490003CEC4CE45EEB0E94BF1987FD4FC00E94EC
:1024A00085082DEC3CEC4CE45EE30E9417171816EF
:1024B00024F444C01092D702BECF1093D4020E94DD
:1024C00085082DEC3CEC4CE45EEB0E94BF1987FFC5
:1024D0000BC00E94850828E73EEB4FED5EE30E94AB
:1024E000BF1987FF0CC015C00E9485082DEC3CEC7D
:1024F0004CE45EE30E94171718161CF5EACF0E9401
:10250000850822EA35E446E55FE30E9417171816AE
:10251000C4F40E9485082BE734E14EE050E40E94A9
:10252000BF1987FD4FC00E94850825E13EEA47E2BA
:1025300050E40E941717181624F444C01092D402D5
:10254000BECF1093D5020E9485082DEC3CEC4CE4E4
:102550005EEB0E94BF1987FF0BC00E9485082BE726
:1025600034E14EE050E40E94BF1987FF0CC015C053
:102570000E9485082DEC3CEC4CE45EE30E941717AA
:1025800018161CF5EACF0E94850825E13EEA47E2CD
:1025900050E40E9417171816C4F40E94850827E417
:1025A00031EE4AE550E40E94BF1987FD4FC20E94F8
:1025B000850821EE3AE744E750E40E941717181601
:1025C00024F444C21092D502BECF1093D60260917B
:1025D000D30283EF94E00E946F0287E492E00E94AE
:1025E000AF0D8091CD060E94C20C892B09F4C6C0A4
:1025F0000E945608812C912C54018DEC9CECACE48B
:10260000BEEB89839A83AB83BC83C12CD12C76012A
:1026100049815A816B817C81705881EC96E00E94DF
:1026200090054DEC5CEC6CE47EE38FEB96E00E9451
:1026300090056AE070E080E090E00E94750D83EC08
:1026400096E00E94DF072B013C0185EC96E00E949A
:10265000DF076D837E838F83988766277727CB017B
:1026600064197509860997090E941E172B013C0100
:10267000C701B6010E941E179B01AC01C301B20144
:102680000E94AB180E9489196B017C016D817E81CB
:102690008F8198850E941E172B013C01C501B40152
:1026A0000E941E179B01AC01C301B2010E94AB182E
:1026B0000E9489194B015C0183EC96E00E94DF07C0
:1026C0002B013C0185EC96E00E94DF076D837E8341
:1026D0008F83988766277727CB0164197509860948
:1026E00097090E941E172B013C016D817E818F810D
:1026F00098850E941E179B01AC01C301B2010E9484
:10270000AB1829E832ED4EE55AE30E947D172B0104
:102710003C01C701B601680D791D8A1D9B1D0E94F1
:102720001E172CEA35EC47E258E30E947D1720E0A3
:1027300030E0A9010E94AB189B01AC01C301B201BA
:102740000E94AB1829813A814B815C810E94AA18B2
:102750002B013C010E945608D301C201B058898365
:102760009A83AB83BC8398EDC91696E0D906E10441
:10277000F1040CF44DCF0E94660825C1A3EDB2E030
:10278000E2E0AA34BE0759F0F2E0A035BF0739F005
:1027900022E0A635B20719F0AC55B240E9F42DECB1
:1027A0003CEC4CEC5DE36091000270910102809181
:1027B0000202909103020E94AB18AB01BC01705859
:1027C00081EC96E00E9490054AE959E969E97EE3C7
:1027D0008FEB96E00E949005A3EDB2E0E2E0A23616
:1027E000BE0759F0F2E0A836BF0739F022E0AE3656
:1027F000B20719F0A457B240B1F4409100025091D1
:1028000001026091020270910302705881EC96E01F
:102810000E9490054DEC5CEC6CEC7EE38FEB96E057
:102820000E949005D0C04AE959E969E97EE38FEB3F
:1028300096E00E9490058091000290910102A09183
:102840000202B091030289839A83AB83BC83AC01FB
:10285000BD01705881EC96E00E94900562E370E043
:1028600080E090E00E94750D83EC96E00E94DF0707
:102870006B017C0185EC96E00E94DF074B015C0157
:102880006091CF027091D0028091D1029091D202DA
:102890000E941E172B013C0166277727CB016C197C
:1028A0007D098E099F090E941E179B01AC01C3017F
:1028B000B2010E94AB180E9489196B017C016093E0
:1028C000CF027093D0028093D1029093D202609194
:1028D000CB027091CC028091CD029091CE020E94E9
:1028E0001E172B013C01C501B4010E941E179B015C
:1028F000AC01C301B2010E94AB180E9489192B01DF
:102900003C016093CB027093CC028093CD029093F4
:10291000CE0283EC96E00E94DF074B015C0185EC60
:1029200096E00E94DF076D837E838F8398876627FA
:102930007727CB01681979098A099B090E941E171C
:102940004B015C016D817E818F8198850E941E17ED
:102950009B01AC01C501B4010E94AA1829E832ED1F
:102960004EE55AE30E947D174B015C01C701B60199
:1029700064197509860997090E941E172CEA35EC1F
:1029800047E258E30E947D1720E030E0A9010E9451
:10299000AB189B01AC01C501B4010E94AB182981A1
:1029A0003A814B815C810E94AB186B017C010E94D3
:1029B0005608C0920002D0920102E0920202F09208
:1029C00003020E9456088FE20E94C20C0197A9F5EB
:1029D0008FE20E94C20C0E9466080E94440864E6CE
:1029E00070E080E090E00E94750D6AE580E00E9452
:1029F000620E66E481E00E94620E64EF71E080E0A6
:102A000090E00E94750DE091D7060E9FF001112411
:102A1000EE59F94F80818F7B8083E091D8060E9F1D
:102A2000F0011124EE59F94F80818F7B808360E1A2
:102A300077E280E090E00E94750D6AE070E080E04F
:102A400090E00E94750D0E94E10297CC1092D60290
:102A5000BECD80919F069091A0060C94611A1092B1
:102A6000B0031092AF0388EE93E0A0E0B0E0809353
:102A7000B1039093B203A093B303B093B40327E1DF
:102A800032E03093AE032093AD031092BC0310925A
:102A9000BB038093BD039093BE03A093BF03B09389
:102AA000C00329E232E03093BA032093B90345E32F
:102AB00051E05093C6034093C50344E351E0509363
:102AC000C8034093C70340E351E05093CA034093C7
:102AD000C90341E351E05093CC034093CB0342E35D
:102AE00051E05093CE034093CD0346E351E0509321
:102AF000D0034093CF031092D2031092D3031092CD
:102B0000D4031092D5031092590410925804809364
:102B10005A0490935B04A0935C04B0935D043093DB
:102B200057042093560445ED50E0509363044093BE
:102B3000620444ED50E0509365044093640440ED1A
:102B400050E0509367044093660441ED50E0509389
:102B500069044093680442ED50E050936B04409345
:102B60006A0446ED50E050936D0440936C0410925B
:102B70006F041092700410927104109272041092FB
:102B8000F6041092F5048093F7049093F804A09350
:102B9000F904B093FA043093F4042093F30485EC21
:102BA00090E0909300058093FF0484EC90E0909374
:102BB00002058093010580EC90E0909304058093DA
:102BC000030581EC90E0909306058093050582EC67
:102BD00090E0909308058093070586EC90E0909331
:102BE0000A058093090510920C0510920D051092AC
:102BF0000E0510920F0580910B0290910C02A0918E
:102C00000D02B0910E028093C7069093C806A09360
:102C1000C906B093CA0680910F0290911002A0914C
:102C20001102B09112028093CB069093CC06A09330
:102C3000CD06B093CE0684E08093CF0687E08093E4
:102C4000D0061092D10684EB8093D20686E1809361
:102C5000D30688E18093D40687E18093D50689E185
:102C60008093D606E0919E06EC3020F08FEF8093A3
:102C7000D70610C081E08E0F80939E06E093D706A2
:102C800085E0E89FF0011124EE59F94F88EB9BE0B5
:102C900092838183E0919E06EC3020F08FEF809349
:102CA000D80610C081E08E0F80939E06E093D80670
:102CB00085E0E89FF0011124EE59F94F88EB9BE085
:102CC000928381838CE08093A60684E28093A7069A
:102CD00086E08093A80685E08093A9068FE1809323
:102CE000AA068EE18093AB0683E28093AC0682E273
:102CF0008093AD0685E48093AE0684E48093AF06AE
:102D000080E48093B2061092B7061092B806109233
:102D1000B9061092BA061092BB061092BC06109229
:102D2000BD061092BE06E1EEF6E02FE937E08FEF28
:102D30009FEFDC01128213821482158216821782A1
:102D40001086118683879487A587B6878787908B9F
:102D5000A18BB28B12861182108273962E173F07B9
:102D600049F78DE090E00E94C919FC01138212829C
:102D70008BE392E091838083118687E2848384E1F0
:102D8000828784E083871486F093DE06E093DD0675
:102D90001092DF061092E00685E280939105109272
:102DA00093051092A00610929F061092A206109210
:102DB000A1061092A4061092A30661E070E080E0E4
:102DC00090E00E94EA1A009789F09093A006809301
:102DD0009F061092A2061092A1062091A3063091A0
:102DE000A406232BC1F4FC01108215C080919F061C
:102DF0009091A006009711F00E94611A1092A0060F
:102E000010929F061092A4061092A3061092A2069A
:102E10001092A10608951092A4061092A30669E4E8
:102E200072E080919F069091A0060C94DD1B0E9499
:102E3000591708F481E00895E89409C097FB3EF41F
:102E400090958095709561957F4F8F4F9F4F9923F7
:102E5000A9F0F92F96E9BB279395F6958795779575
:102E60006795B795F111F8CFFAF4BB0F11F460FF35
:102E70001BC06F5F7F4F8F4F9F4F16C0882311F08D
:102E800096E911C0772321F09EE8872F762F05C0A1
:102E9000662371F096E8862F70E060E02AF09A953C
:102EA000660F771F881FDAF7880F9695879597F931
:102EB0000895990F0008550FAA0BE0E8FEEF1616CB
:102EC0001706E807F907C0F012161306E407F5071E
:102ED00098F0621B730B840B950B39F40A2661F092
:102EE000232B242B252B21F408950A2609F4A14035
:102EF000A6958FEF811D811D08950E9490170C9457
:102F000001180E94F31738F00E94FA1720F0952359
:102F100011F00C94EA170C94F01711240C94351846
:102F20000E94121870F3959FC1F3950F50E0551F42
:102F3000629FF001729FBB27F00DB11D639FAA270E
:102F4000F00DB11DAA1F649F6627B00DA11D661F5D
:102F5000829F2227B00DA11D621F739FB00DA11D7E
:102F6000621F839FA00D611D221F749F3327A00D38
:102F7000611D231F849F600D211D822F762F6A2FD4
:102F800011249F5750409AF0F1F088234AF0EE0F39
:102F9000FF1FBB1F661F771F881F91505040A9F766
:102FA0009E3F510580F00C94EA170C9435185F3F52
:102FB000E4F3983ED4F3869577956795B795F795A2
:102FC000E7959F5FC1F7FE2B880F911D969587951A
:102FD00097F9089597F99F6780E870E060E0089599
:102FE0009FEF80EC089500240A9416161706180621
:102FF0000906089500240A941216130614060506FD
:103000000895092E0394000C11F4882352F0BB0F8D
:1030100040F4BF2B11F460FF04C06F5F7F4F8F4FF0
:103020009F4F089557FD9058440F551F59F05F3F2B
:1030300071F04795880F97FB991F61F09F3F79F0DA
:1030400087950895121613061406551FF2CF46955C
:10305000F1DF08C0161617061806991FF1CF8695DE
:103060007105610508940895E894BB2766277727C2
:10307000CB0197F90895052E97FB1EF400940E944A
:10308000521857FD07D00E94651807FC03D04EF474
:103090000C94521850954095309521953F4F4F4FC5
:1030A0005F4F089590958095709561957F4F8F4FF4
:1030B0009F4F08950E948718A59F900DB49F900D73
:1030C000A49F800D911D11240895A1E21A2EAA1B20
:1030D000BB1BFD010DC0AA1FBB1FEE1FFF1FA217C8
:1030E000B307E407F50720F0A21BB30BE40BF50BC5
:1030F000661F771F881F991F1A9469F7609570954E
:10310000809590959B01AC01BD01CF010895A29FD0
:10311000B001B39FC001A39F700D811D1124911DAB
:10312000B29F700D811D1124911D0895991B79E0A6
:1031300004C0991F961708F0961B881F7A95C9F747
:1031400080950895EE0FFF1F881F8BBF0790F691A3
:10315000E02D19945058BB27AA270E94C2180C943E
:1031600001180E94F31738F00E94FA1720F039F482
:103170009F3F19F426F40C94F0170EF4E095E7FB4A
:103180000C94EA17E92F0E94121858F3BA17620735
:1031900073078407950720F079F4A6F50C9434188A
:1031A0000EF4E0950B2EBA2FA02D0B01B901900162
:1031B0000C01CA01A0011124FF27591B99F0593FA6
:1031C00050F4503E68F11A16F040A22F232F342FEE
:1031D0004427585FF3CF469537952795A795F0403C
:1031E0005395C9F77EF41F16BA0B620B730B840B51
:1031F000BAF09150A1F0FF0FBB1F661F771F881F09
:10320000C2F70EC0BA0F621F731F841F48F4879560
:1032100077956795B795F7959E3F08F0B0CF939552
:10322000880F08F09927EE0F9795879508950E94CB
:103230002B190C9401180E94FA1758F00E94F317EA
:1032400040F029F45F3F29F00C94EA1751110C94D7
:1032500035180C94F0170E94121868F39923B1F3F3
:10326000552391F3951B550BBB27AA2762177307AC
:10327000840738F09F5F5F4F220F331F441FAA1F40
:10328000A9F335D00E2E3AF0E0E832D091505040FC
:10329000E695001CCAF72BD0FE2F29D0660F771FAA
:1032A000881FBB1F261737074807AB07B0E809F090
:1032B000BB0B802DBF01FF2793585F4F3AF09E3F15
:1032C000510578F00C94EA170C9435185F3FE4F33D
:1032D000983ED4F3869577956795B795F7959F5F58
:1032E000C9F7880F911D9695879597F90895E1E0A4
:1032F000660F771F881FBB1F621773078407BA0703
:1033000020F0621B730B840BBA0BEE1F88F7E0955D
:1033100008950E9490196894B1110C94351808957D
:103320000E941A1888F09F5798F0B92F9927B75123
:10333000B0F0E1F0660F771F881F991F1AF0BA9559
:10334000C9F714C0B13091F00E943418B1E008956B
:103350000C943418672F782F8827B85F39F0B93F5D
:10336000CCF3869577956795B395D9F73EF490950C
:103370008095709561957F4F8F4F9F4F08950E9464
:10338000591708F48FEF08950E945917880B990B6D
:1033900008950F931F93CF93DF938230910510F41C
:1033A00082E090E0E091AA07F091AB0720E030E0E6
:1033B000A0E0B0E0309719F1408151810281138182
:1033C00048175907C8F08417950769F4109731F02A
:1033D00012960C93129713961C9327C00093AA077A
:1033E0001093AB0722C02115310519F0421753077E
:1033F00018F49A01BD01EF01DF01F801DBCF2115BF
:103400003105F9F0281B390B2430310580F48A810D
:103410009B816115710521F0FB019383828304C0B8
:103420009093AB078093AA07FE01329644C0FE0139
:10343000E20FF31F8193919322503109398328833E
:103440003AC02091A8073091A907232B41F420917D
:103450000702309108023093A9072093A807209112
:103460000502309106022115310541F42DB73EB712
:103470004091090250910A02241B350BE091A807E4
:10348000F091A907E217F307A0F42E1B3F0B2817B2
:10349000390778F0AC014E5F5F4F2417350748F0CD
:1034A0004E0F5F1F5093A9074093A80781939193F4
:1034B00002C0E0E0F0E0CF01DF91CF911F910F91CA
:1034C0000895CF93DF93009709F481C0FC013297F0
:1034D00013821282A091AA07B091AB07109781F4D2
:1034E00020813181820F931F2091A8073091A90775
:1034F0002817390751F5F093A907E093A80767C08B
:10350000ED0120E030E0CE17DF0740F44A815B8117
:103510009E0141155105F1F0EA01F5CFD383C28335
:1035200040815181840F951FC817D90759F48881AC
:103530009981840F951F0296918380838A819B8154
:10354000938382832115310529F4F093AB07E0932F
:10355000AA073DC0E901FB83EA8349915991C40F51
:10356000D51FEC17FD0761F480819181840F951FB1
:103570000296E90199838883828193819B838A8360
:10358000E0E0F0E012968D919C911397009719F06E
:10359000FD01DC01F7CF8D919C9111979D012E5F6C
:1035A0003F4F820F931F2091A8073091A90728173A
:1035B000390769F4309729F41092AB071092AA07E3
:1035C00002C013821282B093A907A093A807DF91CB
:1035D000CF9108956F927F928F929F92AF92BF92F8
:1035E000CF92DF92EF92FF920F931F93CF93DF93CF
:1035F000009789F4CB01DF91CF911F910F91FF903C
:10360000EF90DF90CF90BF90AF909F908F907F9082
:103610006F900C94C919FC01E60FF71F9C01225012
:103620003109E217F30708F4A9C0EC01D9010D91A3
:103630001C91119706171707B0F00530110508F413
:103640009BC0C80104978617970708F495C00250DD
:103650001109061B170B019311936D937C93CF01F6
:103660000E94611A89C05B01A01AB10A4C01800E48
:10367000911EA091AA07B091AB07612C712CE12C8F
:10368000F12C109709F446C08D919C911197A815C3
:10369000B905B1F56C0142E0C40ED11CCA14DB04BB
:1036A00078F14C018A189B08640142E0C40ED11CD9
:1036B0001296BC9012971396AC91B5E0CB16D1043C
:1036C00040F0B282A38391828082D9016D937C9372
:1036D00009C00E5F1F4F800F911FF90191838083F6
:1036E000EB2DFA2FE114F10431F0D7011396FC937E
:1036F000EE93129741C0F093AB07E093AA073CC04A
:103700006816790608F43C017D0112960D90BC9173
:10371000A02DB7CF8091A8079091A9078816990688
:10372000E1F466167706C8F48091050290910602CE
:10373000009741F48DB79EB74091090250910A025B
:10374000841B950BE817F907C8F4F093A907E093D9
:10375000A807F901718360830FC0CB010E94C919CA
:103760007C01009759F0A801BE010E94D41BCE0134
:103770000E94611AC70104C0CE0102C080E090E03F
:10378000DF91CF911F910F91FF90EF90DF90CF903D
:10379000BF90AF909F908F907F906F90089581E041
:1037A00090E0F8940C94E41BFB01DC0102C0019052
:1037B0000D9241505040D8F70895FB01DC01019073
:1037C0000D920020E1F7089511E0C4E9D1E000E096
:1037D00006C0802FFE010E94A2182196011DC53946
:0C37E000D10780E00807A9F7F894FFCF9C
:1037EC009A99993EFF0000AC078000363738391B98
:1037FC001D1A1C000000009F0972090F0346096A7C
:10380C000956094709000000006F02C801F201BC0B
:10381C0002230201021502000000001403C8010F6C
:10382C00030E03474F21000D0A00313130303000B8
:10383C0031313130300030313130300031303030D6
:10384C0030003030303131003030313131003030F7
:10385C00313130003030303031004C612074656EC5
:10386C0073696F6E20657374206465203A20006E56
:10387C00616E00696E66006F766600496E76616CEB
:10388C00696420736572766F2069642100536572D8
:10389C00766F20616E676C65206973206F7574207C
:0A38AC006F662072616E67652100EF
:00000001FF
