:100000000C9491010C94C2010C94C2010C94C20195
:100010000C94C2010C94C2010C94C2010C94C20154
:100020000C94C2010C94A70C0C94A70C0C94A70C74
:100030000C94C2010C9472110C94C2010C94C20174
:100040000C94C2010C9404060C94C2010C94C201DD
:100050000C94C2010C94C2010C94C2010C9428119E
:100060000C94C2010C94E3120C94B9120C94C201CA
:100070000C94C2010C94C2010C94C2010C94C201F4
:100080000C94D6050C94C2010C94C2010C94C201CC
:100090000C94C2010C94C2010C94C2010C94B10CDA
:1000A0000C94C2010C94C2010C94A8050C94C201DA
:1000B0000C94C2010C94C2010C94C2010C947A05F8
:1000C0000C94C2010C94C2010C94C2010C948F12C6
:1000D0000C9465120C94C2010C943B120C941112F6
:1000E0000C94C201710376037B0385038F0308041C
:1000F0009903A103A903B303BD03C703D603E00318
:100100000804EA03F403FE03420E450E340E380ED3
:100110003E0E7C0E490E4D0E530E570E5B0E610EB9
:10012000650E690E7C0E6F0E730E770E0C948503B0
:100130000C94770E0C94CB010C94C7030C944D0EC9
:100140000C94E0030C946F0E0C947B030C94D20F70
:100150000C94420E0C943E0E0C94A1030C94320F9E
:100160000C94D6030C940D130C9408040C94490EB3
:100170000C944F0A0C941F0E0C9499030C944E0A85
:100180000C94450E0C94A9030C9413130C941E0F9D
:100190000C94F4030C9471030C94BD030C94CC01E7
:1001A0000C945B0E0C94610E0C94730E0C94570E11
:1001B0000C94650E0C9451100C94B3030C94211004
:1001C0000C947C0E0C940B0E0C9476030C94380E4D
:1001D0000C94FE030C94530E0C948F030C94340E69
:1001E0000C94EC020C948B0F0C94690E0C94CB0EB7
:1001F0000C94400F0C940F0F0C94EA0302000021A2
:1002000000240027002A002D0030003300010100E7
:1002100000040107010A0100002200250028002B2C
:10022000002E003100340002010000050108010B1E
:1002300001000020002300260029002C002F00329E
:10024000000001000003010601090105050505077D
:100250000508080808020202020A0A080804040441
:10026000040101010101010101030303030303036D
:1002700003040707070C0C0C0C0C0C0C0C020202FC
:100280000206060606060606060B0B0B0B0B0B0BEF
:100290000B0102102020080810204010204080028E
:1002A00001020108040201010204081020408080BC
:1002B0004020100804020180040201804020100840
:1002C0000402010804020101020408102040800118
:1002D0000204081020408000000A0B02090C0D0ED9
:1002E00008070304010000000000000000000000F7
:1002F00000000000000000000000000000000000FE
:1003000000000012111000000000000000000000BA
:1003100000000000000000000000000000001313B7
:100320000D1311241FBECFEFD1E2DEBFCDBF00E021
:100330000CBF12E0A0E0B2E0E4EBF7E300E00BBF9B
:1003400002C007900D92A037B107D9F726E0A0E7C9
:10035000B2E001C01D92A236B207E1F711E0C0E998
:10036000D1E000E006C021970109802FFE010E9424
:100370007618CF38D10780E00807A9F70E94BC148F
:100380000C94C81B0C9400008EBD00000DB407FE39
:10039000FDCF8EB50895089580E090E00895E0E0E7
:1003A000F0E01994CF93DF93EC0160E088810E9424
:1003B000821088E90E94C40180E00E94C40180E0AC
:1003C0000E94C40180E00E94C40180E00E94C40138
:1003D00061E088810E9482108BE891E00197F1F73B
:1003E00060E088810E94821080EE0E94C40161E07A
:1003F0008881DF91CF910C948210CF92DF92EF929F
:10040000FF920F931F93CF93DF936C018B017A01BF
:10041000EC01C757DD4F888187FF04C0FB011182C3
:10042000108224C08CE08C9D90018D9D300D112494
:100430008881A901480F511D87FD5A958091520569
:1004400090E04817590794F48881A901480F511D7D
:1004500087FD5A95CA01FA01EE0FFF1F8E0F9F1FED
:10046000FC01EE53FB4F808186FD19C088818F5FB0
:1004700088838CE08C9D90018D9D300D11248881A6
:10048000A901480F511D87FD5A958091520590E0B2
:1004900048175907BCF488818C3044F113C0888117
:1004A000280F311D87FD3A95F901EE0FFF1F2E0F22
:1004B0003F1FF901EE53FB4F808160E08F730E9474
:1004C0008210D4CFF80180819181049680349C49B8
:1004D00018F480E49CE904C0F801808191810496BD
:1004E000F701918380838FEF888345C0F8014081B5
:1004F00051818881B901680F711D87FD7A95CB0103
:10050000FB01EE0FFF1F8E0F9F1FFC01EE53FB4FF1
:1005100081819281840F951FF70191838083888167
:10052000A901480F511D87FD5A95CA01FA01EE0F26
:10053000FF1F8E0F9F1FFC01EE53FB4F808186FF34
:100540001AC08881280F311D87FD3A95F901EE0FF9
:10055000FF1F2E0F3F1FF901EE53FB4F808161E01B
:100560008F73DF91CF911F910F91FF90EF90DF90EC
:10057000CF900C948210DF91CF911F910F91FF903B
:10058000EF90DF90CF900895FC01248131E030930B
:10059000BB022093DD021092BC021092DE02848521
:1005A000682B8FED92E00E9451100C947D0A0F93FE
:1005B0001F93CF938C01C62F64600E94C4026C2FDE
:1005C0006B7FC8010E94C40283EC90E00197F1F7B1
:1005D000CF911F910F9108950F931F93CF93DF93A6
:1005E0008C01C62FD62FD07FD1606D2F0E94C40200
:1005F0006D2FC8010E94D70280E1C89FB00111246D
:10060000C62FC1606C2FC8010E94C4026C2FC801A4
:100610000E94D70281E090E0DF91CF911F910F916E
:1006200008958F929F92AF92BF92CF92DF92EF92F6
:10063000FF920F931F93CF93DF93EC016A017B012D
:1006400020E030E04FE753E4C701B6010E948A176B
:100650004B015C0120E030E0A9010E9493191816BB
:100660001CF4C501B40103C0C501B40190580E9437
:100670005D198B0120E030E0A901C701B6010E949D
:100680009319181614F460E001C061E089810E949A
:1006900082100F3F110509F014F4112702C00FEF6B
:1006A00010E0C88161E08C2F0E94B2100115110585
:1006B00009F4B1C00F3F110509F4AFC0EC2FF0E011
:1006C000E952FD4FE4914E2F50E0FA013197E231AB
:1006D000F10508F09DC08827EE58FF4F8F4F0C940E
:1006E000761884B5806884BD07BDA7C084B58062D4
:1006F00084BD08BDA2C08091800080688093800086
:10070000109389000093880098C0809180008062D7
:100710008093800010938B0000938A008EC080919C
:10072000800088608093800010938D0000938C007F
:1007300084C08091B00080688093B0000093B300C3
:100740007CC08091B00080628093B0000093B400C0
:1007500074C08091900080688093900010939900FD
:10076000009398006AC0809190008062809390000E
:1007700010939B0000939A0060C080919000886065
:100780008093900010939D0000939C0056C0809130
:10079000A00080688093A0008091A0008F7B809350
:1007A000A0001093A9000093A80047C08091A0006A
:1007B00080628093A0001093AB000093AA003DC01C
:1007C0008091A00088608093A0001093AD000093FA
:1007D000AC0033C080912001806880932001109389
:1007E00029010093280129C0809120018062809313
:1007F000200110932B0100932A011FC0809120013A
:1008000088608093200110932D0100932C0115C066
:100810000038110514F460E001C061E08C2FDF9115
:10082000CF911F910F91FF90EF90DF90CF90BF90ED
:10083000AF909F908F900C948210DF91CF911F9179
:100840000F91FF90EF90DF90CF90BF90AF909F906F
:100850008F900895AF92BF92CF92DF92EF92FF9266
:100860000F931F93CF93DF93CDB7DEB760970FB68B
:10087000F894DEBF0FBECDBF5C0160E0FC0180815B
:100880000E94821080E60E94C4018E010F5F1F4FFC
:100890007E01F1E1EF0EF11C680180E00E94C401CD
:1008A00090E0A0E0B0E0F60181939193A193B19321
:1008B0006F01EE15FF0589F761E0F50180810E9467
:1008C000821080E090E0DC01F8014191519161914A
:1008D00071918F01BA2FA92F982F8827840F951F08
:1008E000A61FB71FEE15FF0579F79C01AD0166271E
:1008F0007727CB01621B730B840B950B60960FB6A9
:10090000F894DEBF0FBECDBFDF91CF911F910F9145
:10091000FF90EF90DF90CF90BF90AF9008950F932E
:100920001F93CF93DF93EC01862F6883498361E0A7
:100930000E94B21060E089810E94B21061E088815B
:100940000E9482101FB7F89480918D02811127C0F8
:10095000E0E8F2E09491E6ECF2E08491E92FF0E037
:10096000EE0FFF1FE350FE4FA591B491EC91E823E9
:1009700021F461E085E30E94821061E085E30E943A
:10098000B2108CB580618CBD8CB580648CBD61E08B
:1009900084E30E94B21061E083E30E94B210809170
:1009A0008D028F5F80938D021FBF0BEC17E0C80193
:1009B0000197F1F760E088810E94821088E80E9428
:1009C000C40183E00E94C40161E088810E9482101A
:1009D000C8010197F1F7CE01DF91CF911F910F91DF
:1009E0000C94D2011F93CF93DF93EC01162F8881D3
:1009F000803308F04EC061E0812F0E94B2108881E0
:100A0000E82FF0E09F01220F331FE20FF31FEE5398
:100A1000FB4F1F739081907C192B108319821A82CF
:100A20006CE00E946A189CE0899FB001112440E0AC
:100A300050E09A01260F371FF901EE0FFF1F2E0F0E
:100A40003F1FF901EE53FB4F908196FD16C04F5F9B
:100A50005F4F4C30510569F7813001F510928000ED
:100A600082E0809381001092850010928400B19AF8
:100A700080916F00826080936F00E881F0E0CF0189
:100A8000880F991FE80FF91FEE53FB4F8081806498
:100A900080838881DF91CF911F910895823061F426
:100AA0001092900080939100109295001092940003
:100AB00088BB80937100E1CF833069F41092A0006D
:100AC00082E08093A1001092A5001092A40089BB3F
:100AD00080937200D2CF8111D0CF1092200182E09A
:100AE0008093210110922501109224018ABB8093EA
:100AF0007300C3CF1F920F920FB60F9211240BB643
:100B00000F922F933F934F935F936F937F938F93A6
:100B10009F93AF93BF93EF93FF9348E251E064E25A
:100B200071E080E090E00E94FD01FF91EF91BF91A4
:100B3000AF919F918F917F916F915F914F913F9175
:100B40002F910F900BBE0F900FBE0F901F90189516
:100B50001F920F920FB60F9211240BB60F922F9384
:100B60003F934F935F936F937F938F939F93AF9335
:100B7000BF93EF93FF9348EA50E064EA70E083E0AC
:100B800090E00E94FD01FF91EF91BF91AF919F9185
:100B90008F917F916F915F914F913F912F910F9026
:100BA0000BBE0F900FBE0F901F9018951F920F92C3
:100BB0000FB60F9211240BB60F922F933F934F93C2
:100BC0005F936F937F938F939F93AF93BF93EF93B5
:100BD000FF9348E950E064E970E082E090E00E9411
:100BE000FD01FF91EF91BF91AF919F918F917F9107
:100BF0006F915F914F913F912F910F900BBE0F908E
:100C00000FBE0F901F9018951F920F920FB60F9264
:100C100011240BB60F922F933F934F935F936F93D3
:100C20007F938F939F93AF93BF93EF93FF9348E886
:100C300050E064E870E081E090E00E94FD01FF91E7
:100C4000EF91BF91AF919F918F917F916F915F9144
:100C50004F913F912F910F900BBE0F900FBE0F90B1
:100C60001F90189580EB92E00E942A0480EB92E09E
:100C70000E94D20182EB92E00E942A0482EB92E071
:100C80000C94D2014F925F926F927F928F929F92BB
:100C9000AF92BF92CF92DF92EF92FF920F931F938A
:100CA000CF93DF93CDB7DEB72C970FB6F894DEBFA6
:100CB0000FBECDBF6D837E838F83988749015A0114
:100CC0006701780180EB92E00E942A042B013C012D
:100CD00082EB92E00E942A0469837A838B839C834F
:100CE00066277727CB0164197509860997090E9441
:100CF0002B172B013C0169817A818B819C810E9499
:100D00002B179B01AC01C301B2010E947E1829E898
:100D100032ED4EE55AE30E948A172B013C01C501D2
:100D2000B4016C197D098E099F090E942B172CEACA
:100D300035EC47E258E30E948A1720E030E0A90131
:100D40000E947F189B01AC01C301B2010E947F1871
:100D50002D813E814F8158850E947F1869877A874F
:100D60008B879C870E94320669857A858B859C8556
:100D70002C960FB6F894DEBF0FBECDBFDF91CF919A
:100D80001F910F91FF90EF90DF90CF90BF90AF90A9
:100D90009F908F907F906F905F904F90089540E06C
:100DA00050E0BA0184EB92E00E94110340E050E071
:100DB00060E070E886EB92E00E94110380EB92E025
:100DC0000E942A0480EB92E00E94D20182EB92E022
:100DD0000E942A0482EB92E00C94D2018F929F929F
:100DE000AF92BF92CF92DF92EF92FF920F931F9339
:100DF000CF93DF9300D01F92CDB7DEB77A0169831E
:100E00007A838B839C830E94320620E030E044EB9F
:100E100053E469817A818B819C810E94EB189B014C
:100E2000AC010E947F182BED3FE049E450E40E94A2
:100E30008A1720E030E048E951E40E948A1720E058
:100E400030E048EC52E40E94EB184B015C010E9438
:100E50006D0B23E535EB47E75EE3C501B4010E9466
:100E6000EB1820E030E048E455E40E948A170E9425
:100E70005D198B0104561109EA94EF28E9F5C501C3
:100E8000B4010E946D0B6801110FEE08FF0880EBA2
:100E900092E00E942A049B01AC0188279927DC017B
:100EA000821B930BA40BB50B8C159D05AE05BF05DE
:100EB0008CF440E050E060E070E886EB92E00E9445
:100EC00011034AE959E969E97EE384EB92E00E9463
:100ED0001103DDCF0F900F900F900F90DF91CF9106
:100EE0001F910F91FF90EF90DF90CF90BF90AF9048
:100EF0009F908F900C94CF066801110FEE08FF08A9
:100F000082EB92E00E942A046C157D058E059F05F8
:100F10000CF740E050E0BA0184EB92E00E9411032C
:100F20004AE959E969E97EEB86EB92E00E941103F8
:100F3000E7CF4F925F926F927F928F929F92AF9284
:100F4000BF92CF92DF92EF92FF920F931F93CF93B6
:100F5000DF93CDB7DEB760970FB6F894DEBF0FBE54
:100F6000CDBF23E535EB47E75EE30E94EB1820E0B9
:100F700030E048E455E40E948A170E945D196987B1
:100F80007A878B879C8719821A821B821C82412C4C
:100F9000512C32018AE0882E87ED982E83E2A82E0C
:100FA0008CE3B82E8D829E82AF82B88689859A8521
:100FB000AB85BC85481659066A067B060CF08DC0C9
:100FC0004D815E816F81788584EB92E00E941103F0
:100FD000B501A401705886EB92E00E94110362E310
:100FE00070E080E090E00E94EE1080EB92E00E94C2
:100FF0002A046D877E878F87988B82EB92E00E9410
:101000002A046B017C01C301B2010E942B172B0142
:101010003C016D857E858F8598899095809570952A
:1010200061957F4F8F4F9F4F0E942B179B01AC0103
:10103000C301B2010E947F180E945D192B013C017F
:1010400069817A818B819C810E942B1769837A83C5
:101050008B839C83C701B6010E942B179B01AC01B7
:1010600069817A818B819C810E947F180E945D1921
:1010700069837A838B839C837B018C01A30192011A
:10108000C501B4010E9442064B015C010E94320678
:101090002DEC3CEC4CEC5EE36D817E818F8198857C
:1010A0000E94241787FF82CF2FE832EC45EF5CE3E4
:1010B0006D817E818F8198850E947F186D837E83EC
:1010C0008F8398872FE832EC45EF5CE3C501B401CC
:1010D0000E947F184B015C0169CF0E94CF0664E635
:1010E00070E080E090E060960FB6F894DEBF0FBE2F
:1010F000CDBFDF91CF911F910F91FF90EF90DF90C7
:10110000CF90BF90AF909F908F907F906F905F90A7
:101110004F900C94EE104F925F926F927F928F924D
:101120009F92AF92BF92CF92DF92EF92FF920F9376
:101130001F93CF93DF93CDB7DEB764970FB6F894C4
:10114000DEBF0FBECDBF23E535EB47E75EE30E9470
:10115000EB1820E030E048E455E40E948A170E9432
:101160005D199B01AC0139514109510929873A8721
:101170004B875C871D821E821F82188619821A8205
:101180001B821C828AE0882E87ED982E83E2A82E8F
:101190008CE3B82E2401350189819A81AB81BC8111
:1011A00029853A854B855C8582179307A407B50787
:1011B0000CF08BC0B301A20184EB92E00E941103FA
:1011C000B501A401705886EB92E00E94110362E31E
:1011D00070E080E090E00E94EE1080EB92E00E94D0
:1011E0002A046D877E878F87988B82EB92E00E941E
:1011F0002A04698B7A8B8B8B9C8B69817A818B819A
:101200009C810E942B176B017C016D857E858F85EB
:10121000988990958095709561957F4F8F4F9F4FDE
:101220000E942B179B01AC01C701B6010E947F18D9
:101230000E945D1969837A838B839C836D817E8193
:101240008F8198850E942B176B017C0169897A89AF
:101250008B899C890E942B179B01AC01C701B601A9
:101260000E947F180E945D196D837E838F8398870B
:101270007B018C0129813A814B815C81C501B401DC
:101280000E9442064B015C010E9432062DEC3CECB0
:101290004CE45FE3C301B2010E94241787FF7CCFB7
:1012A0002FE832EC45EF5CE3C301B2010E947F18E6
:1012B0002B013C012FE832EC45EF5CE3C501B401A2
:1012C0000E947F184B015C0167CFB7FF10C08DE211
:1012D0000E94210B69817A818B819C8190958095F8
:1012E000709561957F4F8F4F9F4F4AE005C04AE050
:1012F00069817A818B819C810E942C0B87E392E02B
:101300000E945D0A1D821E821F82188619821A821F
:101310001B821C8280EB92E00E942A0469877A87F4
:101320008B879C8782EB92E00E942A046D877E87E0
:101330008F87988B69817A818B819C810E942B1782
:101340006B017C0169857A858B859C85909580955C
:10135000709561957F4F8F4F9F4F0E942B179B0178
:10136000AC01C701B6010E947F180E945D19698314
:101370007A838B839C836D817E818F8198850E9487
:101380002B176B017C016D857E858F8598890E9466
:101390002B179B01AC01C701B6010E947F180E9468
:1013A0005D196D837E838F8398877B018C012981F2
:1013B0003A814B815C81C501B4010E9442064B0118
:1013C0005C010E94320620E030E040E85EE3C301A9
:1013D000B2010E94931918160CF52DEC3CEC4CE46C
:1013E0005DE3C301B2010E947E182B013C012DEC8C
:1013F0003CEC4CE45DE3C501B4010E947E184B0156
:101400005C01B301A20184EB92E00E941103B501DB
:10141000A401705886EB92E00E94110364E670E02C
:1014200080E090E00E94EE108AE392E00E945D0A64
:10143000C301B2010E946D0B89819A81AB81BC818D
:1014400081309941A105B1050CF464CF0E94CF060B
:101450006AE070E080E090E064960FB6F894DEBF3A
:101460000FBECDBFDF91CF911F910F91FF90EF90F5
:10147000DF90CF90BF90AF909F908F907F906F90B4
:101480005F904F900C94EE1085ED8093BC0080919E
:10149000BC0084FDFCCF1092BA020895089581E04B
:1014A00090E03091AF022091AE02321710F480E04C
:1014B00090E09195819591090895009769F0FC015C
:1014C00001900020E9F73197AF01481B590BBC018F
:1014D00085E294E00C94CB0E80E090E00895CF93E9
:1014E000DF930E945D0AEC0187E392E00E945D0AAF
:1014F0008C0F9D1FDF91CF9108952091DE02909176
:10150000DD02213208F04AC08091BA028111FCCF7D
:1015100032E03093BA0231E03093B9023FEF3093BA
:1015200047061092460620934506ADEBB2E045E231
:1015300056E0FA013E2F341B321718F43D913193D7
:10154000F9CF1092240620912406990F922B9093A4
:1015500024069091B802913061F41092B8029091F3
:1015600024069093BB009091BC0093FDF8CF95ECBE
:1015700001C095EE9093BC009091BA029230E1F3D5
:10158000909147069F3F79F080914706803241F065
:1015900080914706803331F084E005C081E003C0CC
:1015A00082E001C083E01092BC021092DE02109231
:1015B000BB020895EF92FF921F93CF93DF931F9288
:1015C000CDB7DEB7162F9EEBE92E95E0F92ED701A9
:1015D0001C969C911C9721E02093BB029093DD0206
:1015E0001092BC021092DE021A960D90BC91A02DB2
:1015F000ED91FC9111970190F081E02D682FCD01C4
:1016000079831995F70182859385DC01ED91FC9131
:101610000190F081E02D7981672F1995F70182857E
:101620009385DC01ED91FC910190F081E02D612F1B
:1016300019950F90DF91CF911F91FF90EF900C942F
:101640007D0AE0912504F09126040190F081E02DBF
:10165000682F85E294E019948F929F92AF92BF9287
:101660000F931F93CF93DF93CDB7DEB7A1970FB63C
:10167000F894DEBF0FBECDBF19A2423008F44AE095
:101680008E010F5D1F4F842E912CA12CB12CA50132
:1016900094010E944818E62FB901CA0101501109AE
:1016A000EA3014F4E05D01C0E95CD801EC93232B2F
:1016B000242B252B61F7C8010E945D0AA1960FB665
:1016C000F894DEBF0FBECDBFDF91CF911F910F9178
:1016D000BF90AF909F908F9008954F925F926F92BE
:1016E0007F928F929F92AF92BF92CF92DF92EF92B2
:1016F000FF926B017C019B01AC010E949819882329
:1017000019F08CE492E01AC046015701E894B7F84A
:101710002FEF3FEF4FE75FE7C501B4010E94981933
:10172000811110C02FEF3FEF4FE75FE7C501B40114
:101730000E942417181634F480E592E00E945D0A96
:101740007C017FC02FEF3FEF4FE75FE4C701B60199
:101750000E94931918161CF484E592E0EFCF2FEF46
:101760003FEF4FE75FECC701B6010E94241787FDEA
:10177000F3CF20E030E0A901C701B6010E94241791
:1017800087FF09C08DE20E94210B5C01F7FAF094FB
:10179000F7F8F09402C0A12CB12C2AE037ED43EA0F
:1017A0005BE3C701B6010E947F182B013C010E9438
:1017B00064196B017C010E9429179B01AC01C301D4
:1017C000B2010E947E182B013C014AE0C701B6011C
:1017D0000E942C0B7C01EA0CFB1C8EE20E94210B68
:1017E000E80EF91E20E030E040E251E4C301B2010E
:1017F0000E948A172B013C010E9464194B01A12C05
:10180000B12C4AE0C501B4010E942C0BE80EF91E70
:10181000C501B4010E9429179B01AC01C301B201AB
:101820000E947E1820E030E040E251E40E948A17D6
:101830000E94641980E090E04AE00E942C0BE80EC0
:10184000F91E87E392E00E945D0A8E0D9F1DFF90B6
:10185000EF90DF90CF90BF90AF909F908F907F9050
:101860006F905F904F900895CF92DF92EF92FF922A
:10187000CF93DF936C01990FEE08FF08F7FE12C0BB
:101880008DE20E94210BEC0166277727CB016C19B2
:101890007D098E099F094AE00E942C0B7C01EC0E09
:1018A000FD1E06C04AE0C701B6010E942C0B7C0158
:1018B00087E392E00E945D0A8E0D9F1DDF91CF911C
:1018C000FF90EF90DF90CF9008950E94320660E085
:1018D00070E084E393E40E946D0B60E070E080E0D0
:1018E0009FE30E946D0B6BED7FE089E490E40E9422
:1018F0006D0B6CE97EEC88E19FE30E946D0B83E148
:1019000090E00E94340C84EB90E00E94340C88E557
:1019100092E00E946F0A82EB92E00E942A046132F8
:101920007F40810591058CF44DEC5CEC6CE47EEB22
:1019300084EB92E00E9411034DEC5CEC6CE47EEBD6
:1019400086EB92E00E941103E6CF0C94CF061F9223
:101950000F920FB60F9211240F900FBE0F901F9091
:1019600018951F920F920FB60F9211240BB60F927B
:101970002F933F934F935F936F937F938F939F9397
:10198000AF93BF93EF93FF938091B900887F803628
:1019900009F49CC068F5883209F45BC090F480318A
:1019A00009F454C038F4882309F4F6C0883009F4E7
:1019B0004DC0F6C0883109F44CC0803209F45DC0D6
:1019C000EFC0803409F468C048F4803309F455C08E
:1019D000883309F0E5C080934706D8C0803509F404
:1019E0004FC0883509F45DC0883409F0D9C0D6C02D
:1019F000883909F4C7C0A8F4883709F467C038F4F7
:101A0000883609F463C0803709F460C0C9C08838DB
:101A100009F4B8C0803909F45FC0803809F0C0C04B
:101A20005BC0803B09F486C038F4803A09F466C094
:101A3000883A09F47FC0B4C0803C09F4A7C0883C50
:101A400009F4A4C0883B09F48AC0AAC08091240686
:101A500010C09091460680914506981770F5E09168
:101A6000460681E08E0F80934606F0E0EB5DF94F6D
:101A700080818093BB0085EC86C0809347068EC032
:101A8000E091460681E08E0F809346068091BB0070
:101A9000F0E0EB5DF94F808390914606809145061A
:101AA0006EC0E091460681E08E0F809346068091DD
:101AB000BB00F0E0EB5DF94F80838091B9028111AA
:101AC0006DC081E08093B80284EA61C083E08093B6
:101AD000BA0210922106CFCF80912106803208F001
:101AE00051C0E091210681E08E0F80932106809104
:101AF000BB00F0E0EF5FF94F8083BDCF85EC8093B2
:101B0000BC001092BA0280912106803230F4E0913C
:101B10002106F0E0EF5FF94F10826091210670E03E
:101B2000E091FF05F091000681E096E01995109292
:101B3000210636C084E08093BA021092FE0510920E
:101B4000FD05E091FB05F091FC0519958091FD05DF
:101B5000811105C081E08093FD051092DB05E091C5
:101B6000FE0581E08E0F8093FE05F0E0E552FA4F0E
:101B700080818093BB009091FE058091FD059817B0
:101B800008F479CF85E88093BC000AC085EC809387
:101B9000BC001092BA0204C0109247060E94440A88
:101BA000FF91EF91BF91AF919F918F917F916F9135
:101BB0005F914F913F912F910F900BBE0F900FBEF1
:101BC0000F901F9018954091FD05262F30E0240FAF
:101BD000311D21323105DCF42091BA022430C9F4E0
:101BE000FC0180E090E0861758F43091FD052191CA
:101BF000DC01A552BA4FA30FB11D2C930196F3CF70
:101C00008091FD05680F6093FD0580E0089581E0F7
:101C1000089582E008959091AF028091AE029817E6
:101C200050F4E92FF0E0E257FD4F208130E09F5F54
:101C30009093AF0202C02FEF3FEFC901089580914A
:101C4000AE0290E02091AF02821B9109089590E0CE
:101C5000FC013197E231F10508F04EC08827EC57BE
:101C6000FF4F8F4F0C947618809180008F7703C0C0
:101C7000809180008F7D8093800008958091800006
:101C8000877FF9CF84B58F7702C084B58F7D84BDFF
:101C900008958091B0008F7703C08091B0008F7D50
:101CA0008093B0000895809190008F7707C0809155
:101CB00090008F7D03C080919000877F809390007B
:101CC00008958091A0008F7707C08091A0008F7D3C
:101CD00003C08091A000877F8093A0000895809129
:101CE00020018F7707C0809120018F7D03C08091F4
:101CF0002001877F809320010895CF93DF93282FC1
:101D000030E0F901E952FD4F8491F901EF56FD4FA2
:101D1000D491F901E55BFD4FC491CC2391F0811181
:101D20000E94270EEC2FF0E0EE0FFF1FEF5CFD4F3F
:101D3000A591B491EC91ED2381E090E021F480E055
:101D400002C080E090E0DF91CF9108953FB7F89412
:101D500080915A0690915B06A0915C06B0915D0659
:101D600026B5A89B05C02F3F19F00196A11DB11DF6
:101D70003FBFBA2FA92F982F8827820F911DA11D31
:101D8000B11DBC01CD0142E0660F771F881F991F6E
:101D90004A95D1F70895CF92DF92EF92FF920F9379
:101DA0001F93CF93DF936C017A018B01C0E0D0E0E9
:101DB000CE15DF0589F0D8016D918D01D601ED9129
:101DC000FC910190F081E02DC6011995892B11F449
:101DD0007E0102C02196ECCFC701DF91CF911F9108
:101DE0000F91FF90EF90DF90CF900895FC01A089B4
:101DF000B1898C91A689B78982FD0FC09C91818D94
:101E00008F5F8F73228D821749F0218DDF01A20F22
:101E1000B11D5D969C93818F08958C910895FC016E
:101E2000538D448D252F30E0842F90E0821B930B3F
:101E3000541710F0CF96089501970895FC01918DE5
:101E4000828D981761F0828DDF01A80FB11D5D961C
:101E50008C91928D9F5F9F73928F90E008958FEF8A
:101E60009FEF0895FC01918D828D981731F0828D3E
:101E7000E80FF11D858D90E008958FEF9FEF089595
:101E8000FC01918D228D892F90E0805C9F4F821BF9
:101E900091098F73992708958BEE92E00E94400F6D
:101EA00021E0892B09F420E0822F089588E893E04F
:101EB0000E94400F21E0892B09F420E0822F089531
:101EC00085E294E00E94400F21E0892B09F420E094
:101ED000822F0895FC01848DDF01A80FB11DA35A44
:101EE000BF4F2C91848D90E001968F739927848F3A
:101EF000A689B7892C93A089B1898C9180648C9331
:101F0000938D848D981306C00288F389E02D80811B
:101F10008F7D80830895EF92FF920F931F93CF934D
:101F2000DF93EC0181E0888F9B8D8C8D981305C029
:101F3000E889F989808185FD24C0F62E0B8D10E09B
:101F40000F5F1F4F0F731127E02E8C8DE8120CC00E
:101F50000FB607FCFACFE889F989808185FFF5CFB4
:101F6000CE010E946A0FF1CF8B8DFE01E80FF11DAB
:101F7000E35AFF4FF0820B8FEA89FB8980818062F0
:101F800007C0EE89FF896083E889F98980818064D0
:101F9000808381E090E0DF91CF911F910F91FF90BE
:101FA000EF900895CF93DF93EC01888D8823C9F0DB
:101FB000EA89FB89808185FD05C0A889B9898C9152
:101FC00086FD0FC00FB607FCF5CF808185FFF2CFED
:101FD000A889B9898C9185FFEDCFCE010E946A0F47
:101FE000E7CFDF91CF91089580E090E0892B21F039
:101FF0000E94600F811119C080E090E0892B41F0B0
:1020000080E090E0892B21F00E940000811110C037
:102010000E94560F81110FC080E090E0892B81F063
:102020000E944C0F81110AC008950E940000E4CF65
:102030000E940000EDCF0E94CF01EECF0C94000073
:102040000895CF92DF92EF92FF920F931F93CF9359
:10205000DF937C01262F972F8A018091BB02882372
:1020600091F0C62FD72F6E01C40ED51ECC15DD05FD
:1020700071F06991D701ED91FC910190F081E02D13
:10208000C7011995F3CF642F822F0E94E30DC80179
:10209000DF91CF911F910F91FF90EF90DF90CF9044
:1020A0000895CF93DF931F92CDB7DEB76983209158
:1020B000BB022223D1F02091DE02203240F021E049
:1020C00030E0FC013383228380E090E015C08091F2
:1020D000BC02E82FF0E0E354FD4F998190838F5FBD
:1020E0008093BC028093DE0205C061E0CE010196C0
:1020F0000E94E30D81E090E00F90DF91CF91089571
:102100000E94B31B1F93CF93DF93282F30E0F90178
:10211000E952FD4F8491F901EF56FD4FD491F90139
:10212000E55BFD4FC491CC23C9F0162F81110E94AD
:10213000270EEC2FF0E0EE0FFF1FE95EFD4FA5919B
:10214000B4918FB7F894111105C09C91ED2FE095D3
:10215000E92302C0EC91ED2BEC938FBFDF91CF917F
:102160001F910895CF93DF9390E0FC01EF56FD4F50
:102170002491FC01E55BFD4F8491882361F190E09F
:10218000880F991FFC01E350FE4FC591D491FC01CB
:10219000E95EFD4FA591B491611109C09FB7F89414
:1021A0008881209582238883EC912E230BC0623096
:1021B00061F49FB7F8943881822F809583238883B8
:1021C000EC912E2B2C939FBF06C08FB7F894E8811B
:1021D0002E2B28838FBFDF91CF9108958F929F92EE
:1021E000AF92BF92CF92DF92EF92FF926B017C0190
:1021F0000E94A60E4B015C01C114D104E104F1045C
:10220000F1F00E94A60EDC01CB0188199909AA09F8
:10221000BB09883E9340A105B10570F321E0C21AC5
:10222000D108E108F10888EE880E83E0981EA11C11
:10223000B11CC114D104E104F10419F7DDCFFF9002
:10224000EF90DF90CF90BF90AF909F908F900895C8
:102250001F920F920FB60F9211242F933F938F93DB
:102260009F93AF93BF938091560690915706A0918C
:102270005806B09159063091550623E0230F2D37AB
:1022800020F40196A11DB11D05C026E8230F02967A
:10229000A11DB11D209355068093560690935706B5
:1022A000A0935806B093590680915A0690915B0608
:1022B000A0915C06B0915D060196A11DB11D8093B1
:1022C0005A0690935B06A0935C06B0935D06BF919F
:1022D000AF919F918F913F912F910F900FBE0F90D3
:1022E0001F9018951F920F920FB60F9211240BB6E4
:1022F0000F922F933F934F935F936F937F938F939F
:102300009F93AF93BF93EF93FF9380914B06909170
:102310004C06A0914D06B0914E06892B8A2B8B2B33
:1023200059F180914A06E0914806F0914906908162
:102330008927808380914B0690914C06A0914D0691
:10234000B0914E06181619061A061B060CF056C058
:1023500080914B0690914C06A0914D06B0914E068F
:102360000197A109B10980934B0690934C06A09365
:102370004D06B0934E0642C080910002ECEFF1E0B2
:10238000E4919FEF90930002E230C9F050F4EE2305
:1023900099F0E13081F590916F009D7F90936F00EF
:1023A0002AC0E43019F1E0F0E53029F5909173008E
:1023B0009D7F909373001FC010926E001CC090917F
:1023C00070009D7F9093700091E09093B000909189
:1023D000B100987F94609093B1001092B3000BC04D
:1023E000909171009D7F9093710005C09091720053
:1023F0009D7F9093720060E00E948210FF91EF91A8
:10240000BF91AF919F918F917F916F915F914F910C
:102410003F912F910F900BBE0F900FBE0F901F900A
:1024200018951F920F920FB60F9211240BB60F92B0
:102430002F933F934F935F936F937F938F939F93CC
:10244000AF93BF93EF93FF938BEE92E00E946A0FDE
:10245000FF91EF91BF91AF919F918F917F916F917C
:102460005F914F913F912F910F900BBE0F900FBE38
:102470000F901F9018951F920F920FB60F92112474
:102480000BB60F922F933F934F935F936F937F936E
:102490008F939F93AF93BF93EF93FF938BEE92E055
:1024A0000E94F60EFF91EF91BF91AF919F918F9196
:1024B0007F916F915F914F913F912F910F900BBE44
:1024C0000F900FBE0F901F9018951F920F920FB68E
:1024D0000F9211240BB60F922F933F934F935F935C
:1024E0006F937F938F939F93AF93BF93EF93FF93DC
:1024F00088E893E00E946A0FFF91EF91BF91AF913E
:102500009F918F917F916F915F914F913F912F910B
:102510000F900BBE0F900FBE0F901F9018951F923B
:102520000F920FB60F9211240BB60F922F933F9379
:102530004F935F936F937F938F939F93AF93BF93CB
:10254000EF93FF9388E893E00E94F60EFF91EF91DE
:10255000BF91AF919F918F917F916F915F914F91BB
:102560003F912F910F900BBE0F900FBE0F901F90B9
:1025700018951F920F920FB60F9211240BB60F925F
:102580002F933F934F935F936F937F938F939F937B
:10259000AF93BF93EF93FF9385E294E00E946A0F9D
:1025A000FF91EF91BF91AF919F918F917F916F912B
:1025B0005F914F913F912F910F900BBE0F900FBEE7
:1025C0000F901F9018951F920F920FB60F92112423
:1025D0000BB60F922F933F934F935F936F937F931D
:1025E0008F939F93AF93BF93EF93FF9385E294E014
:1025F0000E94F60EFF91EF91BF91AF919F918F9145
:102600007F916F915F914F913F912F910F900BBEF2
:102610000F900FBE0F901F901895809153059091C9
:1026200054050C94321A1092E2021092E10288EEE4
:1026300093E0A0E0B0E08093E3029093E402A093E3
:10264000E502B093E6022BE032E03093E002209303
:10265000DF021092EE021092ED028093EF0290934F
:10266000F002A093F102B093F2022DE132E0309338
:10267000EC022093EB0245E351E05093F8024093C3
:10268000F70244E351E05093FA024093F90240E329
:1026900051E05093FC024093FB0241E351E0509320
:1026A000FE024093FD0242E351E050930003409349
:1026B000FF0246E351E0509302034093010310925E
:1026C0000403109205031092060310920703109260
:1026D0008B0310928A0380938C0390938D03A093B5
:1026E0008E03B0938F03309389032093880345EDC5
:1026F00050E0509395034093940344ED50E0509381
:1027000097034093960340ED50E050939903409314
:10271000980341ED50E050939B0340939A0342EDA0
:1027200050E050939D0340939C0346ED50E050933E
:102730009F0340939E031092A1031092A203109254
:10274000A3031092A40310922804109227048093EC
:10275000290490932A04A0932B04B0932C04309363
:1027600026042093250485EC90E090933204809316
:10277000310484EC90E0909334048093330480EC33
:1027800090E0909336048093350481EC90E0909330
:1027900038048093370482EC90E090933A0480935D
:1027A000390486EC90E090933C0480933B041092B3
:1027B0003E0410923F0410924004109241048DE0B8
:1027C00090E00E949D19FC01138212828FE292E038
:1027D00091838083118687E2848384E1828784E009
:1027E00083871486F093D805E093D7051092D90516
:1027F0001092DA058CE08093BE0584E28093BF05D9
:102800008BE18093C0058DE18093C1058AE18093BF
:10281000C2058CE18093C30586E38093C40587E3FA
:102820008093C50588E38093C60589E38093C70537
:1028300080E48093CA051092CF051092D0051092C3
:10284000D1051092D2051092D3051092D4051092A2
:10285000D5051092D60580915205803320F09FEF68
:102860009093B80511C08093B805282F30E0F90186
:10287000EE0FFF1F2E0F3F1FF901EE53FB4F28EB0A
:102880003BE0328321838F5F803390F48093BB05DC
:10289000282F30E0F901EE0FFF1F2E0F3F1FF90127
:1028A000EE53FB4F28EB3BE0328321838F5F03C065
:1028B0009FEF9093BB0580935205E9E5F5E08FEF1C
:1028C0009FEFDC0112821382148215821682178216
:1028D0001086118683879487A587B6878787908B14
:1028E000A18BB28B128611821082739625E0E83B91
:1028F000F20741F7109254051092530510925605B5
:1029000010925505109258051092570561E070E03D
:1029100080E090E00E94CA1A009789F090935405D5
:102920008093530510925605109255052091570536
:1029300030915805232BC1F4FC01108215C0809101
:10294000530590915405009711F00E94321A10928D
:102950005405109253051092580510925705109285
:102960005605109255050895109258051092570576
:1029700069E372E00C94C11B789484B5826084BDD5
:1029800084B5816084BD85B5826085BD85B5816073
:1029900085BD80916E00816080936E0010928100F1
:1029A00080918100826080938100809181008160AC
:1029B000809381008091800081608093800080916D
:1029C000B10084608093B1008091B00081608093F9
:1029D000B00080919100826080939100809191007D
:1029E000816080939100809190008160809390003D
:1029F0008091A10082608093A1008091A1008160FC
:102A00008093A1008091A00081608093A0008091BC
:102A10002101826080932101809121018160809356
:102A200021018091200181608093200180917A00B2
:102A3000846080937A0080917A00826080937A002B
:102A400080917A00816080937A0080917A0080681A
:102A500080937A001092C100E0913504F091360421
:102A600082E08083E0913104F09132041082E091A1
:102A70003304F09134048FEC808310923D04E09194
:102A80003904F0913A0496E09083E0913704F09194
:102A90003804808180618083E0913704F0913804AC
:102AA000808188608083E0913704F09138048081D0
:102AB00080688083E0913704F091380480818F7DB5
:102AC00080839093B4028FE18093B50261E086E049
:102AD0000E94B21061E08091B5020E94B21085E0C0
:102AE0008093B6028EE18093B70261E085E00E9498
:102AF000B21061E08091B7020E94B21045E463E237
:102B000080EB92E00E948F0444E462E282EB92E068
:102B10000E948F0486E180934F0687E180935006E0
:102B200060E086E10E94B21061E0809150060E9450
:102B3000B21060E0809150060E94821088E180937C
:102B4000510689E18093520660E088E10E94B2104C
:102B500061E0809152060E94B21060E080915206BE
:102B60000E94821061E08091BF050E94B21060E077
:102B70008091BF050E94821060E08091BE050E9496
:102B8000B2108FED92E09093C9058093C805109222
:102B9000AF021092AE021092BC021092DE021092AE
:102BA000BA0281E08093B9021092B80261E084E138
:102BB0000E94821061E085E10E9482108091B9003C
:102BC0008E7F8093B9008091B9008D7F8093B9008A
:102BD00088E48093B80085E48093BC0080E090E1B5
:102BE000A0E0B0E08093CB059093CC05A093CD05F9
:102BF000B093CE058AE090E0A0E0B0E08093CF05EE
:102C00009093D005A093D105B093D20582E090E0D7
:102C1000A0E0B0E08093D3059093D405A093D505B0
:102C2000B093D60560E070E185E00E94DA0A6FE9B2
:102C300079E380E00E94DA0AC0ECD5E01C2F1C5F2B
:102C400060E089910E94B2101C13FACF64E070E03A
:102C500088EB95E00E94F20467E070E08BEB95E072
:102C60000E94F20485E692E00E946F0A64EF71E030
:102C700080E090E00E94EE101092540610925306ED
:102C80008BE692E00E946F0A8091C3050E947D0E40
:102C9000892B09F488C062E578EB86E090E40E9415
:102CA0008B082AE63FEF40E050E060E070E084EB04
:102CB00092E40E94EE0662E578EB8EE99EE30E94C4
:102CC000990729E130E041E050E060E070E084EBFA
:102CD00092E40E94EE066FE175E88BE69EE30E94A7
:102CE000990729E130E041E050E060E070E084EBDA
:102CF00092E40E94EE0661EE7AE784E99EE30E9488
:102D000099072AE63FEF40E050E060E070E084EB96
:102D100092E40E94EE0668EB7EE185E09EE30E946D
:102D2000990722E330E041E050E060E070E084E3A6
:102D300092E40E94EE0664EA70E78DEB9EE30E9447
:102D400099072AE63FEF40E050E060E070E084EB56
:102D500092E40E94EE0661E77DE38AE09FE30E9431
:102D6000990722E330E041E050E060E070E084E366
:102D700092E40E94EE066AE077ED83EA9EE30E9409
:102D8000990720E030E041E050E060E070E08CEA3C
:102D900091E40E94EE066AE077ED83E29FE30E94F1
:102DA00099070E94650C8091C0050E947D0E892BB9
:102DB000B1F060E070E080E290E40E948B0821EEC8
:102DC00030E040E050E060E070E084E393E40E9493
:102DD000EE0660E070E080E290E40E948B08809153
:102DE000C1050E947D0E892BC1F080915306909100
:102DF00054060E94340CC0915306D0915406E297B9
:102E0000D0935406C093530664E670E080E090E0EF
:102E10000E94EE10CE010E94340C8091C2050E94E7
:102E20007D0E892B41F064E670E080E090E00E9426
:102E3000EE100E94650C6AE070E080E090E00E9475
:102E4000EE100E94F40F20CF0E94661708F481E074
:102E50000895E89409C097FB3EF49095809570958D
:102E600061957F4F8F4F9F4F9923A9F0F92F96E9D6
:102E7000BB279395F695879577956795B795F1114B
:102E8000F8CFFAF4BB0F11F460FF1BC06F5F7F4FE8
:102E90008F4F9F4F16C0882311F096E911C07723FA
:102EA00021F09EE8872F762F05C0662371F096E803
:102EB000862F70E060E02AF09A95660F771F881FD2
:102EC000DAF7880F9695879597F90895990F000876
:102ED000550FAA0BE0E8FEEF16161706E807F907EC
:102EE000C0F012161306E407F50798F0621B730B87
:102EF000840B950B39F40A2661F0232B242B252B08
:102F000021F408950A2609F4A140A6958FEF811DAA
:102F1000811D08950E949D170C940E180E940018A0
:102F200038F00E94071820F0952311F00C94F71741
:102F30000C94FD1711240C9442180E941F1870F372
:102F4000959FC1F3950F50E0551F629FF001729F4E
:102F5000BB27F00DB11D639FAA27F00DB11DAA1F5D
:102F6000649F6627B00DA11D661F829F2227B00DAA
:102F7000A11D621F739FB00DA11D621F839FA00D35
:102F8000611D221F749F3327A00D611D231F849F85
:102F9000600D211D822F762F6A2F11249F575040DC
:102FA0009AF0F1F088234AF0EE0FFF1FBB1F661F57
:102FB000771F881F91505040A9F79E3F510580F020
:102FC0000C94F7170C9442185F3FE4F3983ED4F347
:102FD000869577956795B795F795E7959F5FC1F7C4
:102FE000FE2B880F911D9695879597F9089597F96F
:102FF0009F6780E870E060E008959FEF80EC08959F
:1030000000240A94161617061806090608950024C7
:103010000A9412161306140605060895092E039441
:10302000000C11F4882352F0BB0F40F4BF2B11F4B5
:1030300060FF04C06F5F7F4F8F4F9F4F089557FD14
:103040009058440F551F59F05F3F71F04795880F16
:1030500097FB991F61F09F3F79F0879508951216AD
:1030600013061406551FF2CF4695F1DF08C0161659
:1030700017061806991FF1CF86957105610508940A
:103080000895E894BB2766277727CB0197F9089521
:10309000A1E21A2EAA1BBB1BFD010DC0AA1FBB1F5C
:1030A000EE1FFF1FA217B307E407F50720F0A21BCE
:1030B000B30BE40BF50B661F771F881F991F1A943B
:1030C00069F760957095809590959B01AC01BD0165
:1030D000CF010895991B79E004C0991F961708F055
:1030E000961B881F7A95C9F780950895EE0FFF1FEC
:1030F000881F8BBF0790F691E02D19945058BB277D
:10310000AA270E9496180C940E180E94001838F0F6
:103110000E94071820F039F49F3F19F426F40C940C
:10312000FD170EF4E095E7FB0C94F717E92F0E94CA
:103130001F1858F3BA17620773078407950720F022
:1031400079F4A6F50C9441180EF4E0950B2EBA2FE5
:10315000A02D0B01B90190010C01CA01A00111249D
:10316000FF27591B99F0593F50F4503E68F11A1649
:10317000F040A22F232F342F4427585FF3CF4695DA
:1031800037952795A795F0405395C9F77EF41F16FC
:10319000BA0B620B730B840BBAF09150A1F0FF0FC6
:1031A000BB1F661F771F881FC2F70EC0BA0F621FB2
:1031B000731F841F48F4879577956795B795F795A2
:1031C0009E3F08F0B0CF9395880F08F09927EE0F37
:1031D0009795879508950E94FF180C940E180E94E9
:1031E000071858F00E94001840F029F45F3F29F0BA
:1031F0000C94F71751110C9442180C94FD170E946F
:103200001F1868F39923B1F3552391F3951B550BC0
:10321000BB27AA2762177307840738F09F5F5F4FA9
:10322000220F331F441FAA1FA9F335D00E2E3AF0E8
:10323000E0E832D091505040E695001CCAF72BD000
:10324000FE2F29D0660F771F881FBB1F2617370751
:103250004807AB07B0E809F0BB0B802DBF01FF2783
:1032600093585F4F3AF09E3F510578F00C94F71752
:103270000C9442185F3FE4F3983ED4F3869577951B
:103280006795B795F7959F5FC9F7880F911D96953C
:10329000879597F90895E1E0660F771F881FBB1F98
:1032A000621773078407BA0720F0621B730B840B45
:1032B000BA0BEE1F88F7E09508950E946419689490
:1032C000B1110C94421808950E94271888F09F5756
:1032D00098F0B92F9927B751B0F0E1F0660F771F3A
:1032E000881F991F1AF0BA95C9F714C0B13091F030
:1032F0000E944118B1E008950C944118672F782F6F
:103300008827B85F39F0B93FCCF3869577956795F4
:10331000B395D9F73EF490958095709561957F4F60
:103320008F4F9F4F08950E94661708F48FEF0895FE
:103330000E946617880B990B0895CF93DF93823014
:10334000910510F482E090E0E0916006F091610652
:1033500020E030E0C0E0D0E0309711F140815181B1
:1033600048175907C0F04817590761F482819381C3
:10337000209719F09B838A832BC0909361068093DA
:10338000600626C02115310519F04217530718F4BD
:103390009A01BE01DF01EF010280F381E02DDCCF55
:1033A0002115310509F1281B390B2430310590F422
:1033B00012968D919C9113976115710521F0FB0177
:1033C0009383828304C09093610680936006FD011D
:1033D000329644C0FD01E20FF31F81939193225076
:1033E00031092D933C933AC020915E0630915F06DF
:1033F000232B41F4209103023091040230935F06A5
:1034000020935E06209101023091020221153105C0
:1034100041F42DB73EB74091050250910602241B9E
:10342000350BE0915E06F0915F06E217F307A0F41A
:103430002E1B3F0B2817390778F0AC014E5F5F4F0A
:103440002417350748F04E0F5F1F50935F064093D7
:103450005E068193919302C0E0E0F0E0CF01DF913E
:10346000CF9108950F931F93CF93DF93009709F4A3
:103470008CC0FC0132971382128200916006109179
:1034800061060115110581F420813181820F931F9E
:1034900020915E0630915F062817390779F5F09381
:1034A0005F06E0935E0671C0D80140E050E0AE17C1
:1034B000BF0750F412962D913C911397AD01211541
:1034C000310509F1D901F3CF9D01DA01338322835C
:1034D00060817181860F971F8217930769F4EC0151
:1034E00028813981260F371F2E5F3F4F318320837C
:1034F0008A819B8193838283452B29F4F093610613
:10350000E093600642C01396FC93EE931297ED0190
:10351000499159919E01240F351FE217F30771F469
:1035200080819181840F951F029611969C938E93B2
:103530008281938113969C938E931297E0E0F0E042
:10354000D80112968D919C911397009719F0F8016C
:103550008C01F6CF8D919C9198012E5F3F4F820F89
:10356000931F20915E0630915F062817390769F492
:10357000309729F4109261061092600602C01382FF
:10358000128210935F0600935E06DF91CF911F9128
:103590000F9108956F927F928F929F92AF92BF92F8
:1035A000CF92DF92EF92FF920F931F93CF93DF930F
:1035B000EC01009789F4CB01DF91CF911F910F911E
:1035C000FF90EF90DF90CF90BF90AF909F908F9043
:1035D0007F906F900C949D19FC01E60FF71F9C01E2
:1035E00022503109E217F30708F4ACC0D9010D915C
:1035F0001C91119706171707B0F00530110508F454
:103600009FC0C80104978617970708F499C0025015
:103610001109061B170B019311936D937C93CF0136
:103620000E94321A8DC05B01A01AB10A4C01800EB3
:10363000911EA0916006B091610640E050E0E12C3F
:10364000F12C109709F44AC0A815B905D1F56D9071
:103650007C901197630182E0C80ED11CCA14DB0470
:1036600080F1A3014A195B096A0182E0C80ED11CEE
:103670001296BC9012971396AC91B5E0CB16D1047C
:1036800040F0B282A38351834083D9016D937C9330
:103690000AC00E5F1F4FC301800F911FF901918374
:1036A0008083EB2DFA2FE114F10431F0D70113964A
:1036B000FC93EE93129744C0F0936106E09360068A
:1036C0003FC08D919C9111974817590708F4AC01A0
:1036D0007D0112960D90BC91A02DB3CF80915E0616
:1036E00090915F0688159905E1F446175707C8F4CD
:1036F0008091010290910202009741F48DB79EB72C
:103700004091050250910602841B950BE817F907BA
:10371000C8F4F0935F06E0935E06F901718360835D
:103720000FC0CB010E949D197C01009759F0A801A0
:10373000BE010E94B81BCE010E94321AC70104C00C
:10374000CE0102C080E090E0DF91CF911F910F91F8
:10375000FF90EF90DF90CF90BF90AF909F908F90B1
:103760007F906F90089581E090E0F8940C94C81BCE
:10377000FB01DC0102C001900D9241505040D8F78E
:103780000895FB01DC0101900D920020E1F70895FE
:1037900011E0C0E9D1E000E006C0802FFE010E94E8
:1037A00076182196011DC139D10780E00807A9F7D5
:0437B000F894FFCFBB
:1037B400FF0000620620000000000051102110CC20
:1037C400014E0A1F0E0B0E4F0A000000008B0FCB98
:1037D4000E0F0FD20F400F1E0F320F00000000EC2F
:1037E40002CB0ECC01CB010D0A00566974657373CC
:1037F40065206D6F74657572203A20006E616E00ED
:10380400696E66006F7666002D2D2D2D2D2D2D2DC4
:103814002D2D2D2D0048656C6C6F00474F21000045
:00000001FF
