:100000000C9491010C94C2010C94C2010C94C20195
:100010000C94C2010C94C2010C94C2010C94C20154
:100020000C94C2010C94B70D0C94B70D0C94B70D41
:100030000C94C2010C9482080C94C2010C94C2016D
:100040000C94C2010C9412070C94C2010C94C201CE
:100050000C94C2010C94C2010C94C2010C94E10FE7
:100060000C94C2010C9440040C9416040C94C2012C
:100070000C94C2010C94C2010C94C2010C94C201F4
:100080000C94C2010C94C2010C94C2010C94C201E4
:100090000C94C2010C94C2010C94C2010C94C10DC9
:1000A0000C94C2010C94C2010C94C2010C94C201C4
:1000B0000C94C2010C94C2010C94C2010C946A0409
:1000C0000C94C2010C94C2010C94C2010C94EC0378
:1000D0000C94C2030C94C2010C9498030C946E030C
:1000E0000C94C20188058D0592059C05A6051F0686
:1000F000B005B805C005CA05D405DE05ED05F70550
:100100001F0601060B061506570D5A0D490D4D0D1C
:10011000530D910D5E0D620D680D6C0D700D760D19
:100120007A0D7E0D910D840D880D8C0D0C94A60515
:100130000C941D030C94B0050C94DE050C94880DF2
:100140000C9488050C941F060C948D050C94C40126
:100150000C94B80C0C944D0D0C9449030C940B06A4
:100160000C94840D0C94CA050C94530D0C94B80592
:100170000C94910D0C942B100C94760D0C94570D3F
:100180000C948C0D0C94C0050C940D0D0C94010670
:100190000C945E0D0C94490D0C9492050C94CB02BA
:1001A0000C94F7050C94E0140C94700D0C94D50C81
:1001B0000C949C050C945A0D0C942B020C94B70CC7
:1001C0000C9484020C9439020C9417020C94C60C03
:1001D0000C94680D0C941E030C947A0D0C94080278
:1001E0000C946C0D0C94620D0C9415060C94DD0CA3
:1001F0000C94ED050C94D4050C947E0D02000021A6
:1002000000240027002A002D0030003300010100E7
:1002100000040107010A0100002200250028002B2C
:10022000002E003100340002010000050108010B1E
:1002300001000020002300260029002C002F00329E
:10024000000001000003010601090105050505077D
:100250000508080808020202020A0A080804040441
:10026000040101010101010101030303030303036D
:1002700003040707070C0C0C0C0C0C0C0C020202FC
:100280000206060606060606060B0B0B0B0B0B0BEF
:100290000B0102102020080810204010204080028E
:1002A00001020108040201010204081020408080BC
:1002B0004020100804020180040201804020100840
:1002C0000402010804020101020408102040800118
:1002D0000204081020408000000A0B02090C0D0ED9
:1002E00008070304010000000000000000000000F7
:1002F00000000000000000000000000000000000FE
:1003000000000012111000000000000000000000BA
:100310000000000000000000000000000000E014E9
:100320002B1011241FBECFEFD1E2DEBFCDBF00E006
:100330000CBF12E0A0E0B2E0E8E7F8E300E00BBF9A
:1003400002C007900D92A23DB107D9F727E0A2EDB8
:10035000B2E001C01D92AB38B207E1F711E0C0E98D
:10036000D1E000E006C021970109802FFE010E9424
:10037000BC18CF38D10780E00807A9F70E943110D8
:100380000C942A1C0C940000CF92DF92EF92FF9203
:100390000F931F93CF93DF936C017A018B01C0E021
:1003A000D0E0CE15DF0589F0D8016D918D01D60121
:1003B000ED91FC910190F081E02DC6011995892BFA
:1003C00011F47E0102C02196ECCFC701DF91CF91DD
:1003D0001F910F91FF90EF90DF90CF900895FC0157
:1003E000A089B1898C91A689B78982FD0FC09C91A3
:1003F000818D8F5F8F73228D821749F0218DDF01F0
:10040000A20FB11D5D969C93818F08958C910895E4
:10041000FC01538D448D252F30E0842F90E0821B0A
:10042000930B541710F0CF96089501970895FC018F
:10043000918D828D981761F0828DDF01A80FB11D1B
:100440005D968C91928D9F5F9F73928F90E008953F
:100450008FEF9FEF0895FC01918D828D981731F0F9
:10046000828DE80FF11D858D90E008958FEF9FEF4D
:100470000895FC01918D228D892F90E0805C9F4F23
:10048000821B91098F73992708958DE493E00E9450
:10049000390221E0892B09F420E0822F08958AEEA9
:1004A00093E00E94390221E0892B09F420E0822F99
:1004B000089587E894E00E94390221E0892B09F42D
:1004C00020E0822F0895FC01848DDF01A80FB11D6B
:1004D000A35ABF4F2C91848D90E001968F7399277A
:1004E000848FA689B7892C93A089B1898C91806467
:1004F0008C93938D848D981306C00288F389E02D28
:1005000080818F7D80830895EF92FF920F931F93D8
:10051000CF93DF93EC0181E0888F9B8D8C8D9813B6
:1005200005C0E889F989808185FD24C0F62E0B8DF0
:1005300010E00F5F1F4F0F731127E02E8C8DE81214
:100540000CC00FB607FCFACFE889F989808185FFD6
:10055000F5CFCE010E946302F1CF8B8DFE01E80F33
:10056000F11DE35AFF4FF0820B8FEA89FB898081EE
:10057000806207C0EE89FF896083E889F9898081FC
:100580008064808381E090E0DF91CF911F910F9193
:10059000FF90EF900895CF93DF93EC01888D88232F
:1005A000C9F0EA89FB89808185FD05C0A889B989E0
:1005B0008C9186FD0FC00FB607FCF5CF808185FFBB
:1005C000F2CFA889B9898C9185FFEDCFCE010E9429
:1005D0006302E7CFDF91CF910895E0E0F0E0199456
:1005E00080E090E0892B21F00E945902811119C00E
:1005F00080E090E0892B41F080E090E0892B21F0B1
:100600000E940000811110C00E944F0281110FC092
:1006100080E090E0892B81F00E94450281110AC0A0
:1006200008950E940000E4CF0E940000EDCF0E94D8
:10063000ED02EECF0C9400000895089580E090E064
:100640000895FC01248131E030931D0320933F0382
:1006500010921E03109240038485682B81E493E07E
:100660000E940D0D0C9441090F931F93CF938C01A1
:10067000C62F64600E9421036C2F6B7FC8010E940B
:10068000210383EC90E00197F1F7CF911F910F9137
:1006900008950F931F93CF93DF938C01C62FD62F0E
:1006A000D07FD1606D2F0E9421036D2FC8010E9461
:1006B000340380E1C89FB0011124C62FC1606C2FA4
:1006C000C8010E9421036C2FC8010E94340381E0FD
:1006D00090E0DF91CF911F910F9108951F920F929B
:1006E0000FB60F9211240BB60F922F933F934F9397
:1006F0005F936F937F938F939F93AF93BF93EF938A
:10070000FF938DE493E00E946302FF91EF91BF910C
:10071000AF919F918F917F916F915F914F913F9199
:100720002F910F900BBE0F900FBE0F901F9018953A
:100730001F920F920FB60F9211240BB60F922F93A8
:100740003F934F935F936F937F938F939F93AF9359
:10075000BF93EF93FF938DE493E00E94EF01FF912D
:10076000EF91BF91AF919F918F917F916F915F9129
:100770004F913F912F910F900BBE0F900FBE0F9096
:100780001F9018951F920F920FB60F9211240BB65F
:100790000F922F933F934F935F936F937F938F931A
:1007A0009F93AF93BF93EF93FF938AEE93E00E94E2
:1007B0006302FF91EF91BF91AF919F918F917F91D4
:1007C0006F915F914F913F912F910F900BBE0F90C2
:1007D0000FBE0F901F9018951F920F920FB60F9299
:1007E00011240BB60F922F933F934F935F936F9308
:1007F0007F938F939F93AF93BF93EF93FF938AEE73
:1008000093E00E94EF01FF91EF91BF91AF919F9113
:100810008F917F916F915F914F913F912F910F90A9
:100820000BBE0F900FBE0F901F9018951F920F9246
:100830000FB60F9211240BB60F922F933F934F9345
:100840005F936F937F938F939F93AF93BF93EF9338
:10085000FF9387E894E00E946302FF91EF91BF91BC
:10086000AF919F918F917F916F915F914F913F9148
:100870002F910F900BBE0F900FBE0F901F901895E9
:100880001F920F920FB60F9211240BB60F922F9357
:100890003F934F935F936F937F938F939F93AF9308
:1008A000BF93EF93FF9387E894E00E94EF01FF91DD
:1008B000EF91BF91AF919F918F917F916F915F91D8
:1008C0004F913F912F910F900BBE0F900FBE0F9045
:1008D0001F9018951F920F920FB60F9211240BB60E
:1008E0000F922F933F934F935F936F937F938F93C9
:1008F0009F93AF93BF93EF93FF93809125050E9441
:10090000F30E2091290530912A052F5F3F4F309338
:100910002A052093290590912805953618F096E030
:1009200090932405909124059430C9F128F49230D5
:1009300069F09330D1F05EC0953009F451C0963023
:1009400009F058C091E09093F50551C0811152C053
:100950002091290530912A052436310508F442C03A
:100960001092F505109228051CC0813009F042C094
:10097000E091280591E09E0F90932805F0E02091EA
:10098000290530912A05EE0FFF1FEC5DFA4F3087E5
:10099000278310922A051092290594E029C081111D
:1009A00017C0E091280591E09E0F90932805F0E094
:1009B0002091290530912A05EE0FFF1FEC5DFA4FBB
:1009C0003087278310922A051092290593E010C0E2
:1009D0002091290530912A052536310558F007C0A8
:1009E000811108C010922A051092290503C095E0D4
:1009F00090932405909127059923B9F081110AC09D
:100A000080912605882321F08091260561E009C0A8
:100A10002F9A0BC080912605882331F080912605FE
:100A200060E00E941C0F01C02F98FF91EF91BF91D1
:100A3000AF919F918F917F916F915F914F913F9176
:100A40002F910F900BBE0F900FBE0F901F90189517
:100A50008F929F92AF92BF92CF92DF92EF92FF92CE
:100A60000F931F93CF93DF93EC016A017B0120E08A
:100A700030E04FE753E4C701B6010E947B174B01FA
:100A80005C0120E030E0A9010E94ED1918161CF469
:100A9000C501B40103C0C501B40190580E94B71943
:100AA0008B0120E030E0A901C701B6010E94ED19D9
:100AB000181614F460E001C061E089810E941C0FE7
:100AC0000F3F110509F014F4112702C00FEF10E0D9
:100AD000C88161E08C2F0E944C0F0115110509F4AB
:100AE000B1C00F3F110509F4AFC0EC2FF0E0E9529F
:100AF000FD4FE4914E2F50E0FA013197E231F105BC
:100B000008F09DC08827EE58FF4F8F4F0C94BC18FB
:100B100084B5806884BD07BDA7C084B5806284BDEC
:100B200008BDA2C0809180008068809380001093EF
:100B300089000093880098C0809180008062809333
:100B4000800010938B0000938A008EC080918000FB
:100B500088608093800010938D0000938C0084C087
:100B60008091B00080688093B0000093B3007CC097
:100B70008091B00080628093B0000093B40074C094
:100B8000809190008068809390001093990000936A
:100B900098006AC0809190008062809390001093CA
:100BA0009B0000939A0060C08091900088608093C1
:100BB000900010939D0000939C0056C08091A0006F
:100BC00080688093A0008091A0008F7B8093A0001C
:100BD0001093A9000093A80047C08091A0008062F4
:100BE0008093A0001093AB000093AA003DC08091B9
:100BF000A00088608093A0001093AD000093AC002B
:100C000033C08091200180688093200110932901D6
:100C10000093280129C080912001806280932001E7
:100C200010932B0100932A011FC08091200188603E
:100C30008093200110932D0100932C0115C00038E2
:100C4000110514F460E001C061E08C2FDF91CF91B9
:100C50001F910F91FF90EF90DF90CF90BF90AF90DA
:100C60009F908F900C941C0FDF91CF911F910F914B
:100C7000FF90EF90DF90CF90BF90AF909F908F90BC
:100C80000895CF92DF92EF92FF92CF93DF93FC0112
:100C9000C081CC3008F064C0D0E085E08C9FF001CA
:100CA0008D9FF00D1124EA50FA4F838128E830E03F
:100CB0006901C81AD10887FDD394CC0CDD1CCC0C7B
:100CC000DD1C683C71053CF50D2C000CEE08FF089E
:100CD000848128E532E0281B310987FD3395220FF6
:100CE000331F220F331FC901330FAA0BBB0B9C010B
:100CF000AD012C193D094E095F09DB010E94631803
:100D000024EB30E040E050E00E943918C20ED31EC0
:100D1000E41EF51E13C06C157D0584F0848128E562
:100D200032E06901C81AD10887FDD394CC0CDD1CD0
:100D3000CC0CDD1C6C157D050CF46B018FB7F894A1
:100D400095E09C9FF0019D9FF00D1124EA50FA4F11
:100D500096E0C91AD108CC0CDD1CD282C1828FBFAB
:100D6000DF91CF91FF90EF90DF90CF9008951F9388
:100D7000CF93DF93EC01162F88818C3008F04DC0A3
:100D800061E0812F0E944C0FE88195E09E9FF00169
:100D90001124EA50FA4F1F738081807C182B108336
:100DA0001382E8819E9FF0011124EA50FA4F1482C9
:100DB00088816CE00E949C189CE0899FA00111240E
:100DC00020E030E095E0B901640F751F969FF001B7
:100DD000979FF00D1124EA50FA4F608166FD13C011
:100DE0002F5F3F4F2C30310571F781110CC01092ED
:100DF000800082E080938100109285001092840030
:100E000086BB80936F00E88185E0E89FF0011124A4
:100E1000EA50FA4F8081806480838881DF91CF918E
:100E20001F9108951F920F920FB60F9211240BB6C7
:100E30000F922F933F934F935F936F937F938F9373
:100E40009F93AF93BF93EF93FF938091EB0287FF44
:100E500005C0109285001092840016C02091EB020C
:100E6000022E000C330B8091320690E028173907D0
:100E70005CF43091EB0225E03203F0011124EA50DA
:100E8000FA4F808186FD15C08091EB028F5F8093C1
:100E9000EB022091EB02022E000C330B8091320604
:100EA00090E02817390794F48091EB028C302CF1F4
:100EB0000DC03091EB023203F0011124EA50FA4FD9
:100EC000808160E08F730E941C0FDECF80918400D0
:100ED0009091850084349C4918F480E49CE905C015
:100EE000809184009091850004969093890080936E
:100EF00088008FEF8093EB022AC0409184005091CC
:100F000085003091EB0225E03203F0011124EA5014
:100F1000FA4F81819281840F951F9093890080936D
:100F200088003091EB023203F0011124EA50FA4FAD
:100F3000808186FF0CC03091EB023203F001112456
:100F4000EA50FA4F808161E08F730E941C0FFF917D
:100F5000EF91BF91AF919F918F917F916F915F9131
:100F60004F913F912F910F900BBE0F900FBE0F909E
:100F70001F9018958EBD00000DB407FEFDCF8EB5F5
:100F80000895CF93DF93EC0160E088810E941C0FED
:100F900088E90E94BA0780E00E94BA0780E00E94B8
:100FA000BA0780E00E94BA0780E00E94BA0761E0B9
:100FB00088810E941C0F8BE891E00197F1F760E0B7
:100FC00088810E941C0F80EE0E94BA0761E0888130
:100FD000DF91CF910C941C0FAF92BF92CF92DF9212
:100FE000EF92FF920F931F93CF93DF93CDB7DEB7AE
:100FF00060970FB6F894DEBF0FBECDBF5C0160E016
:10100000FC0180810E941C0F80E60E94BA078E01BD
:101010000F5F1F4F7E01F1E1EF0EF11C680180E0D0
:101020000E94BA0790E0A0E0B0E0F60181939193AE
:10103000A193B1936F01EE15FF0589F761E0F5010A
:1010400080810E941C0F80E090E0DC01F80141915A
:101050005191619171918F01BA2FA92F982F8827F3
:10106000840F951FA61FB71FEE15FF0579F79C018A
:10107000AD0166277727CB01621B730B840B950BA1
:1010800060960FB6F894DEBF0FBECDBFDF91CF9153
:101090001F910F91FF90EF90DF90CF90BF90AF9096
:1010A000089589E197E00E94EC0789E197E00E94AA
:1010B000C1078BE197E00E94EC078BE197E00C946D
:1010C000C10740E050E0BA0185E197E00E942805A1
:1010D00040E050E060E070E887E197E00E9428057A
:1010E00089E197E00E94EC0789E197E00E94C1073F
:1010F0008BE197E00E94EC078BE197E00C94C1072D
:101100000E94081C1F920F920FB60F9211240BB66B
:101110000F922F933F934F935F936F937F938F9390
:101120009F93AF93BF93EF93FF938091EF029091C2
:10113000F002A091F102B091F202892B8A2B8B2B45
:1011400059F18091EE02E091EC02F091ED02908174
:10115000892780838091EF029091F002A091F102A3
:10116000B091F202181619061A061B060CF056C0AA
:101170008091EF029091F002A091F102B091F20201
:101180000197A109B1098093EF029093F002A09317
:10119000F102B093F20242C080910002ECEFF1E064
:1011A000E4919FEF90930002E230C9F050F4EE23F7
:1011B00099F0E13081F590916F009D7F90936F00E1
:1011C0002AC0E43019F1E0F0E53029F59091730080
:1011D0009D7F909373001FC010926E001CC0909171
:1011E00070009D7F9093700091E09093B00090917B
:1011F000B100987F94609093B1001092B3000BC03F
:10120000909171009D7F9093710005C09091720044
:101210009D7F9093720060E00E941C0FFF91EF9100
:10122000BF91AF919F918F917F916F915F914F91FE
:101230003F912F910F900BBE0F900FBE0F901F90FC
:101240001895009769F0FC0101900020E9F73197AB
:10125000AF01481B590BBC0187E894E00C94C40112
:1012600080E090E00895CF93DF930E942109EC0184
:101270008FEC92E00E9421098C0F9D1FDF91CF918E
:1012800008952091400390913F03213208F04AC015
:1012900080911C038111FCCF32E030931C0331E0BC
:1012A00030931B033FEF30931A03109219032093DE
:1012B0001803AFE1B3E048EF52E0FA013E2F341BD0
:1012C000321718F43D913193F9CF1092F702209123
:1012D000F702990F922B9093F7029091F6029130BA
:1012E00061F41092F6029091F7029093BB009091F6
:1012F000BC0093FDF8CF95EC01C095EE9093BC0037
:1013000090911C039230E1F390911A039F3F79F082
:1013100080911A03803241F080911A03803331F0BA
:1013200084E005C081E003C082E001C083E0109248
:101330001E031092400310921D030895EF92FF9236
:101340001F93CF93DF931F92CDB7DEB7162F9CEF7D
:10135000E92E96E0F92ED7011C969C911C9721E06E
:1013600020931D0390933F0310921E03109240039D
:101370001A960D90BC91A02DED91FC9111970190C2
:10138000F081E02D682FCD0179831995F7018285D1
:101390009385DC01ED91FC910190F081E02D798144
:1013A000672F1995F70182859385DC01ED91FC91FA
:1013B0000190F081E02D612F19950F90DF91CF9171
:1013C0001F91FF90EF900C9441094F925F926F92A2
:1013D0007F928F929F92AF92BF92CF92DF92EF92C5
:1013E000FF92CF93DF93CDB7DEB760970FB6F89437
:1013F000DEBF0FBECDBF7A016D877E878F87988B4A
:101400000E94510820E030E044EB53E46D857E8576
:101410008F8598890E9445199B01AC010E94D918BB
:101420002BED3FE049E450E40E947B1720E030E0E0
:1014300040E151E40E947B1720E030E048EC52E4A8
:101440000E94451923E535EB47E75EE30E94451905
:1014500020E030E048E455E40E947B170E94B71971
:10146000EA94EF28D1F08DEC882E8CEC982E8CE449
:10147000A82E8EE3B82E412C512C3201C12CD12C38
:101480007601719561957109CB01770FAA0BBB0BA2
:1014900089879A87AB87BC87ECC02DEC3CEC4CE489
:1014A0005EEB29833A834B835C83812C912C54011E
:1014B000C12CD12C760166577109CB01770FAA0B8D
:1014C000BB0B89879A87AB87BC8789859A85AB8553
:1014D000BC85C816D906EA06FB060CF0B4C04981E3
:1014E0005A816B817C81705887E197E00E942805C2
:1014F0004DEC5CEC6CE47EE385E197E00E9428050E
:101500006AE070E080E090E00E94A70F89E197E038
:101510000E94EC076D837E838F8398878BE197E031
:101520000E94EC072B013C01C701B6010E941C1769
:101530006B017C016D817E818F819885909580956E
:10154000709561957F4F8F4F9F4F0E941C179B0195
:10155000AC01C701B6010E94D9180E94B7196B01EE
:101560007C01C501B4010E941C174B015C01C30141
:10157000B2010E941C179B01AC01C501B4010E947D
:10158000D9180E94B7194B015C0189E197E00E94CC
:10159000EC072B013C018BE197E00E94EC076D8387
:1015A0007E838F83988766277727CB016419750917
:1015B000860997090E941C172B013C016D817E81D1
:1015C0008F8198850E941C179B01AC01C301B20159
:1015D0000E94D91829E832ED4EE55AE30E947B17A4
:1015E0002B013C01C701B601680D791D8A1D9B1DA9
:1015F0000E941C172CEA35EC47E258E30E947B1747
:1016000020E030E0A9010E94D9189B01AC01C30180
:10161000B2010E94D91829813A814B815C810E94D4
:10162000D8186D877E878F87988B0E9451086D85AB
:101630007E858F8598899B01AC01505829833A8318
:101640004B835C8342CF60960FB6F894DEBF0FBE2B
:10165000CDBFDF91CF91FF90EF90DF90CF90BF9003
:10166000AF909F908F907F906F905F904F900C9471
:10167000610889859A85AB85BC858C159D05AE056D
:10168000BF050CF74DEC5CEC6CE47EEB85E197E07C
:101690000E942805B501A401705887E197E00E94D7
:1016A00028056AE070E080E090E00E94A70F89E1E1
:1016B00097E00E94EC0769837A838B839C838BE19C
:1016C00097E00E94EC076D837E838F839887C70124
:1016D000B6010E941C176B017C0169817A818B81A4
:1016E0009C8190958095709561957F4F8F4F9F4F0E
:1016F0000E941C179B01AC01C701B6010E94D918BA
:101700000E94B7196B017C01C301B2010E941C1732
:101710002B013C016D817E818F8198850E941C1771
:101720009B01AC01C301B2010E94D9180E94B719F4
:101730002B013C0189E197E00E94EC0769837A83E1
:101740008B839C838BE197E00E94EC076D837E8303
:101750008F83988769817A818B819C819095809510
:10176000709561957F4F8F4F9F4F0E941C179B0173
:10177000AC01505829833A834B835C836D817E8111
:101780008F8198850E941C179B01AC0169817A8129
:101790008B819C810E94D81829E832ED4EE55AE3EE
:1017A0000E947B1769837A838B839C838827992780
:1017B000DC018C199D09AE09BF09BC01CD0164197A
:1017C0007509860997090E941C172CEA35EC47E237
:1017D00058E30E947B1720E030E0A9010E94D9184D
:1017E0009B01AC0169817A818B819C810E94D9180F
:1017F0009B01AC01C501B4010E94D9184B015C01E9
:101800000E94510836CF8F929F92AF92BF92CF9293
:10181000DF92EF92FF920F931F93CF93DF93CDB799
:10182000DEB7A1970FB6F894DEBF0FBECDBF6C0137
:10183000990FEE08FF08F7FE31C0E0918704F091A0
:1018400088040190F081E02D6DE287E894E019951D
:101850008C0122273327A9012C193D094E095F0964
:1018600019A2CE0181967C019AE0892E912CA12C9F
:10187000B12CCA01B901A50194010E946B18605DE9
:10188000F70162937F01211531054105510589F763
:10189000CF010E942109080F191F1EC0A701960140
:1018A00019A28E010F5D1F4F8AE0C82ED12CE12CAA
:1018B000F12CCA01B901A70196010E946B18605D65
:1018C000F80162938F01211531054105510589F712
:1018D000CF010E9421098C018FEC92E00E94210926
:1018E000800F911FA1960FB6F894DEBF0FBECDBF3B
:1018F000DF91CF911F910F91FF90EF90DF90CF90EC
:10190000BF90AF909F908F90089585ED8093BC001D
:101910008091BC0084FDFCCF10921C03089540917F
:101920006007262F30E0240F311D21323105DCF411
:1019300020911C032430C9F4FC0180E090E086175C
:1019400058F4309160072191DC01A25CB84FA30FDD
:10195000B11D2C930196F3CF80916007680F6093BF
:10196000600780E0089581E0089582E00895089579
:1019700081E090E03091340720913307321710F462
:1019800080E090E0919581959109089580913407C8
:1019900090913307891730F48F5F8093340780E08C
:1019A00090E008958FEF9FEF08958091330790E0C6
:1019B00020913407821B91090895CF92DF92EF9214
:1019C000FF920F931F93CF93DF937C01262F972FC6
:1019D0008A0180911D03882391F0C62FD72F6E01B5
:1019E000C40ED51ECC15DD0571F06991D701ED91BE
:1019F000FC910190F081E02DC7011995F3CF642F80
:101A0000822F0E948F0CC801DF91CF911F910F91FF
:101A1000FF90EF90DF90CF900895CF93DF931F92C8
:101A2000CDB7DEB7698320911D032223D1F0209129
:101A30004003203240F021E030E0FC013383228378
:101A400080E090E015C080911E03E82FF0E0E15E99
:101A5000FC4F998190838F5F80931E038093400396
:101A600005C061E0CE0101960E948F0C81E090E0FC
:101A70000F90DF91CF91089590E0FC013197E23112
:101A8000F10508F04EC08827EC57FF4F8F4F0C949C
:101A9000BC18809180008F7703C0809180008F7D7B
:101AA00080938000089580918000877FF9CF84B56E
:101AB0008F7702C084B58F7D84BD08958091B0007A
:101AC0008F7703C08091B0008F7D8093B000089520
:101AD000809190008F7707C0809190008F7D03C028
:101AE00080919000877F8093900008958091A0005E
:101AF0008F7707C08091A0008F7D03C08091A000E8
:101B0000877F8093A0000895809120018F7707C080
:101B1000809120018F7D03C080912001877F809379
:101B2000200108953FB7F89480913A0790913B07C0
:101B3000A0913C07B0913D0726B5A89B05C02F3F5B
:101B400019F00196A11DB11D3FBFBA2FA92F982FE3
:101B50008827820F911DA11DB11DBC01CD0142E05E
:101B6000660F771F881F991F4A95D1F708951F9216
:101B70000F920FB60F9211240F900FBE0F901F906F
:101B800018951F920F920FB60F9211240BB60F9259
:101B90002F933F934F935F936F937F938F939F9375
:101BA000AF93BF93EF93FF938091B900887F803606
:101BB00009F49CC068F5883209F45BC090F4803168
:101BC00009F454C038F4882309F4F6C0883009F4C5
:101BD0004DC0F6C0883109F44CC0803209F45DC0B4
:101BE000EFC0803409F468C048F4803309F455C06C
:101BF000883309F0E5C080931A03D8C0803509F412
:101C00004FC0883509F45DC0883409F0D9C0D6C00A
:101C1000883909F4C7C0A8F4883709F467C038F4D4
:101C2000883609F463C0803709F460C0C9C08838B9
:101C300009F4B8C0803909F45FC0803809F0C0C029
:101C40005BC0803B09F486C038F4803A09F466C072
:101C5000883A09F47FC0B4C0803C09F4A7C0883C2E
:101C600009F4A4C0883B09F48AC0AAC08091F70295
:101C700010C09091190380911803981770F5E091A6
:101C8000190381E08E0F80931903F0E0E850FD4FB7
:101C900080818093BB0085EC86C080931A038EC040
:101CA000E091190381E08E0F809319038091BB00AE
:101CB000F0E0E850FD4F8083909119038091180364
:101CC0006EC0E091190381E08E0F8093190380911B
:101CD000BB00F0E0E850FD4F808380911B03811131
:101CE0006DC081E08093F60284EA61C083E0809356
:101CF0001C0310928407CFCF80918407803208F0B4
:101D000051C0E091840781E08E0F80938407809119
:101D1000BB00F0E0EC59F84F8083BDCF85EC809399
:101D2000BC0010921C0380918407803230F4E09153
:101D30008407F0E0EC59F84F10826091840770E05E
:101D4000E0916207F091630784E697E0199510929D
:101D5000840736C084E080931C03109261071092C0
:101D60006007E0915E07F0915F0719958091600729
:101D7000811105C081E08093600710923E07E091D9
:101D8000610781E08E0F80936107F0E0E25CF84F1D
:101D900080818093BB0090916107809160079817C4
:101DA00008F479CF85E88093BC000AC085EC809365
:101DB000BC0010921C0304C010921A030E94850CF0
:101DC000FF91EF91BF91AF919F918F917F916F9113
:101DD0005F914F913F912F910F900BBE0F900FBECF
:101DE0000F901F901895CF93DF93282F30E0F901C3
:101DF000E952FD4F8491F901EF56FD4FD491F9015D
:101E0000E55BFD4FC491CC2391F081110E943C0D04
:101E1000EC2FF0E0EE0FFF1FEF5CFD4FA591B491AA
:101E2000EC91ED2381E090E021F480E002C080E0BD
:101E300090E0DF91CF9108951F93CF93DF93282FE8
:101E400030E0F901E952FD4F8491F901EF56FD4F61
:101E5000D491F901E55BFD4FC491CC23C9F0162F55
:101E600081110E943C0DEC2FF0E0EE0FFF1FE95EA8
:101E7000FD4FA591B4918FB7F894111105C09C91B5
:101E8000ED2FE095E92302C0EC91ED2BEC938FBF91
:101E9000DF91CF911F910895CF93DF9390E0FC01E4
:101EA000EF56FD4F2491FC01E55BFD4F84918823A3
:101EB00061F190E0880F991FFC01E350FE4FC5913E
:101EC000D491FC01E95EFD4FA591B491611109C067
:101ED0009FB7F8948881209582238883EC912E23E4
:101EE0000BC0623061F49FB7F8943881822F8095DF
:101EF00083238883EC912E2B2C939FBF06C08FB732
:101F0000F894E8812E2B28838FBFDF91CF9108951D
:101F1000863308F0865390917B00282F2870977F96
:101F2000922B90937B008770806480937C008091DB
:101F30007A00806480937A0080917A0086FDFCCFDD
:101F4000809178002091790090E0922B08958F92F3
:101F50009F92AF92BF92CF92DF92EF92FF926B016E
:101F60007C010E94920D4B015C01C114D104E1047B
:101F7000F104F1F00E94920DDC01CB01881999095E
:101F8000AA09BB09883E9340A105B10570F321E081
:101F9000C21AD108E108F10888EE880E83E0981E85
:101FA000A11CB11CC114D104E104F10419F7DDCF67
:101FB000FF90EF90DF90CF90BF90AF909F908F9069
:101FC00008951F920F920FB60F9211242F933F93F3
:101FD0008F939F93AF93BF9380913607909137076C
:101FE000A0913807B09139073091350723E0230FCE
:101FF0002D3720F40196A11DB11D05C026E8230F41
:102000000296A11DB11D209335078093360790934A
:102010003707A0933807B093390780913A0790911A
:102020003B07A0913C07B0913D070196A11DB11D52
:1020300080933A0790933B07A0933C07B0933D07EA
:10204000BF91AF919F918F913F912F910F900FBEB4
:102050000F901F90189580913306909134060C9440
:10206000871A789484B5826084BD84B5816084BD0C
:1020700085B5826085BD85B5816085BD80916E0026
:10208000816080936E001092810080918100826057
:102090008093810080918100816080938100809194
:1020A00080008160809380008091B1008460809383
:1020B000B1008091B00081608093B0008091910068
:1020C0008260809391008091910081608093910063
:1020D000809190008160809390008091A100826047
:1020E0008093A1008091A10081608093A1008091E4
:1020F000A00081608093A000809121018260809384
:102100002101809121018160809321018091200132
:1021100081608093200180917A00846080937A00AE
:1021200080917A00826080937A0080917A00816049
:1021300080937A0080917A00806880937A00109270
:10214000C100E0919704F091980482E08083E091CF
:102150009304F09194041082E0919504F091960418
:102160008FEC808310929F04E0919B04F0919C047B
:1021700086E08083E0919904F0919A0480818061E7
:102180008083E0919904F0919A0480818860808333
:10219000E0919904F0919A04808180688083E091B5
:1021A0009904F0919A0480818F7D808361E0809111
:1021B000FD060E944C0F60E08091FD060E941C0FFE
:1021C00060E08091FC060E944C0F81E493E09093C4
:1021D0000707809306071092340710923307109276
:1021E0001E031092400310921C0381E080931B0396
:1021F0001092F60261E084E10E941C0F61E085E12B
:102200000E941C0F8091B9008E7F8093B90080914D
:10221000B9008D7F8093B90088E48093B80085E48D
:102220008093BC0080E090E1A0E0B0E080930907DB
:1022300090930A07A0930B07B0930C078AE090E0F5
:10224000A0E0B0E080930D0790930E07A0930F07D6
:10225000B093100780E090E0A0E0B0E48093110715
:1022600090931207A0931307B093140760E070E1F6
:1022700085E00E949E096FE979E380E00E949E0953
:10228000C9E1D7E0C12CD12CE12CF12C10E8412E72
:1022900012E0512E06EC802E02E0902E8BECA82E40
:1022A00087E0B82EC7018450994F3C01FC0194810E
:1022B000828186010450194FF801818F928F61E06D
:1022C0000E944C0F61E0F801828D0E944C0FF301D7
:1022D000908586818883F801968F61E00E944C0F7B
:1022E00060E0F801868D0E944C0F61E088810E94B9
:1022F0001C0F1FB7F8948091F302811125C0F201E1
:102300008491F4019491E82FF0E0EE0FFF1FE35069
:10231000FE4FA591B4918C91982321F461E085E35F
:102320000E941C0F61E085E30E944C0F8CB5806118
:102330008CBD8CB580648CBD61E084E30E944C0F41
:1023400061E083E30E944C0F8091F3028F5F8093E2
:10235000F3021FBFC5010197F1F760E088810E9479
:102360001C0F88E80E94BA0783E00E94BA0761E068
:1023700088810E941C0FC5010197F1F7CE010E94D0
:10238000C107F2E0CF0ED11C2296EA94EF2821F08B
:10239000EE24E394F12C86CFC1E2D7E01C2F1C5F22
:1023A00060E089910E944C0F1C13FACF00E317E004
:1023B000CBE2D7E0FC2EF394F394FE0136976081D4
:1023C00070E0CE0102960E94B7069991FE01339704
:1023D0008081F80131978083F801908360E00E944A
:1023E0004C0F61E0F80180810E944C0F60E0F80121
:1023F00080810E941C0F0E5F1F4FFC12DECFF894ED
:102400001092200189E08093210180E293E0909373
:10241000290180932801109225011092240182E065
:1024200080937300789480932405109228058091FE
:10243000250560E00E944C0F6091250770E08DE259
:1024400097E00E94B7066091260770E08EE297E061
:102450000E94B70664E670E080E090E00E94A70F5B
:10246000809127078E3720F4809128078D3728F434
:1024700081E492E00E94330906C06DE770E08DE2CE
:1024800097E00E944106809127078F3120F48091C8
:1024900028078E3128F481E492E00E94330906C0B7
:1024A0006EE170E08EE297E00E94410664EF71E019
:1024B00080E090E00E94A70FE0912D0785E08E9FBD
:1024C000F0011124EA50FA4F90819F7B9083E091B4
:1024D0002E078E9FF0011124EA50FA4F80818F7BE6
:1024E000808360E08FE20E944C0F64EF71E080E037
:1024F00090E00E94A70F8EE592E00E9433090E94AF
:10250000061760E47FE10E94A8188053984F9093CB
:10251000F5028093F402809124070E94F30E892B28
:1025200039F464E670E080E090E00E94A70FF3CFFA
:1025300068E873E180E090E00E94A70F51E3952ED8
:1025400060E3862EC4E6D0E006E910E070EDA72E29
:1025500077E0B72E87E30E94880FBC01990F880BA4
:10256000990B0E941C1720E030E048E453E40E94DD
:1025700045192B013C0162E370E080E090E00E948D
:10258000A70F86E30E94880FBC01990F880B990B57
:102590000E941C1720E030E048E453E40E944519F3
:1025A0006B017C0162E370E080E090E00E94A70F85
:1025B00020E030E040E250E4C301B2010E94ED1996
:1025C00087FD0AC024E333E343E550E4C301B201CD
:1025D0000E9415171816A4F42DEC3CEC4CEC5EEBA5
:1025E000C301B2010E94ED1987FD0DC02DEC3CEC3A
:1025F0004CEC5EE3C301B2010E94151718161CF0E3
:102600009092010202C08092010225E83BEE41E473
:1026100050E4C701B6010E94ED1987FD0AC025E804
:102620003BEE41E650E4C701B6010E9415171816AB
:1026300044F526E636E646E150E4C701B6010E94BD
:10264000ED1987FD0AC026E636E646E350E4C701E9
:10265000B6010E9415171816A4F420E030E040E8F7
:102660005EEBC701B6010E94ED1987FD0DC020E0A9
:1026700030E040E85EE3C701B6010E941517181666
:102680001CF09092020202C08092020220E030E030
:1026900040E85EEBC701B6010E94ED1987FD0AC054
:1026A00020E030E040E85EE3C701B6010E94151764
:1026B000181644F526E636E646E150E4C701B601B1
:1026C0000E94ED1987FD0AC026E636E646E350E48F
:1026D000C701B6010E9415171816A4F42AE037EDB9
:1026E00043E85FE3C701B6010E94ED1987FD0DC005
:1026F0002AE037ED43EC5FE3C701B6010E941517EE
:1027000018161CF09092030202C08092030220E08F
:1027100030E040E85EEBC701B6010E94ED1987FD8D
:102720000AC020E030E040E85EE3C701B6010E9445
:102730001517181644F520E030E040EE5FE3C701BE
:10274000B6010E94ED1987FD0AC020E030E040E1AB
:1027500050E4C701B6010E9415171816A4F42AE028
:1027600037ED43E85FE3C701B6010E94ED1987FD2D
:102770000DC02AE037ED43EC5FE3C701B6010E94CC
:10278000151718161CF09092040202C080920402E1
:102790002AE939E949E95FE3C301B2010E94ED1971
:1027A00087FD0AC020E030E040E050E4C301B20100
:1027B0000E9415171816A4F42DEC3CEC4CEC5EEBC3
:1027C000C301B2010E94ED1987FD0DC02DEC3CEC58
:1027D0004CEC5EE3C301B2010E94151718161CF001
:1027E0009092050202C080920502809123070E9408
:1027F000F30E892B49F041E050E060E070E084EB9B
:1028000092E40E94E5097AC045E050E062E672E099
:1028100081E092E00E940D1C892BF1F045E050E030
:1028200068E672E081E092E00E940D1C892BA1F025
:1028300045E050E06EE672E081E092E00E940D1CFF
:10284000892B51F045E050E064E772E081E092E0CE
:102850000E940D1C892B49F48AE792E00E943309FB
:1028600046E656E666EA7FEB3DC045E050E06CE8A0
:1028700072E081E092E00E940D1C892BF1F045E0AE
:1028800050E062E972E081E092E00E940D1C892B29
:10289000A1F045E050E068E972E081E092E00E943A
:1028A0000D1C892B51F045E050E06EE972E081E0AB
:1028B00092E00E940D1C892B89F484EA92E00E9428
:1028C00033094DEC5CEC6CE47FEB87E197E00E9410
:1028D000280546E656E666EA7FE30CC04DEC5CEC64
:1028E0006CE47FEB87E197E00E9428054DEC5CECFF
:1028F0006CE47FE385E197E00E9428058FE20E9467
:10290000F30E019759F48FE20E94F30E0E946108C2
:1029100060E177E280E090E00E94A70F8091F402EE
:102920009091F502845691099093F5028093F402F8
:102930000E94030C8091F4029091F502181619067A
:10294000B4F10E9406177C010E9406179C01C70182
:10295000BE010E94A818EE24E394F12CC29714F44F
:10296000E12CF12CC901B8010E94A818BC01625EDB
:102970007F4F072E000C880B990B0E941C17A70194
:102980000E94E5090E940617B5010E94A81880530D
:10299000984F9093F5028093F40286EB92E00E94A8
:1029A00021098091F4029091F5020E94030C6AE0E3
:1029B00070E080E090E00E94A70F0E94F002CACD74
:1029C000109244031092430388EE93E0A0E0B0E03D
:1029D0008093450390934603A0934703B093480325
:1029E00025E132E0309342032093410310925003DB
:1029F00010924F038093510390935203A09353037B
:102A0000B093540327E232E030934E0320934D03FA
:102A100045E351E050935A034093590344E351E096
:102A200050935C0340935B0340E351E050935E039B
:102A300040935D0341E351E05093600340935F0393
:102A400042E351E0509362034093610346E351E057
:102A500050936403409363031092660310926703DC
:102A600010926803109269031092ED031092EC0328
:102A70008093EE039093EF03A093F003B093F103E0
:102A80003093EB032093EA0345ED50E05093F703B6
:102A90004093F60344ED50E05093F9034093F8035C
:102AA00040ED50E05093FB034093FA0341ED50E0BA
:102AB0005093FD034093FC0342ED50E05093FF031D
:102AC0004093FE0346ED50E0509301044093000410
:102AD000109203041092040410920504109206044C
:102AE00010928A041092890480938B0490938C0432
:102AF000A0938D04B0938E043093880420938704B0
:102B000085EC90E0909394048093930484EC90E09F
:102B1000909396048093950480EC90E090939804B1
:102B20008093970481EC90E090939A0480939904A9
:102B300082EC90E090939C0480939B0486EC90E060
:102B400090939E0480939D041092A0041092A1047F
:102B50001092A2041092A30486E380931D0787E3DA
:102B600080931E0788E380931F0789E380932007E3
:102B70008BE1809321078DE1809322078AE1809386
:102B800023078CE18093240784E08093250787E066
:102B9000809326071092270784EB8093280786E10D
:102BA0008093290788E180932A0787E180932B0788
:102BB00089E180932C07E0913206EC3020F08FEF12
:102BC00080932D0710C081E08E0F80933206E09332
:102BD0002D0725E0E29FF0011124EA50FA4F88EB1F
:102BE0009BE092838183E0913206EC3020F08FEFFE
:102BF00080932E0710C081E08E0F80933206E09301
:102C00002E0785E0E89FF0011124EA50FA4F88EB87
:102C10009BE0928381838CE08093FC0684E2809326
:102C2000FD0686E08093FE0685E08093FF068FE137
:102C3000809300078EE18093010783E2809302076F
:102C400082E28093030785E48093040784E4809301
:102C5000050780E48093080710920D0710920E0775
:102C600010920F071092100710921107109212077E
:102C70001092130710921407EEE3F6E08FEF9FEF28
:102C8000DC0112821382148215821682178210864A
:102C9000118683879487A587B6878787908BA18BBA
:102CA000B28B128611821082739626E0EC3FF207F7
:102CB00041F78DE090E00E94F219FC01138212822C
:102CC00089E392E091838083118687E2848384E1A3
:102CD000828784E083871486F0933B06E0933A066C
:102CE00010923C0610923D0685E2809325051092D5
:102CF0002705109234061092330610923606109271
:102D00003506109238061092370661E070E080E0D8
:102D100090E00E941F1B009789F0909334068093E7
:102D20003306109236061092350620913706309100
:102D30003806232BC1F4FC01108215C080913306A4
:102D400090913406009711F00E94871A1092340671
:102D500010923306109238061092370610923606FB
:102D6000109235060895109238061092370661EDDC
:102D700072E00C94231C8F929F92AF92BF92CF92DD
:102D8000DF92EF92FF92CF93DF93EC01688179811C
:102D90008A819B81611571058105910521F464E2A9
:102DA00079ED8BE597E02DE133EF41E050E00E94B3
:102DB000391849015A019B01AC01A7EAB1E40E940C
:102DC00058186B017C01ACEEB4EFA50194010E9490
:102DD0006618DC01CB018C0D9D1DAE1DBF1DB7FF1C
:102DE00003C00197A109B04888839983AA83BB8354
:102DF0009F77DF91CF91FF90EF90DF90CF90BF90C2
:102E0000AF909F908F9008950C94BB1687E092E04E
:102E10000C94BB16A0E0B0E08093070290930802E8
:102E2000A0930902B0930A0208950E94571708F46C
:102E300081E00895E89409C097FB3EF49095809551
:102E4000709561957F4F8F4F9F4F9923A9F0F92F70
:102E500096E9BB279395F695879577956795B795EE
:102E6000F111F8CFFAF4BB0F11F460FF1BC06F5FD4
:102E70007F4F8F4F9F4F16C0882311F096E911C0E6
:102E8000772321F09EE8872F762F05C0662371F007
:102E900096E8862F70E060E02AF09A95660F771F1B
:102EA000881FDAF7880F9695879597F90895990FF7
:102EB0000008550FAA0BE0E8FEEF16161706E80704
:102EC000F907C0F012161306E407F50798F0621B25
:102ED000730B840B950B39F40A2661F0232B242BFA
:102EE000252B21F408950A2609F4A140A6958FEF19
:102EF000811D811D08950E948E170C94FF170E945A
:102F0000F11738F00E94F81720F0952311F00C9477
:102F1000E8170C94EE1711240C9433180E94101823
:102F200070F3959FC1F3950F50E0551F629FF0011C
:102F3000729FBB27F00DB11D639FAA27F00DB11D35
:102F4000AA1F649F6627B00DA11D661F829F2227BE
:102F5000B00DA11D621F739FB00DA11D621F839F45
:102F6000A00D611D221F749F3327A00D611D231F1B
:102F7000849F600D211D822F762F6A2F11249F5769
:102F800050409AF0F1F088234AF0EE0FFF1FBB1F6C
:102F9000661F771F881F91505040A9F79E3F51052B
:102FA00080F00C94E8170C9433185F3FE4F3983EDC
:102FB000D4F3869577956795B795F795E7959F5FD5
:102FC000C1F7FE2B880F911D9695879597F9089567
:102FD00097F99F6780E870E060E008959FEF80ECCC
:102FE000089500240A94161617061806090608956F
:102FF00000240A9412161306140605060895092ED5
:103000000394000C11F4882352F0BB0F40F4BF2B43
:1030100011F460FF04C06F5F7F4F8F4F9F4F089583
:1030200057FD9058440F551F59F05F3F71F0479579
:10303000880F97FB991F61F09F3F79F0879508955E
:10304000121613061406551FF2CF4695F1DF08C07D
:10305000161617061806991FF1CF8695710561059A
:1030600008940895E894BB2766277727CB0197F942
:103070000895052E97FB1EF400940E94501857FDEA
:1030800007D00E946B1807FC03D04EF40C94501824
:1030900050954095309521953F4F4F4F5F4F089584
:1030A00090958095709561957F4F8F4F9F4F0895B4
:1030B0000E948D18A59F900DB49F900DA49F800D28
:1030C000911D11240895B7FF0C9458180E945818A8
:1030D000821B930B0895A1E21A2EAA1BBB1BFD01B4
:1030E0000DC0AA1FBB1FEE1FFF1FA217B307E407E7
:1030F000F50720F0A21BB30BE40BF50B661F771F3F
:10310000881F991F1A9469F760957095809590951E
:103110009B01AC01BD01CF010895A29FB001B39FF7
:10312000C001A39F700D811D1124911DB29F700DD0
:10313000811D1124911D0895991B79E004C0991FE8
:10314000961708F0961B881F7A95C9F78095089501
:1031500097FB072E16F4009407D077FD09D00E9444
:10316000C41807FC05D03EF4909581959F4F0895B3
:10317000709561957F4F0895EE0FFF1F881F8BBFDD
:103180000790F691E02D1994AA1BBB1B51E107C0D3
:10319000AA1FBB1FA617B70710F0A61BB70B881FE7
:1031A000991F5A95A9F780959095BC01CD01089576
:1031B0005058BB27AA270E94F0180C94FF170E94B2
:1031C000F11738F00E94F81720F039F49F3F19F4F6
:1031D00026F40C94EE170EF4E095E7FB0C94E81738
:1031E000E92F0E94101858F3BA1762077307840773
:1031F000950720F079F4A6F50C9432180EF4E095BA
:103200000B2EBA2FA02D0B01B90190010C01CA01A0
:10321000A0011124FF27591B99F0593F50F4503E4B
:1032200068F11A16F040A22F232F342F4427585F3D
:10323000F3CF469537952795A795F0405395C9F755
:103240007EF41F16BA0B620B730B840BBAF091500D
:10325000A1F0FF0FBB1F661F771F881FC2F70EC0AC
:10326000BA0F621F731F841F48F48795779567957F
:10327000B795F7959E3F08F0B0CF9395880F08F06B
:103280009927EE0F9795879508950E9459190C94E8
:10329000FF170E94F81758F00E94F11740F029F428
:1032A0005F3F29F00C94E81751110C9433180C94DB
:1032B000EE170E94101868F39923B1F3552391F388
:1032C000951B550BBB27AA2762177307840738F095
:1032D0009F5F5F4F220F331F441FAA1FA9F335D0F2
:1032E0000E2E3AF0E0E832D091505040E695001CA6
:1032F000CAF72BD0FE2F29D0660F771F881FBB1F60
:10330000261737074807AB07B0E809F0BB0B802D3D
:10331000BF01FF2793585F4F3AF09E3F510578F069
:103320000C94E8170C9433185F3FE4F3983ED4F301
:10333000869577956795B795F7959F5FC9F7880F3D
:10334000911D9695879597F90895E1E0660F771F8F
:10335000881FBB1F621773078407BA0720F0621B20
:10336000730B840BBA0BEE1F88F7E09508950E944B
:10337000BE196894B1110C94331808950E9418185E
:1033800088F09F5798F0B92F9927B751B0F0E1F026
:10339000660F771F881F991F1AF0BA95C9F714C0D6
:1033A000B13091F00E943218B1E008950C943218B7
:1033B000672F782F8827B85F39F0B93FCCF386950F
:1033C00077956795B395D9F73EF49095809570956C
:1033D00061957F4F8F4F9F4F08950E94571708F4B4
:1033E0008FEF0895CF93DF938230910510F482E040
:1033F00090E0E0918907F0918A0720E030E0C0E09A
:10340000D0E0309711F14081518148175907C0F041
:103410004817590761F482819381209719F09B83A3
:103420008A832BC090938A078093890726C0211531
:10343000310519F04217530718F49A01BE01DF0154
:10344000EF010280F381E02DDCCF2115310509F178
:10345000281B390B2430310590F412968D919C91E4
:1034600013976115710521F0FB019383828304C0DA
:1034700090938A0780938907FD01329644C0FD012D
:10348000E20FF31F81939193225031092D933C93C6
:103490003AC02091870730918807232B41F420916F
:1034A0000D0230910E0230938807209387072091F8
:1034B0000B0230910C022115310541F42DB73EB7B6
:1034C00040910F0250911002241B350BE0918707A9
:1034D000F0918807E217F307A0F42E1B3F0B281783
:1034E000390778F0AC014E5F5F4F2417350748F07D
:1034F0004E0F5F1F509388074093870781939193E6
:1035000002C0E0E0F0E0CF01DF91CF9108950F938A
:103510001F93CF93DF93009709F48CC0FC0132977F
:10352000138212820091890710918A0701151105F3
:1035300081F420813181820F931F20918707309180
:1035400088072817390779F5F0938807E0938707EC
:1035500071C0D80140E050E0AE17BF0750F412969A
:103560002D913C911397AD012115310509F1D90138
:10357000F3CF9D01DA013383228360817181860F4D
:10358000971F8217930769F4EC0128813981260F70
:10359000371F2E5F3F4F318320838A819B81938326
:1035A0008283452B29F4F0938A07E093890742C070
:1035B0001396FC93EE931297ED01499159919E0158
:1035C000240F351FE217F30771F480819181840F76
:1035D000951F029611969C938E93828193811396E8
:1035E0009C938E931297E0E0F0E0D80112968D91B3
:1035F0009C911397009719F0F8018C01F6CF8D91EB
:103600009C9198012E5F3F4F820F931F2091870757
:10361000309188072817390769F4309729F41092F8
:103620008A071092890702C01382128210938807BA
:1036300000938707DF91CF911F910F9108956F92AB
:103640007F928F929F92AF92BF92CF92DF92EF9232
:10365000FF920F931F93CF93DF93EC01009789F4B0
:10366000CB01DF91CF911F910F91FF90EF90DF90F1
:10367000CF90BF90AF909F908F907F906F900C9461
:10368000F219FC01E60FF71F9C0122503109E217E5
:10369000F30708F4ACC0D9010D911C9111970617DE
:1036A0001707B0F00530110508F49FC0C801049752
:1036B0008617970708F499C002501109061B170BCB
:1036C000019311936D937C93CF010E94871A8DC053
:1036D0005B01A01AB10A4C01800E911EA0918907CE
:1036E000B0918A0740E050E0E12CF12C109709F4EA
:1036F0004AC0A815B905D1F56D907C90119763016A
:1037000082E0C80ED11CCA14DB0480F1A3014A195F
:103710005B096A0182E0C80ED11C1296BC90129718
:103720001396AC91B5E0CB16D10440F0B282A383DE
:1037300051834083D9016D937C930AC00E5F1F4F64
:10374000C301800F911FF90191838083EB2DFA2F24
:10375000E114F10431F0D7011396FC93EE93129724
:1037600044C0F0938A07E09389073FC08D919C91F4
:1037700011974817590708F4AC017D0112960D9076
:10378000BC91A02DB3CF80918707909188078815B1
:103790009905E1F446175707C8F480910B02909100
:1037A0000C02009741F48DB79EB740910F025091E3
:1037B0001002841B950BE817F907C8F4F0938807EB
:1037C000E0938707F901718360830FC0CB010E94EA
:1037D000F2197C01009759F0A801BE010E941A1C41
:1037E000CE010E94871AC70104C0CE0102C080E04A
:1037F00090E0DF91CF911F910F91FF90EF90DF90BC
:10380000CF90BF90AF909F908F907F906F900895D2
:1038100081E090E0F8940C942A1CFB01DC0104C0C8
:103820008D910190801921F441505040C8F7881BB8
:10383000990B0895FB01DC0102C001900D924150EB
:103840005040D8F70895FB01DC0101900D92002053
:10385000E1F7089511E0C0E9D1E000E006C0802F53
:10386000FE010E94BC182196011DC139D10780E0DC
:083870000807A9F7F894FFCF47
:10387800FF3030303030000100000000008B07209E
:1038880000000000000D0DDD0C1E03B70CD50CC6A2
:103898000CB80C000000008402C4010802CB0239F5
:1038A8000217022B02000000004903C4011E031D79
:1038B80003536572766F20616E676C6520697320AB
:1038C8006F7574206F662072616E67652100474FBF
:1038D8002100313130303000313131303000303179
:1038E80031303000313030303000436F72726563F0
:1038F80074696F6E206761756368650030303031B8
:103908003100303031313100303031313000303039
:1039180030303100436F7272656374696F6E206472
:10392800726F697465004E6F7576656C6C6520768C
:10393800616C6575722072616E646F6D3A20000D5E
:023948000A0073
:00000001FF
