:100000000C9491010C94C2010C94C2010C94C20195
:100010000C94C2010C94C2010C94C2010C94C20154
:100020000C94C2010C946C110C946C110C946C1116
:100030000C94C2010C949E0A0C94C2010C94C2014F
:100040000C94C2010C94B8050C94C2010C94C2012A
:100050000C94C2010C94C2010C94C2010C94540A79
:100060000C94C2010C94D9020C944E030C94C2015E
:100070000C94C2010C94C2010C94C2010C94C201F4
:100080000C94C2010C94C2010C94C2010C94C201E4
:100090000C94C2010C94C2010C94C2010C94761110
:1000A0000C94C2010C94C2010C94C2010C94C201C4
:1000B0000C94C2010C94C2010C94C2010C94E10393
:1000C0000C94C2010C94C2010C94C2010C94AF02B6
:1000D0000C9424030C94C2010C94670B0C943D0BFC
:1000E0000C94C201FF040405090513051D059605BE
:1000F00027052F05370541054B05550564056E0598
:100100009605780582058C055D1060104F10531020
:1001100059109710641068106E10721076107C10D1
:100120008010841097108A108E1092100C94601713
:100130000C94CC0F0C94E7010C9478030C9482057A
:100140000C948C050C9484100C9442140C94960519
:100150000C9497100C9460100C944B050C944F1059
:100160000C94C4010C9453100C9441050C94BF03DF
:100170000C94FF040C9476100C945D100C94DB0F1F
:100180000C94BD0F0C9472100C942F050C94F50177
:100190000C94D3010C9480100C9404050C9413104F
:1001A0000C941D050C9427050C9446020C946E05C6
:1001B0000C9464050C9492100C948A100C9409050C
:1001C0000C9478050C948E100C9459100C946810B3
:1001D0000C9488090C9437050C947C100C94E30F54
:1001E0000C9455050C9464100C9445020C94BE0FAD
:1001F0000C9471020C946E100C94130502000021F3
:1002000000240027002A002D0030003300010100E7
:1002100000040107010A0100002200250028002B2C
:10022000002E003100340002010000050108010B1E
:1002300001000020002300260029002C002F00329E
:10024000000001000003010601090105050505077D
:100250000508080808020202020A0A080804040441
:10026000040101010101010101030303030303036D
:1002700003040707070C0C0C0C0C0C0C0C020202FC
:100280000206060606060606060B0B0B0B0B0B0BEF
:100290000B0102102020080810204010204080028E
:1002A00001020108040201010204081020408080BC
:1002B0004020100804020180040201804020100840
:1002C0000402010804020101020408102040800118
:1002D0000204081020408000000A0B02090C0D0ED9
:1002E00008070304010000000000000000000000F7
:1002F00000000000000000000000000000000000FE
:1003000000000012111000000000000000000000BA
:100310000000000000000000000000000000601766
:10032000421411241FBECFEFD1E2DEBFCDBF00E0EB
:100330000CBF12E0A0E0B2E0ECEFFBE300E00BBF8B
:1003400002C007900D92A03AB107D9F728E0A0EAC1
:10035000B2E001C01D92A73EB207E1F711E0C0E98B
:10036000D1E000E006C021970109802FFE010E9424
:100370008D1ACF38D10780E00807A9F70E944814EA
:100380000C94EC1D0C940000FC01538D448D252F22
:1003900030E0842F90E0821B930B541710F0CF961F
:1003A000089501970895FC01918D828D981761F051
:1003B000828DDF01A80FB11D5D968C91928D9F5F9C
:1003C0009F73928F90E008958FEF9FEF0895FC0147
:1003D000918D828D981731F0828DE80FF11D858DFA
:1003E00090E008958FEF9FEF0895FC01918D228D8D
:1003F000892F90E0805C9F4F821B91098F73992712
:1004000008958AE995E00E94F50121E0892B09F41D
:1004100020E0822F089587E396E00E94F50121E015
:10042000892B09F420E0822F0895E0E0F0E0199490
:1004300080E090E0892B21F00E940B02811119C00D
:1004400080E090E0892B41F080E090E0892B21F062
:100450000E940000811110C00E94010281110FC092
:1004600080E090E0892B81F00E94B50981110AC0DB
:1004700008950E940000E4CF0E940000EDCF0E948A
:100480001502EECF0C9400000895089580E090E0EE
:100490000895FC01248131E03093CD042093EF04D2
:1004A0001092CE041092F0048485682B81EF94E0C2
:1004B0000E9413100C9421130F931F93CF938C0160
:1004C000C62F64600E9449026C2F6B7FC8010E9496
:1004D000490283EC90E00197F1F7CF911F910F91C2
:1004E00008950F931F93CF93DF938C01C62FD62FC0
:1004F000D07FD1606D2F0E9449026D2FC8010E94EC
:100500005C0280E1C89FB0011124C62FC1606C2F2E
:10051000C8010E9449026C2FC8010E945C0281E060
:1005200090E0DF91CF911F910F910895FC01A08978
:10053000B1898C91A689B78982FD0FC09C91818D6C
:100540008F5F8F73228D821749F0218DDF01A20FFB
:10055000B11D5D969C93818F08958C9108951F9293
:100560000F920FB60F9211240BB60F922F933F9359
:100570004F935F936F937F938F939F93AF93BF93AB
:10058000EF93FF938AE995E00E949602FF91EF9125
:10059000BF91AF919F918F917F916F915F914F919B
:1005A0003F912F910F900BBE0F900FBE0F901F9099
:1005B00018951F920F920FB60F9211240BB60F923F
:1005C0002F933F934F935F936F937F938F939F935B
:1005D000AF93BF93EF93FF9387E396E00E94960259
:1005E000FF91EF91BF91AF919F918F917F916F910B
:1005F0005F914F913F912F910F900BBE0F900FBEC7
:100600000F901F901895FC01848DDF01A80FB11D7C
:10061000A35ABF4F2C91848D90E001968F73992738
:10062000848FA689B7892C93A089B1898C91806425
:100630008C93938D848D981306C00288F389E02DE6
:1006400080818F7D808308951F920F920FB60F9245
:1006500011240BB60F922F933F934F935F936F9399
:100660007F938F939F93AF93BF93EF93FF938AE909
:1006700095E00E940303FF91EF91BF91AF919F918D
:100680008F917F916F915F914F913F912F910F903B
:100690000BBE0F900FBE0F901F9018951F920F92D8
:1006A0000FB60F9211240BB60F922F933F934F93D7
:1006B0005F936F937F938F939F93AF93BF93EF93CA
:1006C000FF9387E396E00E940303FF91EF91BF91B0
:1006D000AF919F918F917F916F915F914F913F91DA
:1006E0002F910F900BBE0F900FBE0F901F9018957B
:1006F000EF92FF920F931F93CF93DF93EC0181E072
:10070000888F9B8D8C8D981305C0E889F98980812D
:1007100085FD24C0F62E0B8D10E00F5F1F4F0F7369
:100720001127E02E8C8DE8120CC00FB607FCFACF13
:10073000E889F989808185FFF5CFCE010E94030306
:10074000F1CF8B8DFE01E80FF11DE35AFF4FF082D0
:100750000B8FEA89FB898081806207C0EE89FF895F
:100760006083E889F98980818064808381E090E0FA
:10077000DF91CF911F910F91FF90EF900895CF934C
:10078000DF93EC01888D8823C9F0EA89FB89808199
:1007900085FD05C0A889B9898C9186FD0FC00FB66B
:1007A00007FCF5CF808185FFF2CFA889B9898C91AC
:1007B00085FFEDCFCE010E940303E7CFDF91CF91FC
:1007C00008951F920F920FB60F9211240BB60F923D
:1007D0002F933F934F935F936F937F938F939F9349
:1007E000AF93BF93EF93FF938091D5060E94A81219
:1007F0002091D9063091DA062F5F3F4F3093DA0609
:100800002093D9069091D806953618F096E09093EB
:10081000D4069091D4069430C9F128F4923069F04E
:100820009330D1F05EC0953009F451C0963009F094
:1008300058C091E09093A50751C0811152C02091FA
:10084000D9063091DA062436310508F442C01092F8
:10085000A5071092D8061CC0813009F042C0E09173
:10086000D80691E09E0F9093D806F0E02091D9062B
:100870003091DA06EE0FFF1FEC52F94F30872783D5
:100880001092DA061092D90694E029C0811117C09F
:10089000E091D80691E09E0F9093D806F0E0209169
:1008A000D9063091DA06EE0FFF1FEC52F94F308770
:1008B00027831092DA061092D90693E010C0209197
:1008C000D9063091DA062536310558F007C0811176
:1008D00008C01092DA061092D90603C095E09093F2
:1008E000D4069091D7069923B9F081110AC080915E
:1008F000D606882321F08091D60661E009C02F9AA0
:100900000BC08091D606882331F08091D60660E036
:100910000E94D11201C02F98FF91EF91BF91AF912A
:100920009F918F917F916F915F914F913F912F9107
:100930000F900BBE0F900FBE0F901F9018958F92C7
:100940009F92AF92BF92CF92DF92EF92FF920F935E
:100950001F93CF93DF93EC016A017B0120E030E02D
:100960004FE753E4C701B6010E94A1194B015C0196
:1009700020E030E0A9010E94AA1B18161CF4C50152
:10098000B40103C0C501B40190580E94741B8B01CF
:1009900020E030E0A901C701B6010E94AA1B181689
:1009A00014F460E001C061E089810E94D1120F3F20
:1009B000110509F014F4112702C00FEF10E0C881EF
:1009C00061E08C2F0E94BF090115110509F4B1C027
:1009D0000F3F110509F4AFC0EC2FF0E0E952FD4FD5
:1009E000E4914E2F50E0FA013197E231F10508F021
:1009F0009DC08827EE58FF4F8F4F0C948D1A84B5F9
:100A0000806884BD07BDA7C084B5806284BD08BD71
:100A1000A2C080918000806880938000109389003C
:100A20000093880098C0809180008062809380004D
:100A300010938B0000938A008EC0809180008860A4
:100A40008093800010938D0000938C0084C080916F
:100A5000B00080688093B0000093B3007CC08091A8
:100A6000B00080628093B0000093B40074C08091A5
:100A700090008068809390001093990000939800F4
:100A80006AC08091900080628093900010939B00D8
:100A900000939A0060C080919000886080939000DD
:100AA00010939D0000939C0056C08091A000806828
:100AB0008093A0008091A0008F7B8093A000109372
:100AC000A9000093A80047C08091A0008062809395
:100AD000A0001093AB000093AA003DC08091A0003D
:100AE00088608093A0001093AD000093AC0033C0E9
:100AF0008091200180688093200110932901009348
:100B0000280129C0809120018062809320011093E8
:100B10002B0100932A011FC08091200188608093DF
:100B2000200110932D0100932C0115C000381105F0
:100B300014F460E001C061E08C2FDF91CF911F9130
:100B40000F91FF90EF90DF90CF90BF90AF909F906C
:100B50008F900C94D112DF91CF911F910F91FF9044
:100B6000EF90DF90CF90BF90AF909F908F900895BF
:100B70001F920F920FB60F9211240BB60F922F9364
:100B80003F934F935F936F937F938F939F93AF9315
:100B9000BF93EF93FF938091B90287FF05C0109236
:100BA00085001092840016C02091B902022E000C1C
:100BB000330B8091E20790E0281739075CF43091FD
:100BC000B90225E03203F0011124EA55F84F808183
:100BD00086FD15C08091B9028F5F8093B902209184
:100BE000B902022E000C330B8091E20790E0281727
:100BF000390794F48091B9028C302CF10DC03091FA
:100C0000B9023203F0011124EA55F84F808160E007
:100C10008F730E94D112DECF809184009091850065
:100C200084349C4918F480E49CE905C080918400D8
:100C300090918500049690938900809388008FEFAF
:100C40008093B9022AC04091840050918500309170
:100C5000B90225E03203F0011124EA55F84F8181F1
:100C60009281840F951F9093890080938800309122
:100C7000B9023203F0011124EA55F84F808186FF52
:100C80000CC03091B9023203F0011124EA55F84F3B
:100C9000808161E08F730E94D112FF91EF91BF912B
:100CA000AF919F918F917F916F915F914F913F9104
:100CB0002F910F900BBE0F900FBE0F901F901895A5
:100CC0008EBD00000DB407FEFDCF8EB50895CF9305
:100CD000DF93EC0160E088810E94D11288E90E94D4
:100CE000600680E00E94600680E00E94600680E06E
:100CF0000E94600680E00E94600661E088810E9498
:100D0000D1128BE891E00197F1F760E088810E94B1
:100D1000D11280EE0E94600661E08881DF91CF9160
:100D20000C94D112AF92BF92CF92DF92EF92FF92CA
:100D30000F931F93CF93DF93CDB7DEB760970FB6B6
:100D4000F894DEBF0FBECDBF5C0160E0FC01808186
:100D50000E94D11280E60E9460068E010F5F1F4F35
:100D60007E01F1E1EF0EF11C680180E00E94600657
:100D700090E0A0E0B0E0F60181939193A193B1934C
:100D80006F01EE15FF0589F761E0F50180810E9492
:100D9000D11280E090E0DC01F80141915191619124
:100DA00071918F01BA2FA92F982F8827840F951F33
:100DB000A61FB71FEE15FF0579F79C01AD01662749
:100DC0007727CB01621B730B840B950B60960FB6D4
:100DD000F894DEBF0FBECDBFDF91CF911F910F9171
:100DE000FF90EF90DF90CF90BF90AF90089589EC87
:100DF00098E00E94920689EC98E00E9467068BECCE
:100E000098E00E9492068BEC98E00C9467064F9253
:100E10005F926F927F928F929F92AF92BF92CF928A
:100E2000DF92EF92FF920F931F93CF93DF93CDB793
:100E3000DEB72C970FB6F894DEBF0FBECDBF6D8323
:100E40007E838F83988749015A016701780189EC75
:100E500098E00E9492062B013C018BEC98E00E94E6
:100E6000920669837A838B839C8366277727CB01DD
:100E700064197509860997090E9442192B013C01E2
:100E800069817A818B819C810E9442199B01AC010E
:100E9000C301B2010E94951A29E832ED4EE55AE3EA
:100EA0000E94A1192B013C01C501B4016C197D09F7
:100EB0008E099F090E9442192CEA35EC47E258E35B
:100EC0000E94A11920E030E0A9010E94961A9B011E
:100ED000AC01C301B2010E94961A2D813E814F815F
:100EE00058850E94961A69877A878B879C870E940B
:100EF000F70669857A858B859C852C960FB6F894C4
:100F0000DEBF0FBECDBFDF91CF911F910F91FF903C
:100F1000EF90DF90CF90BF90AF909F908F907F9099
:100F20006F905F904F90089540E050E0BA0185ECDB
:100F300098E00E949F0440E050E060E070E887EC99
:100F400098E00E949F0489EC98E00E94920689EC48
:100F500098E00E9467068BEC98E00E9492068BEC6A
:100F600098E00C9467064F925F926F927F928F92F7
:100F70009F92AF92BF92CF92DF92EF92FF920F9328
:100F80001F93CF93DF93CDB7DEB768970FB6F89472
:100F9000DEBF0FBECDBF69877A878B879C8726E629
:100FA00036E646E65FE30E94A11923E535EB47E705
:100FB0005EE30E94021B20E030E048E455E40E941A
:100FC000A1190E94741B6D877E878F87988B198269
:100FD0001A821B821C82812C912C54018AE0482E9B
:100FE00087ED582E83E2682E8CE3782E4D825E8248
:100FF0006F8278868D859E85AF85B889881699061B
:10100000AA06BB060CF08DC04D815E816F8178858C
:1010100085EC98E00E949F04B301A201705887EC10
:1010200098E00E949F0462E370E080E090E00E94FC
:101030001A0A89EC98E00E949206698B7A8B8B8B56
:101040009C8B8BEC98E00E9492066D8B7E8B8F8B35
:10105000988FC501B4010E9442196B017C01698916
:101060007A898B899C8990958095709561957F4F41
:101070008F4F9F4F0E9442199B01AC01C701B601DF
:101080000E94961A0E94741B4B015C0169817A814F
:101090008B819C810E9442196B017C016D897E8944
:1010A0008F89988D0E9442199B01AC01C701B6013E
:1010B0000E94961A0E94741B69837A838B839C8397
:1010C0007B018C01A5019401C301B2010E940707B5
:1010D0002B013C010E94F70626E636E646E65FE372
:1010E0006D817E818F8198850E943B1987FF82CF19
:1010F0002FE832EC45EF5CE36D817E818F8198852E
:101100000E94961A6D837E838F8398872FE832EC36
:1011100045EF5CE3C301B2010E94961A2B013C012A
:1011200069CF2DEC3CEC4CEC5DE369857A858B85D1
:101130009C850E94A11923E535EB47E75EE30E94F9
:10114000021B20E030E048E455E40E94A1190E940F
:10115000741B69877A878B879C8719821A821B8206
:101160001C82812C912C540189859A85AB85BC8584
:1011700088159905AA05BB050CF48DC089EC98E08B
:101180000E9492066D877E878F87988B8BEC98E004
:101190000E9492066B017C01C501B4010E944219B4
:1011A0004B015C016D857E858F8598899095809532
:1011B000709561957F4F8F4F9F4F0E9442199B0101
:1011C000AC01C501B4010E94961A0E94741B4B0128
:1011D0005C0169817A818B819C810E9442196983BB
:1011E0007A838B839C83C701B6010E9442199B01BD
:1011F000AC0169817A818B819C810E94961A0E9440
:10120000741B69837A838B839C837B018C01A5018A
:101210009401C301B2010E9407072B013C010E9407
:10122000F70620E030E040E85EE36D817E818F814B
:1012300098850E94AA1B18163CF52DEC3CEC4CE45A
:101240005DE36D817E818F8198850E94951A6D8303
:101250007E838F8398872DEC3CEC4CE45DE3C301E7
:10126000B2010E94951A2B013C014D815E816F8174
:10127000788585EC98E00E949F04B301A201705824
:1012800087EC98E00E949F046BE470E080E090E0BF
:101290000E941A0A69CF68960FB6F894DEBF0FBE97
:1012A000CDBFDF91CF911F910F91FF90EF90DF9015
:1012B000CF90BF90AF909F908F907F906F905F90F6
:1012C0004F900C9494073FB7F894809157049091F5
:1012D0005804A0915904B0915A0426B5A89B05C0A2
:1012E0002F3F19F00196A11DB11D3FBFBA2FA92FA5
:1012F000982F8827820F911DA11DB11DBC01CD0122
:1013000042E0660F771F881F991F4A95D1F708950D
:10131000CF92DF92EF92FF920F931F93CF93DF93C1
:101320006C017A018B01C0E0D0E0CE15DF0589F0B9
:10133000D8016D918D01D601ED91FC910190F08164
:10134000E02DC6011995892B11F47E0102C021966A
:10135000ECCFC701DF91CF911F910F91FF90EF90DC
:10136000DF90CF9008950E94CA1D8DEF94E00E94F7
:10137000F50121E0892B09F420E0822F0895CF9315
:10138000DF9390E0FC01EF56FD4F2491FC01E55BFB
:10139000FD4F8491882361F190E0880F991FFC0133
:1013A000E350FE4FC591D491FC01E95EFD4FA5913C
:1013B000B491611109C09FB7F89488812095822368
:1013C0008883EC912E230BC0623061F49FB7F894B0
:1013D0003881822F809583238883EC912E2B2C9348
:1013E0009FBF06C08FB7F894E8812E2B28838FBF4C
:1013F000DF91CF910895863308F0865390917B005A
:10140000282F2870977F922B90937B0087708064A1
:1014100080937C0080917A00806480937A00809130
:101420007A0086FDFCCF809178002091790090E0D1
:10143000922B08958F929F92AF92BF92CF92DF929C
:10144000EF92FF926B017C010E9463094B015C01EA
:10145000C114D104E104F104F1F00E946309DC013C
:10146000CB0188199909AA09BB09883E9340A105B7
:10147000B10570F321E0C21AD108E108F10888EE45
:10148000880E83E0981EA11CB11CC114D104E10494
:10149000F10419F7DDCFFF90EF90DF90CF90BF9070
:1014A000AF909F908F9008951F920F920FB60F925A
:1014B00011242F933F938F939F93AF93BF9380916A
:1014C000530490915404A0915504B0915604309166
:1014D000520423E0230F2D3720F40196A11DB11DE6
:1014E00005C026E8230F0296A11DB11D20935204CA
:1014F0008093530490935404A0935504B0935604DE
:101500008091570490915804A0915904B0915A04C5
:101510000196A11DB11D8093570490935804A09388
:101520005904B0935A04BF91AF919F918F913F910D
:101530002F910F900FBE0F901F9018951F920F9232
:101540000FB60F9211240BB60F922F933F934F9328
:101550005F936F937F938F939F93AF93BF93EF931B
:10156000FF938091BD029091BE02A091BF02B09105
:10157000C002892B8A2B8B2B59F18091BC02E09100
:10158000BA02F091BB029081892780838091BD02CD
:101590009091BE02A091BF02B091C0021816190628
:1015A0001A061B060CF056C08091BD029091BE0237
:1015B000A091BF02B091C0020197A109B109809327
:1015C000BD029093BE02A093BF02B093C00242C07E
:1015D00080910002ECEFF1E0E4919FEF9093000224
:1015E000E230C9F050F4EE2399F0E13081F59091AA
:1015F0006F009D7F90936F002AC0E43019F1E0F0F6
:10160000E53029F5909173009D7F909373001FC082
:1016100010926E001CC0909170009D7F909370009E
:1016200091E09093B0009091B100987F9460909376
:10163000B1001092B3000BC0909171009D7F909308
:10164000710005C0909172009D7F9093720060E0E0
:101650000E94D112FF91EF91BF91AF919F918F9115
:101660007F916F915F914F913F912F910F900BBEA2
:101670000F900FBE0F901F9018951F920F920FB6EC
:101680000F9211240BB60F922F933F934F935F93BA
:101690006F937F938F939F93AF93BF93EF93FF933A
:1016A0008DEF94E00E940303FF91EF91BF91AF9102
:1016B0009F918F917F916F915F914F913F912F916A
:1016C0000F900BBE0F900FBE0F901F9018951F929A
:1016D0000F920FB60F9211240BB60F922F933F93D8
:1016E0004F935F936F937F938F939F93AF93BF932A
:1016F000EF93FF938DEF94E00E949602FF91EF919C
:10170000BF91AF919F918F917F916F915F914F9119
:101710003F912F910F900BBE0F900FBE0F901F9017
:1017200018954F925F926F927F928F929F92AF9295
:10173000BF92CF92DF92EF92FF920F931F93CF93BE
:10174000DF93CDB7DEB728970FB6F894DEBF0FBE94
:10175000CDBF0E94F70689E2482E8CE5582E8FE80F
:10176000682E8DE3782E8AE097EDA3E2BDE38983AE
:101770009A83AB83BC831D821E821F82188611E36D
:1017800000E36D817E818F8198850E9442196B01F3
:101790007C0120EA36EC41EC58E40E943B1987FFBB
:1017A0006DC289EC98E00E949206909580957095A4
:1017B00061957F4F8F4F9F4F0E9442199B01AC0153
:1017C000C701B6010E94961A0E94741B6D837E8326
:1017D0008F839887E7E0F2E0A1E0B2E081918D93FA
:1017E00092E0ED30F907D1F787E30E94FB09BC01D5
:1017F000990F880B990B0E94421920E030E048E4D1
:1018000053E40E94021B4B015C0162E370E080E044
:1018100090E00E941A0A86E30E94FB09BC01990F1E
:10182000880B990B0E94421920E030E048E453E411
:101830000E94021B6B017C0162E370E080E090E09B
:101840000E941A0A20E030E040E250E4C501B401F1
:101850000E94AA1B87FD0AC024E333E343E550E45A
:10186000C501B4010E943B191816A4F42DEC3CEC00
:101870004CEC5EEBC501B4010E94AA1B87FD0DC0B4
:101880002DEC3CEC4CEC5EE3C501B4010E943B192D
:1018900018161CF01093070202C00093070225E8F7
:1018A0003BEE41E450E4C701B6010E94AA1B87FD4C
:1018B0000AC025E83BEE41E650E4C701B6010E94AC
:1018C0003B19181644F526E636E646E150E4C70112
:1018D000B6010E94AA1B87FD0AC026E636E646E34B
:1018E00050E4C701B6010E943B191816A4F420E089
:1018F00030E040E85EEBC701B6010E94AA1B87FDFD
:101900000DC020E030E040E85EE3C701B6010E9470
:101910003B1918161CF01093080202C0009308022D
:1019200020E030E040E85EEBC701B6010E94AA1B50
:1019300087FD0AC020E030E040E85EE3C701B60161
:101940000E943B19181644F526E636E646E150E4B7
:10195000C701B6010E94AA1B87FD0AC026E636E62B
:1019600046E350E4C701B6010E943B191816A4F4DF
:101970002AE037ED43E85FE3C701B6010E94AA1BE6
:1019800087FD0DC02AE037ED43EC5FE3C701B601E8
:101990000E943B1918161CF01093090202C0009314
:1019A000090220E030E040E85EEBC701B6010E948A
:1019B000AA1B87FD0AC020E030E040E85EE3C701D3
:1019C000B6010E943B19181644F520E030E040EEC5
:1019D0005FE3C701B6010E94AA1B87FD0AC020E091
:1019E00030E040E150E4C701B6010E943B191816EF
:1019F000A4F42AE037ED43E85FE3C701B6010E9493
:101A0000AA1B87FD0DC02AE037ED43EC5FE3C70159
:101A1000B6010E943B1918161CF010930A0202C06E
:101A200000930A022AE939E949E95FE3C501B401F3
:101A30000E94AA1B87FD0AC020E030E040E050E48D
:101A4000C501B4010E943B191816A4F42DEC3CEC1E
:101A50004CEC5EEBC501B4010E94AA1B87FD0DC0D2
:101A60002DEC3CEC4CEC5EE3C501B4010E943B194B
:101A700018161CF010930B0202C000930B0245E0F5
:101A800050E06CE472E087E092E00E94CF1D892B69
:101A900051F045E050E062E572E087E092E00E949C
:101AA000CF1D892BB1F42AE939E949E95EE369815F
:101AB0007A818B819C810E94961AAB01BC0170587F
:101AC00087EC98E00E949F044AE959E969E97EE3BE
:101AD00050C045E050E068E572E087E092E00E9487
:101AE000CF1D892B51F045E050E06EE572E087E0B4
:101AF00092E00E94CF1D892BA1F42AE939E949E936
:101B00005EE3C301B2010E94961AAB01BC0170589A
:101B100087EC98E00E949F044AE959E969E97EE36D
:101B200061C045E050E064E672E087E092E00E9428
:101B3000CF1D892B51F045E050E06AE672E087E066
:101B400092E00E94CF1D892B39F54AE959E969E9EC
:101B50007EEB87EC98E00E949F042AE939E949E985
:101B60005EE369817A818B819C810E94961AAB0128
:101B7000BC0185EC98E00E949F042FE632E143E02F
:101B80005BE369817A818B819C810E94951A6983CC
:101B90007A838B839C83F5CD45E050E060E772E06B
:101BA00087E092E00E94CF1D892B51F045E050E084
:101BB00066E772E087E092E00E94CF1D892B09F56D
:101BC0004AE959E969E97EEB87EC98E00E949F04B5
:101BD0002AE939E949E95EE3C301B2010E94961A94
:101BE000AB01BC0185EC98E00E949F042FE632E136
:101BF00043E05BE3C301B2010E94951A2B013C0153
:101C0000C0CD45E050E06CE772E087E092E00E94D2
:101C1000CF1D892B09F4B5CD45E050E062E872E0B4
:101C200087E092E00E94CF1D892B09F4AACD45E000
:101C300050E068E872E087E092E00E94CF1D892BB7
:101C400009F49FCD45E050E06EE872E087E092E055
:101C50000E94CF1D892B09F494CD4AE959E969E91D
:101C60007EE385EC98E00E949F044AE959E969E91E
:101C70007EEB87EC98E00E949F0483CD0E9494073E
:101C800028960FB6F894DEBF0FBECDBFDF91CF917F
:101C90001F910F91FF90EF90DF90CF90BF90AF908A
:101CA0009F908F907F906F905F904F9008954F928C
:101CB0005F926F927F928F929F92AF92BF92CF92DC
:101CC000DF92EF92FF92CF93DF93CDB7DEB76097AD
:101CD0000FB6F894DEBF0FBECDBF6D877E878F87AE
:101CE000988B0E94F70620E030E044EB53E46D85CA
:101CF0007E858F8598890E94021B9B01AC010E9402
:101D0000961A2BED3FE049E450E40E94A11920E02F
:101D100030E040E151E40E94A11920E030E048ECBD
:101D200052E40E94021B23E535EB47E75EE30E9485
:101D3000021B20E030E048E455E40E94A1190E9413
:101D4000741B812C912C5401C12CD12C76012DECCB
:101D50003CEC4CE45EEB29833A834B835C839B0130
:101D6000770F440B550B29873A874B875C8789850A
:101D70009A85AB85BC85C816D906EA06FB060CF029
:101D8000B4C049815A816B817C81705887EC98E09E
:101D90000E949F044DEC5CEC6CE47EE385EC98E0E3
:101DA0000E949F046AE070E080E090E00E941A0ABE
:101DB00089EC98E00E9492066D837E838F839887DA
:101DC0008BEC98E00E9492062B013C01C701B60102
:101DD0000E9442196B017C016D817E818F81988503
:101DE00090958095709561957F4F8F4F9F4F0E9482
:101DF00042199B01AC01C701B6010E94961A0E94CC
:101E0000741B6B017C01C501B4010E9442194B0196
:101E10005C01C301B2010E9442199B01AC01C501E2
:101E2000B4010E94961A0E94741B4B015C0189EC5C
:101E300098E00E9492062B013C018BEC98E00E94F6
:101E400092066D837E838F83988766277727CB01E1
:101E500064197509860997090E9442192B013C01F2
:101E60006D817E818F8198850E9442199B01AC0112
:101E7000C301B2010E94961A29E832ED4EE55AE3F9
:101E80000E94A1192B013C01C701B601680D791D03
:101E90008A1D9B1D0E9442192CEA35EC47E258E34B
:101EA0000E94A11920E030E0A9010E94961A9B012E
:101EB000AC01C301B2010E94961A29813A814B817B
:101EC0005C810E94951A6D877E878F87988B0E9410
:101ED000F7066D857E858F8598899B01AC015058EA
:101EE00029833A834B835C8342CF60960FB6F89484
:101EF000DEBF0FBECDBFDF91CF91FF90EF90DF909F
:101F0000CF90BF90AF909F908F907F906F905F9099
:101F10004F900C94940785ED8093BC008091BC0099
:101F200084FDFCCF1092CC04089540917F04262FAD
:101F300030E0240F311D21323105DCF42091CC0436
:101F40002430C9F4FC0180E090E0861758F4309109
:101F50007F042191DC01A35ABB4FA30FB11D2C9329
:101F60000196F3CF80917F04680F60937F0480E037
:101F7000089581E0089582E00895089581E090E059
:101F800030915C0420915B04321710F480E090E003
:101F9000919581959109089580915C0490915B04DD
:101FA000891730F48F5F80935C0480E090E008959F
:101FB0008FEF9FEF089580915B0490E020915C0487
:101FC000821B91090895CF92DF92EF92FF920F93B7
:101FD0001F93CF93DF937C01262F972F8A01809147
:101FE000CD04882391F0C62FD72F6E01C40ED51EC5
:101FF000CC15DD0571F06991D701ED91FC9101904F
:10200000F081E02DC7011995F3CF642F822F0E9434
:10201000950FC801DF91CF911F910F91FF90EF9025
:10202000DF90CF900895CF93DF931F92CDB7DEB7A7
:1020300069832091CD042223D1F02091F004203235
:1020400040F021E030E0FC013383228380E090E027
:1020500015C08091CE04E82FF0E0E153FB4F998149
:1020600090838F5F8093CE048093F00405C061E07D
:10207000CE0101960E94950F81E090E00F90DF91D4
:10208000CF91089590E0FC013197E231F10508F01D
:102090004EC08827EC57FF4F8F4F0C948D1A8091BC
:1020A00080008F7703C0809180008F7D80938000B7
:1020B000089580918000877FF9CF84B58F7702C023
:1020C00084B58F7D84BD08958091B0008F7703C063
:1020D0008091B0008F7D8093B00008958091900032
:1020E0008F7707C0809190008F7D03C08091900012
:1020F000877F8093900008958091A0008F7707C01C
:102100008091A0008F7D03C08091A000877F809385
:10211000A0000895809120018F7707C08091200151
:102120008F7D03C080912001877F809320010895D7
:102130004F925F926F927F928F929F92AF92BF92D7
:10214000CF92DF92EF92FF926B017C01B42E9B0144
:10215000AC010E94AF1B882319F084E992E027C0EC
:1021600026013701E89477F82FEF3FEF4FE75FE75D
:10217000C301B2010E94AF1B81110DC02FEF3FEFD1
:102180004FE75FE7C301B2010E943B1918161CF428
:1021900088E992E00CC02FEF3FEF4FE75FE4C70103
:1021A000B6010E94AA1B181684F48CE992E0FF90F5
:1021B000EF90DF90CF90BF90AF909F908F907F90E7
:1021C0006F905F904F900C9401132FEF3FEF4FE70C
:1021D0005FECC701B6010E943B1987FDE6CF20E006
:1021E00030E0A901C701B6010E943B1987FF09C071
:1021F0008DE20E9406144C01F7FAF094F7F8F0947F
:1022000002C0812C912CA12C60E070E080E09FE363
:10221000AB1441F020E030E040E251E40E94021BA8
:10222000A394F6CF9B01AC01C701B6010E94961A98
:102230002B013C010E947B1B6B017C010E94401919
:102240009B01AC01C301B2010E94951A2B013C0114
:102250004AE0C701B6010E94C5137C01E80CF91CD5
:10226000BB2029F08EE20E940614E80EF91EDB2C3A
:10227000DD2021F120E030E040E251E4C301B20171
:102280000E94A1192B013C010E947B1B4B01A12C38
:10229000B12C4AE0C501B4010E94C513E80EF91E35
:1022A000C501B4010E9440199B01AC01C301B201F8
:1022B0000E94951A2B013C01DA94DACFC701FF90F6
:1022C000EF90DF90CF90BF90AF909F908F907F90D6
:1022D0006F905F904F9008951F920F920FB60F92DC
:1022E00011240F900FBE0F901F9018951F920F9200
:1022F0000FB60F9211240BB60F922F933F934F936B
:102300005F936F937F938F939F93AF93BF93EF935D
:10231000FF938091B900887F803609F49CC068F5EE
:10232000883209F45BC090F4803109F454C038F469
:10233000882309F4F6C0883009F44DC0F6C088310E
:1023400009F44CC0803209F45DC0EFC0803409F458
:1023500068C048F4803309F455C0883309F0E5C0FB
:102360008093CA04D8C0803509F44FC0883509F479
:102370005DC0883409F0D9C0D6C0883909F4C7C017
:10238000A8F4883709F467C038F4883609F463C0C4
:10239000803709F460C0C9C0883809F4B8C08039F2
:1023A00009F45FC0803809F0C0C05BC0803B09F40D
:1023B00086C038F4803A09F466C0883A09F47FC0D0
:1023C000B4C0803C09F4A7C0883C09F4A4C0883B91
:1023D00009F48AC0AAC08091A70410C09091C904D2
:1023E0008091C804981770F5E091C90481E08E0FC0
:1023F0008093C904F0E0E855FB4F80818093BB00D7
:1024000085EC86C08093CA048EC0E091C90481E047
:102410008E0F8093C9048091BB00F0E0E855FB4F1C
:1024200080839091C9048091C8046EC0E091C90472
:1024300081E08E0F8093C9048091BB00F0E0E855E5
:10244000FB4F80838091CB0481116DC081E080932C
:10245000A60484EA61C083E08093CC041092A304B4
:10246000CFCF8091A304803208F051C0E091A30443
:1024700081E08E0F8093A3048091BB00F0E0ED57C4
:10248000FB4F8083BDCF85EC8093BC001092CC04C1
:102490008091A304803230F4E091A304F0E0ED5782
:1024A000FB4F10826091A30470E0E0918104F091F1
:1024B000820483E894E019951092A30436C084E066
:1024C0008093CC041092800410927F04E0917D04EC
:1024D000F0917E04199580917F04811105C081E0FF
:1024E00080937F0410925D04E091800481E08E0F60
:1024F00080938004F0E0E35AFB4F80818093BB001F
:102500009091800480917F04981708F479CF85E832
:102510008093BC000AC085EC8093BC001092CC0470
:1025200004C01092CA040E948B0FFF91EF91BF91DB
:10253000AF919F918F917F916F915F914F913F915B
:102540002F910F900BBE0F900FBE0F901F901895FC
:10255000CF93DF93282F30E0F901E952FD4F8491AA
:10256000F901EF56FD4FD491F901E55BFD4FC491A0
:10257000CC2391F081110E944210EC2FF0E0EE0F7D
:10258000FF1FEF5CFD4FA591B491EC91ED2381E02D
:1025900090E021F480E002C080E090E0DF91CF91F4
:1025A00008951F93CF93DF93282F30E0F901E9526C
:1025B000FD4F8491F901EF56FD4FD491F901E55B90
:1025C000FD4FC491CC23C9F0162F81110E944210F7
:1025D000EC2FF0E0EE0FFF1FE95EFD4FA591B491E7
:1025E0008FB7F894111105C09C91ED2FE095E92368
:1025F00002C0EC91ED2BEC938FBFDF91CF911F9137
:102600000895009769F0FC0101900020E9F73197E7
:10261000AF01481B590BBC0187E396E00C94880975
:1026200080E090E00895CF93DF930E940113EC01C6
:1026300089E492E00E9401138C0F9D1FDF91CF91DE
:1026400008952091F0049091EF04213208F04AC0DF
:102650008091CC048111FCCF32E03093CC0431E086
:102660003093CB043FEF3093CA041092C9042093F7
:10267000C804AFECB4E048EA54E0FA013E2F341B42
:10268000321718F43D913193F9CF1092A70420919D
:10269000A704990F922B9093A7049091A6049130D0
:1026A00061F41092A6049091A7049093BB009091BE
:1026B000BC0093FDF8CF95EC01C095EE9093BC0063
:1026C0009091CC049230E1F39091CA049F3F79F04D
:1026D0008091CA04803241F08091CA04803331F085
:1026E00084E005C081E003C082E001C083E0109275
:1026F000CE041092F0041092CD040895EF92FF9250
:102700001F93CF93DF931F92CDB7DEB7162F9CEAAE
:10271000E92E98E0F92ED7011C969C911C9721E098
:102720002093CD049093EF041092CE041092F00405
:102730001A960D90BC91A02DED91FC9111970190EE
:10274000F081E02D682FCD0179831995F7018285FD
:102750009385DC01ED91FC910190F081E02D798170
:10276000672F1995F70182859385DC01ED91FC9126
:102770000190F081E02D612F19950F90DF91CF919D
:102780001F91FF90EF900C9421138F929F92AF9224
:10279000BF920F931F93CF93DF93CDB7DEB7A1976F
:1027A0000FB6F894DEBF0FBECDBF19A2423008F4B9
:1027B0004AE08E010F5D1F4F842E912CA12CB12C6D
:1027C000A50194010E945F1AE62FB901CA010150C8
:1027D0001109EA3014F4E05D01C0E95CD801EC9322
:1027E000232B242B252B61F7C8010E940113A196EE
:1027F0000FB6F894DEBF0FBECDBFDF91CF911F9112
:102800000F91BF90AF909F908F900895E091370601
:10281000F09138060190F081E02D682F87E396E073
:102820001994CF92DF92EF92FF92CF93DF936C01D6
:10283000990FEE08FF08F7FE12C08DE20E94061401
:10284000EC0166277727CB016C197D098E099F095A
:102850004AE00E94C5137C01EC0EFD1E06C04AE052
:10286000C701B6010E94C5137C0189E492E00E9471
:1028700001138E0D9F1DDF91CF91FF90EF90DF90A0
:10288000CF9008958091E3079091E4070C94491C40
:10289000789484B5826084BD84B5816084BD85B53B
:1028A000826085BD85B5816085BD80916E00816047
:1028B00080936E00109281008091810082608093ED
:1028C00081008091810081608093810080918000EF
:1028D0008160809380008091B10084608093B1001A
:1028E0008091B00081608093B000809191008260FF
:1028F00080939100809191008160809391008091FC
:1029000090008160809390008091A100826080930C
:10291000A1008091A10081608093A1008091A0001E
:1029200081608093A00080912101826080932101C9
:10293000809121018160809321018091200181603B
:102940008093200180917A00846080937A00809146
:102950007A00826080937A0080917A00816080930F
:102960007A0080917A00806880937A001092C1008A
:10297000E0914706F091480682E08083E0914306AB
:10298000F09144061082E0914506F09146068FECE6
:10299000808310924F06E0914B06F0914C0686E042
:1029A0008083E0914906F0914A06808180618083AE
:1029B000E0914906F0914A06808188608083E09129
:1029C0004906F0914A06808180688083E09149063B
:1029D000F0914A0680818F7D808361E08091AD080F
:1029E0000E94BF0960E08091AD080E94D11260E0B2
:1029F0008091AC080E94BF0981EF94E09093B708E2
:102A00008093B60810925C0410925B041092CE047E
:102A10001092F0041092CC0481E08093CB041092C9
:102A2000A60461E084E10E94D11261E085E10E9488
:102A3000D1128091B9008E7F8093B9008091B90046
:102A40008D7F8093B90088E48093B80085E48093FB
:102A5000BC0080E090E1A0E0B0E08093B9089093E2
:102A6000BA08A093BB08B093BC088AE090E0A0E04D
:102A7000B0E08093BD089093BE08A093BF08B093C8
:102A8000C00880E090E0A0E0B0E48093C10890939B
:102A9000C208A093C308B093C40860E070E185E069
:102AA0000E947E136FE979E380E00E947E13C9ECF7
:102AB000D8E0C12CD12CE12CF12C60E8462E62E04C
:102AC000562E76EC872E72E0972EEBECAE2EE7E0DA
:102AD000BE2EC7018455974F3C01FC019481828131
:102AE00086010455174FF801818F928F61E00E9493
:102AF000BF0961E0F801828D0E94BF09F301908552
:102B000086818883F801968F61E00E94BF0960E0AA
:102B1000F801868D0E94BF0961E088810E94D11270
:102B20001FB7F8948091C102811125C0F2018491F0
:102B3000F4019491E82FF0E0EE0FFF1FE350FE4FF9
:102B4000A591B4918C91982321F461E085E30E94D2
:102B5000D11261E085E30E94BF098CB580618CBD14
:102B60008CB580648CBD61E084E30E94BF0961E0A4
:102B700083E30E94BF098091C1028F5F8093C102ED
:102B80001FBFC5010197F1F760E088810E94D11253
:102B900088E80E94600683E00E94600661E0888108
:102BA0000E94D112C5010197F1F7CE010E9467067C
:102BB000F2E0CF0ED11C2296EA94EF2821F0EE2409
:102BC000E394F12C86CFC1EDD8E01C2F1C5F60E0B0
:102BD00089910E94BF091C13FACF00EE18E0CDEDD9
:102BE000D8E095E0C92E2CE0E22E32E0B32EDC2EA8
:102BF000D394D394FE013897F08088818C3008F00C
:102C000044C061E08F2D0E94BF098881C89EF001F9
:102C10001124EA55F84F9F2D9F732081207CF22EBE
:102C2000F92AF082138214826E2D0E94811AECE040
:102C30008E9FA001112420E030E0B901640F751FC0
:102C4000C69EF001C79EF00D1124EA55F84F908101
:102C500096FD12C02F5F3F4F2C30310571F7811167
:102C60000BC010928000B0928100109285001092EB
:102C70008400B6BAB0926F00E881CE9EF0011124B4
:102C8000EA55F84F808180648083FE0132979081FD
:102C900032978081F80131978083F801908360E05A
:102CA0000E94BF0961E0F80180810E94BF0960E0D5
:102CB000F80180810E94D11221960E5F1F4FDC1215
:102CC00099CFF8941092200189E08093210180E24D
:102CD00093E090932901809328011092250110928E
:102CE000240182E08093730078948093D40610923C
:102CF000D8068091D50660E00E94BF0960E08FE2AF
:102D00000E94BF0964EF71E080E090E00E941A0A1F
:102D1000E2ECF2E0119211921192119284E0E2350C
:102D2000F807C1F783E492E00E94131389EC98E05E
:102D30000E9467068091D2080E94A812892B81F018
:102D400060E070E084EB92E40E94570E0E94910BC9
:102D500060E070E084E393E40E94570E0E94910BC0
:102D60008091D3080E94A812892BC9F0CAE0D0E054
:102D700089EC98E00E9492066B017C012197C1F7D3
:102D80006AE979E989E99EE30E94B30788279927D0
:102D9000DC018C199D09AE09BF090E9411148091B4
:102DA000D1080E94A812892B09F473C06091C20255
:102DB0007091C3028091C4029091C50242E00E94CA
:102DC000981087E492E00E9401136091C60270910E
:102DD000C7028091C8029091C90242E00E949810F7
:102DE00087E492E00E9401136091CA027091CB02C5
:102DF0008091CC029091CD0242E00E94981089E42B
:102E000092E00E940113C2ECD2E0812C912CA12C03
:102E10008FE3B82EC501B4010E94B30789EC98E096
:102E20000E949206CC24DD247601C61AD70AE80A4D
:102E3000F90AC6010E941114B601DD0C880B990B2A
:102E40000E9442196B017C0169937993899399934C
:102E50002DEC3CEC4CEC5DE3C501B4010E94961AEC
:102E60004B015C0142E0C701B6010E94981087E463
:102E700092E00E94011392E0CE3CD90759F688E413
:102E800092E00E94131360ED77E080E090E00E94F2
:102E90001A0A8091D4080E94A812892B41F00E943E
:102EA000940768E873E180E090E00E941A0A6AE003
:102EB00070E080E090E00E941A0A0E94180236CF6B
:102EC0001092F4041092F30488EE93E0A0E0B0E0D6
:102ED0008093F5049093F604A093F704B093F8045C
:102EE00027E132E03093F2042093F10410920005C0
:102EF0001092FF048093010590930205A0930305AF
:102F0000B093040529E232E03093FE042093FD04DF
:102F100045E351E050930A054093090544E351E02D
:102F200050930C0540930B0540E351E050930E0580
:102F300040930D0541E351E05093100540930F0578
:102F400042E351E0509312054093110546E351E0EE
:102F5000509314054093130510921605109217050F
:102F6000109218051092190510929D0510929C055B
:102F700080939E0590939F05A093A005B093A10513
:102F800030939B0520939A0545ED50E05093A7059B
:102F90004093A60544ED50E05093A9054093A80541
:102FA00040ED50E05093AB054093AA0541ED50E051
:102FB0005093AD054093AC0542ED50E05093AF0502
:102FC0004093AE0546ED50E05093B1054093B005F7
:102FD0001092B3051092B4051092B5051092B60583
:102FE00010923A061092390680933B0690933C0665
:102FF000A0933D06B0933E063093380620933706E3
:1030000085EC90E0909344068093430684EC90E036
:10301000909346068093450680EC90E09093480696
:103020008093470681EC90E090934A06809349068E
:1030300082EC90E090934C0680934B0686EC90E0F7
:1030400090934E0680934D061092500610925106B2
:10305000109252061092530686E38093CD0887E3C0
:103060008093CE0888E38093CF0889E38093D008CB
:103070008BE18093D1088DE18093D2088AE180931F
:10308000D3088CE18093D40884E08093D50887E04E
:103090008093D6081092D70884EB8093D80886E1F5
:1030A0008093D90888E18093DA0887E18093DB0870
:1030B00089E18093DC08E091E207EC3020F08FEFAB
:1030C0008093DD0810C081E08E0F8093E207E093CB
:1030D000DD0825E0E29FF0011124EA55F84F88EB66
:1030E0009BE092838183E091E207EC3020F08FEF48
:1030F0008093DE0810C081E08E0F8093E207E0939A
:10310000DE0885E0E89FF0011124EA55F84F88EBCE
:103110009BE0928381838CE08093AC0884E280936F
:10312000AD0886E08093AE0885E08093AF088FE11C
:103130008093B0088EE18093B10883E28093B20857
:1031400082E28093B30885E48093B40884E480939A
:10315000B50880E48093B8081092BD081092BE08AC
:103160001092BF081092C0081092C1081092C208B5
:103170001092C3081092C408EEEEF7E08FEF9FEFB5
:10318000DC01128213821482158216821782108645
:10319000118683879487A587B6878787908BA18BB5
:1031A000B28B128611821082739628E0EC3AF207F5
:1031B00041F78DE090E00E94B41BFC011382128263
:1031C0008BE392E091838083118687E2848384E19C
:1031D000828784E083871486F093EB07E093EA0705
:1031E0001092EC071092ED0785E28093D5061092BD
:1031F000D7061092E4071092E3071092E6071092A8
:10320000E5071092E8071092E70761E070E080E0C0
:1032100090E00E94E11C009789F09093E40780936E
:10322000E3071092E6071092E5072091E707309137
:10323000E807232BC1F4FC01108215C08091E3073D
:103240009091E407009711F00E94491C1092E40746
:103250001092E3071092E8071092E7071092E60732
:103260001092E50708951092E8071092E70768E4C6
:1032700072E00C94E51D0E947D1908F481E0089528
:10328000E89409C097FB3EF4909580957095619500
:103290007F4F8F4F9F4F9923A9F0F92F96E9BB27B6
:1032A0009395F695879577956795B795F111F8CF32
:1032B000FAF4BB0F11F460FF1BC06F5F7F4F8F4F9D
:1032C0009F4F16C0882311F096E911C0772321F093
:1032D0009EE8872F762F05C0662371F096E8862F2B
:1032E00070E060E02AF09A95660F771F881FDAF782
:1032F000880F9695879597F90895990F0008550FAF
:10330000AA0BE0E8FEEF16161706E807F907C0F06B
:1033100012161306E407F50798F0621B730B840B73
:10332000950B39F40A2661F0232B242B252B21F44D
:1033300008950A2609F4A140A6958FEF811D811DED
:1033400008950E94B4190C94251A0E94171A38F097
:103350000E941E1A20F0952311F00C940E1A0C9462
:10336000141A11240C94591A0E94361A70F3959F5E
:10337000C1F3950F50E0551F629FF001729FBB276C
:10338000F00DB11D639FAA27F00DB11DAA1F649F08
:103390006627B00DA11D661F829F2227B00DA11DBB
:1033A000621F739FB00DA11D621F839FA00D611D41
:1033B000221F749F3327A00D611D231F849F600D62
:1033C000211D822F762F6A2F11249F5750409AF08B
:1033D000F1F088234AF0EE0FFF1FBB1F661F771F17
:1033E000881F91505040A9F79E3F510580F00C94E2
:1033F0000E1A0C94591A5F3FE4F3983ED4F3869565
:1034000077956795B795F795E7959F5FC1F7FE2B81
:10341000880F911D9695879597F9089597F99F675D
:1034200080E870E060E008959FEF80EC089500244C
:103430000A941616170618060906089500240A9419
:1034400012161306140605060895092E0394000C9F
:1034500011F4882352F0BB0F40F4BF2B11F460FF2E
:1034600004C06F5F7F4F8F4F9F4F089557FD905857
:10347000440F551F59F05F3F71F04795880F97FB38
:10348000991F61F09F3F79F08795089512161306F2
:103490001406551FF2CF4695F1DF08C01616170621
:1034A0001806991FF1CF8695710561050894089556
:1034B000E894BB2766277727CB0197F90895A1E207
:1034C0001A2EAA1BBB1BFD010DC0AA1FBB1FEE1F9E
:1034D000FF1FA217B307E407F50720F0A21BB30BE9
:1034E000E40BF50B661F771F881F991F1A9469F765
:1034F00060957095809590959B01AC01BD01CF01C1
:103500000895991B79E004C0991F961708F0961B3F
:10351000881F7A95C9F780950895EE0FFF1F881FC1
:103520008BBF0790F691E02D19945058BB27AA271E
:103530000E94AD1A0C94251A0E94171A38F00E94A6
:103540001E1A20F039F49F3F19F426F40C94141A33
:103550000EF4E095E7FB0C940E1AE92F0E94361A40
:1035600058F3BA17620773078407950720F079F4B8
:10357000A6F50C94581A0EF4E0950B2EBA2FA02D38
:103580000B01B90190010C01CA01A0011124FF2710
:10359000591B99F0593F50F4503E68F11A16F0400B
:1035A000A22F232F342F4427585FF3CF469537950A
:1035B0002795A795F0405395C9F77EF41F16BA0BCF
:1035C000620B730B840BBAF09150A1F0FF0FBB1F7D
:1035D000661F771F881FC2F70EC0BA0F621F731FC6
:1035E000841F48F4879577956795B795F7959E3F23
:1035F00008F0B0CF9395880F08F09927EE0F9795B4
:10360000879508950E94161B0C94251A0E941E1A75
:1036100058F00E94171A40F029F45F3F29F00C94EB
:103620000E1A51110C94591A0C94141A0E94361A3D
:1036300068F39923B1F3552391F3951B550BBB27E1
:10364000AA2762177307840738F09F5F5F4F220F26
:10365000331F441FAA1FA9F335D00E2E3AF0E0E81D
:1036600032D091505040E695001CCAF72BD0FE2F67
:1036700029D0660F771F881FBB1F261737074807FB
:10368000AB07B0E809F0BB0B802DBF01FF279358B3
:103690005F4F3AF09E3F510578F00C940E1A0C944F
:1036A000591A5F3FE4F3983ED4F386957795679572
:1036B000B795F7959F5FC9F7880F911D96958795E8
:1036C00097F90895E1E0660F771F881FBB1F621707
:1036D00073078407BA0720F0621B730B840BBA0BC5
:1036E000EE1F88F7E09508950E947B1B6894B11146
:1036F0000C94591A08950E943E1A88F09F5798F02A
:10370000B92F9927B751B0F0E1F0660F771F881FE6
:10371000991F1AF0BA95C9F714C0B13091F00E9400
:10372000581AB1E008950C94581A672F782F8827FB
:10373000B85F39F0B93FCCF3869577956795B39527
:10374000D9F73EF490958095709561957F4F8F4F96
:103750009F4F08950E947D1908F48FEF08950E94ED
:103760007D19880B990B0895CF93DF9382309105D3
:1037700010F482E090E0E091E508F091E60820E0A6
:1037800030E0C0E0D0E0309711F14081518148171E
:103790005907C0F04817590761F482819381209737
:1037A00019F09B838A832BC09093E6088093E508E9
:1037B00026C02115310519F04217530718F49A0154
:1037C000BE01DF01EF010280F381E02DDCCF211586
:1037D000310509F1281B390B2430310590F412967C
:1037E0008D919C9113976115710521F0FB019383D5
:1037F000828304C09093E6088093E508FD01329629
:1038000044C0FD01E20FF31F8193919322503109CF
:103810002D933C933AC02091E3083091E408232B88
:1038200041F420910F02309110023093E40820936C
:10383000E30820910D0230910E022115310541F46B
:103840002DB73EB74091110250911202241B350B47
:10385000E091E308F091E408E217F307A0F42E1BCF
:103860003F0B2817390778F0AC014E5F5F4F2417E4
:10387000350748F04E0F5F1F5093E4084093E3086C
:103880008193919302C0E0E0F0E0CF01DF91CF910E
:1038900008950F931F93CF93DF93009709F48CC083
:1038A000FC013297138212820091E5081091E6081C
:1038B0000115110581F420813181820F931F209120
:1038C000E3083091E4082817390779F5F093E40804
:1038D000E093E30871C0D80140E050E0AE17BF07A5
:1038E00050F412962D913C911397AD01211531059D
:1038F00009F1D901F3CF9D01DA013383228360817D
:103900007181860F971F8217930769F4EC01288154
:103910003981260F371F2E5F3F4F318320838A81E5
:103920009B8193838283452B29F4F093E608E093EF
:10393000E50842C01396FC93EE931297ED0149916E
:1039400059919E01240F351FE217F30771F480810E
:103950009181840F951F029611969C938E9382817C
:10396000938113969C938E931297E0E0F0E0D80138
:1039700012968D919C911397009719F0F8018C0184
:10398000F6CF8D919C9198012E5F3F4F820F931F30
:103990002091E3083091E4082817390769F430973B
:1039A00029F41092E6081092E50802C013821282F0
:1039B0001093E4080093E308DF91CF911F910F91DA
:1039C00008956F927F928F929F92AF92BF92CF9203
:1039D000DF92EF92FF920F931F93CF93DF93EC014F
:1039E000009789F4CB01DF91CF911F910F91FF9048
:1039F000EF90DF90CF90BF90AF909F908F907F908F
:103A00006F900C94B41BFC01E60FF71F9C01225031
:103A10003109E217F30708F4ACC0D9010D911C91EC
:103A2000119706171707B0F00530110508F49FC06D
:103A3000C80104978617970708F499C00250110926
:103A4000061B170B019311936D937C93CF010E947A
:103A5000491C8DC05B01A01AB10A4C01800E911E59
:103A6000A091E508B091E60840E050E0E12CF12C8F
:103A7000109709F44AC0A815B905D1F56D907C904E
:103A80001197630182E0C80ED11CCA14DB0480F1D7
:103A9000A3014A195B096A0182E0C80ED11C129683
:103AA000BC9012971396AC91B5E0CB16D10440F0C0
:103AB000B282A38351834083D9016D937C930AC062
:103AC0000E5F1F4FC301800F911FF9019183808307
:103AD000EB2DFA2FE114F10431F0D7011396FC938A
:103AE000EE93129744C0F093E608E093E5083FC0D8
:103AF0008D919C9111974817590708F4AC017D01ED
:103B000012960D90BC91A02DB3CF8091E3089091B7
:103B1000E40888159905E1F446175707C8F4809121
:103B20000D0290910E02009741F48DB79EB740911F
:103B3000110250911202841B950BE817F907C8F483
:103B4000F093E408E093E308F901718360830FC008
:103B5000CB010E94B41B7C01009759F0A801BE0163
:103B60000E94DC1DCE010E94491CC70104C0CE0189
:103B700002C080E090E0DF91CF911F910F91FF9004
:103B8000EF90DF90CF90BF90AF909F908F907F90FD
:103B90006F90089581E090E0F8940C94EC1DFB0187
:103BA000DC0104C08D910190801921F441505040F6
:103BB000C8F7881B990B0895FB01DC0102C0019036
:103BC0000D9241505040D8F70895FB01DC0101905F
:103BD0000D920020E1F7089511E0C0E9D1E000E086
:103BE00006C0802FFE010E948D1A2196011DC13949
:0C3BF000D10780E00807A9F7F894FFCF88
:103BFC00FF3030303030003030303030000000E7F3
:103C0C00082000000000001310E30F4602BD0FDB7C
:103C1C000FCC0FBE0F0000000078038809C401BF51
:103C2C0003F501D301E70100000000710288094689
:103C3C00024502474F210009000D0A003131313095
:103C4C0030003031313030003131303030003130F3
:103C5C0030303000303031313100303031313000E3
:103C6C0030303031310030303030310030303030A5
:103C7C0030003031303030003030313030003030C6
:103C8C00303130006E616E00696E66006F766600D2
:00000001FF
