:100000000C9491010C94C2010C94C2010C94C20195
:100010000C94C2010C94C2010C94C2010C94C20154
:100020000C94C2010C94BE100C94BE100C94BE1023
:100030000C94C2010C945D090C94C2010C94C20191
:100040000C94C2010C941E0D0C94C2010C94C201BC
:100050000C94C2010C94C2010C94C2010C9456156C
:100060000C94C2010C94CE0A0C94A40A0C94C20104
:100070000C94C2010C94C2010C94C2010C94C201F4
:100080000C94C2010C94C2010C94C2010C94C201E4
:100090000C94C2010C94C2010C94C2010C94C810BF
:1000A0000C94C2010C94C2010C94C2010C94C201C4
:1000B0000C94C2010C94C2010C94C2010C94F80A75
:1000C0000C94C2010C94C2010C94C2010C947A0AE3
:1000D0000C94500A0C94C2010C94260A0C94FC094E
:1000E0000C94C201650C6A0C6F0C790C830CFC0C2F
:1000F0008D0C950C9D0CA70CB10CBB0CCA0CD40C30
:10010000FC0CDE0CE80CF20C8614891478147C14B8
:100110008214C0148D14911497149B149F14A51469
:10012000A914AD14C014B314B714BB140C940B0968
:100130000C94FC0C0C948D0C0C94E50E0C94BB08E8
:100140000C94191B0C94650C0C94AD0E0C94A91412
:100150000C94F20C0C940A090C9429080C94B71412
:100160000C94CA0C0C94830C0C94B10C0C946F0C72
:100170000C94D40C0C94F8070C94DE0C0C94B4077B
:100180000C9482140C94790C0C94900E0C94950C95
:100190000C9486140C94B3140C9438090C94911498
:1001A0000C949B140C9474080C949E0E0C948D1457
:1001B0000C94A5140C94C0140C941B080C94070800
:1001C0000C949D0C0C94A70C0C94E80C0C948F0EC2
:1001D0000C9478140C949F140C947C140C946A0C5A
:1001E0000C9489140C94BB140C94B50E0C94131B32
:1001F0000C9497140C94BB0C0C94AD1402000022C8
:1002000000250028002B002E0031003400020100E0
:1002100000050108010B0100002000230026002931
:10022000002C002F0032000001000003010601092C
:100230000105050505070508080808020202020A6B
:100240000A08080404040401010101010101010379
:1002500003030303030303040707070C0C0C0C0C34
:100260000C0C0C0202020206060606060606060B27
:100270000B0B0B0B0B0B0B0102102020080810209E
:100280004010204080020102010804020101020422
:1002900008102040808040201008040201800402E1
:1002A0000180402010080402010804020101020438
:1002B0000810204080010204081020408000000A3D
:1002C0000B02090C0D0E08070304010000000000DA
:1002D000000000000000000000000000000000001E
:1002E00000000000000000000012111000000000DB
:1002F00000000000000000000000000000000000FE
:1003000000000000002100240027002A002D0030FA
:1003100000330001010000040107010A0100191B5C
:10032000131B11241FBECFEFD1E2DEBFCDBF00E013
:100330000CBF14E0A0E0B2E0EEEBF3E400E00BBF92
:1003400002C007900D92A837B107D9F72AE0A8E7B5
:10035000B4E001C01D92A83AB207E1F711E0C0E98C
:10036000D1E000E006C021970109802FFE010E9424
:100370005A1ECF38D10780E00807A9F70E94E5157B
:100380000C94CD210C940000E0E0F0E0199481E899
:100390009AE00E94F80D81E89AE00E94CD0D83E872
:1003A0009AE00E94F80D83E89AE00C94CD0D4F92EC
:1003B0005F926F927F928F929F92AF92BF92CF92F5
:1003C000DF92EF92FF920F931F93CF93DF93CDB7FE
:1003D000DEB72C970FB6F894DEBF0FBECDBF6D838E
:1003E0007E838F83988749015A016701780181E8EC
:1003F0009AE00E94F80D2B013C0183E89AE00E94EC
:10040000F80D69837A838B839C8366277727CB01DA
:1004100064197509860997090E94FB1C2B013C0190
:1004200069817A818B819C810E94FB1C9B01AC01BC
:10043000C301B2010E94761E29E832ED4EE55AE36F
:100440000E945A1D2B013C01C501B4016C197D09A4
:100450008E099F090E94FB1C2CEA35EC47E258E309
:100460000E945A1D20E030E0A9010E94771E9B01E6
:10047000AC01C301B2010E94771E2D813E814F81E4
:1004800058850E94771E69877A878B879C870E9490
:10049000C70169857A858B859C852C960FB6F89463
:1004A000DEBF0FBECDBFDF91CF911F910F91FF90A7
:1004B000EF90DF90CF90BF90AF909F908F907F9004
:1004C0006F905F904F90089540E050E0BA018DE743
:1004D0009AE00E94050C40E050E060E070E88FE791
:1004E0009AE00E94050C81E89AE00E94F80D81E8EC
:1004F0009AE00E94CD0D83E89AE00E94F80D83E80F
:100500009AE00C94CD0D4F925F926F927F928F92F2
:100510009F92AF92BF92CF92DF92EF92FF92CF93D2
:10052000DF93CDB7DEB760970FB6F894DEBF0FBE8E
:10053000CDBF5A0149016D877E878F87988B0E94B6
:10054000C70120E030E044EB53E46D857E858F8564
:1005500098890E94E31E9B01AC010E94771E2BED3F
:100560003FE049E450E40E945A1D20E030E040E1C1
:1005700051E40E945A1D20E030E048EC52E40E9411
:10058000E31E23E535EB47E75EE30E94E31E20E030
:1005900030E048E455E40E945A1D0E94551F9B011B
:1005A000AA94AB28D9F09DEC892E9CEC992E9CE462
:1005B000A92E9EE3B92E412C512C3201C12CD12CF5
:1005C000760188279927821B930B9C01990F440B76
:1005D000550B29873A874B875C87F0C0940197FEBB
:1005E00002C02F5F3F4F359527956B01C21AD30A82
:1005F000C601DD0CAA0BBB0B8D839E83AF83B8872E
:10060000812C912C5401C12CD12C76012DEC3CEC89
:100610004CE45EEB29833A834B835C838D819E811E
:10062000AF81B885C816D906EA06FB060CF0B0C043
:1006300049815A816B817C8170588FE79AE00E94D2
:10064000050C4DEC5CEC6CE47EE38DE79AE00E94D7
:10065000050C6AE070E080E090E00E941C1581E8E3
:100660009AE00E94F80D69877A878B879C8783E8D8
:100670009AE00E94F80D2B013C01C701B6010E94CF
:10068000FB1C6B017C0169857A858B859C85909527
:100690008095709561957F4F8F4F9F4F0E94FB1CF7
:1006A0009B01AC01C701B6010E94771E0E94551F35
:1006B0006B017C01C501B4010E94FB1C4B015C0174
:1006C000C301B2010E94FB1C9B01AC01C501B40136
:1006D0000E94771E0E94551F4B015C0181E89AE041
:1006E0000E94F80D2B013C0183E89AE00E94F80D6E
:1006F00069877A878B879C8766277727CB01641960
:100700007509860997090E94FB1C2B013C0169852C
:100710007A858B859C850E94FB1C9B01AC01C301E3
:10072000B2010E94771E29E832ED4EE55AE30E949D
:100730005A1D2B013C01C701B601680D791D8A1DA8
:100740009B1D0E94FB1C2CEA35EC47E258E30E94FB
:100750005A1D20E030E0A9010E94771E9B01AC01E8
:10076000C301B2010E94771E29813A814B815C81CD
:100770000E94761E6D877E878F87988B0E94C701A7
:100780006D857E858F8598899B01AC01505842CF3D
:1007900060960FB6F894DEBF0FBECDBFDF91CF914C
:1007A000FF90EF90DF90CF90BF90AF909F908F9091
:1007B0007F906F905F904F900C94640289859A852A
:1007C000AB85BC858C159D05AE05BF050CF74DECC2
:1007D0005CEC6CE47EEB8DE79AE00E94050CB501C1
:1007E000A40170588FE79AE00E94050C6AE070E05F
:1007F00080E090E00E941C1581E89AE00E94F80DCC
:1008000069837A838B839C8383E89AE00E94F80D46
:100810006D837E838F839887C701B6010E94FB1C7E
:100820006B017C0169817A818B819C819095809597
:10083000709561957F4F8F4F9F4F0E94FB1C9B01CE
:10084000AC01C701B6010E94771E0E94551F6B01C3
:100850007C01C301B2010E94FB1C2B013C016D8194
:100860007E818F8198850E94FB1C9B01AC01C30196
:10087000B2010E94771E0E94551F2B013C0181E8A6
:100880009AE00E94F80D69837A838B839C8383E8C6
:100890009AE00E94F80D6D837E838F83988769812B
:1008A0007A818B819C8190958095709561957F4F21
:1008B0008F4F9F4F0E94FB1C9B01AC015058298316
:1008C0003A834B835C836D817E818F8198850E9402
:1008D000FB1C9B01AC0169817A818B819C810E9408
:1008E000761E29E832ED4EE55AE30E945A1D6983CF
:1008F0007A838B839C8388279927DC018C199D0937
:10090000AE09BF09BC01CD016419750986099709B3
:100910000E94FB1C2CEA35EC47E258E30E945A1D6A
:1009200020E030E0A9010E94771E9B01AC016981A3
:100930007A818B819C810E94771E9B01AC01C5014D
:10094000B4010E94771E4B015C010E94C70136CFA3
:100950008F929F92AF92BF92CF92DF92EF92FF92CF
:1009600087E30E94FD14BC01990F880B990B0E942C
:10097000FB1C20E030E048E453E40E94E31E4B01FE
:100980005C0162E370E080E090E00E941C1586E369
:100990000E94FD14BC01990F880B990B0E94FB1C4F
:1009A00020E030E048E453E40E94E31E6B017C0148
:1009B00062E370E080E090E00E941C1520E030E0EF
:1009C00040E250E4C501B4010E948B1F87FD0AC0BC
:1009D00024E333E343E550E4C501B4010E94F41C71
:1009E0001816A4F42DEC3CEC4CEC5EEBC501B40104
:1009F0000E948B1F87FD0CC02DEC3CEC4CEC5EE3A1
:100A0000C501B4010E94F41C181614F081E301C062
:100A100080E38093000225E83BEE41E450E4C70107
:100A2000B6010E948B1F87FD0AC025E83BEE41E618
:100A300050E4C701B6010E94F41C181644F526E6DE
:100A400036E646E150E4C701B6010E948B1F87FDE0
:100A50000AC026E636E646E350E4C701B6010E9426
:100A6000F41C1816A4F420E030E040E85EEBC70167
:100A7000B6010E948B1F87FD0CC020E030E040E8EB
:100A80005EE3C701B6010E94F41C181614F081E35E
:100A900001C080E38093010220E030E040E85EEB9B
:100AA000C701B6010E948B1F87FD0AC020E030E01D
:100AB00040E85EE3C701B6010E94F41C181644F535
:100AC00026E636E646E150E4C701B6010E948B1FD8
:100AD00087FD0AC026E636E646E350E4C701B601C4
:100AE0000E94F41C1816A4F42AE037ED43E85FE3F3
:100AF000C701B6010E948B1F87FD0CC02AE037EDAD
:100B000043EC5FE3C701B6010E94F41C181614F011
:100B100081E301C080E38093020220E030E040E8FE
:100B20005EEBC701B6010E948B1F87FD0AC020E063
:100B300030E040E85EE3C701B6010E94F41C1816DD
:100B400044F520E030E040EE5FE3C701B6010E94CB
:100B50008B1F87FD0AC020E030E040E150E4C70170
:100B6000B6010E94F41C1816A4F42AE037ED43E8FD
:100B70005FE3C701B6010E948B1F87FD0CC02AE00E
:100B800037ED43EC5FE3C701B6010E94F41C181671
:100B900014F081E301C080E3809303022AE939E97C
:100BA00049E95FE3C501B4010E948B1F87FD0AC0BC
:100BB00020E030E040E050E4C501B4010E94F41CA4
:100BC0001816A4F42DEC3CEC4CEC5EEBC501B40122
:100BD0000E948B1F87FD0CC02DEC3CEC4CEC5EE3BF
:100BE000C501B4010E94F41C181614F081E301C081
:100BF00080E380930402FF90EF90DF90CF90BF904E
:100C0000AF909F908F9008954F925F926F927F92D6
:100C10008F929F92AF92BF92CF92DF92EF92FF920C
:100C2000CF93DF9300D01F92CDB7DEB72B013C01ED
:100C300020E030E048EC52E40E94F41C87FF14C02E
:100C400023E535EB47E75EE3C301B2010E94E31EF3
:100C500020E030E048E455E40E945A1D0E94551FF0
:100C60000E94FB1C2B013C010E94C70189E2882ED7
:100C70008CE5982E8FE8A82E8DE3B82E9AE0C92E29
:100C800097EDD92E93E2E92E9DE3F92E19821A826F
:100C90001B821C8269817A818B819C810E94FB1C52
:100CA00069837A838B839C83A30192010E94F41C45
:100CB00087FF1EC181E89AE00E94F80D909580950B
:100CC000709561957F4F8F4F9F4F0E94FB1C9B013A
:100CD000AC0169817A818B819C810E94771E0E9480
:100CE000551F69837A838B839C83E0E0F2E0A6E062
:100CF000B2E081918D9382E0E630F807D1F70E944F
:100D0000A80445E050E061E872E080E092E00E94D3
:100D1000B021892B51F045E050E067E872E080E0B7
:100D200092E00E94B021892BA1F42DEC3CEC4CEC1C
:100D30005DE3C701B6010E94771EAB01BC0170588C
:100D40008FE79AE00E94050C4DEC5CEC6CEC7DE3C7
:100D50004EC045E050E06FE972E080E092E00E9412
:100D6000B021892B51F045E050E065EA72E080E067
:100D700092E00E94B021892BA1F42DEC3CEC4CECCC
:100D80005DE3C501B4010E94771EAB01BC01705840
:100D90008FE79AE00E94050C4DEC5CEC6CEC7DE377
:100DA0005BC045E050E068EC72E080E092E00E94B9
:100DB000B021892B51F045E050E06EEC72E080E00C
:100DC00092E00E94B021892B09F54DEC5CEC6CECB3
:100DD0007DEB8FE79AE00E94050C2DEC3CEC4CEC8F
:100DE0005DE3C701B6010E94771EAB01BC018DE730
:100DF0009AE00E94050C2FE632E143E05BE3C70175
:100E0000B6010E94761E6B017C0144CF45E050E0A4
:100E100066EE72E080E092E00E94B021892B51F0F2
:100E200045E050E06CEE72E080E092E00E94B0217C
:100E3000892B09F54DEC5CEC6CEC7DEB8FE79AE0CF
:100E40000E94050C2DEC3CEC4CEC5DE3C501B401BB
:100E50000E94771EAB01BC018DE79AE00E94050C51
:100E60002FE632E143E05BE3C501B4010E94761E48
:100E70004B015C010FCF45E050E06FE073E080E094
:100E800092E00E94B021892B09F404CF45E050E0A4
:100E900065E173E080E092E00E94B021892B09F4C3
:100EA000F9CE45E050E06BE173E080E092E00E9413
:100EB000B021892B09F4EECE45E050E061E273E009
:100EC00080E092E00E94B021892B09F4E3CE4DEC42
:100ED0005CEC6CEC7DE38DE79AE00E94050C4DEC38
:100EE0005CEC6CEC7DEB8FE79AE00E94050CD2CEB7
:100EF0000E9464020F900F900F900F90DF91CF919E
:100F0000FF90EF90DF90CF90BF90AF909F908F9029
:100F10007F906F905F904F900895CF93DF938530CF
:100F200038F08DE594E00E94651280E090E007C003
:100F30009927FC01EB57F54F80810E94FD14BC01FD
:100F400080E090E00E94F91CC1E0D0E020E030E0B9
:100F500048E453E40E94F41C87FD02C0C0E0D0E0E6
:100F6000CE01DF91CF910895CF92DF92EF92FF9261
:100F70000F931F93CF93DF936C017A018B01C0E035
:100F8000D0E0CE15DF0589F0D8016D918D01D60135
:100F9000ED91FC910190F081E02DC6011995892B0E
:100FA00011F47E0102C02196ECCFC701DF91CF91F1
:100FB0001F910F91FF90EF90DF90CF900895FC016B
:100FC000A089B1898C91A689B78982FD0FC09C91B7
:100FD000818D8F5F8F73228D821749F0218DDF0104
:100FE000A20FB11D5D969C93818F08958C910895F9
:100FF000FC01538D448D252F30E0842F90E0821B1F
:10100000930B541710F0CF96089501970895FC01A3
:10101000918D828D981761F0828DDF01A80FB11D2F
:101020005D968C91928D9F5F9F73928F90E0089553
:101030008FEF9FEF0895FC01918D828D981731F00D
:10104000828DE80FF11D858D90E008958FEF9FEF61
:101050000895FC01918D228D892F90E0805C9F4F37
:10106000821B91098F739927089585EB96E00E9462
:10107000290821E0892B09F420E0822F089582E5D8
:1010800097E00E94290821E0892B09F420E0822FB3
:1010900008958FEE97E00E94290821E0892B09F43A
:1010A00020E0822F0895FC01848DDF01A80FB11D7F
:1010B000A35ABF4F2C91848D90E001968F7399278E
:1010C000848FA689B7892C93A089B1898C9180647B
:1010D0008C93938D848D981306C00288F389E02D3C
:1010E00080818F7D80830895EF92FF920F931F93ED
:1010F000CF93DF93EC0181E0888F9B8D8C8D9813CB
:1011000005C0E889F989808185FD24C0F62E0B8D04
:1011100010E00F5F1F4F0F731127E02E8C8DE81228
:101120000CC00FB607FCFACFE889F989808185FFEA
:10113000F5CFCE010E945308F1CF8B8DFE01E80F51
:10114000F11DE35AFF4FF0820B8FEA89FB89808102
:10115000806207C0EE89FF896083E889F989808110
:101160008064808381E090E0DF91CF911F910F91A7
:10117000FF90EF900895CF93DF93EC01888D882343
:10118000C9F0EA89FB89808185FD05C0A889B989F4
:101190008C9186FD0FC00FB607FCF5CF808185FFCF
:1011A000F2CFA889B9898C9185FFEDCFCE010E943D
:1011B0005308E7CFDF91CF91089580E090E0892B2D
:1011C00021F00E944908811119C080E090E0892B2C
:1011D00041F080E090E0892B21F00E940000811115
:1011E00010C00E943F0881110FC080E090E0892B61
:1011F00081F00E94350881110AC008950E94000004
:10120000E4CF0E940000EDCF0E94C401EECF0C9409
:1012100000000895089580E090E008950E94AB21B9
:10122000FC01248131E0309385062093A7061092BB
:1012300086061092A8068485682B89EA96E00E94AB
:10124000E50E0C9473120F931F93CF938C01C62F4E
:1012500064600E9410096C2F6B7FC8010E94100906
:1012600083EC90E00197F1F7CF911F910F910895D2
:101270000F931F93CF93DF938C01C62FD62FD07F70
:10128000D1606D2F0E9410096D2FC8010E942309A3
:1012900080E1C89FB0011124C62FC1606C2FC80126
:1012A0000E9410096C2FC8010E94230981E090E080
:1012B000DF91CF911F910F9108951F920F920FB65A
:1012C0000F9211240BB60F922F933F934F935F937E
:1012D0006F937F938F939F93AF93BF93EF93FF93FE
:1012E00080917D0490917E04A0917F04B091800450
:1012F000892B8A2B8B2B59F180917C04E0917A0405
:10130000F0917B0490818927808380917D04909166
:101310007E04A0917F04B0918004181619061A0665
:101320001B060CF056C080917D0490917E04A09124
:101330007F04B09180040197A109B10980937D04D5
:1013400090937E04A0937F04B093800442C0809168
:101350000C02ECEFF1E0E4919FEF90930C02E2308D
:10136000C9F050F4EE2399F0E13081F590916F00CF
:101370009D7F90936F002AC0E43019F1E0F0E530D2
:1013800029F5909173009D7F909373001FC0109278
:101390006E001CC0909170009D7F9093700091E052
:1013A0009093B0009091B100987F94609093B100B9
:1013B0001092B3000BC0909171009D7F90937100CB
:1013C00005C0909172009D7F9093720060E00E9432
:1013D0002312FF91EF91BF91AF919F918F917F91D8
:1013E0006F915F914F913F912F910F900BBE0F9096
:1013F0000FBE0F901F9018951F920F920FB60F926D
:1014000011240BB60F922F933F934F935F936F93DB
:101410007F938F939F93AF93BF93EF93FF9385EB4E
:1014200096E00E945308FF91EF91BF91AF919F9179
:101430008F917F916F915F914F913F912F910F907D
:101440000BBE0F900FBE0F901F9018951F920F921A
:101450000FB60F9211240BB60F922F933F934F9319
:101460005F936F937F938F939F93AF93BF93EF930C
:10147000FF9385EB96E00E94DF07FF91EF91BF910C
:10148000AF919F918F917F916F915F914F913F911C
:101490002F910F900BBE0F900FBE0F901F901895BD
:1014A0001F920F920FB60F9211240BB60F922F932B
:1014B0003F934F935F936F937F938F939F93AF93DC
:1014C000BF93EF93FF9382E597E00E945308FF914B
:1014D000EF91BF91AF919F918F917F916F915F91AC
:1014E0004F913F912F910F900BBE0F900FBE0F9019
:1014F0001F9018951F920F920FB60F9211240BB6E2
:101500000F922F933F934F935F936F937F938F939C
:101510009F93AF93BF93EF93FF9382E597E00E9471
:10152000DF07FF91EF91BF91AF919F918F917F91D5
:101530006F915F914F913F912F910F900BBE0F9044
:101540000FBE0F901F9018951F920F920FB60F921B
:1015500011240BB60F922F933F934F935F936F938A
:101560007F938F939F93AF93BF93EF93FF938FEEF0
:1015700097E00E945308FF91EF91BF91AF919F9127
:101580008F917F916F915F914F913F912F910F902C
:101590000BBE0F900FBE0F901F9018951F920F92C9
:1015A0000FB60F9211240BB60F922F933F934F93C8
:1015B0005F936F937F938F939F93AF93BF93EF93BB
:1015C000FF938FEE97E00E94DF07FF91EF91BF91AD
:1015D000AF919F918F917F916F915F914F913F91CB
:1015E0002F910F900BBE0F900FBE0F901F9018956C
:1015F0001F920F920FB60F9211240BB60F922F93DA
:101600003F934F935F936F937F938F939F93AF938A
:10161000BF93EF93FF9380918D080E94FA11209160
:101620009108309192082F5F3F4F3093920820939A
:10163000910890919008953618F096E090938C0858
:1016400090918C089430C9F128F4923069F093306D
:10165000D1F05EC0953009F451C0963009F058C001
:1016600091E090935D0951C0811152C02091910881
:10167000309192082436310508F442C010925D0979
:10168000109290081CC0813009F042C0E09190088F
:1016900091E09E0F90939008F0E020919108309196
:1016A0009208EE0FFF1FE457F74F30872783109201
:1016B00092081092910894E029C0811117C0E0911E
:1016C000900891E09E0F90939008F0E0209191088F
:1016D00030919208EE0FFF1FE457F74F30872783B2
:1016E000109292081092910893E010C020919108F6
:1016F000309192082536310558F007C0811108C095
:10170000109292081092910803C095E090938C0873
:1017100090918F089923B9F081110AC080918E08A9
:10172000882321F080918E0861E009C02F9A0BC0B8
:1017300080918E08882331F080918E0860E00E94AD
:10174000231201C02F98FF91EF91BF91AF919F910C
:101750008F917F916F915F914F913F912F910F905A
:101760000BBE0F900FBE0F901F9018950F931F93F5
:10177000CF93DF93EC0160E089810E94231283E024
:1017800090E00197F1F761E089810E94231283E2E2
:1017900090E00197F1F760E089810E94231288812F
:1017A00090E0FC01E958FD4F6491FC01EF5CFD4FB6
:1017B000E491F0E0EE0FFF1FE95EFD4F85919491FB
:1017C00000E412E42FE030E0462F0E94A0156115DE
:1017D00071058105910549F0DC01CB010196A11D40
:1017E000B11DBC01CD019F7003C060E070E0CB0172
:1017F0000E94F91C20E030E048E652E40E94E31E1B
:10180000DF91CF911F910F9108958F929F92AF9288
:10181000BF92CF92DF92EF92FF920F931F93CF93DD
:10182000DF93EC016A017B0120E030E04FE753E4F5
:10183000C701B6010E945A1D4B015C0120E030E057
:10184000A9010E948B1F18161CF4C501B40103C026
:10185000C501B40190580E94551F8B0120E030E073
:10186000A901C701B6010E948B1F181614F460E08D
:1018700001C061E089810E9423120F3F110509F028
:1018800014F4112702C00FEF10E0C88161E08C2F23
:101890000E94C1140115110509F4B1C00F3F1105D3
:1018A00009F4AFC0EC2FF0E0E354FD4FE4914E2F6C
:1018B00050E0FA013197E231F10508F09DC0882728
:1018C000EE58FF4F8F4F0C945A1E84B5806884BD2C
:1018D00007BDA7C084B5806284BD08BDA2C0809149
:1018E00080008068809380001093890000938800B6
:1018F00098C08091800080628093800010938B005C
:1019000000938A008EC08091800088608093800060
:1019100010938D0000938C0084C08091B00080688B
:101920008093B0000093B3007CC08091B0008062CF
:101930008093B0000093B40074C0809190008068E0
:101940008093900010939900009398006AC0809152
:10195000900080628093900010939B0000939A0007
:1019600060C08091900088608093900010939D00EB
:1019700000939C0056C08091A00080688093A000D6
:101980008091A0008F7B8093A0001093A90000930A
:10199000A80047C08091A00080628093A0001093AF
:1019A000AB000093AA003DC08091A00088608093A6
:1019B000A0001093AD000093AC0033C080912001D3
:1019C000806880932001109329010093280129C089
:1019D0008091200180628093200110932B0100935D
:1019E0002A011FC0809120018860809320011093FC
:1019F0002D0100932C0115C00038110514F460E08E
:101A000001C061E08C2FDF91CF911F910F91FF906A
:101A1000EF90DF90CF90BF90AF909F908F900C94FD
:101A20002312DF91CF911F910F91FF90EF90DF90E4
:101A3000CF90BF90AF909F908F9008951F920F927C
:101A40000FB60F9211240BB60F922F933F934F9323
:101A50005F936F937F938F939F93AF93BF93EF9316
:101A6000FF938091790487FF05C010928500109242
:101A7000840016C020917904022E000C330B809153
:101A80009A0990E0281739075CF43091790425E031
:101A90003203F0011124E25AF64F808186FD15C011
:101AA000809179048F5F8093790420917904022ECC
:101AB000000C330B80919A0990E02817390794F4B1
:101AC000809179048C302CF10DC03091790432036F
:101AD000F0011124E25AF64F808160E08F730E947A
:101AE0002312DECF809184009091850084349C493C
:101AF00018F480E49CE905C08091840090918500F1
:101B0000049690938900809388008FEF80937904E6
:101B10002AC040918400509185003091790425E0DD
:101B20003203F0011124E25AF64F81819281840F31
:101B3000951F909389008093880030917904320337
:101B4000F0011124E25AF64F808186FF0CC03091DB
:101B500079043203F0011124E25AF64F808161E0EA
:101B60008F730E942312FF91EF91BF91AF919F91CC
:101B70008F917F916F915F914F913F912F910F9036
:101B80000BBE0F900FBE0F901F9018958EBD0000DA
:101B90000DB407FEFDCF8EB50895CF93DF93EC0112
:101BA00060E088810E94231288E90E94C60D80E0CF
:101BB0000E94C60D80E00E94C60D80E00E94C60D06
:101BC00080E00E94C60D61E088810E9423128BE8AC
:101BD00091E00197F1F760E088810E94231280EE86
:101BE0000E94C60D61E08881DF91CF910C94231291
:101BF000AF92BF92CF92DF92EF92FF920F931F931B
:101C0000CF93DF93CDB7DEB760970FB6F894DEBF02
:101C10000FBECDBF5C0160E0FC0180810E942312F9
:101C200080E60E94C60D8E010F5F1F4F7E01F1E11D
:101C3000EF0EF11C680180E00E94C60D90E0A0E06C
:101C4000B0E0F60181939193A193B1936F01EE15EA
:101C5000FF0589F761E0F50180810E94231280E091
:101C600090E0DC01F80141915191619171918F01F6
:101C7000BA2FA92F982F8827840F951FA61FB71F4B
:101C8000EE15FF0579F79C01AD0166277727CB019B
:101C9000621B730B840B950B60960FB6F894DEBF36
:101CA0000FBECDBFDF91CF911F910F91FF90EF90AD
:101CB000DF90CF90BF90AF90089585ED8093BC00EA
:101CC0008091BC0084FDFCCF109284060895409161
:101CD0003706262F30E0240F311D21323105DCF488
:101CE000209184062430C9F4FC0180E090E086173E
:101CF00058F4309137062191DC01AB5EB94FA30F48
:101D0000B11D2C930196F3CF80913706680F609335
:101D1000370680E0089581E0089582E008950895EF
:101D200081E090E03091820420918104321710F418
:101D300080E090E0919581959109089580918204C9
:101D400090918104891730F48F5F8093820480E042
:101D500090E008958FEF9FEF08958091810490E0C7
:101D600020918204821B91090895CF92DF92EF9215
:101D7000FF920F931F93CF93DF937C01262F972F12
:101D80008A0180918506882391F0C62FD72F6E0196
:101D9000C40ED51ECC15DD0571F06991D701ED910A
:101DA000FC910190F081E02DC7011995F3CF642FCC
:101DB000822F0E94670EC801DF91CF911F910F9172
:101DC000FF90EF90DF90CF900895CF93DF931F9215
:101DD000CDB7DEB76983209185062223D1F020910B
:101DE000A806203240F021E030E0FC01338322835A
:101DF00080E090E015C080918606E82FF0E0E9577A
:101E0000F94F998190838F5F809386068093A8060F
:101E100005C061E0CE0101960E94670E81E090E06E
:101E20000F90DF91CF9108954F925F926F927F92C2
:101E30008F929F92AF92BF92CF92DF92EF92FF92DA
:101E40000F931F93CF93DF93CDB7DEB760970FB695
:101E5000F894DEBF0FBECDBF1D821E821F82188682
:101E600019821A821B821C828AE0882E87ED982EA6
:101E700083E2A82E8CE3B82E24013501B301A20120
:101E80008DE79AE00E94050CB501A40170588FE718
:101E90009AE00E94050C62E370E080E090E00E940E
:101EA0001C1581E89AE00E94F80D69877A878B8774
:101EB0009C8783E89AE00E94F80D6D877E878F8764
:101EC000988B69817A818B819C810E94FB1C6B01BC
:101ED0007C0169857A858B859C8590958095709528
:101EE00061957F4F8F4F9F4F0E94FB1C9B01AC0160
:101EF000C701B6010E94771E0E94551F69837A832D
:101F00008B839C836D817E818F8198850E94FB1CD1
:101F10006B017C016D857E858F8598890E94FB1CF5
:101F20009B01AC01C701B6010E94771E0E94551F9C
:101F30006D837E838F8398877B018C0129813A8111
:101F40004B815C81C501B4010E94D7014B015C014A
:101F50000E94C7012DEC3CEC4CEC5DE3C301B201E7
:101F60000E94F41C87FF14C02FE832EC45EF5CE3BD
:101F7000C301B2010E94771E2B013C012FE832EC15
:101F800045EF5CE3C501B4010E94771E4B015C0183
:101F900089819A81AB81BC8183309D45A105B105C2
:101FA0000CF46CCF1D821E821F82188619821A8241
:101FB0001B821C8281E89AE00E94F80D69877A876B
:101FC0008B879C8783E89AE00E94F80D6D877E8757
:101FD0008F87988B69817A818B819C810E94FB1C01
:101FE0006B017C0169857A858B859C8590958095B0
:101FF000709561957F4F8F4F9F4F0E94FB1C9B01F7
:10200000AC01C701B6010E94771E0E94551F69836B
:102010007A838B839C836D817E818F8198850E94DA
:10202000FB1C6B017C016D857E858F8598890E94E4
:10203000FB1C9B01AC01C701B6010E94771E0E94E8
:10204000551F6D837E838F8398877B018C01298147
:102050003A814B815C81C501B4010E94D7014B01DB
:102060005C010E94C70120E030E040E85EE3C3016C
:10207000B2010E948B1F18160CF52DEC3CEC4CE4C1
:102080005DE3C301B2010E94761E2B013C012DECE1
:102090003CEC4CE45DE3C501B4010E94761E4B01AB
:1020A0005C01B301A2018DE79AE00E94050CB50125
:1020B000A40170588FE79AE00E94050C6BE470E071
:1020C00080E090E00E941C1589819A81AB81BC81DF
:1020D00086359A40A105B1050CF46CCF60960FB619
:1020E000F894DEBF0FBECDBFDF91CF911F910F914E
:1020F000FF90EF90DF90CF90BF90AF909F908F9028
:102100007F906F905F904F900C9464028091830455
:10211000909184040197909384048093830424EF26
:1021200031E041E050E060E070E084E393E40E943D
:102130008302E0918304F0918404EE0FFF1FEE0F01
:10214000FF1FEB57FB4F60817181828193810E9459
:1021500004068091830490918404FC01EE0FFF1F1C
:10216000EE0FFF1FEB57FB4F10821182128213827A
:102170000197909384048093830408951F920F9293
:102180000FB60F9211240F900FBE0F901F9018954D
:102190001F920F920FB60F9211240BB60F922F932E
:1021A0003F934F935F936F937F938F939F93AF93DF
:1021B000BF93EF93FF938091B900887F803609F435
:1021C0009CC068F5883209F45BC090F4803109F452
:1021D00054C038F4882309F4F6C0883009F44DC09F
:1021E000F6C0883109F44CC0803209F45DC0EFC0FC
:1021F000803409F468C048F4803309F455C088334A
:1022000009F0E5C080938206D8C0803509F44FC03C
:10221000883509F45DC0883409F0D9C0D6C0883942
:1022200009F4C7C0A8F4883709F467C038F48836C1
:1022300009F463C0803709F460C0C9C0883809F464
:10224000B8C0803909F45FC0803809F0C0C05BC0F5
:10225000803B09F486C038F4803A09F466C0883AB5
:1022600009F47FC0B4C0803C09F4A7C0883C09F4DD
:10227000A4C0883B09F48AC0AAC080915F0610C040
:102280009091810680918006981770F5E091810603
:1022900081E08E0F80938106F0E0E05AF94F808153
:1022A0008093BB0085EC86C0809382068EC0E0914F
:1022B000810681E08E0F809381068091BB00F0E063
:1022C000E05AF94F808390918106809180066EC01C
:1022D000E091810681E08E0F809381068091BB00A2
:1022E000F0E0E05AF94F80838091830681116DC040
:1022F00081E080935E0684EA61C083E08093840677
:1023000010925B06CFCF80915B06803208F051C0FF
:10231000E0915B0681E08E0F80935B068091BB00AD
:10232000F0E0E55CF94F8083BDCF85EC8093BC0085
:102330001092840680915B06803230F4E0915B0657
:10234000F0E0E55CF94F108260915B0670E0E0918F
:102350003906F0913A068BE396E0199510925B06E8
:1023600036C084E0809384061092380610923706B7
:10237000E0913506F0913606199580913706811166
:1023800005C081E08093370610921506E09138066B
:1023900081E08E0F80933806F0E0EB5EF94F80818C
:1023A0008093BB009091380680913706981708F407
:1023B00079CF85E88093BC000AC085EC8093BC008F
:1023C0001092840604C0109282060E945D0EFF9156
:1023D000EF91BF91AF919F918F917F916F915F919D
:1023E0004F913F912F910F900BBE0F900FBE0F900A
:1023F0001F901895CF93DF93282F30E0F901E35415
:10240000FD4F8491F901E958FD4FD491F901EF5C3A
:10241000FD4FC491CC2391F081110E946B14EC2FDD
:10242000F0E0EE0FFF1FE95EFD4FA591B491EC9136
:10243000ED2381E090E021F480E002C080E090E0B4
:10244000DF91CF9108951F93CF93DF93282F30E032
:10245000F901E354FD4F8491F901E958FD4FD491FE
:10246000F901EF5CFD4FC491CC23C9F0162F811107
:102470000E946B14EC2FF0E0EE0FFF1FE350FE4FB5
:10248000A591B4918FB7F894111105C09C91ED2FCF
:10249000E095E92302C0EC91ED2BEC938FBFDF9127
:1024A000CF911F910895009769F0FC0101900020E1
:1024B000E9F73197AF01481B590BBC018FEE97E04C
:1024C0000C94B40780E090E00895CF93DF930E94CE
:1024D0005312EC0186E793E00E9453128C0F9D1F6C
:1024E000DF91CF9108952091A8069091A7062132FF
:1024F00008F04AC0809184068111FCCF32E030930D
:10250000840631E0309383063FEF309382061092C9
:10251000810620938006A7E8B6E040E656E0FA017F
:102520003E2F341B321718F43D913193F9CF10929E
:102530005F0620915F06990F922B90935F06909112
:102540005E06913061F410925E0690915F06909362
:10255000BB009091BC0093FDF8CF95EC01C095EEC7
:102560009093BC00909184069230E1F390918206A2
:102570009F3F79F080918206803241F080918206FF
:10258000803331F084E005C081E003C082E001C007
:1025900083E0109286061092A80610928506089590
:1025A000EF92FF921F93CF93DF931F92CDB7DEB7C9
:1025B000162F94E6E92E9AE0F92ED7011C969C91ED
:1025C0001C9721E0209385069093A706109286061B
:1025D0001092A8061A960D90BC91A02DED91FC9139
:1025E00011970190F081E02D682FCD017983199525
:1025F000F70182859385DC01ED91FC910190F081DA
:10260000E02D7981672F1995F70182859385DC018B
:10261000ED91FC910190F081E02D612F19950F90C3
:10262000DF91CF911F91FF90EF900C947312E09186
:10263000EF07F091F0070190F081E02D682F8FEE09
:1026400097E019948F929F92AF92BF920F931F932E
:10265000CF93DF93CDB7DEB7A1970FB6F894DEBF67
:102660000FBECDBF19A2423008F44AE08E010F5DC3
:102670001F4F842E912CA12CB12CA50194010E94F6
:10268000181EE62FB901CA0101501109EA3014F4ED
:10269000E05D01C0E95CD801EC93232B242B252BB2
:1026A00061F7C8010E945312A1960FB6F894DEBFDD
:1026B0000FBECDBFDF91CF911F910F91BF90AF9013
:1026C0009F908F9008954F925F926F927F928F921A
:1026D0009F92AF92BF92CF92DF92EF92FF926B01E7
:1026E0007C01B42E9B01AC010E94901F882319F03D
:1026F0008CE694E027C026013701E89477F82FEFA5
:102700003FEF4FE75FE7C301B2010E94901F8111C5
:102710000DC02FEF3FEF4FE75FE7C301B2010E940B
:10272000F41C18161CF480E794E00CC02FEF3FEF68
:102730004FE75FE4C701B6010E948B1F181684F4AF
:1027400084E794E0FF90EF90DF90CF90BF90AF9040
:102750009F908F907F906F905F904F900C9453124A
:102760002FEF3FEF4FE75FECC701B6010E94F41C6B
:1027700087FDE6CF20E030E0A901C701B6010E9445
:10278000F41C87FF09C08DE20E9417134C01F7FA71
:10279000F094F7F8F09402C0812C912CA12C60E009
:1027A00070E080E09FE3AB1441F020E030E040E2D5
:1027B00051E40E94E31EA394F6CF9B01AC01C70134
:1027C000B6010E94771E2B013C010E945C1F6B0129
:1027D0007C010E94F91C9B01AC01C301B2010E9463
:1027E000761E2B013C014AE0C701B6010E9422136C
:1027F0007C01E80CF91CBB2029F08EE20E94171323
:10280000E80EF91EDB2CDD2021F120E030E040E273
:1028100051E4C301B2010E945A1D2B013C010E94E8
:102820005C1F4B01A12CB12C4AE0C501B4010E94F0
:102830002213E80EF91EC501B4010E94F91C9B0188
:10284000AC01C301B2010E94761E2B013C01DA9457
:10285000DACFC701FF90EF90DF90CF90BF90AF909D
:102860009F908F907F906F905F904F900895CF933F
:10287000DF9342E00E946313EC0186E793E00E943D
:1028800053128C0F9D1FDF91CF9108953FB7F8949D
:102890008091A00A9091A10AA091A20AB091A30AE6
:1028A00026B5A89B05C02F3F19F00196A11DB11DAB
:1028B0003FBFBA2FA92F982F8827820F911DA11DE6
:1028C000B11DBC01CD0142E0660F771F881F991F23
:1028D0004A95D1F7089590E0FC013197E231F10576
:1028E00008F04EC08827EC57FF4F8F4F0C945A1EAC
:1028F000809180008F7703C0809180008F7D8093CE
:102900008000089580918000877FF9CF84B58F770C
:1029100002C084B58F7D84BD08958091B0008F770B
:1029200003C08091B0008F7D8093B00008958091A6
:1029300090008F7707C0809190008F7D03C08091B9
:102940009000877F8093900008958091A0008F77FA
:1029500007C08091A0008F7D03C08091A000877F79
:102960008093A0000895809120018F7707C0809107
:1029700020018F7D03C080912001877F80932001FB
:102980000895CF93DF9390E0FC01E958FD4F249127
:10299000FC01EF5CFD4F8491882361F190E0880F8A
:1029A000991FFC01ED5FFC4FC591D491FC01E350F0
:1029B000FE4FA591B491611109C09FB7F894888129
:1029C000209582238883EC912E230BC0623061F422
:1029D0009FB7F8943881822F809583238883EC9168
:1029E0002E2B2C939FBF06C08FB7F894E8812E2B17
:1029F00028838FBFDF91CF910895863308F08653E7
:102A000090917B00282F2870977F922B90937B00CA
:102A10008770806480937C0080917A0080648093CA
:102A20007A0080917A0086FDFCCF80917800209119
:102A3000790090E0922B08958F929F92AF92BF926F
:102A4000CF92DF92EF92FF926B017C010E944614BD
:102A50004B015C01C114D104E104F104F1F00E94C6
:102A60004614DC01CB0188199909AA09BB09883EE3
:102A70009340A105B10570F321E0C21AD108E10825
:102A8000F10888EE880E83E0981EA11CB11CC114C9
:102A9000D104E104F10419F7DDCFFF90EF90DF904E
:102AA000CF90BF90AF909F908F9008951F920F92FC
:102AB0000FB60F9211242F933F938F939F93AF9351
:102AC000BF9380919C0A90919D0AA0919E0AB0911B
:102AD0009F0A30919B0A23E0230F2D3720F40196A3
:102AE000A11DB11D05C026E8230F0296A11DB11D31
:102AF00020939B0A80939C0A90939D0AA0939E0A20
:102B0000B0939F0A8091A00A9091A10AA091A20A75
:102B1000B091A30A0196A11DB11D8093A00A9093C4
:102B2000A10AA093A20AB093A30ABF91AF919F916B
:102B30008F913F912F910F900FBE0F901F9018957E
:102B4000CF92DF92EF92FF920F931F93E82FF92F0E
:102B500005C0015011092109310961F190819623C5
:102B60009417B9F305C0015011092109310911F178
:102B7000908196239413F7CFC12CD12CE12CF12C0A
:102B80000AC08FEFC81AD80AE80AF80A0C151D0502
:102B90002E053F0579F080818623841791F36C2DF3
:102BA0007D2D8E2D9F2D1F910F91FF90EF90DF9027
:102BB000CF90089560E070E080E090E01F910F9169
:102BC000FF90EF90DF90CF900895789484B5826065
:102BD00084BD84B5816084BD85B5826085BD85B5C1
:102BE000816085BD80916E00816080936E0010923F
:102BF00081008091810082608093810080918100BA
:102C0000816080938100809180008160809380004A
:102C10008091B10084608093B1008091B0008160A8
:102C20008093B000809191008260809391008091A8
:102C300091008160809391008091900081608093E9
:102C400090008091A10082608093A1008091A100FA
:102C500081608093A1008091A00081608093A0009A
:102C60008091210182608093210180912101816006
:102C700080932101809120018160809320018091C7
:102C80007A00846080937A0080917A0082608093D9
:102C90007A0080917A00816080937A0080917A0036
:102CA000806880937A001092C100E091FF07F09154
:102CB000000882E08083E091FB07F091FC0710821E
:102CC000E091FD07F091FE078FEC808310920708DA
:102CD000E0910308F091040886E08083E091010808
:102CE000F0910208808180618083E0910108F09179
:102CF0000208808188608083E0910108F0910208D9
:102D0000808180688083E0910108F09102088081D1
:102D10008F7D808361E08091650A0E94C11460E02C
:102D20008091650A0E94231260E08091640A0E94EB
:102D3000C11489EA96E090936F0A80936E0A10920C
:102D4000820410928104109286061092A8061092B6
:102D5000840681E08093830610925E0661E084E140
:102D60000E94231261E085E10E9423128091B90044
:102D70008E7F8093B9008091B9008D7F8093B900D8
:102D800088E48093B80085E48093BC0080E090E103
:102D9000A0E0B0E08093710A9093720AA093730A46
:102DA000B093740A8AE090E0A0E0B0E08093750AE6
:102DB0009093760AA093770AB093780A80E090E027
:102DC000A0E0B0E48093790A90937A0AA0937B0AFA
:102DD000B0937C0A60E070E185E00E94D0126FE958
:102DE00079E380E00E94D012C1E8DAE0C12CD12C56
:102DF000E12CF12C46E6442E42E0542E5CEA852E6E
:102E000052E0952E6BECA62E67E0B62EC7018C59CA
:102E1000954F3C01FC019481828186010C59154F2C
:102E2000F801818F928F61E00E94C11461E0F80186
:102E3000828D0E94C114F301908586818883F801F8
:102E4000968F61E00E94C11460E0F801868D0E94B7
:102E5000C11461E088810E9423121FB7F894809109
:102E60007804811125C0F2018491F4019491E82F36
:102E7000F0E0EE0FFF1FED5FFC4FA591B4918C9138
:102E8000982321F461E085E30E94231261E085E349
:102E90000E94C1148CB580618CBD8CB580648CBDE2
:102EA00061E084E30E94C11461E083E30E94C114E5
:102EB000809178048F5F809378041FBFC5010197CC
:102EC000F1F760E088810E94231288E80E94C60D15
:102ED00083E00E94C60D61E088810E942312C50133
:102EE0000197F1F7CE010E94CD0DF2E0CF0ED11C7B
:102EF0002296EA94EF2821F0EE24E394F12C86CF79
:102F0000C9E8DAE01C2F1C5F60E089910E94C114BF
:102F10001C13FACF08E91AE0C5E9DAE0B5E0CB2ED8
:102F20008CE0E82E92E0B92EDC2ED394D394FE01EF
:102F30003897F08088818C3008F044C061E08F2D94
:102F40000E94C1148881C89EF0011124E25AF64FF4
:102F50009F2D9F732081207CF22EF92AF08213820C
:102F600014826E2D0E943A1EECE08E9FA001112467
:102F700020E030E0B901640F751FC69EF001C79EC6
:102F8000F00D1124E25AF64F908196FD12C02F5F8A
:102F90003F4F2C30310571F781110BC0109280002A
:102FA000B09281001092850010928400B6BAB0925F
:102FB0006F00E881CE9EF0011124E25AF64F808125
:102FC00080648083FE013297908132978081F8017E
:102FD00031978083F801908360E00E94C11461E022
:102FE000F80180810E94C11460E0F80180810E9494
:102FF000231221960E5F1F4FDC1299CFF894109286
:10300000200189E08093210180E293E090932901DF
:1030100080932801109225011092240182E0809370
:103020007300789480938C081092900880918D089A
:1030300060E00E94C11460E08FE20E94C11464EF5E
:1030400071E080E090E00E941C15E5E8F4E0119248
:1030500011921192119286E0E531F807C1F783E4ED
:1030600092E00E946512C12CD12CE0E4EE2EFE2CE1
:10307000812C912CF0E8AF2EFFE3BF2EAAE06A2E40
:10308000712C81E89AE00E94CD0D80918B0A0E94FC
:10309000FA11892B09F06FC105E814E0C0E0D0E017
:1030A000FBC182E090E00E948D07019709F48BC07C
:1030B00087E99AE00E94B60B20E030E040E451E45A
:1030C0000E948B1F18160CF07EC080E692E00E94D2
:1030D00065120E94A80484E792E00E9453126DECEE
:1030E0007CEC8CEC9DE30E94371445E050E061E8F5
:1030F00072E080E092E00E94B021892B09F41FC2A7
:1031000045E050E067E872E080E092E00E94B02184
:10311000892B09F414C245E050E06FE972E080E0C9
:1031200092E00E94B021892B09F412C245E050E0E0
:1031300065EA72E080E092E00E94B021892B09F4F8
:1031400007C245E050E068EC72E080E092E00E9447
:10315000B021892B09F40DC245E050E06EEC72E01D
:1031600080E092E00E94B021892B09F402C245E080
:1031700050E066EE72E080E092E00E94B021892B80
:1031800009F408C245E050E06CEE72E080E092E0A5
:103190000E94B021892B09F4FDC145E050E06FE0A9
:1031A00073E080E092E00E94B021892B09F005C213
:1031B00087E293E00E94651283E090E00E948D0711
:1031C000019709F06ECF83E593E00E94531220909F
:1031D000830430908404032C000C4408550857FEE7
:1031E000D4C08DE20E94171366277727CB0162199E
:1031F0007309840995094AE00E94221386E793E047
:103200000E94531289E793E00E94531281E89AE0EA
:103210000E94F80D1B012C0166277727CB0162194C
:1032200073098409950997FFB4C08DE20E941713B2
:103230004AE0C201B1010E94221386E793E00E9496
:103240005312C0918304D091840481E89AE00E94D3
:10325000F80DCC0FDD1FCC0FDD1FCB57DB4F90954A
:103260008095709561957F4F8F4F9F4F0E94FB1CFB
:10327000688379838A839B8380E993E00E94531259
:10328000E0918304F0918404EE0FFF1FEE0FFF1F07
:10329000EB57FB4F60817181828193810E943714CB
:1032A00060E070E080E89EE30E9404068091830461
:1032B0009091840401969093840480938304880FF2
:1032C000991F880F991FFC01EB57FB4F208031801D
:1032D0004280538020E030E0A901C201B1010E9488
:1032E000F41C81117EC082E090E00E948D0701975E
:1032F00009F051C080EB93E00E9465122DEE30E0A2
:1033000041E050E060E070E084EB92E40E948302D0
:10331000E0918304F0918404EE0FFF1FEE0FFF1F76
:10332000EB57FB4F80829182A282B38260E070E013
:1033300080E090E40E9404068CE094E00E94531226
:10334000E0918304F0918404EE0FFF1FEE0FFF1F46
:10335000EB57FB4F60817181828193810E9437140A
:1033600080918304909184040196909384048093C7
:1033700083040E94C70180918C0A0E94FA11892B54
:1033800009F08ACE87E492E015CF4AE0C201B1018C
:1033900033CF4AE050CF87E99AE00E94B60B20E095
:1033A00030E040E451E40E948B1F18160CF084C0FA
:1033B00089E394E00E946512E0918304F091840413
:1033C000EE0FFF1FEE0FFF1FEB57FB4F80E090E06B
:1033D000A0E0B0E480839183A283B383BC01CD01DC
:1033E000A9CF20E030E040E850E4C201B1010E94E2
:1033F000F41C882391F182E090E00E948D070197F0
:1034000049F48BED93E00E9465122DEE30E041E02F
:1034100050E01CC087E99AE00E94B60B20E030E043
:1034200040E451E40E948B1F18160CF481C083E025
:1034300090E00E948D07019709F07ECF8DEE93E01A
:103440000E94651221EA31E040E050E060E070E067
:1034500084EB92E40E9483026FC08FEF93E00E949E
:1034600065120E94861068CFF80161917191819177
:1034700091918F0142E00E94631387E394E00E94E0
:103480005312CE01B3010E94461E892B21F487E717
:1034900093E00E94531221968091830490918404BA
:1034A000C817D9070CF36AE070E080E090E00E9452
:1034B0001C150E94DD08E5CD83E090E00E948D0799
:1034C0000197E9F480EC93E00E94651221EA31E073
:1034D00040E050E060E070E084EB92E40E94830200
:1034E000E0918304F0918404EE0FFF1FEE0FFF1FA5
:1034F000EB57FB4FC082D182E282F38217CF80ED7F
:1035000093E00E9465120E948610E0918304F0917E
:103510008404EE0FFF1FEE0FFF1FEB57FB4F80E001
:1035200090E0A0E8B0E480839183A283B38304CFCA
:103530008AE494E00E9465120E94140FFDCE8DE88B
:1035400092E00E94651249E25CE56FE07EEB08C004
:103550008BEA92E00E9465124BE754E16EE27EEB4B
:103560008FE79AE00E94050C4DEC5CEC6CEC7DE37F
:1035700021C084ED92E00E9465124DEC5CEC6CEC95
:103580007DEB8FE79AE00E94050C49E25CE56FE075
:103590007EE310C082EF92E00E9465124DEC5CEC7D
:1035A0006CEC7DEB8FE79AE00E94050C4BE754E151
:1035B0006EE27EE38DE79AE033C045E050E065E1DE
:1035C00073E080E092E00E94B021892B09F4F0CDF5
:1035D00045E050E06BE173E080E092E00E94B021B2
:1035E000892B09F4E5CD45E050E061E273E080E02D
:1035F00092E00E94B021892B09F4DACD80E493E0B7
:103600000E9465124DEC5CEC6CEC7DE38DE79AE07A
:103610000E94050C4DEC5CEC6CEC7DEB8FE79AE0C6
:103620000E94050CC9CD80919B0990919C090C9436
:103630002A201092AC061092AB0688EE93E0A0E030
:10364000B0E08093AD069093AE06A093AF06B09322
:10365000B00627E132E03093AA062093A906109223
:10366000B8061092B7068093B9069093BA06A09355
:10367000BB06B093BC0629E232E03093B606209335
:10368000B50645E351E05093C2064093C10644E3BA
:1036900051E05093C4064093C30640E351E0509379
:1036A000C6064093C50641E351E05093C8064093D7
:1036B000C70642E351E05093CA064093C90646E369
:1036C00051E05093CC064093CB061092CE06109258
:1036D000CF061092D0061092D10610925507109284
:1036E00054078093560790935707A0935807B093B9
:1036F0005907309353072093520745ED50E05093FC
:103700005F0740935E0744ED50E05093610740939C
:10371000600740ED50E0509363074093620741ED2E
:1037200050E0509365074093640742ED50E050939A
:1037300067074093660746ED50E050936907409352
:10374000680710926B0710926C0710926D07109229
:103750006E071092F2071092F1078093F30790938F
:10376000F407A093F507B093F6073093F007209382
:10377000EF0785EC90E09093FC078093FB0784ECC7
:1037800090E09093FE078093FD0780EC90E090938B
:1037900000088093FF0781EC90E0909302088093EB
:1037A000010882EC90E0909304088093030886EC73
:1037B00090E09093060880930508109208081092F4
:1037C000090810920A0810920B0886E38093850A74
:1037D00087E38093860A88E38093870A89E380934E
:1037E000880A8BE18093890A8DE180938A0A8AE1B5
:1037F00080938B0A8CE180938C0A84E080938D0AFD
:1038000087E080938E0A10928F0A84EB8093900A4F
:1038100086E18093910A88E18093920A87E1809300
:10382000930A89E18093940AE0919A09EC3020F0A0
:103830008FEF8093950A10C081E08E0F80939A09D4
:10384000E093950A25E0E29FF0011124E25AF64F39
:1038500088EB9BE092838183E0919A09EC3020F021
:103860008FEF8093960A10C081E08E0F80939A09A3
:10387000E093960A85E0E89FF0011124E25AF64FA2
:1038800088EB9BE0928381838CE08093640A84E2DE
:103890008093650A86E08093660A85E08093670AD4
:1038A0008FE18093680A8EE18093690A83E28093B6
:1038B0006A0A82E280936B0A85E480936C0A84E44E
:1038C00080936D0A80E48093700A1092750A1092BA
:1038D000760A1092770A1092780A1092790A10925A
:1038E0007A0A10927B0A10927C0AE6EAF9E08FEFDE
:1038F0009FEFDC01128213821482158216821782D6
:103900001086118683879487A587B6878787908BD3
:10391000A18BB28B12861182108273962AE0E43654
:10392000F20741F78DE090E00E94951FFC011382A1
:1039300012828BE392E091838083118687E28483F5
:1039400084E1828784E083871486F093A309E0935F
:10395000A2091092A4091092A50985E280938D080E
:1039600010928F0810929C0910929B0910929E0948
:1039700010929D091092A00910929F0961E070E0D9
:1039800080E090E00E94C220009789F090939C090B
:1039900080939B0910929E0910929D0920919F0986
:1039A0003091A009232BC1F4FC01108215C0809135
:1039B0009B0990919C09009711F00E942A20109277
:1039C0009C0910929B091092A00910929F091092D5
:1039D0009E0910929D0908951092A00910929F09C6
:1039E00068E374E00C94C6210E94361D08F481E05F
:1039F0000895E89409C097FB3EF4909580957095E2
:103A000061957F4F8F4F9F4F9923A9F0F92F96E92A
:103A1000BB279395F695879577956795B795F1119F
:103A2000F8CFFAF4BB0F11F460FF1BC06F5F7F4F3C
:103A30008F4F9F4F16C0882311F096E911C077234E
:103A400021F09EE8872F762F05C0662371F096E857
:103A5000862F70E060E02AF09A95660F771F881F26
:103A6000DAF7880F9695879597F90895990F0008CA
:103A7000550FAA0BE0E8FEEF16161706E807F90740
:103A8000C0F012161306E407F50798F0621B730BDB
:103A9000840B950B39F40A2661F0232B242B252B5C
:103AA00021F408950A2609F4A140A6958FEF811DFF
:103AB000811D08950E946D1D0C94DE1D0E94D01D75
:103AC00038F00E94D71D20F0952311F00C94C71DEB
:103AD0000C94CD1D11240C94121E0E94EF1D70F346
:103AE000959FC1F3950F50E0551F629FF001729FA3
:103AF000BB27F00DB11D639FAA27F00DB11DAA1FB2
:103B0000649F6627B00DA11D661F829F2227B00DFE
:103B1000A11D621F739FB00DA11D621F839FA00D89
:103B2000611D221F749F3327A00D611D231F849FD9
:103B3000600D211D822F762F6A2F11249F57504030
:103B40009AF0F1F088234AF0EE0FFF1FBB1F661FAB
:103B5000771F881F91505040A9F79E3F510580F074
:103B60000C94C71D0C94121E5F3FE4F3983ED4F3EF
:103B7000869577956795B795F795E7959F5FC1F718
:103B8000FE2B880F911D9695879597F9089597F9C3
:103B90009F6780E870E060E008959FEF80EC0895F3
:103BA00000240A941616170618060906089500241C
:103BB0000A9412161306140605060895092E039496
:103BC000000C11F4882352F0BB0F40F4BF2B11F40A
:103BD00060FF04C06F5F7F4F8F4F9F4F089557FD69
:103BE0009058440F551F59F05F3F71F04795880F6B
:103BF00097FB991F61F09F3F79F087950895121602
:103C000013061406551FF2CF4695F1DF08C01616AD
:103C100017061806991FF1CF86957105610508945E
:103C20000895E894BB2766277727CB0197F9089575
:103C3000A1E21A2EAA1BBB1BFD010DC0AA1FBB1FB0
:103C4000EE1FFF1FA217B307E407F50720F0A21B22
:103C5000B30BE40BF50B661F771F881F991F1A948F
:103C600069F760957095809590959B01AC01BD01B9
:103C7000CF010895991B79E004C0991F961708F0A9
:103C8000961B881F7A95C9F78095089597FB072E94
:103C900016F4009407D077FD09D00E94621E07FC3D
:103CA00005D03EF4909581959F4F0895709561954C
:103CB0007F4F0895EE0FFF1F881F8BBF0790F6916F
:103CC000E02D1994AA1BBB1B51E107C0AA1FBB1F03
:103CD000A617B70710F0A61BB70B881F991F5A9598
:103CE000A9F780959095BC01CD0108955058BB2748
:103CF000AA270E948E1E0C94DE1D0E94D01D38F053
:103D00000E94D71D20F039F49F3F19F426F40C943B
:103D1000CD1D0EF4E095E7FB0C94C71DE92F0E9422
:103D2000EF1D58F3BA17620773078407950720F051
:103D300079F4A6F50C94111E0EF4E0950B2EBA2F13
:103D4000A02D0B01B90190010C01CA01A0011124A1
:103D5000FF27591B99F0593F50F4503E68F11A164D
:103D6000F040A22F232F342F4427585FF3CF4695DE
:103D700037952795A795F0405395C9F77EF41F1600
:103D8000BA0B620B730B840BBAF09150A1F0FF0FCA
:103D9000BB1F661F771F881FC2F70EC0BA0F621FB6
:103DA000731F841F48F4879577956795B795F795A6
:103DB0009E3F08F0B0CF9395880F08F09927EE0F3B
:103DC0009795879508950E94F71E0C94DE1D0E941A
:103DD000D71D58F00E94D01D40F029F45F3F29F014
:103DE0000C94C71D51110C94121E0C94CD1D0E94F1
:103DF000EF1D68F39923B1F3552391F3951B550BF0
:103E0000BB27AA2762177307840738F09F5F5F4FAD
:103E1000220F331F441FAA1FA9F335D00E2E3AF0EC
:103E2000E0E832D091505040E695001CCAF72BD004
:103E3000FE2F29D0660F771F881FBB1F2617370755
:103E40004807AB07B0E809F0BB0B802DBF01FF2787
:103E500093585F4F3AF09E3F510578F00C94C71D80
:103E60000C94121E5F3FE4F3983ED4F38695779549
:103E70006795B795F7959F5FC9F7880F911D969540
:103E8000879597F90895E1E0660F771F881FBB1F9C
:103E9000621773078407BA0720F0621B730B840B49
:103EA000BA0BEE1F88F7E09508950E945C1F689496
:103EB000B1110C94121E08950E94F71D88F09F57AF
:103EC00098F0B92F9927B751B0F0E1F0660F771F3E
:103ED000881F991F1AF0BA95C9F714C0B13091F034
:103EE0000E94111EB1E008950C94111E672F782FC7
:103EF0008827B85F39F0B93FCCF3869577956795F9
:103F0000B395D9F73EF490958095709561957F4F64
:103F10008F4F9F4F08950E94361D08F48FEF08952C
:103F20000E94361D880B990B0895CF93DF93823042
:103F3000910510F482E090E0E091A60AF091A70AC2
:103F400020E030E0C0E0D0E0309711F140815181B5
:103F500048175907C0F04817590761F482819381C7
:103F6000209719F09B838A832BC09093A70A809394
:103F7000A60A26C02115310519F04217530718F477
:103F80009A01BE01DF01EF010280F381E02DDCCF59
:103F90002115310509F1281B390B2430310590F426
:103FA00012968D919C9113976115710521F0FB017B
:103FB0009383828304C09093A70A8093A60AFD018D
:103FC000329644C0FD01E20FF31F8193919322507A
:103FD00031092D933C933AC02091A40A3091A50A4F
:103FE000232B41F420910F02309110023093A50A47
:103FF0002093A40A20910D0230910E022115310563
:1040000041F42DB73EB74091110250911202241B8A
:10401000350BE091A40AF091A50AE217F307A0F48A
:104020002E1B3F0B2817390778F0AC014E5F5F4F0E
:104030002417350748F04E0F5F1F5093A50A409391
:10404000A40A8193919302C0E0E0F0E0CF01DF91F8
:10405000CF9108950F931F93CF93DF93009709F4A7
:104060008CC0FC013297138212820091A60A109133
:10407000A70A0115110581F420813181820F931F58
:104080002091A40A3091A50A2817390779F5F093F1
:10409000A50AE093A40A71C0D80140E050E0AE1731
:1040A000BF0750F412962D913C911397AD01211545
:1040B000310509F1D901F3CF9D01DA013383228360
:1040C00060817181860F971F8217930769F4EC0155
:1040D00028813981260F371F2E5F3F4F3183208380
:1040E0008A819B8193838283452B29F4F093A70ACD
:1040F000E093A60A42C01396FC93EE931297ED014B
:10410000499159919E01240F351FE217F30771F46D
:1041100080819181840F951F029611969C938E93B6
:104120008281938113969C938E931297E0E0F0E046
:10413000D80112968D919C911397009719F0F80170
:104140008C01F6CF8D919C9198012E5F3F4F820F8D
:10415000931F2091A40A3091A50A2817390769F402
:10416000309729F41092A70A1092A60A02C013826F
:1041700012821093A50A0093A40ADF91CF911F9198
:104180000F9108956F927F928F929F92AF92BF92FC
:10419000CF92DF92EF92FF920F931F93CF93DF9313
:1041A000EC01009789F4CB01DF91CF911F910F9122
:1041B000FF90EF90DF90CF90BF90AF909F908F9047
:1041C0007F906F900C94951FFC01E60FF71F9C01E8
:1041D00022503109E217F30708F4ACC0D9010D9160
:1041E0001C91119706171707B0F00530110508F458
:1041F0009FC0C80104978617970708F499C002501A
:104200001109061B170B019311936D937C93CF013A
:104210000E942A208DC05B01A01AB10A4C01800EB9
:10422000911EA091A60AB091A70A40E050E0E12CAF
:10423000F12C109709F44AC0A815B905D1F56D9075
:104240007C901197630182E0C80ED11CCA14DB0474
:1042500080F1A3014A195B096A0182E0C80ED11CF2
:104260001296BC9012971396AC91B5E0CB16D10480
:1042700040F0B282A38351834083D9016D937C9334
:104280000AC00E5F1F4FC301800F911FF901918378
:104290008083EB2DFA2FE114F10431F0D70113964E
:1042A000FC93EE93129744C0F093A70AE093A60AFA
:1042B0003FC08D919C9111974817590708F4AC01A4
:1042C0007D0112960D90BC91A02DB3CF8091A40AD0
:1042D0009091A50A88159905E1F446175707C8F487
:1042E00080910D0290910E02009741F48DB79EB718
:1042F0004091110250911202841B950BE817F907A7
:10430000C8F4F093A50AE093A40AF90171836083CD
:104310000FC0CB010E94951F7C01009759F0A801A6
:10432000BE010E94BD21CE010E942A20C70104C007
:10433000CE0102C080E090E0DF91CF911F910F91FC
:10434000FF90EF90DF90CF90BF90AF909F908F90B5
:104350007F906F90089581E090E0F8940C94CD21C7
:10436000FB01DC0104C08D910190801921F44150C2
:104370005040C8F7881B990B0895FB01DC0102C06F
:1043800001900D9241505040D8F70895FB01DC0197
:1043900001900D920020E1F7089511E0C0E9D1E00D
:1043A00000E006C0802FFE010E945A1E2196011DCA
:0E43B000C139D10780E00807A9F7F894FFCFC4
:1043BE00303030303000303030303000FF0000A868
:1043CE000A200000000000E50EB50E0B098F0EADA1
:1043DE000E9E0E900E000000007408B407F807BB86
:1043EE0008290807081B08000000003809B4070B4D
:1043FE00090A09474F21004A652064656275746594
:10440E0020756E206465706C6163656D656E7400F9
:10441E004A27657373736169652064276176616EDF
:10442E006365720056697465737365205644203A4D
:10443E0000313131303000303131303000436F7265
:10444E0072656374696F6E206761756368650031AC
:10445E003130303000313030303000436F727265A1
:10446E006374696F6E2067617563686520696D702E
:10447E006F7274616E7465003030313131003030DE
:10448E0031313000436F7272656374696F6E2064F0
:10449E00726F697465003030303131003030303039
:1044AE003100436F7272656374696F6E20696D704F
:1044BE006F7274616E74652064726F69746500301A
:1044CE00303030300030313030300030303130303C
:1044DE0000303030313000476172646572206C6597
:1044EE0073206D656D6520766974657373657300F1
:1044FE004176616E63657220746F75742064726F9D
:10450E00697400496E74657273656374696F6E20A9
:10451E0072656E636F6E747265652061206C2765BF
:10452E007461706520000D0A00417072657320750C
:10453E006E652064697374616E6365206465200026
:10454E004C612064697374616E636520656E72657B
:10455E0067697374726565206573742064652000E5
:10456E0056697261676520612064726F69746500B7
:10457E0056697261676520612067617563686500C1
:10458E0043756C20646520736163005669726167C0
:10459E006520612064726F697465203200566972FD
:1045AE00616765206120676175636865203200432D
:1045BE00756C206465207361632032004C65207633
:1045CE0069726167652065666665637475657220DC
:1045DE00657420656E7265676973747265722065A5
:1045EE00737420646520000900416C6C6572207440
:1045FE006F75742064726F697400416C6C65722003
:10460E00746F75742064726F6974203200496E760F
:10461E00616C696420495220696421006E616E00EC
:08462E00696E66006F766600FC
:00000001FF
