:100000000C9491010C94C2010C94C2010C94C20195
:100010000C94C2010C94C2010C94C2010C94C20154
:100020000C94C2010C94BF130C94BF130C94BF1317
:100030000C94C2010C94C70D0C94C2010C94C20123
:100040000C94C2010C9439110C94C2010C94C2019D
:100050000C94C2010C94C2010C94C2010C94E915D9
:100060000C94C2010C94380F0C940E0F0C94C20126
:100070000C94C2010C94C2010C94C2010C94C201F4
:100080000C94C2010C94C2010C94C2010C94C201E4
:100090000C94C2010C94C2010C94C2010C94C913BB
:1000A0000C94C2010C94C2010C94C2010C94C201C4
:1000B0000C94C2010C94C2010C94C2010C94620F06
:1000C0000C94C2010C94C2010C94C2010C94E40E75
:1000D0000C94BA0E0C94C2010C94900E0C94660E03
:1000E0000C94C201801085108A1094109E10171174
:1000F000A810B010B810C210CC10D610E510EF1038
:100100001711F91003110D115F13621351135513D9
:100110005B13991366136A137013741378137E13A9
:100120008213861399138C13901394130C94EF106D
:100130000C94751B0C94B30C0C94CE120C945B13A2
:100140000C946A130C94B0100C940D110C94C4010F
:100150000C94760D0C94D6100C9403110C9485100D
:100160000C946F0C0C9451130C9482130C948A1001
:100170000C9499130C94F9100C9470130C9486132E
:100180000C94CC100C9494100C94E40C0C94D60C9D
:100190000C949E100C9417110C942F0D0C9478163F
:1001A0000C9480100C9455130C945F130C9415133D
:1001B0000C9462130C94B8100C9474130C947E136A
:1001C0000C94A8100C94C0120C9466130C94DD12BD
:1001D0000C9478130C94C20C0C948C130C94C210D5
:1001E0000C94E5120C94C5010C947B020C949013B2
:1001F0000C94BF120C9494130C94E5100000200092
:100200002300260029002C002F00320000010000EE
:100210000301060109010505050507050808080889
:10022000020202020A0A080804040404010101018E
:100230000101010103030303030303030407070789
:100240000C0C0C0C0C0C0C0C02020202060606062E
:10025000060606060B0B0B0B0B0B0B0B01021020FB
:1002600020080810204010204080020102010804EC
:100270000201010204081020408080402010080480
:1002800002018004020180402010080402010804D9
:10029000020101020408102040800102040810201D
:1002A00040800200002100240027002A002D003099
:1002B00000330001010000040107010A01000022CF
:1002C00000250028002B002E003100340002010020
:1002D00000050108010B0100000A0B02090C0D0EBC
:1002E00008070304010000000000000000000000F7
:1002F00000000000000000000000000000000000FE
:1003000000000012111000000000000000000000BA
:100310000000000000000000000000000000751B4D
:10032000781611241FBECFEFD1E2DEBFCDBF00E0B3
:100330000CBF13E0A0E0B2E0E6E2F4E400E00BBFA3
:1003400002C007900D92A03FB107D9F72AE0A0EFB5
:10035000B3E001C01D92A432B207E1F711E0C0E999
:10036000D1E000E006C021970109802FFE010E9424
:10037000A21ECF38D10780E00807A9F70E947E1699
:100380000C9401220C940000089580E090E0089500
:10039000E0E0F0E019948AEA99E00E9413128AEAF8
:1003A00099E00E94E8118CEA99E00E9413128CEA0D
:1003B00099E00C94E8114F925F926F927F928F9226
:1003C0009F92AF92BF92CF92DF92EF92FF920F93E4
:1003D0001F93CF93DF93CDB7DEB72C970FB6F8946A
:1003E000DEBF0FBECDBF6D837E838F8398874901AB
:1003F0005A01670178018AEA99E00E9413122B01E1
:100400003C018CEA99E00E94131269837A838B8302
:100410009C8366277727CB0164197509860997099C
:100420000E94571D2B013C0169817A818B819C813F
:100430000E94571D9B01AC01C301B2010E94AA1E7C
:1004400029E832ED4EE55AE30E94B61D2B013C012E
:10045000C501B4016C197D098E099F090E94571DC1
:100460002CEA35EC47E258E30E94B61D20E030E06C
:10047000A9010E94AB1E9B01AC01C301B2010E9405
:10048000AB1E2D813E814F8158850E94AB1E69872E
:100490007A878B879C870E94CB0169857A858B85BB
:1004A0009C852C960FB6F894DEBF0FBECDBFDF91B2
:1004B000CF911F910F91FF90EF90DF90CF90BF9061
:1004C000AF909F908F907F906F905F904F90089526
:1004D000FC01248131E03093AE052093D0051092C9
:1004E000AF051092D1058485682B82ED95E00E94BE
:1004F00015130C945A0A0F931F93CF93DF938C011B
:10050000C62FD62FD07FD1606D2F0E9468026D2F2D
:10051000C8010E94781280E1C89FB0011124C62F43
:10052000C1606C2FC8010E9468026C2FC8010E9434
:10053000781281E090E0DF91CF911F910F910895A3
:1005400040E050E0BA0186EA99E00E94201040E0C5
:1005500050E060E070E888EA99E00E9420108AEAA2
:1005600099E00E9413128AEA99E00E94E8118CEA4D
:1005700099E00E9413128CEA99E00C94E8114F92D2
:100580005F926F927F928F929F92AF92BF92CF9223
:10059000DF92EF92FF92CF93DF93CDB7DEB76097F4
:1005A0000FB6F894DEBF0FBECDBF5A0149016D876B
:1005B0007E878F87988B0E94CB0120E030E044EB50
:1005C00053E46D857E858F8598890E94171F9B0156
:1005D000AC010E94AB1E2BED3FE049E450E40E94C9
:1005E000B61D20E030E040E151E40E94B61D20E05D
:1005F00030E048EC52E40E94171F23E535EB47E753
:100600005EE30E94171F20E030E048E455E40E94BA
:10061000B61D0E94891F9B01AA94AB28D9F09DECBE
:10062000892E9CEC992E9CE4A92E9EE3B92E412C98
:10063000512C3201C12CD12C760188279927821B9D
:10064000930B9C01990F440B550B29873A874B87D5
:100650005C87F0C0940197FE02C02F5F3F4F359535
:1006600027956B01C21AD30AC601DD0CAA0BBB0B7E
:100670008D839E83AF83B887812C912C5401C12C2C
:10068000D12C76012DEC3CEC4CE45EEB29833A83D3
:100690004B835C838D819E81AF81B885C816D90656
:1006A000EA06FB060CF0B0C049815A816B817C815F
:1006B000705888EA99E00E9420104DEC5CEC6CE4E4
:1006C0007EE386EA99E00E9420106AE070E080E014
:1006D00090E00E94AF158AEA99E00E9413126987A0
:1006E0007A878B879C878CEA99E00E9413122B01F2
:1006F0003C01C701B6010E94571D6B017C01698551
:100700007A858B859C8590958095709561957F4FB6
:100710008F4F9F4F0E94571D9B01AC01C701B6012F
:100720000E94AB1E0E94891F6B017C01C501B401B0
:100730000E94571D4B015C01C301B2010E94571D6D
:100740009B01AC01C501B4010E94AB1E0E94891F30
:100750004B015C018AEA99E00E9413122B013C01D3
:100760008CEA99E00E94131269877A878B879C87AD
:1007700066277727CB0164197509860997090E94B6
:10078000571D2B013C0169857A858B859C850E94CC
:10079000571D9B01AC01C301B2010E94AB1E29E8A9
:1007A00032ED4EE55AE30E94B61D2B013C01C70114
:1007B000B601680D791D8A1D9B1D0E94571D2CEAEC
:1007C00035EC47E258E30E94B61D20E030E0A90175
:1007D0000E94AB1E9B01AC01C301B2010E94AB1E83
:1007E00029813A814B815C810E94AA1E6D877E8798
:1007F0008F87988B0E94CB016D857E858F85988928
:100800009B01AC01505842CF60960FB6F894DEBF02
:100810000FBECDBFDF91CF91FF90EF90DF90CF90D3
:10082000BF90AF909F908F907F906F905F904F9010
:100830000C94A00289859A85AB85BC858C159D0595
:10084000AE05BF050CF74DEC5CEC6CE47EEB86EA84
:1008500099E00E942010B501A401705888EA99E03F
:100860000E9420106AE070E080E090E00E94AF15E6
:100870008AEA99E00E94131269837A838B839C83AE
:100880008CEA99E00E9413126D837E838F83988790
:10089000C701B6010E94571D6B017C0169817A81F5
:1008A0008B819C8190958095709561957F4F8F4F3E
:1008B0009F4F0E94571D9B01AC01C701B6010E94CA
:1008C000AB1E0E94891F6B017C01C301B2010E9413
:1008D000571D2B013C016D817E818F8198850E947F
:1008E000571D9B01AC01C301B2010E94AB1E0E94C7
:1008F000891F2B013C018AEA99E00E941312698347
:100900007A838B839C838CEA99E00E9413126D8317
:100910007E838F83988769817A818B819C81909572
:100920008095709561957F4F8F4F9F4F0E94571D07
:100930009B01AC01505829833A834B835C836D81C2
:100940007E818F8198850E94571D9B01AC01698132
:100950007A818B819C810E94AA1E29E832ED4EE5A6
:100960005AE30E94B61D69837A838B839C83882710
:100970009927DC018C199D09AE09BF09BC01CD0185
:1009800064197509860997090E94571D2CEA35ECF0
:1009900047E258E30E94B61D20E030E0A9010E9422
:1009A000AB1E9B01AC0169817A818B819C810E9485
:1009B000AB1E9B01AC01C501B4010E94AB1E4B01F3
:1009C0005C010E94CB0136CF4F925F926F927F9273
:1009D0008F929F92AF92BF92CF92DF92EF92FF924F
:1009E0000F931F93CF93DF93CDB7DEB768970FB602
:1009F000F894DEBF0FBECDBF69877A878B879C874F
:100A000026E636E646E65FE30E94B61D23E535EBB3
:100A100047E75EE30E94171F20E030E048E455E41A
:100A20000E94B61D0E94891F6D877E878F87988BD5
:100A300019821A821B821C82812C912C54018AE01B
:100A4000482E87ED582E83E2682E8CE3782E4D8257
:100A50005E826F8278868D859E85AF85B88988167F
:100A60009906AA06BB060CF08DC04D815E816F8190
:100A7000788586EA99E00E942010B301A20170589F
:100A800088EA99E00E94201062E370E080E090E044
:100A90000E94AF158AEA99E00E941312698B7A8B43
:100AA0008B8B9C8B8CEA99E00E9413126D8B7E8B52
:100AB0008F8B988FC501B4010E94571D6B017C017B
:100AC00069897A898B899C899095809570956195C3
:100AD0007F4F8F4F9F4F0E94571D9B01AC01C70155
:100AE000B6010E94AB1E0E94891F4B015C01698107
:100AF0007A818B819C810E94571D6B017C016D89DD
:100B00007E898F89988D0E94571D9B01AC01C7017A
:100B1000B6010E94AB1E0E94891F69837A838B8372
:100B20009C837B018C01A5019401C301B2010E9449
:100B3000DB012B013C010E94CB012DEC3CEC4CEC89
:100B40005DE36D817E818F8198850E94501D87FFB6
:100B500082CF2FE832EC45EF5CE36D817E818F819F
:100B600098850E94AB1E6D837E838F8398872FE8C4
:100B700032EC45EF5CE3C301B2010E94AB1E2B01D6
:100B80003C0169CF2DEC3CEC4CEC5DE369857A854A
:100B90008B859C850E94B61D23E535EB47E75EE318
:100BA0000E94171F20E030E048E455E40E94B61D83
:100BB0000E94891F69877A878B879C8719821A828E
:100BC0001B821C82812C912C540189859A85AB85CE
:100BD000BC8588159905AA05BB050CF48DC08AEA69
:100BE00099E00E9413126D877E878F87988B8CEA1D
:100BF00099E00E9413126B017C01C501B4010E94AF
:100C0000571D4B015C016D857E858F859889909578
:100C10008095709561957F4F8F4F9F4F0E94571D14
:100C20009B01AC01C501B4010E94AB1E0E94891F4B
:100C30004B015C0169817A818B819C810E94571DE7
:100C400069837A838B839C83C701B6010E94571DF9
:100C50009B01AC0169817A818B819C810E94AB1ED2
:100C60000E94891F69837A838B839C837B018C011B
:100C7000A5019401C301B2010E94DB012B013C01DB
:100C80000E94CB0120E030E040E85EE36D817E8190
:100C90008F8198850E94BF1F18163CF52DEC3CEC07
:100CA0004CE45DE36D817E818F8198850E94AA1E50
:100CB0006D837E838F8398872DEC3CEC4CE45DE361
:100CC000C301B2010E94AA1E2B013C014D815E812D
:100CD0006F81788586EA99E00E942010B301A20115
:100CE000705888EA99E00E9420106BE470E080E080
:100CF00090E00E94AF1569CF68960FB6F894DEBFFA
:100D00000FBECDBFDF91CF911F910F91FF90EF905C
:100D1000DF90CF90BF90AF909F908F907F906F901B
:100D20005F904F900C94A0028F929F92AF92BF92CF
:100D3000CF92DF92EF92FF9287E30E949015BC0161
:100D4000990F880B990B0E94571D20E030E048E472
:100D500053E40E94171F4B015C0162E370E080E0E6
:100D600090E00E94AF1586E30E949015BC01990F98
:100D7000880B990B0E94571D20E030E048E453E4B3
:100D80000E94171F6B017C0162E370E080E090E03D
:100D90000E94AF1520E030E040E250E4C501B4010C
:100DA0000E94BF1F87FD0AC024E333E343E550E4FC
:100DB000C501B4010E94501D1816A4F42DEC3CECA2
:100DC0004CEC5EEBC501B4010E94BF1F87FD0CC057
:100DD0002DEC3CEC4CEC5EE3C501B4010E94501DCF
:100DE000181614F081E301C080E38093060225E821
:100DF0003BEE41E450E4C701B6010E94BF1F87FDEE
:100E00000AC025E83BEE41E650E4C701B6010E9466
:100E1000501D181644F526E636E646E150E4C701B3
:100E2000B6010E94BF1F87FD0AC026E636E646E3EC
:100E300050E4C701B6010E94501D1816A4F420E02A
:100E400030E040E85EEBC701B6010E94BF1F87FD9E
:100E50000CC020E030E040E85EE3C701B6010E942C
:100E6000501D181614F081E301C080E3809307023F
:100E700020E030E040E85EEBC701B6010E94BF1FF2
:100E800087FD0AC020E030E040E85EE3C701B6011C
:100E90000E94501D181644F526E636E646E150E459
:100EA000C701B6010E94BF1F87FD0AC026E636E6CD
:100EB00046E350E4C701B6010E94501D1816A4F481
:100EC0002AE037ED43E85FE3C701B6010E94BF1F88
:100ED00087FD0CC02AE037ED43EC5FE3C701B601A4
:100EE0000E94501D181614F081E301C080E3809326
:100EF000080220E030E040E85EEBC701B6010E9446
:100F0000BF1F87FD0AC020E030E040E85EE3C70174
:100F1000B6010E94501D181644F520E030E040EE66
:100F20005FE3C701B6010E94BF1F87FD0AC020E032
:100F300030E040E150E4C701B6010E94501D181690
:100F4000A4F42AE037ED43E85FE3C701B6010E944D
:100F5000BF1F87FD0CC02AE037ED43EC5FE3C701FC
:100F6000B6010E94501D181614F081E301C080E301
:100F7000809309022AE939E949E95FE3C501B4012F
:100F80000E94BF1F87FD0AC020E030E040E050E42F
:100F9000C501B4010E94501D1816A4F42DEC3CECC0
:100FA0004CEC5EEBC501B4010E94BF1F87FD0CC075
:100FB0002DEC3CEC4CEC5EE3C501B4010E94501DED
:100FC000181614F081E301C080E380930A02FF90B9
:100FD000EF90DF90CF90BF90AF909F908F9008954B
:100FE0004F925F926F927F928F929F92AF92BF9239
:100FF000CF92DF92EF92FF92CF93DF9300D01F92B8
:10100000CDB7DEB72B013C0120E030E048EC52E4E4
:101010000E94501D87FF14C023E535EB47E75EE3D0
:10102000C301B2010E94171F20E030E048E455E4FC
:101030000E94B61D0E94891F0E94571D2B013C0172
:101040000E94CB0189E2882E8CE5982E8FE8A82E8D
:101050008DE3B82E9AE0C92E97EDD92E93E2E92EB2
:101060009DE3F92E19821A821B821C8269817A8182
:101070008B819C810E94571D69837A838B839C831B
:10108000A30192010E94501D87FF1EC18AEA99E0C8
:101090000E94131290958095709561957F4F8F4FA8
:1010A0009F4F0E94571D9B01AC0169817A818B8102
:1010B0009C810E94AB1E0E94891F69837A838B8367
:1010C0009C83E6E0F2E0A0E0B2E081918D9382E0C3
:1010D000EC30F807D1F70E94940645E050E063E455
:1010E00072E086E092E00E94E421892B51F045E015
:1010F00050E069E472E086E092E00E94E421892BEE
:10110000A1F42DEC3CEC4CEC5DE3C701B6010E9470
:10111000AB1EAB01BC01705888EA99E00E94201018
:101120004DEC5CEC6CEC7DE34EC045E050E06FE4D0
:1011300072E086E092E00E94E421892B51F045E0C4
:1011400050E065E572E086E092E00E94E421892BA0
:10115000A1F42DEC3CEC4CEC5DE3C501B4010E9424
:10116000AB1EAB01BC01705888EA99E00E942010C8
:101170004DEC5CEC6CEC7DE35BC045E050E06BE576
:1011800072E086E092E00E94E421892B51F045E074
:1011900050E061E672E086E092E00E94E421892B53
:1011A00009F54DEC5CEC6CEC7DEB88EA99E00E9473
:1011B00020102DEC3CEC4CEC5DE3C701B6010E9425
:1011C000AB1EAB01BC0186EA99E00E9420102FE61D
:1011D00032E143E05BE3C701B6010E94AA1E6B0146
:1011E0007C0144CF45E050E067E672E086E092E0A3
:1011F0000E94E421892B51F045E050E06DE672E059
:1012000086E092E00E94E421892B09F54DEC5CEC2C
:101210006CEC7DEB88EA99E00E9420102DEC3CEC10
:101220004CEC5DE3C501B4010E94AB1EAB01BC01F7
:1012300086EA99E00E9420102FE632E143E05BE36A
:10124000C501B4010E94AA1E4B015C010FCF45E00D
:1012500050E063E772E086E092E00E94E421892B8F
:1012600009F404CF45E050E069E772E086E092E0DF
:101270000E94E421892B09F4F9CE45E050E06FE7A4
:1012800072E086E092E00E94E421892B09F4EECE20
:1012900045E050E065E872E086E092E00E94E421DB
:1012A000892B09F4E3CE4DEC5CEC6CEC7DE386EA33
:1012B00099E00E9420104DEC5CEC6CEC7DEB88EA30
:1012C00099E00E942010D2CE0E94A0020F900F90B1
:1012D0000F900F90DF91CF91FF90EF90DF90CF9024
:1012E000BF90AF909F908F907F906F905F904F9046
:1012F0000895CF93DF93853038F08BE892E00E9419
:101300004C0A80E090E007C09927FC01E255F64FB7
:1013100080810E949015BC0180E090E00E94551DE4
:10132000C1E0D0E020E030E046E953E40E94501DE7
:1013300087FD02C0C0E0D0E0CE01DF91CF910895DB
:10134000CF93DF93EC0188819981019799838883FA
:1013500024EF31E041E050E060E070E084E393E4AA
:101360000E94BF02E881F981EE0FFF1FEE0FFF1F01
:10137000E051FC4F60817181828193810E94F0076E
:101380008AE992E00E94310C68817981072E000C75
:10139000880B990B0E94330C88EA92E00E94310C72
:1013A000E881F981EE0FFF1FEE0FFF1FE051FC4FA8
:1013B000608171818281938142E00E945D0BE881AE
:1013C000F981EE0FFF1FEE0FFF1FE051FC4F10825F
:1013D000118212821382DF91CF910895E091180754
:1013E000F09119070190F081E02D682F88E197E0D6
:1013F0001994009769F0FC0101900020E9F73197FA
:10140000AF01481B590BBC0188E197E00C946F0CAD
:1014100080E090E008958F929F92AF92BF920F93D9
:101420001F93CF93DF93CDB7DEB7A1970FB6F89494
:10143000DEBF0FBECDBF19A2423008F44AE08E01D4
:101440000F5D1F4F842E912CA12CB12CA50194016E
:101450000E94741EE62FB901CA0101501109EA3039
:1014600014F4E05D01C0E95CD801EC93232B242B3C
:10147000252B61F7C8010E94F909A1960FB6F894CF
:10148000DEBF0FBECDBFDF91CF911F910F91BF90F7
:10149000AF909F908F900895CF93DF930E94F909AA
:1014A000EC0180EC93E00E94F9098C0F9D1FDF9105
:1014B000CF9108952091D1059091D005213208F067
:1014C0004AC08091AD058111FCCF32E03093AD056B
:1014D00031E03093AC053FEF3093AB051092AA0595
:1014E0002093A905A0EBB5E049E855E0FA013E2FAD
:1014F000341B321718F43D913193F9CF10928805BF
:1015000020918805990F922B9093880590918705DB
:10151000913061F410928705909188059093BB00FB
:101520009091BC0093FDF8CF95EC01C095EE90939F
:10153000BC009091AD059230E1F39091AB059F3FD7
:1015400079F08091AB05803241F08091AB0580331A
:1015500031F084E005C081E003C082E001C083E097
:101560001092AF051092D1051092AE050895EF923A
:10157000FF921F93CF93DF931F92CDB7DEB7162F45
:101580009DE8E92E99E0F92ED7011C969C911C97B5
:1015900021E02093AE059093D0051092AF051092F4
:1015A000D1051A960D90BC91A02DED91FC9111974B
:1015B0000190F081E02D682FCD0179831995F70115
:1015C00082859385DC01ED91FC910190F081E02D05
:1015D0007981672F1995F70182859385DC01ED915B
:1015E000FC910190F081E02D612F19950F90DF9112
:1015F000CF911F91FF90EF900C945A0A0F931F9375
:10160000CF93DF9360E08091C1090E94241583E0AD
:1016100090E00197F1F761E08091C1090E942415E3
:1016200083E290E00197F1F760E08091C1090E94A8
:1016300024158091C00990E0FC01E45AFD4F6491AB
:10164000FC01EA5EFD4FE491F0E0EE0FFF1FE45075
:10165000FE4F8591949100E412E42FE030E0462F94
:101660000E943316611571058105910549F0DC0171
:10167000CB010196A11DB11DBC01CD019F7003C01E
:1016800060E070E0CB010E94551D20E030E048E6AC
:1016900052E40E94171FC1E0D0E020E030E040E4B7
:1016A00051E40E94BF1F181614F0C0E0D0E0CE0134
:1016B000DF91CF911F910F9108954F925F926F929A
:1016C0007F928F929F92AF92BF92CF92DF92EF92D2
:1016D000FF926B017C01B42E9B01AC010E94C41FE0
:1016E000882319F083EE93E027C026013701E894A0
:1016F00077F82FEF3FEF4FE75FE7C301B2010E949A
:10170000C41F81110DC02FEF3FEF4FE75FE7C3010B
:10171000B2010E94501D18161CF487EE93E00CC015
:101720002FEF3FEF4FE75FE4C701B6010E94BF1FF5
:10173000181684F48BEE93E0FF90EF90DF90CF903B
:10174000BF90AF909F908F907F906F905F904F90E1
:101750000C94F9092FEF3FEF4FE75FECC701B6019B
:101760000E94501D87FDE6CF20E030E0A901C701AF
:10177000B6010E94501D87FF09C08DE20E94EE094C
:101780004C01F7FAF094F7F8F09402C0812C912CF8
:10179000A12C60E070E080E09FE3AB1441F020E01A
:1017A00030E040E251E40E94171FA394F6CF9B0162
:1017B000AC01C701B6010E94AB1E2B013C010E9487
:1017C000901F6B017C010E94551D9B01AC01C30160
:1017D000B2010E94AA1E2B013C014AE0C701B601DA
:1017E0000E940B0A7C01E80CF91CBB2029F08EE258
:1017F0000E94EE09E80EF91EDB2CDD2021F120E02D
:1018000030E040E251E4C301B2010E94B61D2B0159
:101810003C010E94901F4B01A12CB12C4AE0C50154
:10182000B4010E940B0AE80EF91EC501B4010E9422
:10183000551D9B01AC01C301B2010E94AA1E2B01E0
:101840003C01DA94DACFC701FF90EF90DF90CF90A0
:10185000BF90AF909F908F907F906F905F904F90D0
:1018600008950C94F909CF92DF92EF92FF92CF93F3
:10187000DF9397FF19C06B017C018DE20E94EE0996
:10188000EC0166277727CB016C197D098E099F092A
:101890004AE00E940B0A8C0F9D1FDF91CF91FF90B1
:1018A000EF90DF90CF9008954AE0DF91CF91FF90C5
:1018B000EF90DF90CF900C940B0ACF93DF93BC0195
:1018C000990F880B990B0E94330CEC0180EC93E08C
:1018D0000E94F9098C0F9D1FDF91CF910895CF923F
:1018E000DF92EF92FF920F931F93CF93DF936C01E0
:1018F0007A018B01C0E0D0E0CE15DF0589F0D80178
:101900006D918D01D601ED91FC910190F081E02D5A
:10191000C6011995892B11F47E0102C02196ECCFE6
:10192000C701DF91CF911F910F91FF90EF90DF9052
:10193000CF900895FC01A089B1898C91A689B789BF
:1019400082FD0FC09C91818D8F5F8F73228D8217D6
:1019500049F0218DDF01A20FB11D5D969C93818F0F
:1019600008958C910895FC01538D448D252F30E00E
:10197000842F90E0821B930B541710F0CF9608959C
:1019800001970895FC01918D828D981761F0828DE9
:10199000DF01A80FB11D5D968C91928D9F5F9F73A3
:1019A000928F90E008958FEF9FEF0895FC01918D45
:1019B000828D981731F0828DE80FF11D858D90E0B2
:1019C00008958FEF9FEF0895FC01918D228D892F4F
:1019D00090E0805C9F4F821B91098F739927089537
:1019E0008EED95E00E94E40C21E0892B09F420E0C3
:1019F000822F08958BE796E00E94E40C21E0892B6A
:101A000009F420E0822F089588E197E00E94E40C19
:101A100021E0892B09F420E0822F0895FC01848DB8
:101A2000DF01A80FB11DA35ABF4F2C91848D90E008
:101A300001968F739927848FA689B7892C93A089E3
:101A4000B1898C9180648C93938D848D981306C09A
:101A50000288F389E02D80818F7D80830895EF9245
:101A6000FF920F931F93CF93DF93EC0181E0888F58
:101A70009B8D8C8D981305C0E889F989808185FD3F
:101A800024C0F62E0B8D10E00F5F1F4F0F73112730
:101A9000E02E8C8DE8120CC00FB607FCFACFE88957
:101AA000F989808185FFF5CFCE010E940E0DF1CF1F
:101AB0008B8DFE01E80FF11DE35AFF4FF0820B8F73
:101AC000EA89FB898081806207C0EE89FF89608393
:101AD000E889F98980818064808381E090E0DF91EA
:101AE000CF911F910F91FF90EF900895CF93DF93C7
:101AF000EC01888D8823C9F0EA89FB89808185FD06
:101B000005C0A889B9898C9186FD0FC00FB607FC66
:101B1000F5CF808185FFF2CFA889B9898C9185FFA7
:101B2000EDCFCE010E940E0DE7CFDF91CF9108954A
:101B300080E090E0892B21F00E94040D811119C0F2
:101B400080E090E0892B41F080E090E0892B21F04B
:101B50000E940000811110C00E94FA0C81110FC078
:101B600080E090E0892B81F00E94F00C81110AC086
:101B700008950E940000E4CF0E940000EDCF0E9473
:101B8000C801EECF0C94000008950E94DF211F923F
:101B90000F920FB60F9211240BB60F922F933F9313
:101BA0004F935F936F937F938F939F93AF93BF9365
:101BB000EF93FF938091C8099091C909A091CA0938
:101BC000B091CB09892B8A2B8B2B59F18091C709B6
:101BD000E091C509F091C6099081892780838091A1
:101BE000C8099091C909A091CA09B091CB091816EA
:101BF00019061A061B060CF056C08091C809909170
:101C0000C909A091CA09B091CB090197A109B109ED
:101C10008093C8099093C909A093CA09B093CB09CE
:101C200042C080910C02E2EAF2E0E4919FEF9093CF
:101C30000C02E230C9F050F4EE2399F0E13081F566
:101C400090916F009D7F90936F002AC0E43019F14E
:101C5000E0F0E53029F5909173009D7F909373003B
:101C60001FC010926E001CC0909170009D7F9093D9
:101C7000700091E09093B0009091B100987F9460D3
:101C80009093B1001092B3000BC0909171009D7FB2
:101C90009093710005C0909172009D7F90937200A7
:101CA00060E00E942415FF91EF91BF91AF919F9149
:101CB0008F917F916F915F914F913F912F910F90F5
:101CC0000BBE0F900FBE0F901F9018951F920F9292
:101CD0000FB60F9211240BB60F922F933F934F9391
:101CE0005F936F937F938F939F93AF93BF93EF9384
:101CF000FF938EED95E00E940E0DFF91EF91BF9145
:101D0000AF919F918F917F916F915F914F913F9193
:101D10002F910F900BBE0F900FBE0F901F90189534
:101D20001F920F920FB60F9211240BB60F922F93A2
:101D30003F934F935F936F937F938F939F93AF9353
:101D4000BF93EF93FF938EED95E00E949A0CFF9165
:101D5000EF91BF91AF919F918F917F916F915F9123
:101D60004F913F912F910F900BBE0F900FBE0F9090
:101D70001F9018951F920F920FB60F9211240BB659
:101D80000F922F933F934F935F936F937F938F9314
:101D90009F93AF93BF93EF93FF938BE796E00E94DF
:101DA0000E0DFF91EF91BF91AF919F918F917F9118
:101DB0006F915F914F913F912F910F900BBE0F90BC
:101DC0000FBE0F901F9018951F920F920FB60F9293
:101DD00011240BB60F922F933F934F935F936F9302
:101DE0007F938F939F93AF93BF93EF93FF938BE773
:101DF00096E00E949A0CFF91EF91BF91AF919F9155
:101E00008F917F916F915F914F913F912F910F90A3
:101E10000BBE0F900FBE0F901F9018951F920F9240
:101E20000FB60F9211240BB60F922F933F934F933F
:101E30005F936F937F938F939F93AF93BF93EF9332
:101E4000FF9388E197E00E940E0DFF91EF91BF9103
:101E5000AF919F918F917F916F915F914F913F9142
:101E60002F910F900BBE0F900FBE0F901F901895E3
:101E70001F920F920FB60F9211240BB60F922F9351
:101E80003F934F935F936F937F938F939F93AF9302
:101E9000BF93EF93FF9388E197E00E949A0CFF9124
:101EA000EF91BF91AF919F918F917F916F915F91D2
:101EB0004F913F912F910F900BBE0F900FBE0F903F
:101EC0001F9018951F920F920FB60F9211240BB608
:101ED0000F922F933F934F935F936F937F938F93C3
:101EE0009F93AF93BF93EF93FF938091B6070E94A8
:101EF000FB142091BA073091BB072F5F3F4F3093FF
:101F0000BB072093BA079091B907953618F096E071
:101F10009093B5079091B5079430C9F128F49230A9
:101F200069F09330D1F05EC0953009F451C096301D
:101F300009F058C091E09093860851C0811152C0B9
:101F40002091BA073091BB072436310508F442C00E
:101F5000109286081092B9071CC0813009F042C067
:101F6000E091B90791E09E0F9093B907F0E02091BE
:101F7000BA073091BB07EE0FFF1FEB54F84F3087C5
:101F800027831092BB071092BA0794E029C08111F1
:101F900017C0E091B90791E09E0F9093B907F0E068
:101FA0002091BA073091BB07EE0FFF1FEB54F84F9B
:101FB000308727831092BB071092BA0793E010C0B6
:101FC0002091BA073091BB072536310558F007C07C
:101FD000811108C01092BB071092BA0703C095E0A8
:101FE0009093B5079091B8079923B9F081110AC071
:101FF0008091B707882321F08091B70761E009C07D
:102000002F9A0BC08091B707882331F08091B707D2
:1020100060E00E94241501C02F98FF91EF91BF91BD
:10202000AF919F918F917F916F915F914F913F9170
:102030002F910F900BBE0F900FBE0F901F90189511
:102040008F929F92AF92BF92CF92DF92EF92FF92C8
:102050000F931F93CF93DF93EC016A017B0120E084
:1020600030E04FE753E4C701B6010E94B61D4B01B3
:102070005C0120E030E0A9010E94BF1F18161CF48B
:10208000C501B40103C0C501B40190580E94891F65
:102090008B0120E030E0A901C701B6010E94BF1FFB
:1020A000181614F460E001C061E089810E942415D3
:1020B0000F3F110509F014F4112702C00FEF10E0D3
:1020C000C88161E08C2F0E9454150115110509F497
:1020D000B1C00F3F110509F4AFC0EC2FF0E0E95299
:1020E000FD4FE4914E2F50E0FA013197E231F105B6
:1020F00008F09DC08827EE58FF4F8F4F0C94A21E0A
:1021000084B5806884BD07BDA7C084B5806284BDE6
:1021100008BDA2C0809180008068809380001093E9
:1021200089000093880098C080918000806280932D
:10213000800010938B0000938A008EC080918000F5
:1021400088608093800010938D0000938C0084C081
:102150008091B00080688093B0000093B3007CC091
:102160008091B00080628093B0000093B40074C08E
:102170008091900080688093900010939900009364
:1021800098006AC0809190008062809390001093C4
:102190009B0000939A0060C08091900088608093BB
:1021A000900010939D0000939C0056C08091A00069
:1021B00080688093A0008091A0008F7B8093A00016
:1021C0001093A9000093A80047C08091A0008062EE
:1021D0008093A0001093AB000093AA003DC08091B3
:1021E000A00088608093A0001093AD000093AC0025
:1021F00033C08091200180688093200110932901D1
:102200000093280129C080912001806280932001E1
:1022100010932B0100932A011FC080912001886038
:102220008093200110932D0100932C0115C00038DC
:10223000110514F460E001C061E08C2FDF91CF91B3
:102240001F910F91FF90EF90DF90CF90BF90AF90D4
:102250009F908F900C942415DF91CF911F910F9137
:10226000FF90EF90DF90CF90BF90AF909F908F90B6
:1022700008951F920F920FB60F9211240BB60F9272
:102280002F933F934F935F936F937F938F939F937E
:10229000AF93BF93EF93FF938091C40987FF05C06D
:1022A000109285001092840016C02091C409022E5D
:1022B000000C330B8091C30890E0281739075CF4B9
:1022C0003091C40925E03203F0011124E957F74F9A
:1022D000808186FD15C08091C4098F5F8093C409F9
:1022E0002091C409022E000C330B8091C30890E0AA
:1022F0002817390794F48091C4098C302CF10DC053
:102300003091C4093203F0011124E957F74F80815D
:1023100060E08F730E942415DECF8091840090913D
:10232000850084349C4918F480E49CE905C08091C0
:102330008400909185000496909389008093880092
:102340008FEF8093C4092AC040918400509185008A
:102350003091C40925E03203F0011124E957F74F09
:1023600081819281840F951F9093890080938800CA
:102370003091C4093203F0011124E957F74F8081ED
:1023800086FF0CC03091C4093203F0011124E957D3
:10239000F74F808161E08F730E942415FF91EF91C8
:1023A000BF91AF919F918F917F916F915F914F916D
:1023B0003F912F910F900BBE0F900FBE0F901F906B
:1023C00018958EBD00000DB407FEFDCF8EB50895A3
:1023D000CF93DF93EC0160E088810E94241588E9A7
:1023E0000E94E11180E00E94E11180E00E94E11171
:1023F00080E00E94E11180E00E94E11161E08881AB
:102400000E9424158BE891E00197F1F760E0888144
:102410000E94241580EE0E94E11161E08881DF9125
:10242000CF910C942415AF92BF92CF92DF92EF928E
:10243000FF920F931F93CF93DF93CDB7DEB76097D3
:102440000FB6F894DEBF0FBECDBF5C0160E0FC01AB
:1024500080810E94241580E60E94E1118E010F5FA9
:102460001F4F7E01F1E1EF0EF11C680180E00E9438
:10247000E11190E0A0E0B0E0F60181939193A19387
:10248000B1936F01EE15FF0589F761E0F5018081D9
:102490000E94241580E090E0DC01F8014191519107
:1024A000619171918F01BA2FA92F982F8827840FDE
:1024B000951FA61FB71FEE15FF0579F79C01AD010B
:1024C00066277727CB01621B730B840B950B6096F5
:1024D0000FB6F894DEBF0FBECDBFDF91CF911F9135
:1024E0000F91FF90EF90DF90CF90BF90AF90089545
:1024F0000F931F93CF938C01C62F64600E946802D4
:102500006C2F6B7FC8010E94680283EC90E00197FA
:10251000F1F7CF911F910F91089585ED8093BC0045
:102520008091BC0084FDFCCF1092AD0508954091D0
:10253000F909262F30E0240F311D21323105DCF45A
:102540002091AD052430C9F4FC0180E090E08617AD
:1025500058F43091F9092191DC01A952B64FA30F2B
:10256000B11D2C930196F3CF8091F909680F609308
:10257000F90980E0089581E0089582E008950895C2
:1025800081E090E03091CD092091CC09321710F410
:1025900080E090E091958195910908958091CD0911
:1025A0009091CC09891730F48F5F8093CD0980E03A
:1025B00090E008958FEF9FEF08958091CC0990E00F
:1025C0002091CD09821B91090895CF92DF92EF925D
:1025D000FF920F931F93CF93DF937C01262F972FAA
:1025E0008A018091AE05882391F0C62FD72F6E0106
:1025F000C40ED51ECC15DD0571F06991D701ED91A2
:10260000FC910190F081E02DC7011995F3CF642F63
:10261000822F0E949712C801DF91CF911F910F91D5
:10262000FF90EF90DF90CF900895CF93DF931F92AC
:10263000CDB7DEB769832091AE052223D1F020917A
:10264000D105203240F021E030E0FC0133832283C9
:1026500080E090E015C08091AF05E82FF0E0E055F4
:10266000FA4F998190838F5F8093AF058093D10556
:1026700005C061E0CE0101960E94971281E090E0D2
:102680000F90DF91CF91089590E0FC013197E231F6
:10269000F10508F04EC08827EC57FF4F8F4F0C9480
:1026A000A21E809180008F7703C0809180008F7D73
:1026B00080938000089580918000877FF9CF84B552
:1026C0008F7702C084B58F7D84BD08958091B0005E
:1026D0008F7703C08091B0008F7D8093B000089504
:1026E000809190008F7707C0809190008F7D03C00C
:1026F00080919000877F8093900008958091A00042
:102700008F7707C08091A0008F7D03C08091A000CB
:10271000877F8093A0000895809120018F7707C064
:10272000809120018F7D03C080912001877F80935D
:10273000200108953FB7F8948091D3099091D4096E
:10274000A091D509B091D60926B5A89B05C02F3F09
:1027500019F00196A11DB11D3FBFBA2FA92F982FC7
:102760008827820F911DA11DB11DBC01CD0142E042
:10277000660F771F881F991F4A95D1F708951F92FA
:102780000F920FB60F9211240F900FBE0F901F9053
:1027900018951F920F920FB60F9211240BB60F923D
:1027A0002F933F934F935F936F937F938F939F9359
:1027B000AF93BF93EF93FF938091B900887F8036EA
:1027C00009F49CC068F5883209F45BC090F480314C
:1027D00009F454C038F4882309F4F6C0883009F4A9
:1027E0004DC0F6C0883109F44CC0803209F45DC098
:1027F000EFC0803409F468C048F4803309F455C050
:10280000883309F0E5C08093AB05D8C0803509F462
:102810004FC0883509F45DC0883409F0D9C0D6C0EE
:10282000883909F4C7C0A8F4883709F467C038F4B8
:10283000883609F463C0803709F460C0C9C088389D
:1028400009F4B8C0803909F45FC0803809F0C0C00D
:102850005BC0803B09F486C038F4803A09F466C056
:10286000883A09F47FC0B4C0803C09F4A7C0883C12
:1028700009F4A4C0883B09F48AC0AAC080918805E5
:1028800010C09091AA058091A905981770F5E09164
:10289000AA0581E08E0F8093AA05F0E0E757FA4F72
:1028A00080818093BB0085EC86C08093AB058EC091
:1028B000E091AA0581E08E0F8093AA058091BB006C
:1028C000F0E0E757FA4F80839091AA058091A9051F
:1028D0006EC0E091AA0581E08E0F8093AA058091D9
:1028E000BB00F0E0E757FA4F80838091AC0581117F
:1028F0006DC081E08093870584EA61C083E08093A6
:10290000AD0510921D0ACFCF80911D0A803208F0CC
:1029100051C0E0911D0A81E08E0F80931D0A8091C5
:10292000BB00F0E0E350F64F8083BDCF85EC809391
:10293000BC001092AD0580911D0A803230F4E09108
:102940001D0AF0E0E350F64F108260911D0A70E01E
:10295000E091FB09F091FC098DEF99E01995109237
:102960001D0A36C084E08093AD051092FA091092DA
:10297000F909E091F709F091F80919958091F909A1
:10298000811105C081E08093F9091092D709E09187
:10299000FA0981E08E0F8093FA09F0E0E952F64FD0
:1029A00080818093BB009091FA098091F909981772
:1029B00008F479CF85E88093BC000AC085EC809349
:1029C000BC001092AD0504C01092AB050E948D12A0
:1029D000FF91EF91BF91AF919F918F917F916F91F7
:1029E0005F914F913F912F910F900BBE0F900FBEB3
:1029F0000F901F901895CF93DF93282F30E0F901A7
:102A0000E952FD4F8491F901E45AFD4FD491F90147
:102A1000EA5EFD4FC491CC2391F081110E944413D2
:102A2000EC2FF0E0EE0FFF1FE450FE4FA591B491A4
:102A3000EC91ED2381E090E021F480E002C080E0A1
:102A400090E0DF91CF9108951F93CF93DF93282FCC
:102A500030E0F901E952FD4F8491F901E45AFD4F4C
:102A6000D491F901EA5EFD4FC491CC23C9F0162F31
:102A700081110E944413EC2FF0E0EE0FFF1FE3548E
:102A8000FD4FA591B4918FB7F894111105C09C9199
:102A9000ED2FE095E92302C0EC91ED2BEC938FBF75
:102AA000DF91CF911F910895CF93DF9390E0FC01C8
:102AB000E45AFD4F2491FC01EA5EFD4F8491882386
:102AC00061F190E0880F991FFC01ED55FD4FC59114
:102AD000D491FC01E354FD4FA591B491611109C05B
:102AE0009FB7F8948881209582238883EC912E23C8
:102AF0000BC0623061F49FB7F8943881822F8095C3
:102B000083238883EC912E2B2C939FBF06C08FB715
:102B1000F894E8812E2B28838FBFDF91CF91089501
:102B2000863308F0865390917B00282F2870977F7A
:102B3000922B90937B008770806480937C008091BF
:102B40007A00806480937A0080917A0086FDFCCFC1
:102B5000809178002091790090E0922B08958F92D7
:102B60009F92AF92BF92CF92DF92EF92FF926B0152
:102B70007C010E949A134B015C01C114D104E10451
:102B8000F104F1F00E949A13DC01CB018819990934
:102B9000AA09BB09883E9340A105B10570F321E065
:102BA000C21AD108E108F10888EE880E83E0981E69
:102BB000A11CB11CC114D104E104F10419F7DDCF4B
:102BC000FF90EF90DF90CF90BF90AF909F908F904D
:102BD00008951F920F920FB60F9211242F933F93D7
:102BE0008F939F93AF93BF938091CF099091D0091A
:102BF000A091D109B091D2093091CE0923E0230FE1
:102C00002D3720F40196A11DB11D05C026E8230F24
:102C10000296A11DB11D2093CE098093CF099093F8
:102C2000D009A093D109B093D2098091D309909192
:102C3000D409A091D509B091D6090196A11DB11D65
:102C40008093D3099093D409A093D509B093D60962
:102C5000BF91AF919F918F913F912F910F900FBE98
:102C60000F901F901895CF92DF92EF92FF920F93E3
:102C70001F93E82FF92F05C00150110921093109CF
:102C800061F1908196239417B9F305C001501109A1
:102C90002109310911F1908196239413F7CFC12CAA
:102CA000D12CE12CF12C0AC08FEFC81AD80AE80AFF
:102CB000F80A0C151D052E053F0579F08081862345
:102CC000841791F36C2D7D2D8E2D9F2D1F910F91CB
:102CD000FF90EF90DF90CF90089560E070E080E08B
:102CE00090E01F910F91FF90EF90DF90CF900895AB
:102CF0008091C4089091C5080C945E20CF93DF9317
:102D00001F921F92CDB7DEB7789484B5826084BDE0
:102D100084B5816084BD85B5826085BD85B58160DF
:102D200085BD80916E00816080936E00109281005D
:102D30008091810082608093810080918100816018
:102D400080938100809180008160809380008091D9
:102D5000B10084608093B1008091B0008160809365
:102D6000B0008091910082608093910080919100E9
:102D700081608093910080919000816080939000A9
:102D80008091A10082608093A1008091A100816068
:102D90008093A1008091A00081608093A000809129
:102DA00021018260809321018091210181608093C3
:102DB00021018091200181608093200180917A001F
:102DC000846080937A0080917A00826080937A0098
:102DD00080917A00816080937A0080917A00806887
:102DE00080937A001092C100E0912807F0912907A2
:102DF00082E08083E0912407F09125071082E09122
:102E00002607F09127078FEC808310923007E0911E
:102E10002C07F0912D0786E08083E0912A07F0913E
:102E20002B07808180618083E0912A07F0912B0736
:102E3000808188608083E0912A07F0912B07808150
:102E400080688083E0912A07F0912B0780818F7D35
:102E5000808361E080918E090E94541560E080912A
:102E60008E090E94241560E080918D090E945415FE
:102E700082ED95E090939809809397091092CD097F
:102E80001092CC091092AF051092D1051092AD05A9
:102E900081E08093AC051092870561E084E10E9497
:102EA000241561E085E10E9424158091B9008E7F90
:102EB0008093B9008091B9008D7F8093B90088E438
:102EC0008093B80085E48093BC0080E090E1A0E0AE
:102ED000B0E080939A0990939B09A0939C09B093CA
:102EE0009D098AE090E0A0E0B0E080939E09909375
:102EF0009F09A093A009B093A10980E090E0A0E011
:102F0000B0E48093A2099093A309A093A409B0937D
:102F1000A50960E070E185E00E94B70A6FE979E3F6
:102F200080E00E94B70A0AEA19E0812C912CA12CBA
:102F3000B12C7BE4272E72E0372EE1E94E2EE2E041
:102F40005E2EFBEC6F2EF7E07F2E95012357364F58
:102F50006901D90114969C91149712968C91F401F1
:102F6000E357F64F7F01818F928F61E00E945415E5
:102F700061E0D7015A968C910E945415F601908514
:102F80008681D8018C93F701968F61E00E945415D9
:102F900060E0D7015E968C910E94541561E0F801C3
:102FA00080810E942415FFB6F894809180058111DC
:102FB00025C0F1018491F2019491E82FF0E0EE0F29
:102FC000FF1FED55FD4FA591B4918C91982321F4ED
:102FD00061E085E30E94241561E085E30E945415B9
:102FE0008CB580618CBD8CB580648CBD61E084E360
:102FF0000E94541561E083E30E945415809180057E
:103000008F5F80938005FFBEC3010197F1F760E0F9
:10301000D8018C910E94241588E80E94E11183E078
:103020000E94E11161E0F80180810E942415C30132
:103030000197F1F7C8010E94E811F2E08F0E911C90
:103040000E5F1F4FAA94AB2821F0AA24A394B12CA1
:103050007CCF02EB19E044E0F42EF00E60E0D801E2
:103060008D918D010E945415F012F8CF01ECE02EE5
:1030700009E0F02E0EEB19E085E0A82E9CE0C92EA9
:1030800022E0922E32E0B32EB00EF8013897D080B5
:10309000F80180818C3008F046C061E08D2D0E94DF
:1030A0005415D8018C91A89EF0011124E957F74FCF
:1030B0009D2D9F732081207CD22ED92AD08213820D
:1030C00014826C2D0E94961EBCE08B9FA0011124DF
:1030D00020E030E0B901640F751FA69EF001A79EA5
:1030E000F00D1124E957F74F908196FD12C02F5F24
:1030F0003F4F2C30310571F781110BC010928000C9
:1031000090928100109285001092840096BA90925D
:103110006F00D801EC91AE9EF0011124E957F74FF2
:10312000808180648083F80132979081329780811A
:10313000F70131978083F701908360E00E94541576
:1031400061E0D7018C910E94541560E0F701808105
:103150000E9424150F5F1F4FF2E0EF0EF11CB0121A
:1031600094CFF8941092200189E08093210180E2AD
:1031700093E09093290180932801109225011092E9
:10318000240182E08093730078948093B5071092B5
:10319000B9078091B60760E00E94541560E08FE2A5
:1031A0000E94541564EF71E080E090E00E94AF153A
:1031B000E0EFF3E0119211921192119225E0E038C4
:1031C000F207C1F785EE92E00E944C0AC12CD12C87
:1031D000B0E4EB2EFE2C812C912C10E8A12E1FE3E5
:1031E000B12E8AEA99E00E94E81189EE92E00E94ED
:1031F0004C0A83E090E00E947909019759F082E03F
:1032000090E00E947909019729F00E94FE0A019737
:1032100009F4E5C186E893E00E94310C80918505B0
:10322000909186050E945D0C89EA93E00E94310C22
:103230008AEA99E00E9413129095809570956195A5
:103240007F4F8F4F9F4F0E94330C80EC93E00E9482
:10325000F90900918505109186058AEA99E00E9496
:103260001312000F111F000F111F00511C4F9095DA
:103270008095709561957F4F8F4F9F4F0E94571D8E
:10328000F801608371838283938383EC93E00E94CF
:10329000310CE0918505F0918605EE0FFF1FEE0FD2
:1032A000FF1FE051FC4F608171818281938142E078
:1032B0000E945D0B80EC93E00E94F90960E070E0F1
:1032C00080E89EE30E94F00710928105109282052B
:1032D0001092830510928405809185059091860552
:1032E0000196909386058093850582E090E00E9488
:1032F0007909BC01990F880B990B0E94330C84E863
:1033000093E00E94310C0E94FE0ABC01990F880BC9
:10331000990B0E94330C84E893E00E94310C83E007
:1033200090E00E947909BC01990F880B990B0E94CB
:10333000330C84E893E00E94310CE0918505F09114
:103340008605EE0FFF1FEE0FFF1FE051FC4F408080
:1033500051806280738020E030E0A901C301B20196
:103360000E94501D811184C082E090E00E94790982
:103370000197E9F48BEF92E00E944C0A2DEE30E0C9
:1033800041E050E060E070E084EB92E40E94BF0214
:10339000E0918505F0918605EE0FFF1FEE0FFF1FF0
:1033A000E051FC4F80829182A282B38241C00E9490
:1033B000FE0A0197D9F48BE093E00E944C0AE09159
:1033C0008505F0918605EE0FFF1FEE0FFF1FE05100
:1033D000FC4F80E090E0A0E0B0E480839183A28382
:1033E000B383BC01CD010E94F00787C083E090E069
:1033F0000E947909019709F58CE193E00E944C0A3B
:1034000021EA31E040E050E060E070E084EB92E4DB
:103410000E94BF02E0918505F0918605EE0FFF1F27
:10342000EE0FFF1FE051FC4FC082D182E282F38297
:1034300060E070E080E090E4D6CF8CE293E00E9400
:103440004C0A85E895E00E94A009E0918505F0917D
:103450008605EE0FFF1FEE0FFF1FE051FC4F80E0CF
:1034600090E0A0E8B0E480839183A283B38345C059
:1034700020E030E040E850E4C301B2010E94501D5A
:10348000882399F182E090E00E947909019749F43C
:1034900087E393E00E944C0A2DEE30E041E050E0DB
:1034A00017C00E94FE0A019729F489E493E00E9464
:1034B0004C0A14C083E090E00E9479090197E9F476
:1034C0008CE593E00E944C0A21EA31E040E050E0B4
:1034D00060E070E084EB92E40E94BF0260E070E084
:1034E00080E090E40E94E40408C08EE693E00E942D
:1034F0004C0A85E895E00E94A0098091850590918D
:103500008605019690938605809385058091B40980
:103510000E94FB14892B21F00E94FE0A0E945D0C80
:103520008091B2090E94FB14892B09F441C01A82D0
:10353000198203E010E08BE793E00E94310C89814F
:103540009A810E945D0C6AE979E989E99EE30E940B
:10355000E40489819A8101969A8389836CE271E0FF
:1035600080E090E00E94AF150150110921F760ED55
:1035700077E080E090E00E94AF1589819A810E94F7
:103580005D0CCE0101960E94A00900EF13E0D80166
:103590006D917D918D919D918D0142E00E945D0B19
:1035A00084E893E00E94310CB3E00C3F1B0779F7ED
:1035B0008091B5090E94FB14892B41F00E94A00262
:1035C00060E177E280E090E00E94AF156AE070E091
:1035D00080E090E00E94AF150E94980D02CE0E94FC
:1035E00094068091B4090E94FB14892B59F02DEEAA
:1035F00030E041E050E060E070E084EB92E40E9453
:10360000BF02F7CD45E050E06FE472E086E092E063
:103610000E94E421892BF1F045E050E063E472E080
:1036200086E092E00E94E421892BA1F045E050E081
:1036300069E472E086E092E00E94E421892B51F077
:1036400045E050E065E572E086E092E00E94E4210A
:10365000892B29F44AE959E969E17EEB39C045E053
:1036600050E067E672E086E092E00E94E421892B58
:10367000F1F045E050E06BE572E086E092E00E94F8
:10368000E421892BA1F045E050E061E672E086E09C
:1036900092E00E94E421892B51F045E050E06DE674
:1036A00072E086E092E00E94E421892B69F44DECFF
:1036B0005CEC6CEC7DEB88EA99E00E9420104AE912
:1036C00059E969E17EE30CC04DEC5CEC6CEC7DEB00
:1036D00088EA99E00E9420104DEC5CEC6CEC7DE3F4
:1036E00086EA99E00E94201084CD1092D5051092B0
:1036F000D40588EE93E0A0E0B0E08093D6059093E7
:10370000D705A093D805B093D90527E132E03093CF
:10371000D3052093D2051092E1051092E005809325
:10372000E2059093E305A093E405B093E50529E253
:1037300032E03093DF052093DE0545E351E05093FE
:10374000EB054093EA0544E351E05093ED054093C7
:10375000EC0540E351E05093EF054093EE0541E363
:1037600051E05093F1054093F00542E351E050934E
:10377000F3054093F20546E351E05093F50540937D
:10378000F4051092F7051092F8051092F9051092C1
:10379000FA0510927E0610927D0680937F06909324
:1037A0008006A0938106B093820630937C06209316
:1037B0007B0645ED50E0509388064093870644ED24
:1037C00050E050938A064093890640ED50E05093B4
:1037D0008C0640938B0641ED50E050938E0640934B
:1037E0008D0642ED50E05093900640938F0646EDD3
:1037F00050E05093920640939106109294061092D6
:103800009506109296061092970610921B0710923A
:103810001A0780931C0790931D07A0931E07B0936F
:103820001F07309319072093180785EC90E09093B9
:1038300025078093240784EC90E0909327078093DA
:10384000260780EC90E0909329078093280781EC6D
:1038500090E090932B0780932A0782EC90E090935E
:103860002D0780932C0786EC90E090932F07809390
:103870002E071092310710923207109233071092E0
:10388000340786E38093AE0987E38093AF0988E32A
:103890008093B00989E38093B1098BE18093B209E9
:1038A0008DE18093B3098AE18093B4098CE1809320
:1038B000B50984E08093B60987E08093B709109238
:1038C000B80984EB8093B90986E18093BA0988E14D
:1038D0008093BB0987E18093BC0989E18093BD098E
:1038E000E091C308EC3020F08FEF8093BE0910C048
:1038F00081E08E0F8093C308E093BE0925E0E29F2C
:10390000F0011124E957F74F88EB9BE09283818304
:10391000E091C308EC3020F08FEF8093BF0910C016
:1039200081E08E0F8093C308E093BF0985E0E89F94
:10393000F0011124E957F74F88EB9BE092838183D4
:103940008CE080938D0984E280938E0986E08093D9
:103950008F0985E0809390098FE1809391098EE132
:103960008093920983E28093930982E28093940981
:1039700085E48093950984E48093960980E480939C
:10398000990910929E0910929F091092A009109215
:10399000A1091092A2091092A3091092A4091092F1
:1039A000A509EFECF8E08FEF9FEFDC0112821382A4
:1039B0001482158216821782108611868387948757
:1039C000A587B6878787908BA18BB28B12861182D1
:1039D0001082739629E0ED38F20741F78DE090E010
:1039E0000E94C91FFC01138212828BE392E0918333
:1039F0008083118687E2848384E1828784E08387E1
:103A00001486F093CC08E093CB081092CD08109266
:103A1000CE0885E28093B6071092B8071092C508C9
:103A20001092C4081092C7081092C6081092C908D4
:103A30001092C80861E070E080E090E00E94F620FB
:103A4000009789F09093C5088093C4081092C70826
:103A50001092C6082091C8083091C908232BC1F4E0
:103A6000FC01108215C08091C4089091C508009790
:103A700011F00E945E201092C5081092C4081092A6
:103A8000C9081092C8081092C7081092C608089575
:103A90001092C9081092C80865E873E00C94FA21E6
:103AA0000E94921D08F481E00895E89409C097FBF4
:103AB0003EF490958095709561957F4F8F4F9F4F05
:103AC0009923A9F0F92F96E9BB279395F695879549
:103AD00077956795B795F111F8CFFAF4BB0F11F40C
:103AE00060FF1BC06F5F7F4F8F4F9F4F16C08823B3
:103AF00011F096E911C0772321F09EE8872F762FE9
:103B000005C0662371F096E8862F70E060E02AF029
:103B10009A95660F771F881FDAF7880F9695879515
:103B200097F90895990F0008550FAA0BE0E8FEEFEA
:103B300016161706E807F907C0F012161306E40771
:103B4000F50798F0621B730B840B950B39F40A266A
:103B500061F0232B242B252B21F408950A2609F448
:103B6000A140A6958FEF811D811D08950E94C91D5A
:103B70000C943A1E0E942C1E38F00E94331E20F036
:103B8000952311F00C94231E0C94291E11240C94DF
:103B90006E1E0E944B1E70F3959FC1F3950F50E06F
:103BA000551F629FF001729FBB27F00DB11D639FEF
:103BB000AA27F00DB11DAA1F649F6627B00DA11D95
:103BC000661F829F2227B00DA11D621F739FB00D3B
:103BD000A11D621F839FA00D611D221F749F3327AB
:103BE000A00D611D231F849F600D211D822F762F44
:103BF0006A2F11249F5750409AF0F1F088234AF021
:103C0000EE0FFF1FBB1F661F771F881F915050408C
:103C1000A9F79E3F510580F00C94231E0C946E1E54
:103C20005F3FE4F3983ED4F3869577956795B79513
:103C3000F795E7959F5FC1F7FE2B880F911D96952D
:103C4000879597F9089597F99F6780E870E060E09D
:103C500008959FEF80EC089500240A941616170625
:103C600018060906089500240A941216130614066D
:103C700005060895092E0394000C11F4882352F0D0
:103C8000BB0F40F4BF2B11F460FF04C06F5F7F4F88
:103C90008F4F9F4F089557FD9058440F551F59F06F
:103CA0005F3F71F04795880F97FB991F61F09F3F29
:103CB00079F087950895121613061406551FF2CF52
:103CC0004695F1DF08C0161617061806991FF1CFA2
:103CD00086957105610508940895E894BB276627C9
:103CE0007727CB0197F90895A1E21A2EAA1BBB1BD7
:103CF000FD010DC0AA1FBB1FEE1FFF1FA217B307B8
:103D0000E407F50720F0A21BB30BE40BF50B661FCD
:103D1000771F881F991F1A9469F760957095809591
:103D200090959B01AC01BD01CF010895991B79E0ED
:103D300004C0991F961708F0961B881F7A95C9F73B
:103D400080950895EE0FFF1F881F8BBF0790F69197
:103D5000E02D19945058BB27AA270E94C21E0C942C
:103D60003A1E0E942C1E38F00E94331E20F039F4B7
:103D70009F3F19F426F40C94291E0EF4E095E7FBFE
:103D80000C94231EE92F0E944B1E58F3BA176207AA
:103D900073078407950720F079F4A6F50C946D1E3F
:103DA0000EF4E0950B2EBA2FA02D0B01B901900156
:103DB0000C01CA01A0011124FF27591B99F0593F9A
:103DC00050F4503E68F11A16F040A22F232F342FE2
:103DD0004427585FF3CF469537952795A795F04030
:103DE0005395C9F77EF41F16BA0B620B730B840B45
:103DF000BAF09150A1F0FF0FBB1F661F771F881FFD
:103E0000C2F70EC0BA0F621F731F841F48F4879554
:103E100077956795B795F7959E3F08F0B0CF939546
:103E2000880F08F09927EE0F9795879508950E94BF
:103E30002B1F0C943A1E0E94331E58F00E942C1E19
:103E400040F029F45F3F29F00C94231E51110C948B
:103E50006E1E0C94291E0E944B1E68F39923B1F329
:103E6000552391F3951B550BBB27AA2762177307A0
:103E7000840738F09F5F5F4F220F331F441FAA1F34
:103E8000A9F335D00E2E3AF0E0E832D091505040F0
:103E9000E695001CCAF72BD0FE2F29D0660F771F9E
:103EA000881FBB1F261737074807AB07B0E809F084
:103EB000BB0B802DBF01FF2793585F4F3AF09E3F09
:103EC000510578F00C94231E0C946E1E5F3FE4F3B2
:103ED000983ED4F3869577956795B795F7959F5F4C
:103EE000C9F7880F911D9695879597F90895E1E098
:103EF000660F771F881FBB1F621773078407BA07F7
:103F000020F0621B730B840BBA0BEE1F88F7E09551
:103F100008950E94901F6894B1110C946E1E08952C
:103F20000E94531E88F09F5798F0B92F9927B751D8
:103F3000B0F0E1F0660F771F881F991F1AF0BA954D
:103F4000C9F714C0B13091F00E946D1EB1E0089520
:103F50000C946D1E672F782F8827B85F39F0B93F12
:103F6000CCF3869577956795B395D9F73EF4909500
:103F70008095709561957F4F8F4F9F4F08950E9458
:103F8000921D08F48FEF08950E94921D880B990BE3
:103F90000895CF93DF938230910510F482E090E092
:103FA000E091220AF091230A20E030E0C0E0D0E066
:103FB000309711F14081518148175907C0F04817D7
:103FC000590761F482819381209719F09B838A833A
:103FD0002BC09093230A8093220A26C02115310515
:103FE00019F04217530718F49A01BE01DF01EF01DF
:103FF0000280F381E02DDCCF2115310509F1281B6A
:10400000390B2430310590F412968D919C911397C1
:104010006115710521F0FB019383828304C09093A5
:10402000230A8093220AFD01329644C0FD01E20F6B
:10403000F31F81939193225031092D933C933AC001
:104040002091200A3091210A232B41F420910F0264
:10405000309110023093210A2093200A20910D0202
:1040600030910E022115310541F42DB73EB7409134
:10407000110250911202241B350BE091200AF0919D
:10408000210AE217F307A0F42E1B3F0B281739076C
:1040900078F0AC014E5F5F4F2417350748F04E0FA4
:1040A0005F1F5093210A4093200A8193919302C08D
:1040B000E0E0F0E0CF01DF91CF9108950F931F93DF
:1040C000CF93DF93009709F48CC0FC0132971382E1
:1040D00012820091220A1091230A0115110581F420
:1040E00020813181820F931F2091200A3091210A73
:1040F0002817390779F5F093210AE093200A71C057
:10410000D80140E050E0AE17BF0750F412962D9151
:104110003C911397AD012115310509F1D901F3CF78
:104120009D01DA013383228360817181860F971F9D
:104130008217930769F4EC0128813981260F371F14
:104140002E5F3F4F318320838A819B8193838283BB
:10415000452B29F4F093230AE093220A42C01396D8
:10416000FC93EE931297ED01499159919E01240F12
:10417000351FE217F30771F480819181840F951F39
:10418000029611969C938E938281938113969C93B1
:104190008E931297E0E0F0E0D80112968D919C91F9
:1041A0001397009719F0F8018C01F6CF8D919C912F
:1041B00098012E5F3F4F820F931F2091200A30916C
:1041C000210A2817390769F4309729F41092230A35
:1041D0001092220A02C0138212821093210A0093C5
:1041E000200ADF91CF911F910F9108956F927F92D6
:1041F0008F929F92AF92BF92CF92DF92EF92FF92F7
:104200000F931F93CF93DF93EC01009789F4CB01B9
:10421000DF91CF911F910F91FF90EF90DF90CF90A2
:10422000BF90AF909F908F907F906F900C94C91F1C
:10423000FC01E60FF71F9C0122503109E217F3073A
:1042400008F4ACC0D9010D911C91119706171707FE
:10425000B0F00530110508F49FC0C8010497861717
:10426000970708F499C002501109061B170B019318
:1042700011936D937C93CF010E945E208DC05B01F2
:10428000A01AB10A4C01800E911EA091220AB09191
:10429000230A40E050E0E12CF12C109709F44AC0C9
:1042A000A815B905D1F56D907C901197630182E056
:1042B000C80ED11CCA14DB0480F1A3014A195B09A2
:1042C0006A0182E0C80ED11C1296BC901297139618
:1042D000AC91B5E0CB16D10440F0B282A3835183F8
:1042E0004083D9016D937C930AC00E5F1F4FC301B9
:1042F000800F911FF90191838083EB2DFA2FE11438
:10430000F10431F0D7011396FC93EE93129744C059
:10431000F093230AE093220A3FC08D919C9111975C
:104320004817590708F4AC017D0112960D90BC9115
:10433000A02DB3CF8091200A9091210A881599056C
:10434000E1F446175707C8F480910D0290910E02D0
:10435000009741F48DB79EB740911102509112021F
:10436000841B950BE817F907C8F4F093210AE09332
:10437000200AF901718360830FC0CB010E94C91F1D
:104380007C01009759F0A801BE010E94F121CE01E5
:104390000E945E20C70104C0CE0102C080E090E010
:1043A000DF91CF911F910F91FF90EF90DF90CF9011
:1043B000BF90AF909F908F907F906F90089581E015
:1043C00090E0F8940C940122FB01DC0104C08D9173
:1043D0000190801921F441505040C8F7881B990B77
:1043E0000895FB01DC0102C001900D924150504044
:1043F000D8F70895FB01DC0101900D920020E1F750
:10440000089511E0C0E9D1E000E006C0802FFE0170
:104410000E94A21E2196011DC139D10780E0080724
:06442000A9F7F894FFCF9C
:10442600303030303000303030303000FF00002483
:104436000A2000000000001513E512C501BF12DDB9
:1044460012CE12C012000000002F0D6F0CB30C76B6
:104456000DE40CC20CD60C000000007B026F0CC5EC
:1044660001C401313131303000303131303000316A
:104476003130303000313030303000303031313191
:1044860000303031313000303030313100303030B2
:1044960030310030303030300030313030300030A4
:1044A6003031303000303030313000496E76616C5A
:1044B60069642049522069642100506F7572206C2E
:1044C60027657461706520002020204C65206E6F82
:1044D6006D62726520646520636C696320656E7227
:1044E60065676973747265722061206C612064650A
:1044F600726E6965726520706F736974696F6E207C
:104506002D2D3E2000474F210053414C5554204A43
:1045160045205355495320494349005669726167FE
:104526006520612064726F69746500416C6C657208
:1045360020746F75742064726F69740056697261B5
:1045460067652061206761756368650043756C2047
:104556006465207361630056697261676520612036
:1045660064726F697465203200416C6C65722074E8
:104576006F75742064726F697420320056697261B7
:104586006765206120676175636865203200437541
:104596006C20646520736163203200457461706528
:1045A600203A20000900496E746572736563746968
:1045B6006F6E2072656E636F6E7472656520612022
:1045C6006C27657461706520004170726573207593
:1045D6006E652064697374616E636520646520008E
:1045E6000D0A004C612064697374616E6365206511
:1045F6006E7265676973747265652065737420648D
:104606006520006E616E00696E66006F766600005A
:00000001FF
