:100000000C9491010C94C2010C94C2010C94C20195
:100010000C94C2010C94C2010C94C2010C94C20154
:100020000C94C2010C94A40C0C94A40C0C94A40C7D
:100030000C94C2010C94530E0C94C2010C94C20196
:100040000C94C2010C94FC040C94C2010C94C201E7
:100050000C94C2010C94C2010C94C2010C94B31113
:100060000C94C2010C94C40F0C949A0F0C94C2010E
:100070000C94C2010C94C2010C94C2010C94C201F4
:100080000C94C2010C94C2010C94C2010C94C201E4
:100090000C94C2010C94C2010C94C2010C94AE0CDD
:1000A0000C94C2010C94C2010C94C2010C94C201C4
:1000B0000C94C2010C94C2010C94C2010C943E0435
:1000C0000C94C2010C94C2010C94C2010C94700FE8
:1000D0000C94460F0C94C2010C941C0F0C94F20E5D
:1000E0000C94C20195029A029F02A902B3022C034A
:1000F000BD02C502CD02D702E102EB02FA020403FF
:100100002C030E03180322032510281017101B10B0
:1001100021105F102C10301036103A103E10441091
:1001200048104C105F10521056105A100C944C107E
:100130000C9403120C9476030C94FD110C94EE0FA6
:100140000C94B3020C9444100C9485100C945F1022
:100150000C94E7010C9452100C949F020C942C0305
:100160000C9436100C94BD020C948D0A0C9432023F
:100170000C945A100C9428100C943A100C94021001
:100180000C9421100C94FA020C941C040C94B510DD
:100190000C941B100C9418030C94EB020C94D702D3
:1001A0000C9417100C9425100C94A9020C94C50201
:1001B0000C948E0A0C9431020C943E100C940E0395
:1001C0000C94F5010C949A020C9448100C94D503ED
:1001D0000C94E1020C94080E0C942C100C9430102A
:1001E0000C9404030C94C4010C94D3010C94950258
:1001F0000C94CD020C9456100C94220302000021A2
:1002000000240027002A002D0030003300010100E7
:1002100000040107010A0100002200250028002B2C
:10022000002E003100340002010000050108010B1E
:1002300001000020002300260029002C002F00329E
:10024000000001000003010601090105050505077D
:100250000508080808020202020A0A080804040441
:10026000040101010101010101030303030303036D
:1002700003040707070C0C0C0C0C0C0C0C020202FC
:100280000206060606060606060B0B0B0B0B0B0BEF
:100290000B0102102020080810204010204080028E
:1002A00001020108040201010204081020408080BC
:1002B0004020100804020180040201804020100840
:1002C0000402010804020101020408102040800118
:1002D0000204081020408000000A0B02090C0D0ED9
:1002E00008070304010000000000000000000000F7
:1002F00000000000000000000000000000000000FE
:1003000000000012111000000000000000000000BA
:1003100000000000000000000000000000000312C8
:10032000FD1111241FBECFEFD1E2DEBFCDBF00E033
:100330000CBF12E0A0E0B2E0ECE1F8E300E00BBF9C
:1003400002C007900D92A037B107D9F727E0A0E7C8
:10035000B2E001C01D92A934B207E1F711E0C0E993
:10036000D1E000E006C021970109802FFE010E9424
:10037000AA18CF38D10780E00807A9F70E94DE133A
:100380000C94FC1B0C940000FC01538D448D252F14
:1003900030E0842F90E0821B930B541710F0CF961F
:1003A000089501970895FC01918D828D981761F051
:1003B000828DDF01A80FB11D5D968C91928D9F5F9C
:1003C0009F73928F90E008958FEF9FEF0895FC0147
:1003D000918D828D981731F0828DE80FF11D858DFA
:1003E00090E008958FEF9FEF0895FC01918D228D8D
:1003F000892F90E0805C9F4F821B91098F73992712
:100400000895E0E0F0E0199480E090E0892B21F07D
:100410000E94490E811119C080E090E0892B41F0C3
:1004200080E090E0892B21F00E940000811110C033
:100430000E943F0E81110FC080E090E0892B81F077
:100440000E94350E81110AC008950E940000E4CF79
:100450000E940000EDCF0E940102EECF0C9400003C
:100460000895089580E090E008958F929F92AF9252
:10047000BF92CF92DF92EF92FF920F931F93CF9391
:10048000DF93EC016A017B0120E030E04FE753E4A9
:10049000C701B6010E94BE174B015C0120E030E0AD
:1004A000A9010E94C71918161CF4C501B40103C0A4
:1004B000C501B40190580E9491198B0120E030E0F1
:1004C000A901C701B6010E94C719181614F460E00B
:1004D00001C061E089810E940D110F3F110509F0F3
:1004E00014F4112702C00FEF10E0C88161E08C2FD7
:1004F0000E943D110115110509F4B1C00F3F11050E
:1005000009F4AFC0EC2FF0E0E952FD4FE4914E2F1B
:1005100050E0FA013197E231F10508F09DC08827DB
:10052000EE58FF4F8F4F0C94AA1884B5806884BD95
:1005300007BDA7C084B5806284BD08BDA2C08091FC
:100540008000806880938000109389000093880069
:1005500098C08091800080628093800010938B000F
:1005600000938A008EC08091800088608093800014
:1005700010938D0000938C0084C08091B00080683F
:100580008093B0000093B3007CC08091B000806283
:100590008093B0000093B40074C080919000806894
:1005A0008093900010939900009398006AC0809106
:1005B000900080628093900010939B0000939A00BB
:1005C00060C08091900088608093900010939D009F
:1005D00000939C0056C08091A00080688093A0008A
:1005E0008091A0008F7B8093A0001093A9000093BE
:1005F000A80047C08091A00080628093A000109363
:10060000AB000093AA003DC08091A0008860809359
:10061000A0001093AD000093AC0033C08091200186
:10062000806880932001109329010093280129C03C
:100630008091200180628093200110932B01009310
:100640002A011FC0809120018860809320011093AF
:100650002D0100932C0115C00038110514F460E041
:1006600001C061E08C2FDF91CF911F910F91FF901E
:10067000EF90DF90CF90BF90AF909F908F900C94B1
:100680000D11DF91CF911F910F91FF90EF90DF90AF
:10069000CF90BF90AF909F908F900895FC012481E0
:1006A00031E03093AF022093D1021092B002109249
:1006B000D2028485682B83ED92E00E94B5100C94E1
:1006C000BC0A0F931F93CF938C01C62F64600E94C6
:1006D0004E036C2F6B7FC8010E944E0383EC90E0A9
:1006E0000197F1F7CF911F910F9108950F931F93E9
:1006F000CF93DF938C01C62FD62FD07FD1606D2F83
:100700000E944E036D2FC8010E94610380E1C89FC3
:10071000B0011124C62FC1606C2FC8010E944E0386
:100720006C2FC8010E94610381E090E0DF91CF91BE
:100730001F910F910895FC01A089B1898C91A68920
:10074000B78982FD0FC09C91818D8F5F8F73228D41
:10075000821749F0218DDF01A20FB11D5D969C9398
:10076000818F08958C910895FC01848DDF01A80F7D
:10077000B11DA35ABF4F2C91848D90E001968F73C9
:100780009927848FA689B7892C93A089B1898C91E8
:1007900080648C93938D848D981306C00288F389AE
:1007A000E02D80818F7D80830895EF92FF920F93DB
:1007B0001F93CF93DF93EC0181E0888F9B8D8C8D0D
:1007C000981305C0E889F989808185FD24C0F62E3B
:1007D0000B8D10E00F5F1F4F0F731127E02E8C8DD4
:1007E000E8120CC00FB607FCFACFE889F9898081BE
:1007F00085FFF5CFCE010E94B403F1CF8B8DFE01B2
:10080000E80FF11DE35AFF4FF0820B8FEA89FB8955
:100810008081806207C0EE89FF896083E889F98959
:1008200080818064808381E090E0DF91CF911F918F
:100830000F91FF90EF900895CF93DF93EC01888D97
:100840008823C9F0EA89FB89808185FD05C0A889D4
:10085000B9898C9186FD0FC00FB607FCF5CF80815A
:1008600085FFF2CFA889B9898C9185FFEDCFCE01A4
:100870000E94B403E7CFDF91CF9108951F920F92AA
:100880000FB60F9211240BB60F922F933F934F93F5
:100890005F936F937F938F939F93AF93BF93EF93E8
:1008A000FF938091B7040E94E4102091BB04309123
:1008B000BC042F5F3F4F3093BC042093BB04909146
:1008C000BA04953618F096E09093B6049091B60469
:1008D0009430C9F128F4923069F09330D1F05EC0C1
:1008E000953009F451C0963009F058C091E09093CA
:1008F000870551C0811152C02091BB043091BC04C6
:100900002436310508F442C0109287051092BA04CB
:100910001CC0813009F042C0E091BA0491E09E0F02
:100920009093BA04F0E02091BB043091BC04EE0F28
:10093000FF1FEA54FB4F308727831092BC041092AC
:10094000BB0494E029C0811117C0E091BA0491E082
:100950009E0F9093BA04F0E02091BB043091BC0448
:10096000EE0FFF1FEA54FB4F308727831092BC0421
:100970001092BB0493E010C02091BB043091BC04E2
:100980002536310558F007C0811108C01092BC040B
:100990001092BB0403C095E09093B6049091B90403
:1009A0009923B9F081110AC08091B804882321F0FD
:1009B0008091B80461E009C02F9A0BC08091B804FF
:1009C000882331F08091B80460E00E940D1101C0CD
:1009D0002F98FF91EF91BF91AF919F918F917F9150
:1009E0006F915F914F913F912F910F900BBE0F90A0
:1009F0000FBE0F901F9018951F920F920FB60F9277
:100A000011240BB60F922F933F934F935F936F93E5
:100A10007F938F939F93AF93BF93EF93FF938091B7
:100A2000890287FF05C0109285001092840016C0CD
:100A300020918902022E000C330B8091C40590E0B6
:100A4000281739075CF43091890225E03203F00160
:100A50001124E857FA4F808186FD15C080918902E4
:100A60008F5F8093890220918902022E000C330B44
:100A70008091C40590E02817390794F48091890289
:100A80008C302CF10DC0309189023203F001112419
:100A9000E857FA4F808160E08F730E940D11DECF1E
:100AA000809184009091850084349C4918F480E4FE
:100AB0009CE905C0809184009091850004969093F4
:100AC0008900809388008FEF809389022AC040912B
:100AD0008400509185003091890225E03203F001B5
:100AE0001124E857FA4F81819281840F951F9093CA
:100AF000890080938800309189023203F00111242B
:100B0000E857FA4F808186FF0CC03091890232038A
:100B1000F0011124E857FA4F808161E08F730E9441
:100B20000D11FF91EF91BF91AF919F918F917F91A7
:100B30006F915F914F913F912F910F900BBE0F904E
:100B40000FBE0F901F9018958EBD00000DB407FECC
:100B5000FDCF8EB50895CF93DF93EC0160E08881DF
:100B60000E940D1188E90E94A40580E00E94A4055E
:100B700080E00E94A40580E00E94A40580E00E941D
:100B8000A40561E088810E940D118BE891E0019736
:100B9000F1F760E088810E940D1180EE0E94A405AB
:100BA00061E08881DF91CF910C940D11AF92BF92DB
:100BB000CF92DF92EF92FF920F931F93CF93DF9329
:100BC000CDB7DEB760970FB6F894DEBF0FBECDBFCE
:100BD0005C0160E0FC0180810E940D1180E60E94B2
:100BE000A4058E010F5F1F4F7E01F1E1EF0EF11C96
:100BF000680180E00E94A40590E0A0E0B0E0F6016A
:100C000081939193A193B1936F01EE15FF0589F73D
:100C100061E0F50180810E940D1180E090E0DC012F
:100C2000F80141915191619171918F01BA2FA92FD2
:100C3000982F8827840F951FA61FB71FEE15FF0555
:100C400079F79C01AD0166277727CB01621B730BF7
:100C5000840B950B60960FB6F894DEBF0FBECDBF28
:100C6000DF91CF911F910F91FF90EF90DF90CF9088
:100C7000BF90AF9008958BEA96E00E94D6058BEA6C
:100C800096E00E94AB058DEA96E00E94D6058DEABB
:100C900096E00C94AB054F925F926F927F928F9289
:100CA0009F92AF92BF92CF92DF92EF92FF920F93FB
:100CB0001F93CF93DF93CDB7DEB72C970FB6F89481
:100CC000DEBF0FBECDBF6D837E838F8398874901C2
:100CD0005A01670178018BEA96E00E94D6052B0144
:100CE0003C018DEA96E00E94D60569837A838B8366
:100CF0009C8366277727CB016419750986099709B4
:100D00000E945F172B013C0169817A818B819C8154
:100D10000E945F179B01AC01C301B2010E94B2188F
:100D200029E832ED4EE55AE30E94BE172B013C0143
:100D3000C501B4016C197D098E099F090E945F17D6
:100D40002CEA35EC47E258E30E94BE1720E030E081
:100D5000A9010E94B3189B01AC01C301B2010E941A
:100D6000B3182D813E814F8158850E94B318698741
:100D70007A878B879C870E943B0669857A858B855D
:100D80009C852C960FB6F894DEBF0FBECDBFDF91C9
:100D9000CF911F910F91FF90EF90DF90CF90BF9078
:100DA000AF909F908F907F906F905F904F9008953D
:100DB00040E050E0BA0187EA96E00E94350240E048
:100DC00050E060E070E889EA96E00E9435028BEA24
:100DD00096E00E94D6058BEA96E00E94AB058DEA6C
:100DE00096E00E94D6058DEA96E00C94AB058F92B2
:100DF0009F92AF92BF92CF92DF92EF92FF92CF93EA
:100E0000DF936C017B01D42FC52F0E943B06B601F6
:100E10000D2C000C880B990B0E945F174B015C0195
:100E20000E94AC0B20E030E044EB53E4C501B40178
:100E30000E941F194B015C010E94AC0BA50194019B
:100E4000C501B4010E94B3182BED3FE049E450E422
:100E50000E94BE174B015C010E94AC0B20E030E009
:100E600048E951E4C501B4010E94BE1720E030E01A
:100E700048EC52E40E941F194B015C010E94AC0B2C
:100E800083E190E00E94730CC6010E94730C87E31B
:100E900092E00E94AE0A23E535EB47E75EE3C50129
:100EA000B4010E941F1920E030E048E455E40E949C
:100EB000BE170E949119CD2EDC2EEA94EF28C1F0C6
:100EC000D7FE03C03FEFC31AD30AD594C794D19479
:100ED000C194D1086C0D7D1D77FF02C06F5F7F4FFD
:100EE0006B01D594C7940D2C000CEE08FF0846C08A
:100EF000D7FE03C04FEFC41AD40AD594C794D19437
:100F0000C194D1086C0D7D1D77FF02C06F5F7F4FCC
:100F10006B01D594C7940D2C000CEE08FF088BEAEA
:100F200096E00E94D6059B01AC0188279927DC0139
:100F3000821B930BA40BB50B8C159D05AE05BF054D
:100F40008CF44DEC5CEC6CE47EE389EA96E00E9464
:100F500035024DEC5CEC6CE47EE387EA96E00E949F
:100F60003502DDCFDF91CF91FF90EF90DF90CF90F2
:100F7000BF90AF909F908F900C94D8068DEA96E02A
:100F80000E94D6056C157D058E059F055CF74DEC1E
:100F90005CEC6CE47EEB87EA96E00E9435024DEC57
:100FA0005CEC6CE47EEB89EA96E00E943502E6CFC9
:100FB0004F925F926F927F928F929F92AF92BF9269
:100FC000CF92DF92EF92FF920F931F93CF93DF9315
:100FD000CDB7DEB760970FB6F894DEBF0FBECDBFBA
:100FE00023E535EB47E75EE30E941F1920E030E080
:100FF00048E455E40E94BE170E94911969877A87D8
:101000008B879C8719821A821B821C82412C512C4F
:1010100032018AE0882E87ED982E83E2A82E8CE399
:10102000B82E8D829E82AF82B88689859A85AB85DF
:10103000BC85481659066A067B060CF08DC04D81AA
:101040005E816F81788587EA96E00E943502B5015E
:10105000A401705889EA96E00E94350262E370E0CC
:1010600080E090E00E9479118BEA96E00E94D6051C
:101070006D877E878F87988B8DEA96E00E94D605D4
:101080006B017C01C301B2010E945F172B013C017F
:101090006D857E858F8598899095809570956195F1
:1010A0007F4F8F4F9F4F0E945F179B01AC01C30181
:1010B000B2010E94B3180E9491192B013C01698171
:1010C0007A818B819C810E945F1769837A838B83ED
:1010D0009C83C701B6010E945F179B01AC01698127
:1010E0007A818B819C810E94B3180E949119698337
:1010F0007A838B839C837B018C01A3019201C501C0
:10110000B4010E944B064B015C010E943B062DEC92
:101110003CEC4CEC5EE36D817E818F8198850E9472
:10112000581787FF82CF2FE832EC45EF5CE36D81E3
:101130007E818F8198850E94B3186D837E838F8313
:1011400098872FE832EC45EF5CE3C501B4010E94BB
:10115000B3184B015C0169CF0E94D80664E670E0C9
:1011600080E090E060960FB6F894DEBF0FBECDBF72
:10117000DF91CF911F910F91FF90EF90DF90CF9073
:10118000BF90AF909F908F907F906F905F904F90A7
:101190000C9479114F925F926F927F928F929F92EF
:1011A000AF92BF92CF92DF92EF92FF920F931F9375
:1011B000CF93DF93CDB7DEB764970FB6F894DEBF59
:1011C0000FBECDBF23E535EB47E75EE30E941F1955
:1011D00020E030E048E455E40E94BE170E949119D7
:1011E0009B01AC0139514109510929873A874B8745
:1011F0005C871D821E821F82188619821A821B82BA
:101200001C828AE0882E87ED982E83E2A82E8CE33C
:10121000B82E2401350189819A81AB81BC81298551
:101220003A854B855C8582179307A407B5070CF0B8
:101230008BC0B301A20187EA96E00E943502B50196
:10124000A401705889EA96E00E94350262E370E0DA
:1012500080E090E00E9479118BEA96E00E94D6052A
:101260006D877E878F87988B8DEA96E00E94D605E2
:10127000698B7A8B8B8B9C8B69817A818B819C812A
:101280000E945F176B017C016D857E858F85988933
:1012900090958095709561957F4F8F4F9F4F0E94DD
:1012A0005F179B01AC01C701B6010E94B3180E94F1
:1012B000911969837A838B839C836D817E818F8171
:1012C00098850E945F176B017C0169897A898B89F7
:1012D0009C890E945F179B01AC01C701B6010E9467
:1012E000B3180E9491196D837E838F8398877B0149
:1012F0008C0129813A814B815C81C501B4010E9436
:101300004B064B015C010E943B0626E636E646E6AC
:101310005FE3C301B2010E94581787FF7CCF2FE81B
:1013200032EC45EF5CE3C301B2010E94B3182B011C
:101330003C012FE832EC45EF5CE3C501B4010E94AB
:10134000B3184B015C0167CFB7FF10C08DE20E945C
:10135000600B69817A818B819C81909580957095D5
:1013600061957F4F8F4F9F4F4AE005C04AE06981EA
:101370007A818B819C810E946B0B84E492E00E94B5
:101380009C0A1D821E821F82188619821A821B8265
:101390001C828BEA96E00E94D60569877A878B8744
:1013A0009C878DEA96E00E94D6056D877E878F87A1
:1013B000988B69817A818B819C810E945F176B0178
:1013C0007C0169857A858B859C8590958095709543
:1013D00061957F4F8F4F9F4F0E945F179B01AC011C
:1013E000C701B6010E94B3180E94911969837A83DC
:1013F0008B839C836D817E818F8198850E945F178E
:101400006B017C016D857E858F8598890E945F17B1
:101410009B01AC01C701B6010E94B3180E9491194B
:101420006D837E838F8398877B018C0129813A812C
:101430004B815C81C501B4010E944B064B015C01EC
:101440000E943B0620E030E040E85EE3C301B201C9
:101450000E94C71918160CF52DEC3CEC4CE45DE32A
:10146000C301B2010E94B2182B013C012DEC3CECEF
:101470004CE45DE3C501B4010E94B2184B015C016C
:10148000B301A20187EA96E00E943502B501A401EA
:10149000705889EA96E00E94350264E670E080E0C8
:1014A00090E00E94791187E492E00E949C0AC301B7
:1014B000B2010E94AC0B89819A81AB81BC818130E1
:1014C0009941A105B1050CF464CF0E94D8066AE0E9
:1014D00070E080E090E064960FB6F894DEBF0FBE37
:1014E000CDBFDF91CF911F910F91FF90EF90DF90D3
:1014F000CF90BF90AF909F908F907F906F905F90B4
:101500004F900C94791185ED8093BC008091BC00C4
:1015100084FDFCCF1092AE020895089581E090E022
:101520003091AB022091AA02321710F480E090E0D3
:101530009195819591090895009769F0FC010190BA
:101540000020E9F73197AF01481B590BBC0189E135
:1015500094E00C94080E80E090E00895CF93DF9320
:101560000E949C0AEC0184E492E00E949C0A8C0F89
:101570009D1FDF91CF9108952091D2029091D102C9
:10158000213208F04AC08091AE028111FCCF32E0D6
:101590003093AE0231E03093AD023FEF309331072C
:1015A0001092300720932F07A1EBB2E04FE057E0F5
:1015B000FA013E2F341B321718F43D913193F9CFC5
:1015C00010920E0720910E07990F922B90930E0701
:1015D0009091AC02913061F41092AC0290910E07A0
:1015E0009093BB009091BC0093FDF8CF95EC01C0A7
:1015F00095EE9093BC009091AE029230E1F3909101
:1016000031079F3F79F080913107803241F080911E
:101610003107803331F084E005C081E003C082E00F
:1016200001C083E01092B0021092D2021092AF0279
:101630000895EF92FF921F93CF93DF931F92CDB740
:10164000DEB7162F9EE8E92E96E0F92ED7011C96FC
:101650009C911C9721E02093AF029093D1021092AD
:10166000B0021092D2021A960D90BC91A02DED916D
:10167000FC9111970190F081E02D682FCD017983C5
:101680001995F70182859385DC01ED91FC9101901C
:10169000F081E02D7981672F1995F7018285938577
:1016A000DC01ED91FC910190F081E02D612F199505
:1016B0000F90DF91CF911F91FF90EF900C94BC0A97
:1016C000E0911904F0911A040190F081E02D682F47
:1016D00089E194E019948F929F92AF92BF920F93F9
:1016E0001F93CF93DF93CDB7DEB7A1970FB6F894D2
:1016F000DEBF0FBECDBF19A2423008F44AE08E0112
:101700000F5D1F4F842E912CA12CB12CA5019401AB
:101710000E947C18E62FB901CA0101501109EA3074
:1017200014F4E05D01C0E95CD801EC93232B242B79
:10173000252B61F7C8010E949C0AA1960FB6F89468
:10174000DEBF0FBECDBFDF91CF911F910F91BF9034
:10175000AF909F908F9008954F925F926F927F927B
:101760008F929F92AF92BF92CF92DF92EF92FF92B1
:101770006B017C019B01AC010E94CC19882319F0FC
:1017800089E592E01AC046015701E894B7F82FEFB7
:101790003FEF4FE75FE7C501B4010E94CC1981110B
:1017A00010C02FEF3FEF4FE75FE7C501B4010E9484
:1017B0005817181634F48DE592E00E949C0A7C01BB
:1017C0007FC02FEF3FEF4FE75FE4C701B6010E94F4
:1017D000C71918161CF481E692E0EFCF2FEF3FEF08
:1017E0004FE75FECC701B6010E94581787FDF3CFA2
:1017F00020E030E0A901C701B6010E94581787FF19
:1018000009C08DE20E94600B5C01F7FAF094F7F8D2
:10181000F09402C0A12CB12C2AE037ED43EA5BE33F
:10182000C701B6010E94B3182B013C010E94981910
:101830006B017C010E945D179B01AC01C301B201E9
:101840000E94B2182B013C014AE0C701B6010E9478
:101850006B0B7C01EA0CFB1C8EE20E94600BE80E15
:10186000F91E20E030E040E251E4C301B2010E94E1
:10187000BE172B013C010E9498194B01A12CB12CE1
:101880004AE0C501B4010E946B0BE80EF91EC501C8
:10189000B4010E945D179B01AC01C301B2010E941B
:1018A000B21820E030E040E251E40E94BE170E94EE
:1018B000981980E090E04AE00E946B0BE80EF91E58
:1018C00084E492E00E949C0A8E0D9F1DFF90EF9091
:1018D000DF90CF90BF90AF909F908F907F906F9050
:1018E0005F904F900895CF92DF92EF92FF92CF9347
:1018F000DF936C01990FEE08FF08F7FE12C08DE22E
:101900000E94600BEC0166277727CB016C197D09DB
:101910008E099F094AE00E946B0B7C01EC0EFD1EB4
:1019200006C04AE0C701B6010E946B0B7C0184E44B
:1019300092E00E949C0A8E0D9F1DDF91CF91FF9037
:10194000EF90DF90CF9008951F920F920FB60F92F5
:1019500011240F900FBE0F901F9018951F920F9299
:101960000FB60F9211240BB60F922F933F934F9304
:101970005F936F937F938F939F93AF93BF93EF93F7
:10198000FF938091B900887F803609F49CC068F588
:10199000883209F45BC090F4803109F454C038F403
:1019A000882309F4F6C0883009F44DC0F6C08831A8
:1019B00009F44CC0803209F45DC0EFC0803409F4F2
:1019C00068C048F4803309F455C0883309F0E5C095
:1019D00080933107D8C0803509F44FC0883509F4A9
:1019E0005DC0883409F0D9C0D6C0883909F4C7C0B1
:1019F000A8F4883709F467C038F4883609F463C05E
:101A0000803709F460C0C9C0883809F4B8C080398B
:101A100009F45FC0803809F0C0C05BC0803B09F4A6
:101A200086C038F4803A09F466C0883A09F47FC069
:101A3000B4C0803C09F4A7C0883C09F4A4C0883B2A
:101A400009F48AC0AAC080910E0710C09091300797
:101A500080912F07981770F5E091300781E08E0F85
:101A600080933007F0E0E15FF84F80818093BB0006
:101A700085EC86C0809331078EC0E091300781E00D
:101A80008E0F809330078091BB00F0E0E15FF84F4C
:101A900080839091300780912F076EC0E0913007CE
:101AA00081E08E0F809330078091BB00F0E0E15F12
:101AB000F84F80838091AD0281116DC081E08093E9
:101AC000AC0284EA61C083E08093AE0210920B07FF
:101AD000CFCF80910B07803208F051C0E0910B0707
:101AE00081E08E0F80930B078091BB00F0E0E55101
:101AF000F94F8083BDCF85EC8093BC001092AE027D
:101B000080910B07803230F4E0910B07F0E0E55153
:101B1000F94F108260910B0770E0E091E906F091B7
:101B2000EA068BEE96E0199510920B0736C084E01A
:101B30008093AE021092E8061092E706E091E50667
:101B4000F091E60619958091E706811105C081E0C4
:101B50008093E7061092C506E091E80681E08E0FBB
:101B60008093E806F0E0EB53F94F80818093BB004F
:101B70009091E8068091E706981708F479CF85E8F8
:101B80008093BC000AC085EC8093BC001092AE022A
:101B900004C0109231070E94830AFF91EF91BF9118
:101BA000AF919F918F917F916F915F914F913F91F5
:101BB0002F910F900BBE0F900FBE0F901F90189596
:101BC0004091E706262F30E0240F311D21323105E8
:101BD000DCF42091AE022430C9F4FC0180E090E0F6
:101BE000861758F43091E7062191DC01AB53B94FC9
:101BF000A30FB11D2C930196F3CF8091E706680FD8
:101C00006093E70680E0089581E0089582E00895FA
:101C1000CF92DF92EF92FF920F931F93CF93DF93B8
:101C20006C017A018B01C0E0D0E0CE15DF0589F0B0
:101C3000D8016D918D01D601ED91FC910190F0815B
:101C4000E02DC6011995892B11F47E0102C0219661
:101C5000ECCFC701DF91CF911F910F91FF90EF90D3
:101C6000DF90CF9008950E94E71B8FED92E00E94D5
:101C7000F50121E0892B09F420E0822F08958CE7FB
:101C800093E00E94F50121E0892B09F420E0822FE6
:101C9000089589E194E00E94F50121E0892B09F47F
:101CA00020E0822F08951F920F920FB60F921124F9
:101CB0000BB60F922F933F934F935F936F937F9346
:101CC0008F939F93AF93BF93EF93FF9380913507CB
:101CD00090913607A0913707B0913807892B8A2B4E
:101CE0008B2B59F180913407E0913207F091330743
:101CF0009081892780838091350790913607A09144
:101D00003707B0913807181619061A061B060CF08B
:101D100056C08091350790913607A0913707B09152
:101D200038070197A109B1098093350790933607C9
:101D3000A0933707B093380742C080910002ECEFC0
:101D4000F1E0E4919FEF90930002E230C9F050F48B
:101D5000EE2399F0E13081F590916F009D7F909393
:101D60006F002AC0E43019F1E0F0E53029F59091D8
:101D700073009D7F909373001FC010926E001CC073
:101D8000909170009D7F9093700091E09093B000CF
:101D90009091B100987F94609093B1001092B3003D
:101DA0000BC0909171009D7F9093710005C0909140
:101DB00072009D7F9093720060E00E940D11FF9170
:101DC000EF91BF91AF919F918F917F916F915F91B3
:101DD0004F913F912F910F900BBE0F900FBE0F9020
:101DE0001F9018951F920F920FB60F9211240BB6E9
:101DF0000F922F933F934F935F936F937F938F93A4
:101E00009F93AF93BF93EF93FF938FED92E00E9468
:101E1000B403FF91EF91BF91AF919F918F917F910B
:101E20006F915F914F913F912F910F900BBE0F904B
:101E30000FBE0F901F9018951F920F920FB60F9222
:101E400011240BB60F922F933F934F935F936F9391
:101E50007F938F939F93AF93BF93EF93FF938FEDF8
:101E600092E00E949B03FF91EF91BF91AF919F91F0
:101E70008F917F916F915F914F913F912F910F9033
:101E80000BBE0F900FBE0F901F9018951F920F92D0
:101E90000FB60F9211240BB60F922F933F934F93CF
:101EA0005F936F937F938F939F93AF93BF93EF93C2
:101EB000FF938CE793E00E94B403FF91EF91BF91F1
:101EC000AF919F918F917F916F915F914F913F91D2
:101ED0002F910F900BBE0F900FBE0F901F90189573
:101EE0001F920F920FB60F9211240BB60F922F93E1
:101EF0003F934F935F936F937F938F939F93AF9392
:101F0000BF93EF93FF938CE793E00E949B03FF91B5
:101F1000EF91BF91AF919F918F917F916F915F9161
:101F20004F913F912F910F900BBE0F900FBE0F90CE
:101F30001F9018951F920F920FB60F9211240BB697
:101F40000F922F933F934F935F936F937F938F9352
:101F50009F93AF93BF93EF93FF9389E194E00E9427
:101F6000B403FF91EF91BF91AF919F918F917F91BA
:101F70006F915F914F913F912F910F900BBE0F90FA
:101F80000FBE0F901F9018951F920F920FB60F92D1
:101F900011240BB60F922F933F934F935F936F9340
:101FA0007F938F939F93AF93BF93EF93FF9389E1B9
:101FB00094E00E949B03FF91EF91BF91AF919F919D
:101FC0008F917F916F915F914F913F912F910F90E2
:101FD0000BBE0F900FBE0F901F9018959091AB0203
:101FE0008091AA02981750F4E92FF0E0E657FD4FD0
:101FF000208130E09F5F9093AB0202C02FEF3FEF54
:10200000C90108958091AA0290E02091AB02821B41
:102010009109089590E0FC013197E231F10508F053
:102020004EC08827EC57FF4F8F4F0C94AA18809111
:1020300080008F7703C0809180008F7D8093800027
:10204000089580918000877FF9CF84B58F7702C093
:1020500084B58F7D84BD08958091B0008F7703C0D3
:102060008091B0008F7D8093B000089580919000A2
:102070008F7707C0809190008F7D03C08091900082
:10208000877F8093900008958091A0008F7707C08C
:102090008091A0008F7D03C08091A000877F8093F6
:1020A000A0000895809120018F7707C080912001C2
:1020B0008F7D03C080912001877F80932001089548
:1020C0003FB7F8948091410790914207A091430750
:1020D000B091440726B5A89B05C02F3F19F0019683
:1020E000A11DB11D3FBFBA2FA92F982F8827820F9E
:1020F000911DA11DB11DBC01CD0142E0660F771FEE
:10210000881F991F4A95D1F70895CF92DF92EF92D9
:10211000FF920F931F93CF93DF937C01262F972F6E
:102120008A018091AF02882391F0C62FD72F6E01CC
:10213000C40ED51ECC15DD0571F06991D701ED9166
:10214000FC910190F081E02DC7011995F3CF642F28
:10215000822F0E94E00DC801DF91CF911F910F9156
:10216000FF90EF90DF90CF900895CF93DF931F9271
:10217000CDB7DEB769832091AF022223D1F0209141
:10218000D202203240F021E030E0FC013383228390
:1021900080E090E015C08091B002E82FF0E0EF54AD
:1021A000FD4F998190838F5F8093B0028093D2021C
:1021B00005C061E0CE0101960E94E00D81E090E053
:1021C0000F90DF91CF910895CF93DF93282F30E0C8
:1021D000F901E952FD4F8491F901EF56FD4FD49179
:1021E000F901E55BFD4FC491CC2391F081110E9470
:1021F0000A10EC2FF0E0EE0FFF1FEF5CFD4FA591F2
:10220000B491EC91ED2381E090E021F480E002C0F4
:1022100080E090E0DF91CF9108951F93CF93DF93FB
:10222000282F30E0F901E952FD4F8491F901EF5672
:10223000FD4FD491F901E55BFD4FC491CC23C9F06A
:10224000162F81110E940A10EC2FF0E0EE0FFF1FF5
:10225000E95EFD4FA591B4918FB7F894111105C0B7
:102260009C91ED2FE095E92302C0EC91ED2BEC93CE
:102270008FBFDF91CF911F910895CF93DF9390E0AF
:10228000FC01EF56FD4F2491FC01E55BFD4F84916D
:10229000882361F190E0880F991FFC01E350FE4F05
:1022A000C591D491FC01E95EFD4FA591B4916111F6
:1022B00009C09FB7F8948881209582238883EC9188
:1022C0002E230BC0623061F49FB7F8943881822FBF
:1022D000809583238883EC912E2B2C939FBF06C07F
:1022E0008FB7F894E8812E2B28838FBFDF91CF9191
:1022F00008958F929F92AF92BF92CF92DF92EF920A
:10230000FF926B017C010E9460104B015C01C114C3
:10231000D104E104F104F1F00E946010DC01CB0172
:1023200088199909AA09BB09883E9340A105B105FE
:1023300070F321E0C21AD108E108F10888EE880E96
:1023400083E0981EA11CB11CC114D104E104F10466
:1023500019F7DDCFFF90EF90DF90CF90BF90AF9057
:102360009F908F9008951F920F920FB60F92112495
:102370002F933F938F939F93AF93BF9380913D078C
:1023800090913E07A0913F07B091400730913C07E4
:1023900023E0230F2D3720F40196A11DB11D05C0A8
:1023A00026E8230F0296A11DB11D20933C078093C0
:1023B0003D0790933E07A0933F07B093400780915D
:1023C000410790914207A0914307B09144070196BD
:1023D000A11DB11D8093410790934207A09343072D
:1023E000B0934407BF91AF919F918F913F912F91EF
:1023F0000F900FBE0F901F9018958091C50590917A
:10240000C6050C94661A1092D6021092D50288EE78
:1024100093E0A0E0B0E08093D7029093D802A0931D
:10242000D902B093DA022BE032E03093D402209349
:10243000D3021092E2021092E1028093E3029093A1
:10244000E402A093E502B093E6022DE132E030937E
:10245000E0022093DF0245E351E05093EC02409309
:10246000EB0244E351E05093EE024093ED0240E36F
:1024700051E05093F0024093EF0241E351E050935A
:10248000F2024093F10242E351E05093F402409390
:10249000F30246E351E05093F6024093F5021092A6
:1024A000F8021092F9021092FA021092FB021092B6
:1024B0007F0310927E038093800390938103A09307
:1024C0008203B093830330937D0320937C0345ED17
:1024D00050E0509389034093880344ED50E05093BB
:1024E0008B0340938A0340ED50E050938D0340935B
:1024F0008C0341ED50E050938F0340938E0342EDE7
:1025000050E0509391034093900346ED50E0509378
:1025100093034093920310929503109296031092A6
:1025200097031092980310921C0410921B0480933E
:102530001D0490931E04A0931F04B09320043093B5
:102540001A042093190485EC90E09093260480935C
:10255000250484EC90E0909328048093270480EC79
:1025600090E090932A048093290481EC90E090936A
:102570002C0480932B0482EC90E090932E048093A3
:102580002D0486EC90E09093300480932F041092F9
:10259000320410923304109234041092350486E30E
:1025A0008093AF0687E38093B00688E38093B106FB
:1025B00089E38093B2068BE18093B3068DE180932B
:1025C000B4068AE18093B5068CE18093B60684E078
:1025D0008093B70687E08093B8061092B90684EB23
:1025E0008093BA0686E18093BB0688E18093BC069F
:1025F00087E18093BD0689E18093BE06E091C40522
:10260000EC3020F08FEF8093BF0610C081E08E0F7A
:102610008093C405E093BF0625E0E29FF0011124FA
:10262000E857FA4F88EB9BE092838183E091C405E1
:10263000EC3020F08FEF8093C00610C081E08E0F49
:102640008093C405E093C00685E0E89FF001112463
:10265000E857FA4F88EB9BE0928381838CE080936C
:102660008E0684E280938F0686E08093900685E054
:10267000809391068FE1809392068EE1809393067A
:1026800083E28093940682E28093950685E48093AA
:10269000960684E48093970680E480939A061092CD
:1026A0009F061092A0061092A1061092A206109208
:1026B000A3061092A4061092A5061092A606E0EDBD
:1026C000F5E08FEF9FEFDC011282138214821582F6
:1026D000168217821086118683879487A587B6870E
:1026E0008787908BA18BB28B128611821082739692
:1026F00026E0EE38F20741F78DE090E00E94D11914
:10270000FC01138212828FE292E091838083118612
:1027100087E2848384E1828784E083871486F09350
:10272000CD05E093CC051092CE051092CF0585E241
:102730008093B7041092B9041092C6051092C50593
:102740001092C8051092C7051092CA051092C905CB
:1027500061E070E080E090E00E94FE1A009789F04E
:102760009093C6058093C5051092C8051092C705C1
:102770002091C9053091CA05232BC1F4FC011082B8
:1027800015C08091C5059091C605009711F00E9473
:10279000661A1092C6051092C5051092CA051092CD
:1027A000C9051092C8051092C70508951092CA0570
:1027B0001092C90566E472E00C94F51B789484B518
:1027C000826084BD84B5816084BD85B5826085BD2D
:1027D00085B5816085BD80916E00816080936E00BB
:1027E00010928100809181008260809381008091AD
:1027F000810081608093810080918000816080935E
:1028000080008091B10084608093B1008091B0001D
:1028100081608093B00080919100826080939100EC
:1028200080919100816080939100809190008160FF
:10283000809390008091A10082608093A10080919C
:10284000A10081608093A1008091A00081608093AD
:10285000A00080912101826080932101809121015B
:10286000816080932101809120018160809320010B
:1028700080917A00846080937A0080917A008260EF
:1028800080937A0080917A00816080937A008091B1
:102890007A00806880937A001092C100E091290448
:1028A000F0912A0482E08083E0912504F0912604CF
:1028B0001082E0912704F09128048FEC808310921D
:1028C0003104E0912D04F0912E0486E08083E091A4
:1028D0002B04F0912C04808180618083E0912B0493
:1028E000F0912C04808188608083E0912B04F0912A
:1028F0002C04808180688083E0912B04F0912C046B
:1029000080818F7D808361E080918F060E943D11E0
:1029100060E080918F060E940D1160E080918E062C
:102920000E943D1183ED92E0909399068093980662
:102930001092AB021092AA021092B0021092D20230
:102940001092AE0281E08093AD021092AC0261E081
:1029500084E10E940D1161E085E10E940D118091DA
:10296000B9008E7F8093B9008091B9008D7F8093EC
:10297000B90088E48093B80085E48093BC0080E0CF
:1029800090E1A0E0B0E080939B0690939C06A0931A
:102990009D06B0939E068AE090E0A0E0B0E08093B0
:1029A0009F069093A006A093A106B093A20682E092
:1029B00090E0A0E0B0E08093A3069093A406A093DB
:1029C000A506B093A60660E070E185E00E94190BB1
:1029D0006FE979E380E00E94190BCBEAD6E0C12CC5
:1029E000D12CE12CF12C50E8652E52E0752E66ECCE
:1029F000862E62E0962E7BECA72E77E0B72EC701DD
:102A00008257994F2C01FC019481828186010257E3
:102A1000194FF801818F928F61E00E943D1161E0B2
:102A2000F801828D0E943D11F20190858681888394
:102A3000F801968F61E00E943D1160E0F801868DFB
:102A40000E943D1161E088810E940D111FB7F8942A
:102A500080913907811125C0F3018491F40194918B
:102A6000E82FF0E0EE0FFF1FE350FE4FA591B49169
:102A70008C91982321F461E085E30E940D1161E0BF
:102A800085E30E943D118CB580618CBD8CB580645E
:102A90008CBD61E084E30E943D1161E083E30E940C
:102AA0003D11809139078F5F809339071FBFC501A2
:102AB0000197F1F760E088810E940D1188E80E947B
:102AC000A40583E00E94A40561E088810E940D11A5
:102AD000C5010197F1F7CE010E94AB05F2E0CF0EE0
:102AE000D11C2296EA94EF2821F0EE24E394F12CF5
:102AF00086CFC3EBD6E01C2F1C5F60E089910E945B
:102B00003D111C13FACF02EC16E0CFEBD6E085E0C6
:102B1000C82E9CE0E92E22E0B22EDC2ED394D39472
:102B2000FE013897F08088818C3008F044C061E065
:102B30008F2D0E943D118881C89EF0011124E85715
:102B4000FA4F9F2D9F732081207CF22EF92AF0826C
:102B5000138214826E2D0E949E18ECE08E9FA001BD
:102B6000112420E030E0B901640F751FC69EF0010A
:102B7000C79EF00D1124E857FA4F908196FD12C0C0
:102B80002F5F3F4F2C30310571F781110BC0109230
:102B90008000B09281001092850010928400B6BA35
:102BA000B0926F00E881CE9EF0011124E857FA4FF1
:102BB000808180648083FE0134978081F8013197A1
:102BC0008083F801808360E00E943D1161E0F8019C
:102BD00080810E943D1160E0F80180810E940D110A
:102BE00021960E5F1F4FDC129BCF85E692E00E947C
:102BF000AE0A64EF71E080E090E00E9479111092DB
:102C00003B0710923A078BE692E00E94AE0A809151
:102C1000B3060E94E410892B09F0FCC08091B6062F
:102C20000E94E410892B09F408C16AE077ED83E083
:102C300090E40E94CA0840E75EEF60E070E08AE539
:102C400090E00E94F7066AE979E989ED9EE30E9427
:102C5000D80743EA52E061E070E08AE590E00E9424
:102C6000F70666E676E686EA9EE30E94D80743EA20
:102C700052E061E070E08AE590E00E94F70668EBC0
:102C80007EE185EC9EE30E94D8074FEA50E060E0C9
:102C900070E08AE590E00E94F70666E676E686E652
:102CA0009EE30E94D8074BED51E061E070E08DE2B9
:102CB00090E00E94F7066EEA77E481E09FE30E94CD
:102CC000D8074FEA50E060E070E08AE590E00E94AB
:102CD000F70666EF78E28CE19FE30E94D8074BEDA0
:102CE00051E061E070E08DE290E00E94F70661EE55
:102CF0007AE784ED9EE30E94D80740E050E061E06F
:102D000070E083E190E00E94F70666EF78E28CE3E2
:102D10009FE30E94D80742E553E061E070E084EB56
:102D200090E00E94F70661EE7AE784E39FE30E9459
:102D3000D80740E050E060E070E082E190E00E945F
:102D4000F70661EE7AE784ED9EE30E94D8074CE235
:102D500051E060E070E08DE290E00E94F7066FE8DD
:102D600072EC85E19FE30E94D80743EA52E061E0FC
:102D700070E08AE590E00E94F7066BE774E18EEE62
:102D80009EE30E94D8074CE251E060E070E08DE2E3
:102D900090E00E94F70666EF78E28CE59EE30E94E1
:102DA000D80743EA52E061E070E08AE590E00E94D3
:102DB000F7066CEE71E588EF9EE30E94D8074CE2BF
:102DC00051E060E070E08AE590E00E94F70666E678
:102DD00076E686EA9EE30E94D8074FEA50E060E07C
:102DE00070E08AE590E00E94F70663E373E383EF07
:102DF0009EE30E94D80746E252E061E070E08AE577
:102E000090E00E94F70668EB7EE185E190E40E9485
:102E1000CA0813C0C4E0D0E042E553E061E070E0CE
:102E200084EB90E00E94F70668EE73E080E090E0AB
:102E30000E947911219781F7F1CE8091B4060E940A
:102E4000E410892BC1F080913A0790913B070E94D2
:102E5000730CC0913A07D0913B07E297D0933B07A0
:102E6000C0933A0764E670E080E090E00E94791138
:102E7000CE010E94730C8091B5060E94E410892B4C
:102E800071F064E670E080E090E00E9479114CE21D
:102E900051E060E070E084EB90E00E94F7066AE0A9
:102EA00070E080E090E00E9479110E940402AFCEB1
:102EB0000E949A1708F481E00895E89409C097FBEE
:102EC0003EF490958095709561957F4F8F4F9F4F01
:102ED0009923A9F0F92F96E9BB279395F695879545
:102EE00077956795B795F111F8CFFAF4BB0F11F408
:102EF00060FF1BC06F5F7F4F8F4F9F4F16C08823AF
:102F000011F096E911C0772321F09EE8872F762FE4
:102F100005C0662371F096E8862F70E060E02AF025
:102F20009A95660F771F881FDAF7880F9695879511
:102F300097F90895990F0008550FAA0BE0E8FEEFE6
:102F400016161706E807F907C0F012161306E4076D
:102F5000F50798F0621B730B840B950B39F40A2666
:102F600061F0232B242B252B21F408950A2609F444
:102F7000A140A6958FEF811D811D08950E94D11754
:102F80000C9442180E94341838F00E943B1820F02C
:102F9000952311F00C942B180C94311811240C94D7
:102FA00076180E94531870F3959FC1F3950F50E067
:102FB000551F629FF001729FBB27F00DB11D639FEB
:102FC000AA27F00DB11DAA1F649F6627B00DA11D91
:102FD000661F829F2227B00DA11D621F739FB00D37
:102FE000A11D621F839FA00D611D221F749F3327A7
:102FF000A00D611D231F849F600D211D822F762F40
:103000006A2F11249F5750409AF0F1F088234AF01C
:10301000EE0FFF1FBB1F661F771F881F9150504088
:10302000A9F79E3F510580F00C942B180C9476184C
:103030005F3FE4F3983ED4F3869577956795B7950F
:10304000F795E7959F5FC1F7FE2B880F911D969529
:10305000879597F9089597F99F6780E870E060E099
:1030600008959FEF80EC089500240A941616170621
:1030700018060906089500240A9412161306140669
:1030800005060895092E0394000C11F4882352F0CC
:10309000BB0F40F4BF2B11F460FF04C06F5F7F4F84
:1030A0008F4F9F4F089557FD9058440F551F59F06B
:1030B0005F3F71F04795880F97FB991F61F09F3F25
:1030C00079F087950895121613061406551FF2CF4E
:1030D0004695F1DF08C0161617061806991FF1CF9E
:1030E00086957105610508940895E894BB276627C5
:1030F0007727CB0197F90895A1E21A2EAA1BBB1BD3
:10310000FD010DC0AA1FBB1FEE1FFF1FA217B307B3
:10311000E407F50720F0A21BB30BE40BF50B661FC9
:10312000771F881F991F1A9469F76095709580958D
:1031300090959B01AC01BD01CF010895991B79E0E9
:1031400004C0991F961708F0961B881F7A95C9F737
:1031500080950895EE0FFF1F881F8BBF0790F69193
:10316000E02D19945058BB27AA270E94CA180C9426
:1031700042180E94341838F00E943B1820F039F4AD
:103180009F3F19F426F40C9431180EF4E095E7FBF8
:103190000C942B18E92F0E94531858F3BA176207A2
:1031A00073078407950720F079F4A6F50C94751839
:1031B0000EF4E0950B2EBA2FA02D0B01B901900152
:1031C0000C01CA01A0011124FF27591B99F0593F96
:1031D00050F4503E68F11A16F040A22F232F342FDE
:1031E0004427585FF3CF469537952795A795F0402C
:1031F0005395C9F77EF41F16BA0B620B730B840B41
:10320000BAF09150A1F0FF0FBB1F661F771F881FF8
:10321000C2F70EC0BA0F621F731F841F48F4879550
:1032200077956795B795F7959E3F08F0B0CF939542
:10323000880F08F09927EE0F9795879508950E94BB
:1032400033190C9442180E943B1858F00E9434180D
:1032500040F029F45F3F29F00C942B1851110C9485
:1032600076180C9431180E94531868F39923B1F31F
:10327000552391F3951B550BBB27AA27621773079C
:10328000840738F09F5F5F4F220F331F441FAA1F30
:10329000A9F335D00E2E3AF0E0E832D091505040EC
:1032A000E695001CCAF72BD0FE2F29D0660F771F9A
:1032B000881FBB1F261737074807AB07B0E809F080
:1032C000BB0B802DBF01FF2793585F4F3AF09E3F05
:1032D000510578F00C942B180C9476185F3FE4F3AA
:1032E000983ED4F3869577956795B795F7959F5F48
:1032F000C9F7880F911D9695879597F90895E1E094
:10330000660F771F881FBB1F621773078407BA07F2
:1033100020F0621B730B840BBA0BEE1F88F7E0954D
:1033200008950E9498196894B1110C947618089524
:103330000E945B1888F09F5798F0B92F9927B751D2
:10334000B0F0E1F0660F771F881F991F1AF0BA9549
:10335000C9F714C0B13091F00E947518B1E008951A
:103360000C947518672F782F8827B85F39F0B93F0C
:10337000CCF3869577956795B395D9F73EF49095FC
:103380008095709561957F4F8F4F9F4F08950E9454
:103390009A1708F48FEF08950E949A17880B990BDB
:1033A0000895CF93DF938230910510F482E090E08E
:1033B000E0914707F091480720E030E0C0E0D0E01E
:1033C000309711F14081518148175907C0F04817D3
:1033D000590761F482819381209719F09B838A8336
:1033E0002BC0909348078093470726C021153105CD
:1033F00019F04217530718F49A01BE01DF01EF01DB
:103400000280F381E02DDCCF2115310509F1281B65
:10341000390B2430310590F412968D919C911397BD
:103420006115710521F0FB019383828304C09093A1
:10343000480780934707FD01329644C0FD01E20F23
:10344000F31F81939193225031092D933C933AC0FD
:103450002091450730914607232B41F42091030228
:1034600030910402309346072093450720910102D2
:10347000309102022115310541F42DB73EB740913C
:10348000050250910602241B350BE0914507F0918F
:103490004607E217F307A0F42E1B3F0B2817390746
:1034A00078F0AC014E5F5F4F2417350748F04E0FA0
:1034B0005F1F50934607409345078193919302C045
:1034C000E0E0F0E0CF01DF91CF9108950F931F93DB
:1034D000CF93DF93009709F48CC0FC0132971382DD
:1034E000128200914707109148070115110581F4D8
:1034F00020813181820F931F20914507309146072B
:103500002817390779F5F0934607E093450771C00E
:10351000D80140E050E0AE17BF0750F412962D914D
:103520003C911397AD012115310509F1D901F3CF74
:103530009D01DA013383228360817181860F971F99
:103540008217930769F4EC0128813981260F371F10
:103550002E5F3F4F318320838A819B8193838283B7
:10356000452B29F4F0934807E093470742C0139690
:10357000FC93EE931297ED01499159919E01240F0E
:10358000351FE217F30771F480819181840F951F35
:10359000029611969C938E938281938113969C93AD
:1035A0008E931297E0E0F0E0D80112968D919C91F5
:1035B0001397009719F0F8018C01F6CF8D919C912B
:1035C00098012E5F3F4F820F931F20914507309146
:1035D00046072817390769F4309729F410924807ED
:1035E0001092470702C0138212821093460700937D
:1035F0004507DF91CF911F910F9108956F927F92B0
:103600008F929F92AF92BF92CF92DF92EF92FF92F2
:103610000F931F93CF93DF93EC01009789F4CB01B5
:10362000DF91CF911F910F91FF90EF90DF90CF909E
:10363000BF90AF909F908F907F906F900C94D11916
:10364000FC01E60FF71F9C0122503109E217F30736
:1036500008F4ACC0D9010D911C91119706171707FA
:10366000B0F00530110508F49FC0C8010497861713
:10367000970708F499C002501109061B170B019314
:1036800011936D937C93CF010E94661A8DC05B01EC
:10369000A01AB10A4C01800E911EA0914707B0916B
:1036A000480740E050E0E12CF12C109709F44AC0A3
:1036B000A815B905D1F56D907C901197630182E052
:1036C000C80ED11CCA14DB0480F1A3014A195B099E
:1036D0006A0182E0C80ED11C1296BC901297139614
:1036E000AC91B5E0CB16D10440F0B282A3835183F4
:1036F0004083D9016D937C930AC00E5F1F4FC301B5
:10370000800F911FF90191838083EB2DFA2FE11433
:10371000F10431F0D7011396FC93EE93129744C055
:10372000F0934807E09347073FC08D919C91119714
:103730004817590708F4AC017D0112960D90BC9111
:10374000A02DB3CF80914507909146078815990524
:10375000E1F446175707C8F48091010290910202E4
:10376000009741F48DB79EB7409105025091060233
:10377000841B950BE817F907C8F4F0934607E0930C
:103780004507F901718360830FC0CB010E94D119F5
:103790007C01009759F0A801BE010E94EC1BCE01EC
:1037A0000E94661AC70104C0CE0102C080E090E00A
:1037B000DF91CF911F910F91FF90EF90DF90CF900D
:1037C000BF90AF909F908F907F906F90089581E011
:1037D00090E0F8940C94FC1BFB01DC0102C001900A
:1037E0000D9241505040D8F70895FB01DC01019043
:1037F0000D920020E1F7089511E0C0E9D1E000E06A
:1038000006C0802FFE010E94AA182196011DC13911
:0C381000D10780E00807A9F7F894FFCF6B
:10381C00FF00004907200000000000B510851032A1
:10382C00028D0A0210EE0F8E0A00000000D503086C
:10383C000EC4011C04F501D301E701000000007661
:10384C0003080E320231022D2D2D2D2D2D2D2D2D57
:10385C002D2D2D000D0A0056697465737365206D4E
:10386C006F74657572203A20006E616E00696E6629
:10387C00006F76660048656C6C6F00474F21000046
:00000001FF
