:100000000C9491010C94C2010C94C2010C94C20195
:100010000C94C2010C94C2010C94C2010C94C20154
:100020000C94C2010C9419100C9419100C94191012
:100030000C94C2010C941C030C94C2010C94C201D8
:100040000C94C2010C94DF060C94C2010C94C20102
:100050000C94C2010C94C2010C94C2010C942412A1
:100060000C94C2010C948D040C9463040C94C20192
:100070000C94C2010C94C2010C94C2010C94C201F4
:100080000C94C2010C94C2010C94C2010C94C201E4
:100090000C94C2010C94C2010C94C2010C94231064
:1000A0000C94C2010C94C2010C94C2010C94C201C4
:1000B0000C94C2010C94C2010C94C2010C94B704BC
:1000C0000C94C2010C94C2010C94C2010C9439042A
:1000D0000C940F040C94C2010C94E5030C94BB0324
:1000E0000C94C20126062B0630063A064406BD06CD
:1000F0004E0656065E06680672067C068B06950658
:10010000BD069F06A906B306B90FBC0FAB0FAF0F14
:10011000B50FF30FC00FC40FCA0FCE0FD20FD80FF9
:10012000DC0FE00FF30FE60FEA0FEE0F0C94E60F73
:100130000C9417020C941A0F0C942B020C94CB0203
:100140000C9495060C948B060C9475050C94B90FC1
:100150000C942B060C9468060C94CA0F0C94C00FD8
:100160000C94BD060C943A060C94EA0F0C945E06AF
:100170000C94BC0F0C9426060C94C4010C946F0FC5
:100180000C9430060C94280F0C9476050C943902CC
:100190000C94C40F0C94CE0F0C945C170C94DC0FD1
:1001A0000C94F30F0C94AF0F0C9456060C94AB0FF9
:1001B0000C94A1050C94D20F0C94D80F0C94B30698
:1001C0000C9408020C94190F0C94E00F0C94840208
:1001D0000C9472060C94370F0C943F0F0C944E063F
:1001E0000C94B50F0C94EE0F0C947C060C945617DF
:1001F0000C9444060C949F060C94A906020000215E
:1002000000240027002A002D0030003300010100E7
:1002100000040107010A0100002200250028002B2C
:10022000002E003100340002010000050108010B1E
:1002300001000020002300260029002C002F00329E
:10024000000001000003010601090105050505077D
:100250000508080808020202020A0A080804040441
:10026000040101010101010101030303030303036D
:1002700003040707070C0C0C0C0C0C0C0C020202FC
:100280000206060606060606060B0B0B0B0B0B0BEF
:100290000B0102102020080810204010204080028E
:1002A00001020108040201010204081020408080BC
:1002B0004020100804020180040201804020100840
:1002C0000402010804020101020408102040800118
:1002D0000204081020408000000A0B02090C0D0ED9
:1002E00008070304010000000000000000000000F7
:1002F00000000000000000000000000000000000FE
:1003000000000012111000000000000000000000BA
:1003100000000000000000000000000000005C176A
:10032000561711241FBECFEFD1E2DEBFCDBF00E0D4
:100330000CBF12E0A0E0B2E0EAEDFBE300E00BBF8F
:1003400002C007900D92A836B107D9F727E0A8E6BA
:10035000B2E001C01D92A830B207E1F711E0C0E998
:10036000D1E000E006C021970109802FFE010E9424
:10037000891ACF38D10780E00807A9F70E94DC135B
:100380000C94DB1D0C940000CF92DF92EF92FF9251
:100390000F931F93CF93DF936C017A018B01C0E021
:1003A000D0E0CE15DF0589F0D8016D918D01D60121
:1003B000ED91FC910190F081E02DC6011995892BFA
:1003C00011F47E0102C02196ECCFC701DF91CF91DD
:1003D0001F910F91FF90EF90DF90CF900895FC0157
:1003E000A089B1898C91A689B78982FD0FC09C91A3
:1003F000818D8F5F8F73228D821749F0218DDF01F0
:10040000A20FB11D5D969C93818F08958C910895E4
:10041000FC01538D448D252F30E0842F90E0821B0A
:10042000930B541710F0CF96089501970895FC018F
:10043000918D828D981761F0828DDF01A80FB11D1B
:100440005D968C91928D9F5F9F73928F90E008953F
:100450008FEF9FEF0895FC01918D828D981731F0F9
:10046000828DE80FF11D858D90E008958FEF9FEF4D
:100470000895FC01918D228D892F90E0805C9F4F23
:10048000821B91098F73992708958EE193E00E9452
:10049000390221E0892B09F420E0822F08958BEBAB
:1004A00093E00E94390221E0892B09F420E0822F99
:1004B000089588E594E00E94390221E0892B09F42F
:1004C00020E0822F0895FC01848DDF01A80FB11D6B
:1004D000A35ABF4F2C91848D90E001968F7399277A
:1004E000848FA689B7892C93A089B1898C91806467
:1004F0008C93938D848D981306C00288F389E02D28
:1005000080818F7D80830895EF92FF920F931F93D8
:10051000CF93DF93EC0181E0888F9B8D8C8D9813B6
:1005200005C0E889F989808185FD24C0F62E0B8DF0
:1005300010E00F5F1F4F0F731127E02E8C8DE81214
:100540000CC00FB607FCFACFE889F989808185FFD6
:10055000F5CFCE010E946302F1CF8B8DFE01E80F33
:10056000F11DE35AFF4FF0820B8FEA89FB898081EE
:10057000806207C0EE89FF896083E889F9898081FC
:100580008064808381E090E0DF91CF911F910F9193
:10059000FF90EF900895CF93DF93EC01888D88232F
:1005A000C9F0EA89FB89808185FD05C0A889B989E0
:1005B0008C9186FD0FC00FB607FCF5CF808185FFBB
:1005C000F2CFA889B9898C9185FFEDCFCE010E9429
:1005D0006302E7CFDF91CF91089580E090E0892B0F
:1005E00021F00E945902811119C080E090E0892B0E
:1005F00041F080E090E0892B21F00E940000811101
:1006000010C00E944F0281110FC080E090E0892B42
:1006100081F00E94450281110AC008950E940000E5
:10062000E4CF0E940000EDCF0E94E60AEECF0C94CA
:10063000000008950E94C61D1F920F920FB60F92E0
:1006400011240BB60F922F933F934F935F936F93A9
:100650007F938F939F93AF93BF93EF93FF9380917B
:100660006B0290916C02A0916D02B0916E02892B89
:100670008A2B8B2B59F180916A02E0916802F091EC
:10068000690290818927808380916B0290916C022E
:10069000A0916D02B0916E02181619061A061B067B
:1006A0000CF056C080916B0290916C02A0916D028B
:1006B000B0916E020197A109B10980936B029093EA
:1006C0006C02A0936D02B0936E0242C08091000252
:1006D000ECEFF1E0E4919FEF90930002E230C9F07B
:1006E00050F4EE2399F0E13081F590916F009D7FF9
:1006F00090936F002AC0E43019F1E0F0E53029F55D
:10070000909173009D7F909373001FC010926E00B4
:100710001CC0909170009D7F9093700091E0909329
:10072000B0009091B100987F94609093B1001092C6
:10073000B3000BC0909171009D7F9093710005C034
:10074000909172009D7F9093720060E00E947E11F4
:10075000FF91EF91BF91AF919F918F917F916F9199
:100760005F914F913F912F910F900BBE0F900FBE55
:100770000F901F9018951F920F920FB60F92112491
:100780000BB60F922F933F934F935F936F937F938B
:100790008F939F93AF93BF93EF93FF938EE193E07B
:1007A0000E946302FF91EF91BF91AF919F918F9152
:1007B0007F916F915F914F913F912F910F900BBE61
:1007C0000F900FBE0F901F9018951F920F920FB6AB
:1007D0000F9211240BB60F922F933F934F935F9379
:1007E0006F937F938F939F93AF93BF93EF93FF93F9
:1007F0008EE193E00E94EF01FF91EF91BF91AF91E5
:100800009F918F917F916F915F914F913F912F9128
:100810000F900BBE0F900FBE0F901F9018951F9258
:100820000F920FB60F9211240BB60F922F933F9396
:100830004F935F936F937F938F939F93AF93BF93E8
:10084000EF93FF938BEB93E00E946302FF91EF9194
:10085000BF91AF919F918F917F916F915F914F91D8
:100860003F912F910F900BBE0F900FBE0F901F90D6
:1008700018951F920F920FB60F9211240BB60F927C
:100880002F933F934F935F936F937F938F939F9398
:10089000AF93BF93EF93FF938BEB93E00E94EF0135
:1008A000FF91EF91BF91AF919F918F917F916F9148
:1008B0005F914F913F912F910F900BBE0F900FBE04
:1008C0000F901F9018951F920F920FB60F92112440
:1008D0000BB60F922F933F934F935F936F937F933A
:1008E0008F939F93AF93BF93EF93FF9388E594E02B
:1008F0000E946302FF91EF91BF91AF919F918F9101
:100900007F916F915F914F913F912F910F900BBE0F
:100910000F900FBE0F901F9018951F920F920FB659
:100920000F9211240BB60F922F933F934F935F9327
:100930006F937F938F939F93AF93BF93EF93FF93A7
:1009400088E594E00E94EF01FF91EF91BF91AF9194
:100950009F918F917F916F915F914F913F912F91D7
:100960000F900BBE0F900FBE0F901F9018951F9207
:100970000F920FB60F9211240BB60F922F933F9345
:100980004F935F936F937F938F939F93AF93BF9397
:10099000EF93FF938091F6040E9455112091FA0481
:1009A0003091FB042F5F3F4F3093FB042093FA04F8
:1009B0009091F904953618F096E09093F504909193
:1009C000F5049430C9F128F4923069F09330D1F0F5
:1009D0005EC0953009F451C0963009F058C091E0DE
:1009E0009093C60551C0811152C02091FA043091F4
:1009F000FB042436310508F442C01092C60510925B
:100A0000F9041CC0813009F042C0E091F90491E082
:100A10009E0F9093F904F0E02091FA043091FB04CA
:100A2000EE0FFF1FEB50FB4F308727831092FB0424
:100A30001092FA0494E029C0811117C0E091F904E2
:100A400091E09E0F9093F904F0E02091FA04309128
:100A5000FB04EE0FFF1FEB50FB4F308727831092F4
:100A6000FB041092FA0493E010C02091FA04309134
:100A7000FB042536310558F007C0811108C01092DB
:100A8000FB041092FA0403C095E09093F504909152
:100A9000F8049923B9F081110AC08091F7048823E2
:100AA00021F08091F70461E009C02F9A0BC080917A
:100AB000F704882331F08091F70460E00E947E11F2
:100AC00001C02F98FF91EF91BF91AF919F918F91AE
:100AD0007F916F915F914F913F912F910F900BBE3E
:100AE0000F900FBE0F901F901895089580E090E032
:100AF0000895FC01248131E03093EE02209310032D
:100B00001092EF02109211038485682B82E193E02A
:100B10000E946F0F0C948E120F931F93CF938C0132
:100B2000C62F64600E9479056C2F6B7FC8010E94FC
:100B3000790583EC90E00197F1F7CF911F910F9128
:100B400008950F931F93CF93DF938C01C62FD62F59
:100B5000D07FD1606D2F0E9479056D2FC8010E9452
:100B60008C0580E1C89FB0011124C62FC1606C2F95
:100B7000C8010E9479056C2FC8010E948C0581E094
:100B800090E0DF91CF911F910F9108958F929F92E6
:100B9000AF92BF92CF92DF92EF92FF920F931F938B
:100BA000CF93DF93EC016A017B0120E030E04FE757
:100BB00053E4C701B6010E949D194B015C0120E07E
:100BC00030E0A9010E94A61B18161CF4C501B4014F
:100BD00003C0C501B40190580E94701B8B0120E036
:100BE00030E0A901C701B6010E94A61B181614F433
:100BF00060E001C061E089810E947E110F3F110514
:100C000009F014F4112702C00FEF10E0C88161E071
:100C10008C2F0E94AE110115110509F4B1C00F3FD0
:100C2000110509F4AFC0EC2FF0E0E952FD4FE4915B
:100C30004E2F50E0FA013197E231F10508F09DC0E6
:100C40008827EE58FF4F8F4F0C94891A84B580681F
:100C500084BD07BDA7C084B5806284BD08BDA2C0A5
:100C600080918000806880938000109389000093B9
:100C7000880098C0809180008062809380001093EB
:100C80008B0000938A008EC08091800088608093E2
:100C9000800010938D0000938C0084C08091B00080
:100CA00080688093B0000093B3007CC08091B00056
:100CB00080628093B0000093B40074C08091900073
:100CC00080688093900010939900009398006AC008
:100CD0008091900080628093900010939B0000931D
:100CE0009A0060C08091900088608093900010937B
:100CF0009D0000939C0056C08091A0008068809366
:100D0000A0008091A0008F7B8093A0001093A90089
:100D10000093A80047C08091A00080628093A0004B
:100D20001093AB000093AA003DC08091A0008860A2
:100D30008093A0001093AD000093AC0033C080916D
:100D400020018068809320011093290100932801DD
:100D500029C08091200180628093200110932B0193
:100D600000932A011FC08091200188608093200198
:100D700010932D0100932C0115C00038110514F4B7
:100D800060E001C061E08C2FDF91CF911F910F9146
:100D9000FF90EF90DF90CF90BF90AF909F908F909B
:100DA0000C947E11DF91CF911F910F91FF90EF90E6
:100DB000DF90CF90BF90AF909F908F9008951F923B
:100DC0000F920FB60F9211240BB60F922F933F93F1
:100DD0004F935F936F937F938F939F93AF93BF9343
:100DE000EF93FF938091720287FF05C010928500F8
:100DF0001092840016C020917202022E000C330B58
:100E00008091030690E0281739075CF43091720254
:100E100025E03203F0011124E953FA4F808186FD69
:100E200015C0809172028F5F8093720220917202CE
:100E3000022E000C330B8091030690E0281739072F
:100E400094F4809172028C302CF10DC030917202BA
:100E50003203F0011124E953FA4F808160E08F736F
:100E60000E947E11DECF80918400909185008434B1
:100E70009C4918F480E49CE905C08091840090911D
:100E80008500049690938900809388008FEF80936B
:100E900072022AC040918400509185003091720204
:100EA00025E03203F0011124E953FA4F8181928148
:100EB000840F951F9093890080938800309172026F
:100EC0003203F0011124E953FA4F808186FF0CC0F0
:100ED000309172023203F0011124E953FA4F8081FC
:100EE00061E08F730E947E11FF91EF91BF91AF91EE
:100EF0009F918F917F916F915F914F913F912F9132
:100F00000F900BBE0F900FBE0F901F9018958EBDC7
:100F100000000DB407FEFDCF8EB50895CF93DF938B
:100F2000EC0160E088810E947E1188E90E948707B9
:100F300080E00E94870780E00E94870780E00E948F
:100F4000870780E00E94870761E088810E947E1108
:100F50008BE891E00197F1F760E088810E947E11B3
:100F600080EE0E94870761E08881DF91CF910C9429
:100F70007E11AF92BF92CF92DF92EF92FF920F93CA
:100F80001F93CF93DF93CDB7DEB760970FB6F8947A
:100F9000DEBF0FBECDBF5C0160E0FC0180810E941E
:100FA0007E1180E60E9487078E010F5F1F4F7E0132
:100FB000F1E1EF0EF11C680180E00E94870790E0EC
:100FC000A0E0B0E0F60181939193A193B1936F01FA
:100FD000EE15FF0589F761E0F50180810E947E1121
:100FE00080E090E0DC01F8014191519161917191B3
:100FF0008F01BA2FA92F982F8827840F951FA61F1E
:10100000B71FEE15FF0579F79C01AD01662777271D
:10101000CB01621B730B840B950B60960FB6F89493
:10102000DEBF0FBECDBFDF91CF911F910F91FF901B
:10103000EF90DF90CF90BF90AF9008954F925F9266
:101040006F927F928F929F92AF92BF92CF92DF92D8
:10105000EF92FF92CF93DF93CDB7DEB760970FB6D5
:10106000F894DEBF0FBECDBF7C015B013A010E9448
:10107000E90AB701FF0C880B990B0E943E1920E08A
:1010800030E044EB53E40E94FE1A9B01AC010E9445
:10109000921A2BED3FE049E450E40E949D1920E0B4
:1010A00030E040E151E40E949D1920E030E048EC3E
:1010B00052E40E94FE1A23E535EB47E75EE30E9407
:1010C000FE1A20E030E048E455E40E949D190E9499
:1010D000701B6B017C012B01CB010E94AB13AA9406
:1010E000AB28C9F48DEC9CECACE4BEEB8D839E8305
:1010F000AF83B887812C912C5401C12CD12C76015F
:10110000461857089201550C440B550B29873A870E
:101110004B875C8720C0A30177FE02C04F5F5F4F03
:10112000559547954C195D09CA01550FAA0BBB0B84
:101130008D839E83AF83B887812C912C5401C12C61
:10114000D12C76019DEC492E9CEC592E9CE4692E05
:101150009EE3792EDEC089859A85AB85BC85C8164D
:10116000D906EA06FB060CF0BEC081E492E00E94BC
:1011700080124D815E816F817885705888EE96E08F
:101180000E94C6054DEC5CEC6CE47EE386EE96E0D6
:101190000E94C6056AE070E080E090E00E94EA11DB
:1011A0008AEE96E00E94B90769837A838B839C83D9
:1011B0008CEE96E00E94B9072B013C01C701B601F5
:1011C0000E943E196B017C0169817A818B819C812F
:1011D00090958095709561957F4F8F4F9F4F0E949E
:1011E0003E199B01AC01C701B6010E94921A0E94F0
:1011F000701B6B017C01C501B4010E943E194B01BB
:101200005C01C301B2010E943E199B01AC01C50102
:10121000B4010E94921A0E94701B4B015C010E9453
:101220007E13C701B6010E947E138AEE96E00E94EB
:10123000B9072B013C018CEE96E00E94B907698347
:101240007A838B839C8366277727CB016419750982
:10125000860997090E943E192B013C0169817A8118
:101260008B819C810E943E199B01AC01C301B2019C
:101270000E94921A29E832ED4EE55AE30E949D1928
:101280002B013C01C701B601680D791D8A1D9B1D0C
:101290000E943E192CEA35EC47E258E30E949D1962
:1012A00020E030E0A9010E94921A9B01AC01C30129
:1012B000B2010E94921A2D813E814F8158850E9471
:1012C000911A6D877E878F87988B0E94E90A6D85BA
:1012D0007E858F8598899B01AC0150582D833E8374
:1012E0004F83588738CF60960FB6F894DEBF0FBE95
:1012F000CDBFDF91CF91FF90EF90DF90CF90BF9067
:10130000AF909F908F907F906F905F904F900C94D4
:10131000F90A8D819E81AF81B8858C159D05AE053A
:10132000BF050CF74DEC5CEC6CE47EEB86EE96E0D2
:101330000E94C605B301A201705888EE96E00E9493
:10134000C6056AE070E080E090E00E94EA118AEE53
:1013500096E00E94B90769837A838B839C838CEE25
:1013600096E00E94B90769877A878B879C87C701B7
:10137000B6010E943E196B017C0169817A818B81E3
:101380009C8190958095709561957F4F8F4F9F4F71
:101390000E943E199B01AC01C701B6010E94921A3E
:1013A0000E94701B6B017C01C501B4010E943E19B3
:1013B0004B015C0169857A858B859C850E943E196D
:1013C0009B01AC01C501B4010E94921A0E94701BDE
:1013D0004B015C010E947E13C701B6010E947E137F
:1013E0008AEE96E00E94B90769837A838B839C8397
:1013F0008CEE96E00E94B90769877A878B879C8775
:1014000069817A818B819C81909580957095619599
:101410007F4F8F4F9F4F0E943E199B01AC01505848
:1014200029833A834B835C8369857A858B859C8588
:101430000E943E199B01AC0169817A818B819C815C
:101440000E94911A29E832ED4EE55AE30E949D1957
:1014500069837A838B839C8388279927DC018C1985
:101460009D09AE09BF09BC01CD01681979098A0936
:101470009B090E943E192CEA35EC47E258E30E9492
:101480009D1920E030E0A9010E94921A9B01AC0155
:1014900069817A818B819C810E94921A9B01AC01A7
:1014A000C301B2010E94921A2B013C010E94E90A79
:1014B00030CF4F925F926F927F928F929F92AF92B6
:1014C000BF92CF92DF92EF92FF920F931F93CF9331
:1014D000DF93CDB7DEB72C970FB6F894DEBF0FBE03
:1014E000CDBF6D837E838F83988749015A01670141
:1014F00078018AEE96E00E94B9072B013C018CEE40
:1015000096E00E94B90769837A838B839C83662760
:101510007727CB0164197509860997090E943E193E
:101520002B013C0169817A818B819C810E943E194B
:101530009B01AC01C301B2010E94911A29E832ED6E
:101540004EE55AE30E949D192B013C01C501B401EF
:101550006C197D098E099F090E943E192CEA35EC11
:1015600047E258E30E949D1920E030E0A9010E9463
:10157000921A9B01AC01C301B2010E94921A2D8103
:101580003E814F8158850E94921A69877A878B879E
:101590009C870E94E90A69857A858B859C852C96B3
:1015A0000FB6F894DEBF0FBECDBFDF91CF911F9174
:1015B0000F91FF90EF90DF90CF90BF90AF909F90F2
:1015C0008F907F906F905F904F900895E0E0F0E0F3
:1015D00019948AEE96E00E94B9078AEE96E00E947E
:1015E0008E078CEE96E00E94B9078CEE96E00C9484
:1015F0008E0740E050E0BA0186EE96E00E94C605F4
:1016000040E050E060E070E888EE96E00E94C60599
:101610008AEE96E00E94B9078AEE96E00E948E0755
:101620008CEE96E00E94B9078CEE96E00C948E0743
:101630004F925F926F927F928F929F92AF92BF92E2
:10164000CF92DF92EF92FF920F931F93CF93DF938E
:10165000CDB7DEB764970FB6F894DEBF0FBECDBF2F
:1016600023E535EB47E75EE30E94FE1A20E030E019
:1016700048E455E40E949D190E94701B9B01AC0137
:101680002C5D35404109510929873A874B875C8792
:101690001D821E821F82188619821A821B821C825A
:1016A0008AE0882E87ED982E83E2A82E8CE3B82E50
:1016B0002401350189819A81AB81BC8129853A85D4
:1016C0004B855C8582179307A407B5070CF08BC088
:1016D000B301A20186EE96E00E94C605B501A40101
:1016E000705888EE96E00E94C60562E370E080E0E4
:1016F00090E00E94EA118AEE96E00E94B9076D8799
:101700007E878F87988B8CEE96E00E94B907698B55
:101710007A8B8B8B9C8B69817A818B819C810E94D7
:101720003E196B017C016D857E858F85988990952A
:101730008095709561957F4F8F4F9F4F0E943E1906
:101740009B01AC01C701B6010E94921A0E94701B56
:1017500069837A838B839C836D817E818F81988559
:101760000E943E196B017C0169897A898B899C8969
:101770000E943E199B01AC01C701B6010E94921A5A
:101780000E94701B6D837E838F8398877B018C0101
:1017900029813A814B815C81C501B4010E94590ABB
:1017A0004B015C010E94E90A2DEC3CEC4CEC5EE341
:1017B000C301B2010E94371987FF7CCF2FE832ECBA
:1017C00045EF5CE3C301B2010E94921A2B013C0178
:1017D0002FE832EC45EF5CE3C501B4010E94921A98
:1017E0004B015C0167CF1D821E821F821886198201
:1017F0001A821B821C828AEE96E00E94B9076987D2
:101800007A878B879C878CEE96E00E94B9076D875C
:101810007E878F87988B69817A818B819C810E94DA
:101820003E196B017C0169857A858B859C85909535
:101830008095709561957F4F8F4F9F4F0E943E1905
:101840009B01AC01C701B6010E94921A0E94701B55
:1018500069837A838B839C836D817E818F81988558
:101860000E943E196B017C016D857E858F8598896C
:101870000E943E199B01AC01C701B6010E94921A59
:101880000E94701B6D837E838F8398877B018C0100
:1018900029813A814B815C81C501B4010E94590ABA
:1018A0004B015C010E94E90A2DEC3CEC4CEC5DE341
:1018B000C301B2010E94A61B18160CF52DEC3CECDE
:1018C0004CE45DE3C301B2010E94911A2B013C017B
:1018D0002DEC3CEC4CE45DE3C501B4010E94911A8F
:1018E0004B015C01B301A20186EE96E00E94C605A1
:1018F000B501A401705888EE96E00E94C60564E622
:1019000070E080E090E00E94EA1189819A81AB81C9
:10191000BC818D3D9540A105B1050CF46CCF64965A
:101920000FB6F894DEBF0FBECDBFDF91CF911F91F0
:101930000F91FF90EF90DF90CF90BF90AF909F906E
:101940008F907F906F905F904F900C94F90A4F9218
:101950005F926F927F928F929F92AF92BF92CF923F
:10196000DF92EF92FF920F931F93CF93DF93CDB748
:10197000DEB764970FB6F894DEBF0FBECDBF23E588
:1019800035EB47E75EE30E94FE1A20E030E048E4D2
:1019900055E40E949D190E94701B9B01AC013951B6
:1019A000410951092D833E834F83588719861A8632
:1019B0001B861C8619821A821B821C828AE0482E92
:1019C00087ED582E83E2682E8CE3782E5301420176
:1019D00089819A81AB81BC812D813E814F8158855F
:1019E00082179307A407B5070CF08BC0B501A401BB
:1019F00086EE96E00E94C605B301A201705888EEFB
:101A000096E00E94C60562E370E080E090E00E94EC
:101A1000EA118AEE96E00E94B9076D877E878F876C
:101A2000988B8CEE96E00E94B907698B7A8B8B8B32
:101A30009C8B69817A818B819C810E943E196B010C
:101A40007C016D857E858F859889909580957095B0
:101A500061957F4F8F4F9F4F0E943E199B01AC01B4
:101A6000C701B6010E94921A0E94701B69837A8393
:101A70008B839C8369857A858B859C850E943E1922
:101A80006B017C0169897A898B899C890E943E1946
:101A90009B01AC01C701B6010E94921A0E94701B03
:101AA00069877A878B879C877B018C0129813A81A2
:101AB0004B815C81C301B2010E94590A2B013C0198
:101AC0000E94E90A26E636E646E65FE3C501B40170
:101AD0000E94371987FF7CCF2FE832EC45EF5CE39B
:101AE000C501B4010E94921A4B015C012FE832EC4F
:101AF00045EF5CE3C301B2010E94921A2B013C0145
:101B000067CFBC01CD010E947E1319861A861B8601
:101B10001C8619821A821B821C828AEE96E00E9421
:101B2000B9076D837E838F8398878CEE96E00E9441
:101B3000B9076D877E878F87988B69817A818B81C2
:101B40009C810E943E196B017C016D817E818F8199
:101B5000988590958095709561957F4F8F4F9F4F99
:101B60000E943E199B01AC01C701B6010E94921A66
:101B70000E94701B69837A838B839C8369857A8535
:101B80008B859C850E943E196B017C016D857E854D
:101B90008F8598890E943E199B01AC01C701B6014F
:101BA0000E94921A0E94701B69877A878B879C8794
:101BB0007B018C0129813A814B815C81C301B20197
:101BC0000E94590A2B013C010E94E90A20E030E002
:101BD00040E85EE3C501B4010E94A61B18160CF58F
:101BE0002DEC3CEC4CE45DE3C501B4010E94911A7C
:101BF0004B015C012DEC3CEC4CE45DE3C301B20114
:101C00000E94911A2B013C01B501A40186EE96E0D9
:101C10000E94C605B301A201705888EE96E00E94AA
:101C2000C60562E370E080E090E00E94EA1187E47C
:101C300092E00E946E12A5019401C501B4010E94B8
:101C4000AB1B882319F089E592E01AC07501640185
:101C5000E894F7F82FEF3FEF4FE75FE7C701B601D2
:101C60000E94AB1B81110FC02FEF3FEF4FE75FE7E3
:101C7000C701B6010E94371918162CF48DE592E0C1
:101C80000E946E127EC02FEF3FEF4FE75FE4C50169
:101C9000B4010E94A61B18161CF481E692E0F0CF56
:101CA0002FEF3FEF4FE75FECC501B4010E943719FA
:101CB00087FDF3CF20E030E0A901C501B4010E9407
:101CC000371987FF07C08DE20E943213C501B401A6
:101CD000905802C0C501B4012AE037ED43EA5BE346
:101CE0000E94921A6B017C010E94771B6D837E8398
:101CF0008F8398870E943C199B01AC01C701B601F4
:101D00000E94911A6B017C014AE06D817E818F8176
:101D100098850E943D138EE20E94321320E030E04D
:101D200040E251E4C701B6010E949D196B017C019C
:101D30000E94771B9B0140E050E02D833E834F8340
:101D400058874AE06D817E818F8198850E943D137E
:101D50006D817E818F8198850E943C199B01AC0129
:101D6000C701B6010E94911A20E030E040E251E440
:101D70000E949D190E94771B80E090E04AE00E943B
:101D80003D1385E692E00E946E1289819A81AB81B3
:101D9000BC8181309941A105B1050CF4BECE649699
:101DA0000FB6F894DEBF0FBECDBFDF91CF911F916C
:101DB0000F91FF90EF90DF90CF90BF90AF909F90EA
:101DC0008F907F906F905F904F900C94F90A85ED03
:101DD0008093BC008091BC0084FDFCCF1092ED028A
:101DE00008954091A002262F30E0240F311D2132AA
:101DF0003105DCF42091ED022430C9F4FC0180E0CF
:101E000090E0861758F43091A0022191DC01A2588D
:101E1000BD4FA30FB11D2C930196F3CF8091A0026B
:101E2000680F6093A00280E0089581E0089582E049
:101E30000895089581E090E030917402209173023A
:101E4000321710F480E090E0919581959109089502
:101E50008091740290917302891730F48F5F8093A0
:101E6000740280E090E008958FEF9FEF08958091D5
:101E7000730290E020917402821B91090895CF9221
:101E8000DF92EF92FF920F931F93CF93DF937C012A
:101E9000262F972F8A018091EE02882391F0C62F7A
:101EA000D72F6E01C40ED51ECC15DD0571F06991DA
:101EB000D701ED91FC910190F081E02DC7011995BA
:101EC000F3CF642F822F0E94F10EC801DF91CF91D2
:101ED0001F910F91FF90EF90DF90CF900895CF93D7
:101EE000DF931F92CDB7DEB769832091EE022223E4
:101EF000D1F020911103203240F021E030E0FC01CC
:101F00003383228380E090E015C08091EF02E82FB8
:101F1000F0E0E051FD4F998190838F5F8093EF0255
:101F20008093110305C061E0CE0101960E94F10E7D
:101F300081E090E00F90DF91CF91089590E0FC0157
:101F40003197E231F10508F04EC08827EC57FF4F7A
:101F50008F4F0C94891A809180008F7703C08091F5
:101F600080008F7D80938000089580918000877F1E
:101F7000F9CF84B58F7702C084B58F7D84BD089575
:101F80008091B0008F7703C08091B0008F7D8093E7
:101F9000B0000895809190008F7707C080919000E5
:101FA0008F7D03C080919000877F8093900008957B
:101FB0008091A0008F7707C08091A0008F7D03C023
:101FC0008091A000877F8093A000089580912001D8
:101FD0008F7707C0809120018F7D03C08091200101
:101FE000877F8093200108953FB7F89480917A020B
:101FF00090917B02A0917C02B0917D0226B5A89BB6
:1020000005C02F3F19F00196A11DB11D3FBFBA2F8A
:10201000A92F982F8827820F911DA11DB11DBC01EA
:10202000CD0142E0660F771F881F991F4A95D1F7AF
:1020300008951F920F920FB60F9211240F900FBEAA
:102040000F901F9018951F920F920FB60F921124A8
:102050000BB60F922F933F934F935F936F937F93A2
:102060008F939F93AF93BF93EF93FF938091B900AA
:10207000887F803609F49CC068F5883209F45BC01B
:1020800090F4803109F454C038F4882309F4F6C080
:10209000883009F44DC0F6C0883109F44CC0803254
:1020A00009F45DC0EFC0803409F468C048F480339F
:1020B00009F455C0883309F0E5C08093EB02D8C01D
:1020C000803509F44FC0883509F45DC0883409F0C3
:1020D000D9C0D6C0883909F4C7C0A8F4883709F434
:1020E00067C038F4883609F463C0803709F460C0EB
:1020F000C9C0883809F4B8C0803909F45FC0803895
:1021000009F0C0C05BC0803B09F486C038F4803A57
:1021100009F466C0883A09F47FC0B4C0803C09F471
:10212000A7C0883C09F4A4C0883B09F48AC0AAC0AF
:102130008091C80210C09091EA028091E90298173C
:1021400070F5E091EA0281E08E0F8093EA02F0E000
:10215000E753FD4F80818093BB0085EC86C0809360
:10216000EB028EC0E091EA0281E08E0F8093EA02DA
:102170008091BB00F0E0E753FD4F80839091EA022D
:102180008091E9026EC0E091EA0281E08E0F8093B7
:10219000EA028091BB00F0E0E753FD4F808380911D
:1021A000EC0281116DC081E08093C70284EA61C0B6
:1021B00083E08093ED021092C402CFCF8091C402DD
:1021C000803208F051C0E091C40281E08E0F80930C
:1021D000C4028091BB00F0E0EC55FD4F8083BDCF81
:1021E00085EC8093BC001092ED028091C402803295
:1021F00030F4E091C402F0E0EC55FD4F10826091A4
:10220000C40270E0E091A202F091A30284EA92E09D
:1022100019951092C40236C084E08093ED021092AA
:10222000A1021092A002E0919E02F0919F021995E6
:102230008091A002811105C081E08093A0021092DC
:102240007E02E091A10281E08E0F8093A102F0E076
:10225000E258FD4F80818093BB009091A102809154
:10226000A002981708F479CF85E88093BC000AC0D3
:1022700085EC8093BC001092ED0204C01092EB023A
:102280000E94E70EFF91EF91BF91AF919F918F91C7
:102290007F916F915F914F913F912F910F900BBE66
:1022A0000F900FBE0F901F901895CF93DF93282F9C
:1022B00030E0F901E952FD4F8491F901EF56FD4FED
:1022C000D491F901E55BFD4FC491CC2391F08111CC
:1022D0000E949E0FEC2FF0E0EE0FFF1FEF5CFD4F12
:1022E000A591B491EC91ED2381E090E021F480E0A0
:1022F00002C080E090E0DF91CF9108951F93CF93CB
:10230000DF93282F30E0F901E952FD4F8491F90164
:10231000EF56FD4FD491F901E55BFD4FC491CC23FD
:10232000C9F0162F81110E949E0FEC2FF0E0EE0FE6
:10233000FF1FE95EFD4FA591B4918FB7F89411117D
:1023400005C09C91ED2FE095E92302C0EC91ED2BA7
:10235000EC938FBFDF91CF911F910895CF93DF93BF
:1023600090E0FC01EF56FD4F2491FC01E55BFD4F31
:102370008491882361F190E0880F991FFC01E3505C
:10238000FE4FC591D491FC01E95EFD4FA591B4913A
:10239000611109C09FB7F8948881209582238883B2
:1023A000EC912E230BC0623061F49FB7F894388112
:1023B000822F809583238883EC912E2B2C939FBFB3
:1023C00006C08FB7F894E8812E2B28838FBFDF914A
:1023D000CF9108958F929F92AF92BF92CF92DF924A
:1023E000EF92FF926B017C010E94F40F4B015C01A4
:1023F000C114D104E104F104F1F00E94F40FDC01F6
:10240000CB0188199909AA09BB09883E9340A10507
:10241000B10570F321E0C21AD108E108F10888EE95
:10242000880E83E0981EA11CB11CC114D104E104E4
:10243000F10419F7DDCFFF90EF90DF90CF90BF90C0
:10244000AF909F908F9008951F920F920FB60F92AA
:1024500011242F933F938F939F93AF93BF938091BA
:10246000760290917702A0917802B0917902309132
:10247000750223E0230F2D3720F40196A11DB11D15
:1024800005C026E8230F0296A11DB11D20937502F9
:102490008093760290937702A0937802B0937902AA
:1024A00080917A0290917B02A0917C02B0917D0292
:1024B0000196A11DB11D80937A0290937B02A09397
:1024C0007C02B0937D02BF91AF919F918F913F911C
:1024D0002F910F900FBE0F901F901895009769F0E5
:1024E000FC0101900020E9F73197AF01481B590B1F
:1024F000BC0188E594E00C94C40180E090E008956C
:10250000CF93DF930E946E12EC0185E692E00E9469
:102510006E128C0F9D1FDF91CF91089520911103B2
:1025200090911003213208F04AC08091ED02811190
:10253000FCCF32E03093ED0231E03093EC023FEF1C
:102540003093EB021092EA022093E902A0EFB2E08E
:1025500049EC52E0FA013E2F341B321718F43D913A
:102560003193F9CF1092C8022091C802990F922B93
:102570009093C8029091C702913061F41092C70203
:102580009091C8029093BB009091BC0093FDF8CF4E
:1025900095EC01C095EE9093BC009091ED029230C5
:1025A000E1F39091EB029F3F79F08091EB02803252
:1025B00041F08091EB02803331F084E005C081E08E
:1025C00003C082E001C083E01092EF021092110379
:1025D0001092EE020895EF92FF921F93CF93DF9334
:1025E0001F92CDB7DEB7162F9DECE92E96E0F92E9F
:1025F000D7011C969C911C9721E02093EE029093AA
:1026000010031092EF02109211031A960D90BC91D4
:10261000A02DED91FC9111970190F081E02D682F94
:10262000CD0179831995F70182859385DC01ED91C0
:10263000FC910190F081E02D7981672F1995F701C8
:1026400082859385DC01ED91FC910190F081E02D74
:10265000612F19950F90DF91CF911F91FF90EF900F
:102660000C948E12E0915804F09159040190F0817D
:10267000E02D682F88E594E019948F929F92AF9295
:10268000BF920F931F93CF93DF93CDB7DEB7A19780
:102690000FB6F894DEBF0FBECDBF19A2423008F4CA
:1026A0004AE08E010F5D1F4F842E912CA12CB12C7E
:1026B000A50194010E945B1AE62FB901CA010150DD
:1026C0001109EA3014F4E05D01C0E95CD801EC9333
:1026D000232B242B252B61F7C8010E946E12A19693
:1026E0000FB6F894DEBF0FBECDBFDF91CF911F9123
:1026F0000F91BF90AF909F908F900895CF92DF92EF
:10270000EF92FF92CF93DF936B017C0197FF12C092
:102710008DE20E943213EC0166277727CB016C19FA
:102720007D098E099F094AE00E943D137C01EC0E51
:10273000FD1E04C04AE00E943D137C0185E692E044
:102740000E946E128E0D9F1DDF91CF91FF90EF9032
:10275000DF90CF900895CF92DF92EF92FF92CF93C8
:10276000DF936C01990FEE08FF08F7FE12C08DE2AF
:102770000E943213EC0166277727CB016C197D0983
:102780008E099F094AE00E943D137C01EC0EFD1E5C
:1027900006C04AE0C701B6010E943D137C0185E6F0
:1027A00092E00E946E128E0D9F1DDF91CF91FF90DF
:1027B000EF90DF90CF900895789484B5826084BDC7
:1027C00084B5816084BD85B5826085BD85B5816035
:1027D00085BD80916E00816080936E0010928100B3
:1027E000809181008260809381008091810081606E
:1027F000809381008091800081608093800080912F
:10280000B10084608093B1008091B00081608093BA
:10281000B00080919100826080939100809191003E
:1028200081608093910080919000816080939000FE
:102830008091A10082608093A1008091A1008160BD
:102840008093A1008091A00081608093A00080917E
:102850002101826080932101809121018160809318
:1028600021018091200181608093200180917A0074
:10287000846080937A0080917A00826080937A00ED
:1028800080917A00816080937A0080917A008068DC
:1028900080937A001092C100E0916804F09169047D
:1028A00082E08083E0916404F09165041082E091FD
:1028B0006604F09167048FEC808310927004E091BD
:1028C0006C04F0916D0486E08083E0916A04F091DD
:1028D0006B04808180618083E0916A04F0916B04D5
:1028E000808188608083E0916A04F0916B0480812C
:1028F00080688083E0916A04F0916B0480818F7D11
:10290000808361E08091CE060E94AE1160E08091EC
:10291000CE060E947E1160E08091CD060E94AE112D
:1029200082E193E09093D8068093D70610927402C8
:10293000109273021092EF02109211031092ED02A6
:1029400081E08093EC021092C70261E084E10E9472
:102950007E1161E085E10E947E118091B9008E7F39
:102960008093B9008091B9008D7F8093B90088E48D
:102970008093B80085E48093BC0080E090E1A0E003
:10298000B0E08093DA069093DB06A093DC06B09368
:10299000DD068AE090E0A0E0B0E08093DE06909350
:1029A000DF06A093E006B093E10680E090E0A0E0AF
:1029B000B0E48093E2069093E306A093E406B0931C
:1029C000E50660E070E185E00E94EB126FE979E3D3
:1029D00080E00E94EB12CAEED6E0C12CD12CE12C93
:1029E000F12C50E8652E52E0752E66EC862E62E0E2
:1029F000962E7BECA72E77E0B72EC7018353994F15
:102A00002C01FC019481828186010353194FF80146
:102A1000818F928F61E00E94AE1161E0F801828D9A
:102A20000E94AE11F201908586818883F801968F0D
:102A300061E00E94AE1160E0F801868D0E94AE1147
:102A400061E088810E947E111FB7F89480916F0227
:102A5000811125C0F3018491F4019491E82FF0E0F5
:102A6000EE0FFF1FE350FE4FA591B4918C91982378
:102A700021F461E085E30E947E1161E085E30E941C
:102A8000AE118CB580618CBD8CB580648CBD61E06D
:102A900084E30E94AE1161E083E30E94AE11809155
:102AA0006F028F5F80936F021FBFC5010197F1F71F
:102AB00060E088810E947E1188E80E94870783E099
:102AC0000E94870761E088810E947E11C5010197FD
:102AD000F1F7CE010E948E07F2E0CF0ED11C2296B4
:102AE000EA94EF2821F0EE24E394F12C86CFC2EF94
:102AF000D6E01C2F1C5F60E089910E94AE111C1370
:102B0000FACF01E017E0CEEFD6E085E0C82E9CE0DA
:102B1000E92E22E0B22EDC2ED394D394FE01389716
:102B2000F08088818C3008F044C061E08F2D0E94D5
:102B3000AE118881C89EF0011124E953FA4F9F2DF0
:102B40009F732081207CF22EF92AF0821382148256
:102B50006E2D0E947D1AECE08E9FA001112420E0D2
:102B600030E0B901640F751FC69EF001C79EF00DDD
:102B70001124E953FA4F908196FD12C02F5F3F4F09
:102B80002C30310571F781110BC010928000B0928A
:102B900081001092850010928400B6BAB0926F0046
:102BA000E881CE9EF0011124E953FA4F80818064C0
:102BB0008083FE0134978081F80131978083F8018A
:102BC000808360E00E94AE1161E0F80180810E9484
:102BD000AE1160E0F80180810E947E1121960E5FA7
:102BE0001F4FDC129BCF87E392E00E94801264EFBC
:102BF00071E080E090E00E94EA1110927102109260
:102C000070028DE392E00E9480128091F2060E9491
:102C10005511892B09F0FCC08091F5060E945511D1
:102C2000892B09F408C16CEE71E588E090E40E94FC
:102C3000A70C49EA51E060E070E08AE590E00E946C
:102C40001E0866EF78E28CED9EE30E94180B41EEC1
:102C500050E061E070E08AE590E00E941E0861E7C4
:102C60007DE38AEC9EE30E94180B41EE50E061E0A8
:102C700070E08AE590E00E941E0868EB7EE185EC3A
:102C80009EE30E94180B49EA51E060E070E08AE59B
:102C900090E00E941E0866EF78E28CE99EE30E94B5
:102CA000180B4DE750E061E070E08DE290E00E948B
:102CB0001E0866E676E686E09FE30E94180B49EA66
:102CC00051E060E070E08AE590E00E941E0861EE4D
:102CD0007AE784E59FE30E94180B4DE750E061E03E
:102CE00070E08DE290E00E941E0867ED73EA80EBD1
:102CF0009EE30E94180B40E050E061E070E08CE041
:102D000090E00E941E0866EF78E28CE39FE30E9449
:102D1000180B44EF51E061E070E084EB90E00E941A
:102D20001E0861EE7AE784E39FE30E94180B40E0FF
:102D300050E060E070E08AE090E00E941E0863E3EB
:102D400073E383E19FE30E94180B4FEA50E060E0D9
:102D500070E08DE290E00E941E0864EA70E78DE169
:102D60009FE30E94180B41EE50E061E070E08AE5BD
:102D700090E00E941E086BE774E18EEE9EE30E94D5
:102D8000180B4FEA50E060E070E08DE290E00E94A6
:102D90001E086EEA77E481EA9EE30E94180B41EE7A
:102DA00050E061E070E08AE590E00E941E0863EC6C
:102DB00075EF88EE9EE30E94180B4FEA50E060E04A
:102DC00070E08AE590E00E941E0861E77DE38AECEE
:102DD0009EE30E94180B49EA51E060E070E08AE54A
:102DE00090E00E941E0863E373E383EF9EE30E947A
:102DF000180B41EE50E061E070E08AE590E00E943F
:102E00001E0868EB7EE185E190E40E94A70C13C0E8
:102E1000C4E0D0E044E650E061E070E08DE290E094
:102E20000E941E0868EE73E080E090E00E94EA11C4
:102E3000219781F7F1CE8091F3060E945511892BDD
:102E4000C1F080917002909171020E94AB13C09109
:102E50007002D0917102E297D0937102C093700218
:102E600064E670E080E090E00E94EA11CE010E94EA
:102E7000AB138091F4060E945511892B71F064E622
:102E800070E080E090E00E94EA114CE251E060E0E6
:102E900070E084EB90E00E941E086AE070E080E041
:102EA00090E00E94EA110E94ED02AFCE80910406EC
:102EB000909105060C94451C109215031092140372
:102EC00088EE93E0A0E0B0E08093160390931703A0
:102ED000A0931803B09319032BE032E0309313034F
:102EE0002093120310922103109220038093220357
:102EF00090932303A0932403B09325032DE132E0A4
:102F000030931F0320931E0345E351E050932B039E
:102F100040932A0344E351E050932D0340932C0344
:102F200040E351E050932F0340932E0341E351E0DF
:102F3000509331034093300342E351E05093330305
:102F40004093320346E351E05093350340933403FA
:102F500010923703109238031092390310923A03FB
:102F60001092BE031092BD038093BF039093C003E1
:102F7000A093C103B093C2033093BC032093BB035F
:102F800045ED50E05093C8034093C70344ED50E033
:102F90005093CA034093C90340ED50E05093CC03D3
:102FA0004093CB0341ED50E05093CE034093CD03CB
:102FB00042ED50E05093D0034093CF0346ED50E0F4
:102FC0005093D2034093D1031092D4031092D503AF
:102FD0001092D6031092D70310925B0410925A04F9
:102FE00080935C0490935D04A0935E04B0935F04AF
:102FF000309359042093580485EC90E09093650435
:103000008093640484EC90E090936704809366045A
:1030100080EC90E0909369048093680481EC90E0E8
:1030200090936B0480936A0482EC90E090936D041B
:1030300080936C0486EC90E090936F0480936E0410
:10304000109271041092720410927304109274041E
:1030500086E38093EE0687E38093EF0688E3809310
:10306000F00689E38093F1068BE18093F2068DE10F
:103070008093F3068AE18093F4068CE18093F50651
:1030800084E08093F60687E08093F7061092F806B6
:1030900084EB8093F90686E18093FA0688E18093B9
:1030A000FB0687E18093FC0689E18093FD06E091B1
:1030B0000306EC3020F08FEF8093FE0610C081E015
:1030C0008E0F80930306E093FE0625E0E29FF00159
:1030D0001124E953FA4F88EB9BE092838183E091BE
:1030E0000306EC3020F08FEF8093FF0610C081E0E4
:1030F0008E0F80930306E093FF0685E0E89FF001C2
:103100001124E953FA4F88EB9BE0928381838CE092
:103110008093CD0684E28093CE0686E08093CF062E
:1031200085E08093D0068FE18093D1068EE1809375
:10313000D20683E28093D30682E28093D40685E4AC
:103140008093D50684E48093D60680E48093D906E4
:103150001092DE061092DF061092E0061092E10651
:103160001092E2061092E3061092E4061092E50631
:10317000EFE0F6E08FEF9FEFDC0112821382148202
:103180001582168217821086118683879487A587F9
:10319000B6878787908BA18BB28B128611821082A3
:1031A000739626E0ED3CF20741F78DE090E00E9437
:1031B000B01BFC01138212828FE292E09183808324
:1031C000118687E2848384E1828784E08387148682
:1031D000F0930C06E0930B0610920D0610920E066B
:1031E00085E28093F6041092F8041092050610927E
:1031F0000406109207061092060610920906109215
:10320000080661E070E080E090E00E94DD1C00971D
:1032100089F0909305068093040610920706109299
:1032200006062091080630910906232BC1F4FC0103
:10323000108215C08091040690910506009711F048
:103240000E94451C10920506109204061092090671
:103250001092080610920706109206060895109222
:1032600009061092080667E672E00C94D41D0E94CD
:10327000791908F481E00895E89409C097FB3EF4B9
:1032800090958095709561957F4F8F4F9F4F9923B3
:10329000A9F0F92F96E9BB279395F6958795779531
:1032A0006795B795F111F8CFFAF4BB0F11F460FFF1
:1032B0001BC06F5F7F4F8F4F9F4F16C0882311F049
:1032C00096E911C0772321F09EE8872F762F05C05D
:1032D000662371F096E8862F70E060E02AF09A95F8
:1032E000660F771F881FDAF7880F9695879597F9ED
:1032F0000895990F0008550FAA0BE0E8FEEF161687
:103300001706E807F907C0F012161306E407F507D9
:1033100098F0621B730B840B950B39F40A2661F04D
:10332000232B242B252B21F408950A2609F4A140F0
:10333000A6958FEF811D811D08950E94B0190C94F0
:10334000211A0E94131A38F00E941A1A20F09523AD
:1033500011F00C940A1A0C94101A11240C94551A9A
:103360000E94321A70F3959FC1F3950F50E0551FDC
:10337000629FF001729FBB27F00DB11D639FAA27CA
:10338000F00DB11DAA1F649F6627B00DA11D661F19
:10339000829F2227B00DA11D621F739FB00DA11D3A
:1033A000621F839FA00D611D221F749F3327A00DF4
:1033B000611D231F849F600D211D822F762F6A2F90
:1033C00011249F5750409AF0F1F088234AF0EE0FF5
:1033D000FF1FBB1F661F771F881F91505040A9F722
:1033E0009E3F510580F00C940A1A0C94551A5F3FC9
:1033F000E4F3983ED4F3869577956795B795F7955E
:10340000E7959F5FC1F7FE2B880F911D96958795D5
:1034100097F9089597F99F6780E870E060E0089554
:103420009FEF80EC089500240A94161617061806DC
:103430000906089500240A941216130614060506B8
:103440000895092E0394000C11F4882352F0BB0F49
:1034500040F4BF2B11F460FF04C06F5F7F4F8F4FAC
:103460009F4F089557FD9058440F551F59F05F3FE7
:1034700071F04795880F97FB991F61F09F3F79F096
:1034800087950895121613061406551FF2CF469518
:10349000F1DF08C0161617061806991FF1CF86959A
:1034A0007105610508940895E894BB27662777277E
:1034B000CB0197F90895A1E21A2EAA1BBB1BFD01AF
:1034C0000DC0AA1FBB1FEE1FFF1FA217B307E40703
:1034D000F50720F0A21BB30BE40BF50B661F771F5B
:1034E000881F991F1A9469F760957095809590953B
:1034F0009B01AC01BD01CF010895991B79E004C087
:10350000991F961708F0961B881F7A95C9F7809522
:103510000895EE0FFF1F881F8BBF0790F691E02DD7
:1035200019945058BB27AA270E94A91A0C94211A53
:103530000E94131A38F00E941A1A20F039F49F3FA3
:1035400019F426F40C94101A0EF4E095E7FB0C9491
:103550000A1AE92F0E94321A58F3BA176207730742
:103560008407950720F079F4A6F50C94541A0EF40C
:10357000E0950B2EBA2FA02D0B01B90190010C0183
:10358000CA01A0011124FF27591B99F0593F50F49B
:10359000503E68F11A16F040A22F232F342F4427F3
:1035A000585FF3CF469537952795A795F0405395EB
:1035B000C9F77EF41F16BA0B620B730B840BBAF0BB
:1035C0009150A1F0FF0FBB1F661F771F881FC2F726
:1035D0000EC0BA0F621F731F841F48F4879577953A
:1035E0006795B795F7959E3F08F0B0CF9395880FF4
:1035F00008F09927EE0F9795879508950E94121B62
:103600000C94211A0E941A1A58F00E94131A40F0C2
:1036100029F45F3F29F00C940A1A51110C94551AA1
:103620000C94101A0E94321A68F39923B1F35523AF
:1036300091F3951B550BBB27AA27621773078407C5
:1036400038F09F5F5F4F220F331F441FAA1FA9F35B
:1036500035D00E2E3AF0E0E832D091505040E69549
:10366000001CCAF72BD0FE2F29D0660F771F881FAA
:10367000BB1F261737074807AB07B0E809F0BB0B9D
:10368000802DBF01FF2793585F4F3AF09E3F5105B1
:1036900078F00C940A1A0C94551A5F3FE4F3983EA4
:1036A000D4F3869577956795B795F7959F5FC9F79A
:1036B000880F911D9695879597F90895E1E0660F1B
:1036C000771F881FBB1F621773078407BA0720F094
:1036D000621B730B840BBA0BEE1F88F7E0950895FD
:1036E0000E94771B6894B1110C94551A08950E949A
:1036F0003A1A88F09F5798F0B92F9927B751B0F030
:10370000E1F0660F771F881F991F1AF0BA95C9F765
:1037100014C0B13091F00E94541AB1E008950C9495
:10372000541A672F782F8827B85F39F0B93FCCF348
:10373000869577956795B395D9F73EF490958095E2
:10374000709561957F4F8F4F9F4F08950E94791913
:1037500008F48FEF08950E947919880B990B08954A
:10376000CF93DF938230910510F482E090E0E091F6
:103770000607F091070720E030E0C0E0D0E0309786
:1037800011F14081518148175907C0F04817590776
:1037900061F482819381209719F09B838A832BC0E7
:1037A000909307078093060726C02115310519F06D
:1037B0004217530718F49A01BE01DF01EF0102809E
:1037C000F381E02DDCCF2115310509F1281B390BE0
:1037D0002430310590F412968D919C9113976115C8
:1037E000710521F0FB019383828304C09093070746
:1037F00080930607FD01329644C0FD01E20FF31FDE
:1038000081939193225031092D933C933AC020919A
:10381000040730910507232B41F4209103023091D6
:103820000402309305072093040720910102309190
:1038300002022115310541F42DB73EB74091050232
:1038400050910602241B350BE0910407F091050707
:10385000E217F307A0F42E1B3F0B2817390778F067
:10386000AC014E5F5F4F2417350748F04E0F5F1FC6
:1038700050930507409304078193919302C0E0E0C1
:10388000F0E0CF01DF91CF9108950F931F93CF9375
:10389000DF93009709F48CC0FC01329713821282E7
:1038A00000910607109107070115110581F4208189
:1038B0003181820F931F209104073091050728174B
:1038C000390779F5F0930507E093040771C0D80133
:1038D00040E050E0AE17BF0750F412962D913C9196
:1038E0001397AD012115310509F1D901F3CF9D01E0
:1038F000DA013383228360817181860F971F8217DB
:10390000930769F4EC0128813981260F371F2E5F58
:103910003F4F318320838A819B8193838283452B10
:1039200029F4F0930707E093060742C01396FC932F
:10393000EE931297ED01499159919E01240F351F85
:10394000E217F30771F480819181840F951F02962D
:1039500011969C938E938281938113969C938E9360
:103960001297E0E0F0E0D80112968D919C911397A8
:10397000009719F0F8018C01F6CF8D919C91980178
:103980002E5F3F4F820F931F209104073091050750
:103990002817390769F4309729F410920707109215
:1039A000060702C0138212821093050700930407D2
:1039B000DF91CF911F910F9108956F927F928F9217
:1039C0009F92AF92BF92CF92DF92EF92FF920F93AE
:1039D0001F93CF93DF93EC01009789F4CB01DF9124
:1039E000CF911F910F91FF90EF90DF90CF90BF90FC
:1039F000AF909F908F907F906F900C94B01BFC01C4
:103A0000E60FF71F9C0122503109E217F30708F473
:103A1000ACC0D9010D911C91119706171707B0F092
:103A20000530110508F49FC0C80104978617970751
:103A300008F499C002501109061B170B019311934A
:103A40006D937C93CF010E94451C8DC05B01A01A31
:103A5000B10A4C01800E911EA0910607B091070794
:103A600040E050E0E12CF12C109709F44AC0A81571
:103A7000B905D1F56D907C901197630182E0C80E75
:103A8000D11CCA14DB0480F1A3014A195B096A0145
:103A900082E0C80ED11C1296BC9012971396AC917E
:103AA000B5E0CB16D10440F0B282A38351834083AA
:103AB000D9016D937C930AC00E5F1F4FC301800F25
:103AC000911FF90191838083EB2DFA2FE114F1040A
:103AD00031F0D7011396FC93EE93129744C0F09304
:103AE0000707E09306073FC08D919C9111974817F7
:103AF000590708F4AC017D0112960D90BC91A02DE0
:103B0000B3CF809104079091050788159905E1F4DA
:103B100046175707C8F4809101029091020200975E
:103B200041F48DB79EB74091050250910602841B67
:103B3000950BE817F907C8F4F0930507E09304071D
:103B4000F901718360830FC0CB010E94B01B7C011F
:103B5000009759F0A801BE010E94CB1DCE010E9422
:103B6000451CC70104C0CE0102C080E090E0DF9197
:103B7000CF911F910F91FF90EF90DF90CF90BF906A
:103B8000AF909F908F907F906F90089581E090E02C
:103B9000F8940C94DB1DFB01DC0102C001900D9236
:103BA00041505040D8F70895FB01DC0101900D927F
:103BB0000020E1F7089511E0C0E9D1E000E006C07F
:103BC000802FFE010E94891A2196011DC139D1075B
:0A3BD00080E00807A9F7F894FFCF82
:103BDA00FF000008072000000000006F0F3F0F766B
:103BEA0005190F370F280F1A0F000000008402C4AE
:103BFA00010802CB02390217022B0200000000A1C1
:103C0A0005C4017605750548656C6C6F00474F2140
:103C1A000073616C75740056697465737365206D01
:103C2A006F74657572203A20006E616E00696E6667
:083C3A00006F7666000D0A0020
:00000001FF
