:100000000C9491010C94C2010C94C2010C94C20195
:100010000C94C2010C94C2010C94C2010C94C20154
:100020000C94C2010C94CD110C94CD110C94CD11F3
:100030000C94C2010C94AC0D0C94C2010C94C2013E
:100040000C94C2010C9404060C94C2010C94C201DD
:100050000C94C2010C94C2010C94C2010C94620D68
:100060000C94C2010C941D0F0C94F30E0C94C2015D
:100070000C94C2010C94C2010C94C2010C94C201F4
:100080000C94D6050C94C2010C94C2010C94C201CC
:100090000C94C2010C94C2010C94C2010C94D711AF
:1000A0000C94C2010C94C2010C94A8050C94C201DA
:1000B0000C94C2010C94C2010C94C2010C947A05F8
:1000C0000C94C2010C94C2010C94C2010C94C90E90
:1000D0000C949F0E0C94C2010C94750E0C944B0E54
:1000E0000C94C201710376037B0385038F0308041C
:1000F0009903A103A903B303BD03C703D603E00318
:100100000804EA03F403FE037C0A7F0A6E0A720AFB
:10011000780AB60A830A870A8D0A910A950A9B0A09
:100120009F0AA30AB60AA90AAD0AB10A0C9485036C
:100130000C94CB010C94C7030C94590A0C94830AB9
:100140000C94B10A0C94720A0C94E0030C94780A93
:100150000C947B030C94A1030C940C0C0C94910A4A
:100160000C949F0A0C94520F0C94D6030C948B0C95
:100170000C9431130C946C0B0C9408040C948D0AA1
:100180000C9499030C94A9030C947A0B0C94F4032B
:100190000C9471030C94BD030C94CC010C94450A8F
:1001A0000C940F160C949B0A0C94870A0C94AD0ABD
:1001B0000C94950A0C94490B0C945B0C0C94B303AF
:1001C0000C947F0A0C9476030C94C50B0C946E0A65
:1001D0000C947C0A0C94510F0C94A90A0C94050BF6
:1001E0000C94FE030C94580B0C948F030C94EC02AB
:1001F0000C94B60A0C94A30A0C94EA0302000021A2
:1002000000240027002A002D0030003300010100E7
:1002100000040107010A0100002200250028002B2C
:10022000002E003100340002010000050108010B1E
:1002300001000020002300260029002C002F00329E
:10024000000001000003010601090105050505077D
:100250000508080808020202020A0A080804040441
:10026000040101010101010101030303030303036D
:1002700003040707070C0C0C0C0C0C0C0C020202FC
:100280000206060606060606060B0B0B0B0B0B0BEF
:100290000B0102102020080810204010204080028E
:1002A00001020108040201010204081020408080BC
:1002B0004020100804020180040201804020100840
:1002C0000402010804020101020408102040800118
:1002D0000204081020408000000A0B02090C0D0ED9
:1002E00008070304010000000000000000000000F7
:1002F00000000000000000000000000000000000FE
:1003000000000012111000000000000000000000BA
:1003100000000000000000000000000000000F16B8
:10032000311311241FBECFEFD1E2DEBFCDBF00E0FD
:100330000CBF12E0A0E0B2E0ECEDF8E300E00BBF90
:1003400002C007900D92A037B107D9F726E0A0E7C9
:10035000B2E001C01D92A236B207E1F711E0C0E998
:10036000D1E000E006C021970109802FFE010E9424
:100370000A19CF38D10780E00807A9F70E94371380
:100380000C945C1C0C9400008EBD00000DB407FEA4
:10039000FDCF8EB50895089580E090E00895E0E0E7
:1003A000F0E01994CF93DF93EC0160E088810E9424
:1003B000BC0C88E90E94C40180E00E94C40180E076
:1003C0000E94C40180E00E94C40180E00E94C40138
:1003D00061E088810E94BC0C8BE891E00197F1F705
:1003E00060E088810E94BC0C80EE0E94C40161E044
:1003F0008881DF91CF910C94BC0CCF92DF92EF9269
:10040000FF920F931F93CF93DF936C018B017A01BF
:10041000EC01C757DD4F888187FF04C0FB011182C3
:10042000108224C08CE08C9D90018D9D300D112494
:100430008881A901480F511D87FD5A958091680553
:1004400090E04817590794F48881A901480F511D7D
:1004500087FD5A95CA01FA01EE0FFF1F8E0F9F1FED
:10046000FC01E852FB4F808186FD19C088818F5FB7
:1004700088838CE08C9D90018D9D300D11248881A6
:10048000A901480F511D87FD5A958091680590E09C
:1004900048175907BCF488818C3044F113C0888117
:1004A000280F311D87FD3A95F901EE0FFF1F2E0F22
:1004B0003F1FF901E852FB4F808160E08F730E947B
:1004C000BC0CD4CFF80180819181049680349C4982
:1004D00018F480E49CE904C0F801808191810496BD
:1004E000F701918380838FEF888345C0F8014081B5
:1004F00051818881B901680F711D87FD7A95CB0103
:10050000FB01EE0FFF1F8E0F9F1FFC01E852FB4FF8
:1005100081819281840F951FF70191838083888167
:10052000A901480F511D87FD5A95CA01FA01EE0F26
:10053000FF1F8E0F9F1FFC01E852FB4F808186FF3B
:100540001AC08881280F311D87FD3A95F901EE0FF9
:10055000FF1F2E0F3F1FF901E852FB4F808161E022
:100560008F73DF91CF911F910F91FF90EF90DF90EC
:10057000CF900C94BC0CDF91CF911F910F91FF9005
:10058000EF90DF90CF900895FC01248131E030930B
:10059000D1022093F3021092D2021092F4028485C9
:1005A000682B85EF92E00E948B0C0C94800F0F93C8
:1005B0001F93CF938C01C62F64600E94C4026C2FDE
:1005C0006B7FC8010E94C40283EC90E00197F1F7B1
:1005D000CF911F910F9108950F931F93CF93DF93A6
:1005E0008C01C62FD62FD07FD1606D2F0E94C40200
:1005F0006D2FC8010E94D70280E1C89FB00111246D
:10060000C62FC1606C2FC8010E94C4026C2FC801A4
:100610000E94D70281E090E0DF91CF911F910F916E
:1006200008958F929F92AF92BF92CF92DF92EF92F6
:10063000FF920F931F93CF93DF93EC016A017B012D
:1006400020E030E04FE753E4C701B6010E941E18D6
:100650004B015C0120E030E0A9010E94271A181626
:100660001CF4C501B40103C0C501B40190580E9437
:10067000F1198B0120E030E0A901C701B6010E9409
:10068000271A181614F460E001C061E089810E9405
:10069000BC0C0F3F110509F014F4112702C00FEF35
:1006A00010E0C88161E08C2F0E94EC0C011511054F
:1006B00009F4B1C00F3F110509F4AFC0EC2FF0E011
:1006C000E952FD4FE4914E2F50E0FA013197E231AB
:1006D000F10508F09DC08827EE58FF4F8F4F0C940E
:1006E0000A1984B5806884BD07BDA7C084B580623F
:1006F00084BD08BDA2C08091800080688093800086
:10070000109389000093880098C0809180008062D7
:100710008093800010938B0000938A008EC080919C
:10072000800088608093800010938D0000938C007F
:1007300084C08091B00080688093B0000093B300C3
:100740007CC08091B00080628093B0000093B400C0
:1007500074C08091900080688093900010939900FD
:10076000009398006AC0809190008062809390000E
:1007700010939B0000939A0060C080919000886065
:100780008093900010939D0000939C0056C0809130
:10079000A00080688093A0008091A0008F7B809350
:1007A000A0001093A9000093A80047C08091A0006A
:1007B00080628093A0001093AB000093AA003DC01C
:1007C0008091A00088608093A0001093AD000093FA
:1007D000AC0033C080912001806880932001109389
:1007E00029010093280129C0809120018062809313
:1007F000200110932B0100932A011FC0809120013A
:1008000088608093200110932D0100932C0115C066
:100810000038110514F460E001C061E08C2FDF9115
:10082000CF911F910F91FF90EF90DF90CF90BF90ED
:10083000AF909F908F900C94BC0CDF91CF911F9143
:100840000F91FF90EF90DF90CF90BF90AF909F906F
:100850008F900895AF92BF92CF92DF92EF92FF9266
:100860000F931F93CF93DF93CDB7DEB760970FB68B
:10087000F894DEBF0FBECDBF5C0160E0FC0180815B
:100880000E94BC0C80E60E94C4018E010F5F1F4FC6
:100890007E01F1E1EF0EF11C680180E00E94C401CD
:1008A00090E0A0E0B0E0F60181939193A193B19321
:1008B0006F01EE15FF0589F761E0F50180810E9467
:1008C000BC0C80E090E0DC01F80141915191619114
:1008D00071918F01BA2FA92F982F8827840F951F08
:1008E000A61FB71FEE15FF0579F79C01AD0166271E
:1008F0007727CB01621B730B840B950B60960FB6A9
:10090000F894DEBF0FBECDBFDF91CF911F910F9145
:10091000FF90EF90DF90CF90BF90AF9008950F932E
:100920001F93CF93DF93EC01862F6883498361E0A7
:100930000E94EC0C60E089810E94EC0C61E08881EF
:100940000E94BC0C1FB7F89480918D02811127C0C2
:10095000E0E8F2E09491E6ECF2E08491E92FF0E037
:10096000EE0FFF1FE350FE4FA591B491EC91E823E9
:1009700021F461E085E30E94BC0C61E085E30E9404
:10098000EC0C8CB580618CBD8CB580648CBD61E055
:1009900084E30E94EC0C61E083E30E94EC0C809104
:1009A0008D028F5F80938D021FBF0BEC17E0C80193
:1009B0000197F1F760E088810E94BC0C88E80E94F2
:1009C000C40183E00E94C40161E088810E94BC0CE4
:1009D000C8010197F1F7CE01DF91CF911F910F91DF
:1009E0000C94D2011F93CF93DF93EC01162F8881D3
:1009F000803308F04EC061E0812F0E94EC0C8881AA
:100A0000E82FF0E09F01220F331FE20FF31FE8529F
:100A1000FB4F1F739081907C192B108319821A82CF
:100A20006CE00E94FE189CE0899FB001112440E018
:100A300050E09A01260F371FF901EE0FFF1F2E0F0E
:100A40003F1FF901E852FB4F908196FD16C04F5FA2
:100A50005F4F4C30510569F7813001F510928000ED
:100A600082E0809381001092850010928400B19AF8
:100A700080916F00826080936F00E881F0E0CF0189
:100A8000880F991FE80FF91FE852FB4F808180649F
:100A900080838881DF91CF911F910895823061F426
:100AA0001092900080939100109295001092940003
:100AB00088BB80937100E1CF833069F41092A0006D
:100AC00082E08093A1001092A5001092A40089BB3F
:100AD00080937200D2CF8111D0CF1092200182E09A
:100AE0008093210110922501109224018ABB8093EA
:100AF0007300C3CF1F920F920FB60F9211240BB643
:100B00000F922F933F934F935F936F937F938F93A6
:100B10009F93AF93BF93EF93FF9348E251E064E25A
:100B200071E080E090E00E94FD01FF91EF91BF91A4
:100B3000AF919F918F917F916F915F914F913F9175
:100B40002F910F900BBE0F900FBE0F901F90189516
:100B50001F920F920FB60F9211240BB60F922F9384
:100B60003F934F935F936F937F938F939F93AF9335
:100B7000BF93EF93FF9348EA50E064EA70E083E0AC
:100B800090E00E94FD01FF91EF91BF91AF919F9185
:100B90008F917F916F915F914F913F912F910F9026
:100BA0000BBE0F900FBE0F901F9018951F920F92C3
:100BB0000FB60F9211240BB60F922F933F934F93C2
:100BC0005F936F937F938F939F93AF93BF93EF93B5
:100BD000FF9348E950E064E970E082E090E00E9411
:100BE000FD01FF91EF91BF91AF919F918F917F9107
:100BF0006F915F914F913F912F910F900BBE0F908E
:100C00000FBE0F901F9018951F920F920FB60F9264
:100C100011240BB60F922F933F934F935F936F93D3
:100C20007F938F939F93AF93BF93EF93FF9348E886
:100C300050E064E870E081E090E00E94FD01FF91E7
:100C4000EF91BF91AF919F918F917F916F915F9144
:100C50004F913F912F910F900BBE0F900FBE0F90B1
:100C60001F90189586EC92E00E942A0486EC92E090
:100C70000E94D20188EC92E00E942A0488EC92E063
:100C80000C94D2014F925F926F927F928F929F92BB
:100C9000AF92BF92CF92DF92EF92FF920F931F938A
:100CA000CF93DF93CDB7DEB72C970FB6F894DEBFA6
:100CB0000FBECDBF6D837E838F83988749015A0114
:100CC0006701780186EC92E00E942A042B013C0126
:100CD00088EC92E00E942A0469837A838B839C8348
:100CE00066277727CB0164197509860997090E9441
:100CF000BF172B013C0169817A818B819C810E9405
:100D0000BF179B01AC01C301B2010E94121929E86F
:100D100032ED4EE55AE30E941E182B013C01C5013D
:100D2000B4016C197D098E099F090E94BF172CEA36
:100D300035EC47E258E30E941E1820E030E0A9019C
:100D40000E9413199B01AC01C301B2010E94131947
:100D50002D813E814F8158850E94131969877A87BA
:100D60008B879C870E94320669857A858B859C8556
:100D70002C960FB6F894DEBF0FBECDBFDF91CF919A
:100D80001F910F91FF90EF90DF90CF90BF90AF90A9
:100D90009F908F907F906F905F904F90089540E06C
:100DA00050E0BA018AEC92E00E94110340E050E06A
:100DB00060E070E88CEC92E00E94110386EC92E017
:100DC0000E942A0486EC92E00E94D20188EC92E014
:100DD0000E942A0488EC92E00C94D2018F929F9298
:100DE000AF92BF92CF92DF92EF92FF920F931F9339
:100DF000CF93DF9300D01F92CDB7DEB77A01890180
:100E000069837A838B839C830E94320620E030E0E2
:100E100044EB53E469817A818B819C810E947F1924
:100E20009B01AC010E9413192BED3FE049E450E413
:100E30000E941E1820E030E048E951E40E941E188C
:100E400020E030E048EC52E40E947F194B015C0145
:100E50000E94A11023E535EB47E75EE3C501B4012D
:100E60000E947F1920E030E048E455E40E941E18FB
:100E70000E94F1196B01C01AD10AEA94EF28E9F532
:100E8000C501B4010E94A1100D2C000CEE08FF0852
:100E900086EC92E00E942A049B01AC0188279927E6
:100EA000DC01821B930BA40BB50B8C159D05AE05C5
:100EB000BF058CF440E050E060E070E88CEC92E01C
:100EC0000E9411034AE959E969E97EE38AEC92E05C
:100ED0000E941103DDCF0F900F900F900F90DF91C4
:100EE000CF911F910F91FF90EF90DF90CF90BF9027
:100EF000AF909F908F900C94CF060D2C000CEE08B5
:100F0000FF0888EC92E00E942A046C157D058E058E
:100F10009F050CF740E050E0BA018AEC92E00E9495
:100F200011034AE959E969E97EEB8CEC92E00E94F1
:100F30001103E7CF4F925F926F927F928F929F92B1
:100F4000AF92BF92CF92DF92EF92FF920F931F93D7
:100F5000CF93DF93CDB7DEB760970FB6F894DEBFBF
:100F60000FBECDBF23E535EB47E75EE30E947F1957
:100F700020E030E048E455E40E941E180E94F11978
:100F800069877A878B879C8719821A821B821C82C9
:100F9000412C512C32018AE0882E87ED982E83E275
:100FA000A82E8CE3B82E8D829E82AF82B88689856A
:100FB0009A85AB85BC85481659066A067B060CF0F7
:100FC0008DC04D815E816F8178858AEC92E00E94B0
:100FD0001103B501A40170588CEC92E00E9411033A
:100FE00062E370E080E090E00E94280D86EC92E0E1
:100FF0000E942A046D877E878F87988B88EC92E009
:101000000E942A046B017C01C301B2010E94BF1738
:101010002B013C016D857E858F8598899095809503
:10102000709561957F4F8F4F9F4F0E94BF179B0117
:10103000AC01C301B2010E9413190E94F1192B01E6
:101040003C0169817A818B819C810E94BF176983F1
:101050007A838B839C83C701B6010E94BF179B01D3
:10106000AC0169817A818B819C810E9413190E9455
:10107000F11969837A838B839C837B018C01A301A3
:101080009201C501B4010E9442064B015C010E941D
:1010900032062DEC3CEC4CEC5EE36D817E818F8161
:1010A00098850E94B81787FF82CF2FE832EC45EF72
:1010B0005CE36D817E818F8198850E9413196D8319
:1010C0007E838F8398872FE832EC45EF5CE3C50180
:1010D000B4010E9413194B015C0169CF0E94CF0635
:1010E00064E670E080E090E060960FB6F894DEBFB2
:1010F0000FBECDBFDF91CF911F910F91FF90EF9069
:10110000DF90CF90BF90AF909F908F907F906F9027
:101110005F904F900C94280D4F925F926F927F9248
:101120008F929F92AF92BF92CF92DF92EF92FF92F7
:101130000F931F93CF93DF93CDB7DEB764970FB6AE
:10114000F894DEBF0FBECDBF23E535EB47E75EE386
:101150000E947F1920E030E048E455E40E941E1808
:101160000E94F1199B01AC013951410951092987AC
:101170003A874B875C871D821E821F8218861982E0
:101180001A821B821C828AE0882E87ED982E83E2C9
:10119000A82E8CE3B82E2401350189819A81AB8178
:1011A000BC8129853A854B855C8582179307A40706
:1011B000B5070CF08BC0B301A2018AEC92E00E944B
:1011C0001103B501A40170588CEC92E00E94110348
:1011D00062E370E080E090E00E94280D86EC92E0EF
:1011E0000E942A046D877E878F87988B88EC92E017
:1011F0000E942A04698B7A8B8B8B9C8B69817A8104
:101200008B819C810E94BF176B017C016D857E855F
:101210008F85988990958095709561957F4F8F4FB8
:101220009F4F0E94BF179B01AC01C701B6010E94EE
:1012300013190E94F11969837A838B839C836D81D2
:101240007E818F8198850E94BF176B017C0169891F
:101250007A898B899C890E94BF179B01AC01C701C9
:10126000B6010E9413190E94F1196D837E838F834A
:1012700098877B018C0129813A814B815C81C50172
:10128000B4010E9442064B015C010E9432062DEC23
:101290003CEC4CE45FE3C301B2010E94B81787FF46
:1012A0007CCF2FE832EC45EF5CE3C301B2010E9432
:1012B00013192B013C012FE832EC45EF5CE3C5012B
:1012C000B4010E9413194B015C0167CFB7FF10C036
:1012D0008DE20E94241069817A818B819C81909596
:1012E0008095709561957F4F8F4F9F4F4AE005C065
:1012F0004AE069817A818B819C810E942F1087E36B
:1013000092E00E94600F1D821E821F821886198241
:101310001A821B821C8286EC92E00E942A04698752
:101320007A878B879C8788EC92E00E942A046D87DD
:101330007E878F87988B69817A818B819C810E94BF
:10134000BF176B017C0169857A858B859C8590959B
:101350008095709561957F4F8F4F9F4F0E94BF176B
:101360009B01AC01C701B6010E9413190E94F1193B
:1013700069837A838B839C836D817E818F8198853D
:101380000E94BF176B017C016D857E858F859889D2
:101390000E94BF179B01AC01C701B6010E9413193F
:1013A0000E94F1196D837E838F8398877B018C0166
:1013B00029813A814B815C81C501B4010E944206BA
:1013C0004B015C010E94320620E030E040E85EE321
:1013D000C301B2010E94271A18160CF52DEC3CEC43
:1013E0004CE45DE3C301B2010E9412192B013C01E0
:1013F0002DEC3CEC4CE45DE3C501B4010E941219F4
:101400004B015C01B301A2018AEC92E00E9411033E
:10141000B501A40170588CEC92E00E94110364E6BF
:1014200070E080E090E00E94280D8AE392E00E9444
:10143000600FC301B2010E94A11089819A81AB8122
:10144000BC8181309941A105B1050CF464CF0E94A3
:10145000CF066AE070E080E090E064960FB6F89402
:10146000DEBF0FBECDBFDF91CF911F910F91FF90D7
:10147000EF90DF90CF90BF90AF909F908F907F9034
:101480006F905F904F900C94280D9091C5028091C1
:10149000C402981750F4E92FF0E0EC55FD4F20817D
:1014A00030E09F5F9093C50202C02FEF3FEFC9016C
:1014B00008958091C40290E02091C502821B910999
:1014C000089590E0FC013197E231F10508F04EC03B
:1014D0008827EC57FF4F8F4F0C940A19809180009A
:1014E0008F7703C0809180008F7D80938000089566
:1014F00080918000877FF9CF84B58F7702C084B553
:101500008F7D84BD08958091B0008F7703C0809156
:10151000B0008F7D8093B0000895809190008F7708
:1015200007C0809190008F7D03C080919000877FDD
:101530008093900008958091A0008F7707C08091DC
:10154000A0008F7D03C08091A000877F8093A000C2
:101550000895809120018F7707C0809120018F7DB1
:1015600003C080912001877F809320010895CF934D
:10157000DF93282F30E0F901E952FD4F8491F90102
:10158000EF56FD4FD491F901E55BFD4FC491CC239B
:1015900091F081110E94610AEC2FF0E0EE0FFF1F25
:1015A000EF5CFD4FA591B491EC91ED2381E090E0CB
:1015B00021F480E002C080E090E0DF91CF910895B7
:1015C0003FB7F8948091A0029091A102A091A2024D
:1015D000B091A30226B5A89B05C02F3F19F0019634
:1015E000A11DB11D3FBFBA2FA92F982F8827820FA9
:1015F000911DA11DB11DBC01CD0142E0660F771FF9
:10160000881F991F4A95D1F70895CF92DF92EF92E4
:10161000FF920F931F93CF93DF936C017A018B019D
:10162000C0E0D0E0CE15DF0589F0D8016D918D01C5
:10163000D601ED91FC910190F081E02DC601199544
:10164000892B11F47E0102C02196ECCFC701DF91F6
:10165000CF911F910F91FF90EF90DF90CF90089561
:10166000FC01A089B1898C91A689B78982FD0FC040
:101670009C91818D8F5F8F73228D821749F0218D10
:10168000DF01A20FB11D5D969C93818F08958C910F
:101690000895FC01538D448D252F30E0842F90E078
:1016A000821B930B541710F0CF960895019708955D
:1016B000FC01918D828D981761F0828DDF01A80F5A
:1016C000B11D5D968C91928D9F5F9F73928F90E07C
:1016D00008958FEF9FEF0895FC01918D828D9817EB
:1016E00031F0828DE80FF11D858D90E008958FEF28
:1016F0009FEF0895FC01918D228D892F90E0805CF1
:101700009F4F821B91098F739927089581E093E081
:101710000E947A0B21E0892B09F420E0822F0895A2
:101720008EE993E00E947A0B21E0892B09F420E0F6
:10173000822F08958BE394E00E947A0B21E0892B9D
:1017400009F420E0822F0895FC01848DDF01A80FA9
:10175000B11DA35ABF4F2C91848D90E001968F73D9
:101760009927848FA689B7892C93A089B1898C91F8
:1017700080648C93938D848D981306C00288F389BE
:10178000E02D80818F7D80830895EF92FF920F93EB
:101790001F93CF93DF93EC0181E0888F9B8D8C8D1D
:1017A000981305C0E889F989808185FD24C0F62E4B
:1017B0000B8D10E00F5F1F4F0F731127E02E8C8DE4
:1017C000E8120CC00FB607FCFACFE889F9898081CE
:1017D00085FFF5CFCE010E94A40BF1CF8B8DFE01CA
:1017E000E80FF11DE35AFF4FF0820B8FEA89FB8966
:1017F0008081806207C0EE89FF896083E889F9896A
:1018000080818064808381E090E0DF91CF911F919F
:101810000F91FF90EF900895CF93DF93EC01888DA7
:101820008823C9F0EA89FB89808185FD05C0A889E4
:10183000B9898C9186FD0FC00FB607FCF5CF80816A
:1018400085FFF2CFA889B9898C9185FFEDCFCE01B4
:101850000E94A40BE7CFDF91CF91089580E090E044
:10186000892B21F00E949A0B811119C080E090E031
:10187000892B41F080E090E0892B21F00E9400004C
:10188000811110C00E94900B81110FC080E090E088
:10189000892B81F00E94860B81110AC008950E9455
:1018A0000000E4CF0E940000EDCF0E94CF01EECFF8
:1018B0000C9400000895CF92DF92EF92FF920F9365
:1018C0001F93CF93DF937C01262F972F8A0180915E
:1018D000D102882391F0C62FD72F6E01C40ED51EDA
:1018E000CC15DD0571F06991D701ED91FC91019066
:1018F000F081E02DC7011995F3CF642F822F0E944C
:101900000913C801DF91CF911F910F91FF90EF90C4
:10191000DF90CF900895CF93DF931F92CDB7DEB7BE
:1019200069832091D1022223D1F02091F402203248
:1019300040F021E030E0FC013383228380E090E03E
:1019400015C08091D202E82FF0E0ED52FD4F998151
:1019500090838F5F8093D2028093F40205C061E090
:10196000CE0101960E94091381E090E00F90DF9173
:10197000CF9108950E94471C1F93CF93DF93282F88
:1019800030E0F901E952FD4F8491F901EF56FD4F26
:10199000D491F901E55BFD4FC491CC23C9F0162F1A
:1019A00081110E94610AEC2FF0E0EE0FFF1FE95E4B
:1019B000FD4FA591B4918FB7F894111105C09C917A
:1019C000ED2FE095E92302C0EC91ED2BEC938FBF56
:1019D000DF91CF911F910895CF93DF9390E0FC01A9
:1019E000EF56FD4F2491FC01E55BFD4F8491882368
:1019F00061F190E0880F991FFC01E350FE4FC59103
:101A0000D491FC01E95EFD4FA591B491611109C02B
:101A10009FB7F8948881209582238883EC912E23A8
:101A20000BC0623061F49FB7F8943881822F8095A3
:101A300083238883EC912E2B2C939FBF06C08FB7F6
:101A4000F894E8812E2B28838FBFDF91CF910895E2
:101A50008F929F92AF92BF92CF92DF92EF92FF92BE
:101A60006B017C010E94E00A4B015C01C114D104AE
:101A7000E104F104F1F00E94E00ADC01CB018819D5
:101A80009909AA09BB09883E9340A105B10570F3E5
:101A900021E0C21AD108E108F10888EE880E83E03F
:101AA000981EA11CB11CC114D104E104F10419F762
:101AB000DDCFFF90EF90DF90CF90BF90AF909F90E1
:101AC0008F9008951F920F920FB60F9211242F93AB
:101AD0003F938F939F93AF93BF9380919C0290917C
:101AE0009D02A0919E02B0919F0230919B0223E043
:101AF000230F2D3720F40196A11DB11D05C026E846
:101B0000230F0296A11DB11D20939B0280939C027E
:101B100090939D02A0939E02B0939F028091A00299
:101B20009091A102A091A202B091A3020196A11DE1
:101B3000B11D8093A0029093A102A093A202B09342
:101B4000A302BF91AF919F918F913F912F910F90E1
:101B50000FBE0F901F9018951F920F920FB60F9205
:101B600011240BB60F922F933F934F935F936F9374
:101B70007F938F939F93AF93BF93EF93FF93809146
:101B8000910290919202A0919302B0919402892BBC
:101B90008A2B8B2B59F180919002E0918E02F0916B
:101BA0008F02908189278083809191029091920287
:101BB000A0919302B0919402181619061A061B06FA
:101BC0000CF056C08091910290919202A0919302E4
:101BD000B09194020197A109B10980939102909369
:101BE0009202A0939302B093940242C080910002AB
:101BF000ECEFF1E0E4919FEF90930002E230C9F046
:101C000050F4EE2399F0E13081F590916F009D7FC3
:101C100090936F002AC0E43019F1E0F0E53029F527
:101C2000909173009D7F909373001FC010926E007F
:101C30001CC0909170009D7F9093700091E09093F4
:101C4000B0009091B100987F94609093B100109291
:101C5000B3000BC0909171009D7F9093710005C0FF
:101C6000909172009D7F9093720060E00E94BC0C86
:101C7000FF91EF91BF91AF919F918F917F916F9164
:101C80005F914F913F912F910F900BBE0F900FBE20
:101C90000F901F9018951F920F920FB60F9211245C
:101CA0000BB60F922F933F934F935F936F937F9356
:101CB0008F939F93AF93BF93EF93FF9381E093E054
:101CC0000E94A40BFF91EF91BF91AF919F918F91D3
:101CD0007F916F915F914F913F912F910F900BBE2C
:101CE0000F900FBE0F901F9018951F920F920FB676
:101CF0000F9211240BB60F922F933F934F935F9344
:101D00006F937F938F939F93AF93BF93EF93FF93C3
:101D100081E093E00E94300BFF91EF91BF91AF9172
:101D20009F918F917F916F915F914F913F912F91F3
:101D30000F900BBE0F900FBE0F901F9018951F9223
:101D40000F920FB60F9211240BB60F922F933F9361
:101D50004F935F936F937F938F939F93AF93BF93B3
:101D6000EF93FF938EE993E00E94A40BFF91EF9114
:101D7000BF91AF919F918F917F916F915F914F91A3
:101D80003F912F910F900BBE0F900FBE0F901F90A1
:101D900018951F920F920FB60F9211240BB60F9247
:101DA0002F933F934F935F936F937F938F939F9363
:101DB000AF93BF93EF93FF938EE993E00E94300BB4
:101DC000FF91EF91BF91AF919F918F917F916F9113
:101DD0005F914F913F912F910F900BBE0F900FBECF
:101DE0000F901F9018951F920F920FB60F9211240B
:101DF0000BB60F922F933F934F935F936F937F9305
:101E00008F939F93AF93BF93EF93FF938BE394E0F4
:101E10000E94A40BFF91EF91BF91AF919F918F9181
:101E20007F916F915F914F913F912F910F900BBEDA
:101E30000F900FBE0F901F9018951F920F920FB624
:101E40000F9211240BB60F922F933F934F935F93F2
:101E50006F937F938F939F93AF93BF93EF93FF9372
:101E60008BE394E00E94300BFF91EF91BF91AF9113
:101E70009F918F917F916F915F914F913F912F91A2
:101E80000F900BBE0F900FBE0F901F90189585ED11
:101E90008093BC008091BC0084FDFCCF1092D002E6
:101EA0000895089581E090E03091C5022091C40228
:101EB000321710F480E090E0919581959109089592
:101EC000009769F0FC0101900020E9F73197AF011C
:101ED000481B590BBC018BE394E00C94050B80E08C
:101EE00090E00895CF93DF930E94600FEC0187E3A9
:101EF00092E00E94600F8C0F9D1FDF91CF9108959B
:101F00002091F4029091F302213208F04AC08091AE
:101F1000D0028111FCCF32E03093D00231E0309317
:101F2000CF023FEF30935D0610925C0620935B0674
:101F3000A3EDB2E04BE356E0FA013E2F341B32171B
:101F400018F43D913193F9CF10923A0620913A0658
:101F5000990F922B90933A069091CE02913061F4B2
:101F60001092CE0290913A069093BB009091BC00E3
:101F700093FDF8CF95EC01C095EE9093BC00909145
:101F8000D0029230E1F390915D069F3F79F080910D
:101F90005D06803241F080915D06803331F084E04F
:101FA00005C081E003C082E001C083E01092D2024C
:101FB0001092F4021092D1020895EF92FF921F93B3
:101FC000CF93DF931F92CDB7DEB7162F94EDE92E96
:101FD00095E0F92ED7011C969C911C9721E0209347
:101FE000D1029093F3021092D2021092F4021A9648
:101FF0000D90BC91A02DED91FC9111970190F08175
:10200000E02D682FCD0179831995F701828593859D
:10201000DC01ED91FC910190F081E02D7981672F39
:102020001995F70182859385DC01ED91FC91019072
:10203000F081E02D612F19950F90DF91CF911F91C5
:10204000FF90EF900C94800FE0913B04F0913C04E2
:102050000190F081E02D682F8BE394E019948F922A
:102060009F92AF92BF920F931F93CF93DF93CDB701
:10207000DEB7A1970FB6F894DEBF0FBECDBF19A291
:10208000423008F44AE08E010F5D1F4F842E912CE0
:10209000A12CB12CA50194010E94DC18E62FB901F6
:1020A000CA0101501109EA3014F4E05D01C0E95C95
:1020B000D801EC93232B242B252B61F7C8010E9418
:1020C000600FA1960FB6F894DEBF0FBECDBFDF91B3
:1020D000CF911F910F91BF90AF909F908F900895D7
:1020E000CF92DF92EF92FF92CF93DF936C01990F23
:1020F000EE08FF08F7FE12C08DE20E942410EC01EA
:1021000066277727CB016C197D098E099F094AE064
:102110000E942F107C01EC0EFD1E06C04AE0C70194
:10212000B6010E942F107C0187E392E00E94600FAD
:102130008E0D9F1DDF91CF91FF90EF90DF90CF909C
:1021400008954F925F926F927F928F929F92AF927B
:10215000BF92CF92DF92EF92FF926B017C019B01C5
:10216000AC010E942C1A882319F086E592E01AC06F
:1021700046015701E894B7F82FEF3FEF4FE75FE7CD
:10218000C501B4010E942C1A811110C02FEF3FEF3E
:102190004FE75FE7C501B4010E94B817181634F481
:1021A0008AE592E00E94600F7C017FC02FEF3FEF35
:1021B0004FE75FE4C701B6010E94271A18161CF406
:1021C0008EE592E0EFCF2FEF3FEF4FE75FECC701D7
:1021D000B6010E94B81787FDF3CF20E030E0A901D7
:1021E000C701B6010E94B81787FF09C08DE20E949F
:1021F00024105C01F7FAF094F7F8F09402C0A12CD7
:10220000B12C2AE037ED43EA5BE3C701B6010E9437
:1022100013192B013C010E94F8196B017C010E94EB
:10222000BD179B01AC01C301B2010E9412192B0121
:102230003C014AE0C701B6010E942F107C01EA0C64
:10224000FB1C8EE20E942410E80EF91E20E030E014
:1022500040E251E4C301B2010E941E182B013C016F
:102260000E94F8194B01A12CB12C4AE0C501B40120
:102270000E942F10E80EF91EC501B4010E94BD177F
:102280009B01AC01C301B2010E94121920E030E0B1
:1022900040E251E40E941E180E94F81980E090E08C
:1022A0004AE00E942F10E80EF91E87E392E00E9498
:1022B000600F8E0D9F1DFF90EF90DF90CF90BF902D
:1022C000AF909F908F907F906F905F904F90089508
:1022D000CF92DF92EF92FF927C010E94320660E083
:1022E00070E084E393E40E94A11060E070E080E07D
:1022F0009FE30E94A1106BED7FE089E490E40E94CF
:10230000A1106CE97EEC88E19FE30E94A11083E1BB
:1023100090E00E94701084EB90E00E94701082E6C2
:1023200092E00E94720F6701F7FE03C08FEFC81A98
:10233000D80AD594C794D194C194D10888E2C81A18
:1023400081EED80AD7FE03C08FEFC81AD80AD594F9
:10235000C7940D2C000CEE08FF0888EC92E00E9458
:102360002A046C157D058E059F058CF44DEC5CEC04
:102370006CE47EEB8AEC92E00E9411034DEC5CEC85
:102380006CE47EEB8CEC92E00E941103E6CFFF90B0
:10239000EF90DF90CF900C94CF061F920F920FB664
:1023A0000F9211240F900FBE0F901F9018951F923F
:1023B0000F920FB60F9211240BB60F922F933F93EB
:1023C0004F935F936F937F938F939F93AF93BF933D
:1023D000EF93FF938091B900887F803609F49CC009
:1023E00068F5883209F45BC090F4803109F454C078
:1023F00038F4882309F4F6C0883009F44DC0F6C0DB
:10240000883109F44CC0803209F45DC0EFC08034DB
:1024100009F468C048F4803309F455C0883309F0E2
:10242000E5C080935D06D8C0803509F44FC088357B
:1024300009F45DC0883409F0D9C0D6C0883909F4E0
:10244000C7C0A8F4883709F467C038F4883609F49F
:1024500063C0803709F460C0C9C0883809F4B8C0C7
:10246000803909F45FC0803809F0C0C05BC0803B90
:1024700009F486C038F4803A09F466C0883A09F451
:102480007FC0B4C0803C09F4A7C0883C09F4A4C054
:10249000883B09F48AC0AAC080913A0610C0909186
:1024A0005C0680915B06981770F5E0915C0681E010
:1024B0008E0F80935C06F0E0E55CF94F808180939D
:1024C000BB0085EC86C080935D068EC0E0915C0603
:1024D00081E08E0F80935C068091BB00F0E0E55CAC
:1024E000F94F808390915C0680915B066EC0E0910D
:1024F0005C0681E08E0F80935C068091BB00F0E06B
:10250000E55CF94F80838091CF0281116DC081E03D
:102510008093CE0284EA61C083E08093D00210925F
:102520003706CFCF80913706803208F051C0E09156
:10253000370681E08E0F809337068091BB00F0E074
:10254000E95EF94F8083BDCF85EC8093BC0010928B
:10255000D00280913706803230F4E0913706F0E007
:10256000E95EF94F10826091370670E0E091150640
:10257000F091160687E196E019951092370636C05D
:1025800084E08093D0021092140610921306E0911A
:102590001106F0911206199580911306811105C05C
:1025A00081E0809313061092F105E091140681E01A
:1025B0008E0F80931406F0E0EF50FA4F80818093E5
:1025C000BB009091140680911306981708F479CFF8
:1025D00085E88093BC000AC085EC8093BC00109213
:1025E000D00204C010925D060E94470FFF91EF9148
:1025F000BF91AF919F918F917F916F915F914F911B
:102600003F912F910F900BBE0F900FBE0F901F9018
:10261000189540911306262F30E0240F311D2132EA
:102620003105DCF42091D0022430C9F4FC0180E0B3
:1026300090E0861758F4309113062191DC01AF50D9
:10264000BA4FA30FB11D2C930196F3CF80911306BF
:10265000680F6093130680E0089581E0089582E09A
:1026600008958091690590916A050C94C61A789432
:1026700084B5826084BD84B5816084BD85B5826087
:1026800085BD85B5816085BD80916E008160809338
:102690006E001092810080918100826080938100A1
:1026A00080918100816080938100809180008160B1
:1026B000809380008091B10084608093B10080910C
:1026C000B00081608093B00080919100826080931F
:1026D00091008091910081608093910080919000A1
:1026E0008160809390008091A10082608093A1001E
:1026F0008091A10081608093A1008091A000816001
:102700008093A000809121018260809321018091BB
:10271000210181608093210180912001816080935B
:10272000200180917A00846080937A0080917A0001
:10273000826080937A0080917A00816080937A0031
:1027400080917A00806880937A001092C100E091B5
:102750004B04F0914C0482E08083E0914704F091B7
:1027600048041082E0914904F0914A048FEC808380
:1027700010925304E0914F04F091500496E090833E
:10278000E0914D04F0914E04808180618083E0915E
:102790004D04F0914E04808188608083E0914D0467
:1027A000F0914E04808180688083E0914D04F09127
:1027B0004E0480818F7D80839093CA028FE1809345
:1027C000CB0261E086E00E94EC0C61E08091CB02DC
:1027D0000E94EC0C85E08093CC028EE18093CD02C8
:1027E00061E085E00E94EC0C61E08091CD020E94E6
:1027F000EC0C45E463E286EC92E00E948F0444E432
:1028000062E288EC92E00E948F0486E18093950258
:1028100087E18093960260E086E10E94EC0C61E023
:10282000809196020E94EC0C60E0809196020E94DA
:10283000BC0C88E18093970289E18093980260E064
:1028400088E10E94EC0C61E0809198020E94EC0CFF
:1028500060E0809198020E94BC0C61E08091D505F7
:102860000E94EC0C60E08091D5050E94BC0C60E0F9
:102870008091D4050E94EC0C85EF92E09093DF05E7
:102880008093DE051092C5021092C4021092D2020B
:102890001092F4021092D00281E08093CF02109245
:1028A000CE0261E084E10E94BC0C61E085E10E94FF
:1028B000BC0C8091B9008E7F8093B9008091B900E3
:1028C0008D7F8093B90088E48093B80085E480937D
:1028D000BC0080E090E1A0E0B0E08093E10590933F
:1028E000E205A093E305B093E4058AE090E0A0E060
:1028F000B0E08093E5059093E605A093E705B093DB
:10290000E80582E090E0A0E0B0E08093E9059093D4
:10291000EA05A093EB05B093EC0560E070E185E07B
:102920000E94DD0F6FE979E380E00E94DD0FC6EDC4
:10293000D5E01C2F1C5F60E089910E94EC0C1C13F9
:10294000FACF64E070E08EEC95E00E94F20467E05C
:1029500070E081ED95E00E94F2048CE492E00E9428
:10296000720F64EF71E080E090E00E94280D1092F9
:102970009A021092990282E592E00E94720F809171
:10298000D9050E94B70A892B09F410C162E578EBDA
:1029900086E090E40E948C0824E630E040E050E0BD
:1029A00060E070E084EB92E40E94EE0662E578EB72
:1029B0008EE99EE30E949A0725EB3FEF41E050E04D
:1029C00060E070E084EB92E40E94EE066FE175E84F
:1029D0008BE69EE30E949A0725EB3FEF41E050E033
:1029E00060E070E084EB92E40E94EE0668EB7EE12A
:1029F00085E89EE30E949A0724E630E040E050E03C
:102A000060E070E084EB92E40E94EE0668EB7EE109
:102A100085E09EE30E949A0724E630E041E050E022
:102A200060E070E084E392E40E94EE0664EA70E7FE
:102A30008DEB9EE30E949A0724E630E040E050E0F0
:102A400060E070E084EB92E40E94EE0660E070E0EB
:102A500080E09FE30E949A0724E630E041E050E0E6
:102A600060E070E084E392E40E94EE066AE077EDB5
:102A700083EA9EE30E949A0720E030E041E050E0C4
:102A800060E070E08CEA91E40E94EE066AE077ED87
:102A900083E29FE30E949A078CE291E00E94681112
:102AA0006AE077ED83E29FE30E949A0720E030E03E
:102AB00040E050E060E070E08CEA91E40E94EE06B5
:102AC0006AE077ED83EA9EE30E949A0720E030E017
:102AD00040E050E060E070E086E492E40E94EE06A0
:102AE00061E77DE38AE09FE30E949A0720E030E0FF
:102AF00041E050E060E070E082EB92E40E94EE067C
:102B000064EA70E78DEB9EE30E949A0720E030E0D4
:102B100040E050E060E070E084E392E40E94EE0662
:102B200068EB7EE185E09EE30E949A0720E030E0BA
:102B300041E050E060E070E084EB92E40E94EE0639
:102B400061EE7AE784E99EE30E949A0720E030E094
:102B500040E050E060E070E088EB92E40E94EE0616
:102B60006FE175E88BE69EE30E949A0720E030E073
:102B700040E050E060E070E084EB92E40E94EE06FA
:102B800062E578EB8EE99EE30E949A0720E030E050
:102B900041E050E060E070E084EB92E40E94EE06D9
:102BA00068EB7EE185E190E40E948C088091D60577
:102BB0000E94B70A892B51F020E030E040E050E05D
:102BC00060E070E084E393E40E94EE068091D70514
:102BD0000E94B70A892B51F020E030E041E050E03C
:102BE00060E070E084E393E40E94EE068091D805F3
:102BF0000E94B70A892B51F064E670E080E090E013
:102C00000E94280D88E19CEF0E9468116AE070E044
:102C100080E090E00E94280D0E942E0CB0CE109211
:102C2000F8021092F70288EE93E0A0E0B0E0809303
:102C3000F9029093FA02A093FB02B093FC022BE0FE
:102C400032E03093F6022093F502109204031092C2
:102C500003038093050390930603A0930703B093A7
:102C600008032DE132E0309302032093010345E392
:102C700051E050930E0340930D0344E351E0509311
:102C8000100340930F0340E351E05093120340932D
:102C9000110341E351E0509314034093130342E3C3
:102CA00051E0509316034093150346E351E05093CF
:102CB00018034093170310921A0310921B031092EB
:102CC0001C0310921D031092A1031092A003809385
:102CD000A2039093A303A093A403B093A5033093FE
:102CE0009F0320939E0345ED50E05093AB03409328
:102CF000AA0344ED50E05093AD034093AC0340ED84
:102D000050E05093AF034093AE0341ED50E0509339
:102D1000B1034093B00342ED50E05093B3034093AE
:102D2000B20346ED50E05093B5034093B4031092C4
:102D3000B7031092B8031092B9031092BA0310921D
:102D40003E0410923D0480933F0490934004A0936E
:102D50004104B093420430933C0420933B0485EC3F
:102D600090E0909348048093470484EC90E0909323
:102D70004A048093490480EC90E090934C04809343
:102D80004B0481EC90E090934E0480934D0482ECD0
:102D900090E09093500480934F0486EC90E09093E1
:102DA00052048093510410925404109255041092CE
:102DB0005604109257048DE090E00E94311AFC01F5
:102DC000138212828FE292E091838083118687E2E0
:102DD000848384E1828784E083871486F093EE0500
:102DE000E093ED051092EF051092F0058CE08093D2
:102DF000D40584E28093D5058BE18093D6058DE1DF
:102E00008093D7058AE18093D8058CE18093D9051A
:102E100086E38093DA0587E38093DB0588E380937C
:102E2000DC0589E38093DD0580E48093E005109262
:102E3000E5051092E6051092E7051092E80510925C
:102E4000E9051092EA051092EB051092EC058091CD
:102E50006805803320F09FEF9093CE0511C08093DA
:102E6000CE05282F30E0F901EE0FFF1F2E0F3F1F78
:102E7000F901E852FB4F28EB3BE0328321838F5F5F
:102E8000803390F48093D105282F30E0F901EE0FC4
:102E9000FF1F2E0F3F1FF901E852FB4F28EB3BE0CD
:102EA000328321838F5F03C09FEF9093D10580937E
:102EB0006805EFE6F5E08FEF9FEFDC0112821382E9
:102EC0001482158216821782108611868387948752
:102ED000A587B6878787908BA18BB28B12861182CC
:102EE0001082739625E0EE3CF20741F710926A05D6
:102EF0001092690510926C0510926B0510926E0588
:102F000010926D0561E070E080E090E00E945E1B31
:102F1000009789F090936A058093690510926C057B
:102F200010926B0520916D0530916E05232BC1F435
:102F3000FC01108215C08091690590916A05009787
:102F400011F00E94C61A10926A051092690510923B
:102F50006E0510926D0510926C0510926B05089528
:102F600010926E0510926D0569E372E00C94551C89
:102F70000E94FA1708F481E00895E89409C097FBCD
:102F80003EF490958095709561957F4F8F4F9F4F40
:102F90009923A9F0F92F96E9BB279395F695879584
:102FA00077956795B795F111F8CFFAF4BB0F11F447
:102FB00060FF1BC06F5F7F4F8F4F9F4F16C08823EE
:102FC00011F096E911C0772321F09EE8872F762F24
:102FD00005C0662371F096E8862F70E060E02AF065
:102FE0009A95660F771F881FDAF7880F9695879551
:102FF00097F90895990F0008550FAA0BE0E8FEEF26
:1030000016161706E807F907C0F012161306E407AC
:10301000F50798F0621B730B840B950B39F40A26A5
:1030200061F0232B242B252B21F408950A2609F483
:10303000A140A6958FEF811D811D08950E94311832
:103040000C94A2180E94941838F00E949B1820F04B
:10305000952311F00C948B180C94911811240C9456
:10306000D6180E94B31870F3959FC1F3950F50E0E6
:10307000551F629FF001729FBB27F00DB11D639F2A
:10308000AA27F00DB11DAA1F649F6627B00DA11DD0
:10309000661F829F2227B00DA11D621F739FB00D76
:1030A000A11D621F839FA00D611D221F749F3327E6
:1030B000A00D611D231F849F600D211D822F762F7F
:1030C0006A2F11249F5750409AF0F1F088234AF05C
:1030D000EE0FFF1FBB1F661F771F881F91505040C8
:1030E000A9F79E3F510580F00C948B180C94D618CC
:1030F0005F3FE4F3983ED4F3869577956795B7954F
:10310000F795E7959F5FC1F7FE2B880F911D969568
:10311000879597F9089597F99F6780E870E060E0D8
:1031200008959FEF80EC089500240A941616170660
:1031300018060906089500240A94121613061406A8
:1031400005060895092E0394000C11F4882352F00B
:10315000BB0F40F4BF2B11F460FF04C06F5F7F4FC3
:103160008F4F9F4F089557FD9058440F551F59F0AA
:103170005F3F71F04795880F97FB991F61F09F3F64
:1031800079F087950895121613061406551FF2CF8D
:103190004695F1DF08C0161617061806991FF1CFDD
:1031A00086957105610508940895E894BB27662704
:1031B0007727CB0197F90895A1E21A2EAA1BBB1B12
:1031C000FD010DC0AA1FBB1FEE1FFF1FA217B307F3
:1031D000E407F50720F0A21BB30BE40BF50B661F09
:1031E000771F881F991F1A9469F7609570958095CD
:1031F00090959B01AC01BD01CF010895991B79E029
:1032000004C0991F961708F0961B881F7A95C9F776
:1032100080950895EE0FFF1F881F8BBF0790F691D2
:10322000E02D19945058BB27AA270E942A190C9404
:10323000A2180E94941838F00E949B1820F039F4CC
:103240009F3F19F426F40C9491180EF4E095E7FBD7
:103250000C948B18E92F0E94B31858F3BA17620721
:1032600073078407950720F079F4A6F50C94D51818
:103270000EF4E0950B2EBA2FA02D0B01B901900191
:103280000C01CA01A0011124FF27591B99F0593FD5
:1032900050F4503E68F11A16F040A22F232F342F1D
:1032A0004427585FF3CF469537952795A795F0406B
:1032B0005395C9F77EF41F16BA0B620B730B840B80
:1032C000BAF09150A1F0FF0FBB1F661F771F881F38
:1032D000C2F70EC0BA0F621F731F841F48F4879590
:1032E00077956795B795F7959E3F08F0B0CF939582
:1032F000880F08F09927EE0F9795879508950E94FB
:1033000093190C94A2180E949B1858F00E949418CC
:1033100040F029F45F3F29F00C948B1851110C9464
:10332000D6180C9491180E94B31868F39923B1F33E
:10333000552391F3951B550BBB27AA2762177307DB
:10334000840738F09F5F5F4F220F331F441FAA1F6F
:10335000A9F335D00E2E3AF0E0E832D0915050402B
:10336000E695001CCAF72BD0FE2F29D0660F771FD9
:10337000881FBB1F261737074807AB07B0E809F0BF
:10338000BB0B802DBF01FF2793585F4F3AF09E3F44
:10339000510578F00C948B180C94D6185F3FE4F329
:1033A000983ED4F3869577956795B795F7959F5F87
:1033B000C9F7880F911D9695879597F90895E1E0D3
:1033C000660F771F881FBB1F621773078407BA0732
:1033D00020F0621B730B840BBA0BEE1F88F7E0958D
:1033E00008950E94F8196894B1110C94D6180895A4
:1033F0000E94BB1888F09F5798F0B92F9927B751B2
:10340000B0F0E1F0660F771F881F991F1AF0BA9588
:10341000C9F714C0B13091F00E94D518B1E00895F9
:103420000C94D518672F782F8827B85F39F0B93FEB
:10343000CCF3869577956795B395D9F73EF490953B
:103440008095709561957F4F8F4F9F4F08950E9493
:10345000FA1708F48FEF08950E94FA17880B990B5A
:103460000895CF93DF938230910510F482E090E0CD
:10347000E0916006F091610620E030E0C0E0D0E02D
:10348000309711F14081518148175907C0F0481712
:10349000590761F482819381209719F09B838A8375
:1034A0002BC0909361068093600626C021153105DC
:1034B00019F04217530718F49A01BE01DF01EF011A
:1034C0000280F381E02DDCCF2115310509F1281BA5
:1034D000390B2430310590F412968D919C911397FD
:1034E0006115710521F0FB019383828304C09093E1
:1034F000610680936006FD01329644C0FD01E20F33
:10350000F31F81939193225031092D933C933AC03C
:1035100020915E0630915F06232B41F42091030237
:103520003091040230935F0620935E0620910102E1
:10353000309102022115310541F42DB73EB740917B
:10354000050250910602241B350BE0915E06F091B6
:103550005F06E217F307A0F42E1B3F0B281739076D
:1035600078F0AC014E5F5F4F2417350748F04E0FDF
:103570005F1F50935F0640935E068193919302C054
:10358000E0E0F0E0CF01DF91CF9108950F931F931A
:10359000CF93DF93009709F48CC0FC01329713821C
:1035A000128200916006109161060115110581F4E7
:1035B00020813181820F931F20915E0630915F063A
:1035C0002817390779F5F0935F06E0935E0671C01E
:1035D000D80140E050E0AE17BF0750F412962D918D
:1035E0003C911397AD012115310509F1D901F3CFB4
:1035F0009D01DA013383228360817181860F971FD9
:103600008217930769F4EC0128813981260F371F4F
:103610002E5F3F4F318320838A819B8193838283F6
:10362000452B29F4F0936106E093600642C013969F
:10363000FC93EE931297ED01499159919E01240F4D
:10364000351FE217F30771F480819181840F951F74
:10365000029611969C938E938281938113969C93EC
:103660008E931297E0E0F0E0D80112968D919C9134
:103670001397009719F0F8018C01F6CF8D919C916A
:1036800098012E5F3F4F820F931F20915E0630916D
:103690005F062817390769F4309729F410926106FC
:1036A0001092600602C01382128210935F0600938C
:1036B0005E06DF91CF911F910F9108956F927F92D7
:1036C0008F929F92AF92BF92CF92DF92EF92FF9232
:1036D0000F931F93CF93DF93EC01009789F4CB01F5
:1036E000DF91CF911F910F91FF90EF90DF90CF90DE
:1036F000BF90AF909F908F907F906F900C94311AF5
:10370000FC01E60FF71F9C0122503109E217F30775
:1037100008F4ACC0D9010D911C9111970617170739
:10372000B0F00530110508F49FC0C8010497861752
:10373000970708F499C002501109061B170B019353
:1037400011936D937C93CF010E94C61A8DC05B01CB
:10375000A01AB10A4C01800E911EA0916006B09192
:10376000610640E050E0E12CF12C109709F44AC0CA
:10377000A815B905D1F56D907C901197630182E091
:10378000C80ED11CCA14DB0480F1A3014A195B09DD
:103790006A0182E0C80ED11C1296BC901297139653
:1037A000AC91B5E0CB16D10440F0B282A383518333
:1037B0004083D9016D937C930AC00E5F1F4FC301F4
:1037C000800F911FF90191838083EB2DFA2FE11473
:1037D000F10431F0D7011396FC93EE93129744C095
:1037E000F0936106E09360063FC08D919C91119724
:1037F0004817590708F4AC017D0112960D90BC9151
:10380000A02DB3CF80915E0690915F068815990533
:10381000E1F446175707C8F4809101029091020223
:10382000009741F48DB79EB7409105025091060272
:10383000841B950BE817F907C8F4F0935F06E09333
:103840005E06F901718360830FC0CB010E94311ABB
:103850007C01009759F0A801BE010E944C1CCE01CA
:103860000E94C61AC70104C0CE0102C080E090E0E9
:10387000DF91CF911F910F91FF90EF90DF90CF904C
:10388000BF90AF909F908F907F906F90089581E050
:1038900090E0F8940C945C1CFB01DC0102C00190E8
:1038A0000D9241505040D8F70895FB01DC01019082
:1038B0000D920020E1F7089511E0C0E9D1E000E0A9
:1038C00006C0802FFE010E940A192196011DC139F0
:0C38D000D10780E00807A9F7F894FFCFAB
:1038DC00FF000062062000000000008B0C5B0CCC8B
:1038EC0001510F590A450A520F00000000C50B0583
:1038FC000B490B0C0C7A0B580B6C0B00000000ECFA
:10390C0002050BCC01CB010D0A005669746573736B
:10391C0065206D6F74657572203A200048656C6C7B
:10392C006F00474F21006E616E00696E66006F7606
:10393C0066002D2D2D2D2D2D2D2D2D2D2D2D0000F9
:00000001FF
