:100000000C9495010C94C6010C94C6010C94C60185
:100010000C94C6010C94C6010C94C6010C94C60144
:100020000C94C6010C944E110C944E110C944E116C
:100030000C94C6010C943C0D0C94C6010C94C601A2
:100040000C94C6010C94230A0C94C6010C94C601AE
:100050000C94C6010C94C6010C94C6010C948B0C34
:100060000C94C6010C940D0F0C94E30E0C94C60175
:100070000C94C6010C94C6010C94C6010C94C601E4
:100080000C94F5090C94C6010C94C6010C94C6019D
:100090000C94C6010C94C6010C94C6010C94581122
:1000A0000C94C6010C94C6010C94C7090C94C601AB
:1000B0000C94C6010C94C6010C94C6010C949909C9
:1000C0000C94C6010C94C6010C94C6010C94B90E94
:1000D0000C948F0E0C94C6010C94650E0C943B0E80
:1000E0000C94C601F903FE0303040D0417049004E5
:1000F0002104290431043B0445044F045E046804D0
:10010000900472047C048604AA0BAD0B9C0BA00B1C
:10011000A60BE40BB10BB50BBB0BBF0BC30BC90B91
:10012000CD0BD10BE40BD70BDB0BDF0B0C941704BF
:100130000C94410F0C94D0120C94B10B0C94A40AA3
:100140000C9468040C9429040C9421040C943B0432
:100150000C94DB0B0C943F020C9431040C94420F72
:100160000C94C90B0C94D70B0C94C1040C94C801CB
:100170000C94F9030C9445040C94B50B0C94100BDF
:100180000C9452070C94CD080C9472040C94AD0B93
:100190000C943E020C94BF0B0C94A60B0C94DF0B3A
:1001A0000C945E040C949C0B0C94E40B0C94900443
:1001B0000C94F9010C94B80A0C94BB0B0C94030436
:1001C0000C94CD0B0C94AA0B0C94D10B0C94D7016E
:1001D0000C94400B0C94EB010C9474150C94C30B11
:1001E0000C94E50A0C94A00B0C947C040C948604EB
:1001F0000C94FE030C9414090C940D040C949E0AA8
:100200000C944F04000020002300260029002C003D
:100210002F00320000010000030106010901020065
:10022000002100240027002A002D003000330001A7
:10023000010000040107010A010000220025002836
:10024000002B002E003100340002010000050108DF
:10025000010B01050505050705080808080202024B
:10026000020A0A0808040404040101010101010151
:10027000010303030303030303040707070C0C0C28
:100280000C0C0C0C0C020202020606060606060600
:10029000060B0B0B0B0B0B0B0B010210202008089D
:1002A00010204010204080020102010804020101D8
:1002B00002040810204080804020100804020180C1
:1002C0000402018040201008040201080402010118
:1002D0000204081020408001020408102040800021
:1002E000000A0B02090C0D0E0807030401000000B0
:1002F00000000000000000000000000000000000FE
:1003000000000000000000000000001211100000BA
:1003100000000000000000000000000000000000DD
:100320000000000000007415D01211241FBECFEF92
:10033000D1E2DEBFCDBF00E00CBF13E0A0E0B2E031
:10034000E0E6F7E300E00BBF02C007900D92AA328F
:10035000B107D9F727E0AAE2B3E001C01D92AE329F
:10036000B207E1F711E0C4E9D1E000E006C021974F
:100370000109802FFE010E940617C339D10780E0D2
:100380000807A9F70E94D6120C949E1B0C9400003B
:10039000FC01538D448D252F30E0842F90E0821B8B
:1003A000930B541710F0CF96089501970895FC0110
:1003B000918D828D981761F0828DDF01A80FB11D9C
:1003C0005D968C91928D9F5F9F73928F90E00895C0
:1003D0008FEF9FEF0895FC01918D828D981731F07A
:1003E000828DE80FF11D858D90E008958FEF9FEFCE
:1003F0000895FC01918D228D892F90E0805C9F4FA4
:10040000821B91098F7399270895E0915803F09109
:100410005903199480E090E0892B21F00E94850B0C
:10042000811119C080E090E0892B41F080E090E0DC
:10043000892B21F00E940000811110C00E947B0BCB
:1004400081110FC080E090E0892B81F00E94710B38
:1004500081110AC008950E940000E4CF0E940000AC
:10046000EDCF0E940502EECF0C94000008958EBDE2
:1004700000000DB407FEFDCF8EB50895089580E00D
:1004800090E00895CF93DF93EC0160E088810E94B3
:10049000E50B88E90E94370280E00E94370280E085
:1004A0000E94370280E00E94370280E00E943702FB
:1004B00061E088810E94E50B8BE891E00197F1F7FC
:1004C00060E088810E94E50B80EE0E94370261E0C7
:1004D0008881DF91CF910C94E50BAF92BF92CF92C0
:1004E000DF92EF92FF920F931F93CF93DF93CDB7DD
:1004F000DEB760970FB6F894DEBF0FBECDBF5C01CC
:1005000060E0FC0180810E94E50B80E60E943702DA
:100510008E010F5F1F4F7E01F1E1EF0EF11C6801AC
:1005200080E00E94370290E0A0E0B0E0F601819305
:100530009193A193B1936F01EE15FF0589F761E0E7
:10054000F50180810E94E50B80E090E0DC01F8017C
:1005500041915191619171918F01BA2FA92F982FDB
:100560008827840F951FA61FB71FEE15FF0579F783
:100570009C01AD0166277727CB01621B730B840BAF
:10058000950B60960FB6F894DEBF0FBECDBFDF911E
:10059000CF911F910F91FF90EF90DF90CF90BF9080
:1005A000AF900895CF92DF92EF92FF920F931F9337
:1005B000CF93DF936C018B017A01EC01C55BDC4FBB
:1005C000888187FF04C0FB011182108224C08CE067
:1005D0008C9D90018D9D300D11248881A901480FBB
:1005E000511D87FD5A958091250690E048175907BF
:1005F00094F48881A901480F511D87FD5A95CA01BD
:10060000FA01EE0FFF1F8E0F9F1FFC01EB56FA4FF2
:10061000808186FD19C088818F5F88838CE08C9DE6
:1006200090018D9D300D11248881A901480F511D25
:1006300087FD5A958091250690E048175907BCF42C
:1006400088818C3044F113C08881280F311D87FDCB
:100650003A95F901EE0FFF1F2E0F3F1FF901EB56E0
:10066000FA4F808160E08F730E94E50BD4CFF801D0
:1006700080819181049680349C4918F480E49CE93F
:1006800004C0F801808191810496F70191838083F1
:100690008FEF888345C0F801408151818881B9017D
:1006A000680F711D87FD7A95CB01FB01EE0FFF1FCF
:1006B0008E0F9F1FFC01EB56FA4F81819281840FB0
:1006C000951FF701918380838881A901480F511DEF
:1006D00087FD5A95CA01FA01EE0FFF1F8E0F9F1F6B
:1006E000FC01EB56FA4F808186FF1AC08881280FE3
:1006F000311D87FD3A95F901EE0FFF1F2E0F3F1FA9
:10070000F901EB56FA4F808161E08F73DF91CF9151
:100710001F910F91FF90EF90DF90CF900C94E50B1D
:10072000DF91CF911F910F91FF90EF90DF90CF90CD
:1007300008958F929F92AF92BF92CF92DF92EF92E5
:10074000FF920F931F93CF93DF93EC016A017B011C
:1007500020E030E04FE753E4C701B6010E94BE1A23
:100760004B015C0120E030E0A9010E94231818161B
:100770001CF4C501B40103C0C501B40190580E9426
:10078000ED178B0120E030E0A901C701B6010E94FE
:100790002318181614F460E001C061E089810E94FA
:1007A000E50B0F3F110509F014F4112702C00FEFFC
:1007B00010E0C88161E08C2F0E94150C0115110515
:1007C00009F4B1C00F3F110509F4AFC0EC2FF0E000
:1007D000E152FD4FE4914E2F50E0FA013197E231A2
:1007E000F10508F09DC08827EE58FF4F8F4F0C94FD
:1007F000061784B5806884BD07BDA7C084B5806234
:1008000084BD08BDA2C08091800080688093800074
:10081000109389000093880098C0809180008062C6
:100820008093800010938B0000938A008EC080918B
:10083000800088608093800010938D0000938C006E
:1008400084C08091B00080688093B0000093B300B2
:100850007CC08091B00080628093B0000093B400AF
:1008600074C08091900080688093900010939900EC
:10087000009398006AC080919000806280939000FD
:1008800010939B0000939A0060C080919000886054
:100890008093900010939D0000939C0056C080911F
:1008A000A00080688093A0008091A0008F7B80933F
:1008B000A0001093A9000093A80047C08091A00059
:1008C00080628093A0001093AB000093AA003DC00B
:1008D0008091A00088608093A0001093AD000093E9
:1008E000AC0033C080912001806880932001109378
:1008F00029010093280129C0809120018062809302
:10090000200110932B0100932A011FC08091200128
:1009100088608093200110932D0100932C0115C055
:100920000038110514F460E001C061E08C2FDF9104
:10093000CF911F910F91FF90EF90DF90CF90BF90DC
:10094000AF909F908F900C94E50BDF91CF911F910A
:100950000F91FF90EF90DF90CF90BF90AF909F905E
:100960008F90089540E050E0BA0184E593E00E9442
:10097000990340E050E060E070E886E593E00C9475
:1009800099030F931F93CF93DF93CDB7DEB72897CB
:100990000FB6F894DEBF0FBECDBF62E672E0CE01A7
:1009A00001960E94FC0C8BE594E00E94F901892BD2
:1009B000F9F08BE594E00E94D7018F8318860D81B2
:1009C0001E810F5F1F4FB801CE0101960E94D50C0A
:1009D000882349F329813A818D819E81BE01695F17
:1009E0007F4F820F931F0E94511A1E830D83DBCF0E
:1009F0006BE472E088EF94E00E94390E4D815E81D5
:100A000069817A8188EF94E00E94E50A60E672E0ED
:100A100088EF94E00E94390E89819A810E94C21861
:100A200028960FB6F894DEBF0FBECDBFDF91CF91F1
:100A30001F910F910895823040F083E692E00E946A
:100A4000500F60E070E0CB01089581110CC080E58B
:100A500093E00E946D0290958095709561957F4F0F
:100A60008F4F9F4F089582E593E00C946D02823082
:100A700020F087E792E00C94500F813009F4705811
:100A800090E0880F991F8C5A9C4F0C9499032F92D9
:100A90003F924F925F926F927F928F929F92AF920E
:100AA000BF92CF92DF92EF92FF921F93CF93DF938B
:100AB000CDB7DEB72C970FB6F894DEBF0FBECDBF13
:100AC0006B017C0180E593E00E94420282E593E0A5
:100AD0000E944202C701B6019F7720E030E044EB5C
:100AE00053E40E947B172CE034ED4CE95FE30E9455
:100AF000BE1A69877A878B879C8720E030E0A9013E
:100B0000C701B6010E94231818164CF480E090E04B
:100B1000A0E8BFE38D839E83AF83B88704C01D82A6
:100B20001E821F821886212C312C809026069090E0
:100B30002706A0902806B09029066D817E818F81BE
:100B400098850E94F417162F862F0E941B050E947D
:100B50005F1A9B01AC01C501B4010E94BE1A9B0142
:100B6000AC0169857A858B859C850E940E174B01A7
:100B70005C0120E030E040EA50E40E94BE1A2B0104
:100B80003C01DC01CB01BF7789839A83AB83BC83B3
:100B900020E030E040E05FE3BC01CD010E9423187B
:100BA000181684F420E030E040E05FE3C301B201B6
:100BB0000E94BE1A29813A814B815C810E947B1779
:100BC0002B013C01B301A201812F0E943705C50111
:100BD000B4019F772AE037ED43E25CE30E94581AA4
:100BE00011E087FD05C095E62916310408F410E0F0
:100BF000AFEF2A1A3A0A64E670E080E090E00E94C3
:100C0000510C112309F491CF0E94B20469E872E0FB
:100C100088EF94E00E94390EB701A60188EF94E0B6
:100C20000E94721066E972E088EF94E00E94390E2B
:100C300060E672E088EF94E00E94390E69E872E0A5
:100C40008BE594E00E94390EB701A6018BE594E094
:100C50000E94721066E972E08BE594E00E94390E02
:100C600060E672E08BE594E02C960FB6F894DEBF58
:100C70000FBECDBFDF91CF911F91FF90EF90DF901E
:100C8000CF90BF90AF909F908F907F906F905F902C
:100C90004F903F902F900C94390E2F923F924F928D
:100CA0005F926F927F928F929F92AF92BF92CF92FC
:100CB000DF92EF92FF920F931F93CF93DF93CDB705
:100CC000DEB763970FB6F894DEBF0FBECDBF6B01E2
:100CD0007C0180E593E00E94420282E593E00E945D
:100CE000420200E010E0CE0109969B8B8A8BFE0148
:100CF00031961F01198A8090260690902706A090B1
:100D00002806B090290689890E941B050E945F1A57
:100D10009B01AC01C501B4010E94BE1A9B01AC014C
:100D2000C701B6010E940E17EA89FB89619371938E
:100D300081939193FB8BEA8B20E030E040EA50E412
:100D40000E94BE1A4B015C012B013C01E89477F82C
:100D500020E030E040E05FE3C301B2010E942318CD
:100D6000181634F0F10180829182A282B38211C000
:100D700020E030E040E05FE3C501B4010E94BE1A0C
:100D8000A30192010E947B17F1016083718382832A
:100D90009383F10141915191619171911F01898971
:100DA0000E943705F989F13019F081E0898BA3CFD2
:100DB00064E670E080E090E00E94510C89859A859D
:100DC000AB85BC85BC01CD019F772AE037ED43E2BE
:100DD0005CE30E94581A87FF0FC08D859E85AF8502
:100DE000B889BC01CD019F772AE037ED43E25CE38F
:100DF0000E94581A87FD06C081E00536110518F4D7
:100E000080E001C081E00F5F1F4F882309F46BCFA2
:100E10000E94B20467EA72E088EF94E00E94390E03
:100E2000B701A60188EF94E00E94721068EB72E0AF
:100E300088EF94E00E94390E60E672E088EF94E05B
:100E40000E94390E67EA72E08BE594E00E94390E49
:100E5000B701A6018BE594E00E94721068EB72E086
:100E60008BE594E00E94390E60E672E08BE594E039
:100E700063960FB6F894DEBF0FBECDBFDF91CF9162
:100E80001F910F91FF90EF90DF90CF90BF90AF90A8
:100E90009F908F907F906F905F904F903F902F909A
:100EA0000C94390EAF92BF92CF92DF92EF92FF92E5
:100EB0000F931F93CF93DF939FE9E92E96E0F92ECE
:100EC000C7E4D3E003E413E0D12CF70121917F01C3
:100ED00030E0F901E152FD4F8491F901E756FD4FF1
:100EE000B490F901ED5AFD4FC490CC2079F08111F6
:100EF0000E948F0BEC2DF0E0EE0FFF1FEC5FFD4F1B
:100F0000A591B491EC91EB2181E009F480E081702E
:100F10005E018883F8019081891709F4EFC0F2E03F
:100F2000DF1609F447C083E0D81609F48AC0E1E06F
:100F3000DE16B9F165EC72E088EF94E00E94390E9C
:100F400065EC72E08BE594E00E94390E888188237D
:100F500079F067ED72E088EF94E00E94390E60E668
:100F600072E088EF94E00E94390E67ED72E00EC0E7
:100F70006FED72E088EF94E00E94390E60E672E057
:100F800088EF94E00E94390E6FED72E08BE594E0FB
:100F90000E94390E60E672E08BE594E00E94390E03
:100FA000ADC068EE72E088EF94E00E94390E68EE02
:100FB00072E0C8CF69EF72E088EF94E00E94390ECA
:100FC00069EF72E08BE594E00E94390E88818823F6
:100FD000D1F067ED72E088EF94E00E94390E60E690
:100FE00072E088EF94E00E94390E67ED72E08BE5C5
:100FF00094E00E94390E60E672E08BE594E00E9476
:10100000390E61E019C06FED72E088EF94E00E9444
:10101000390E60E672E088EF94E00E94390E6FEDC1
:1010200072E08BE594E00E94390E60E672E08BE599
:1010300094E00E94390E60E080919E060E94E50BCC
:101040005DC06AE073E088EF94E00E94390E6AE0C8
:1010500073E08BE594E00E94390E8881811179CF8D
:101060006FED72E088EF94E00E94390E60E672E066
:1010700088EF94E00E94390E6FED72E08BE594E00A
:101080000E94390E60E672E08BE594E00E94390E12
:1010900063E373E383EB9EE30E944D0660E070E040
:1010A00084EB92E40E9447056DEC7CEC8CE49EE3BB
:1010B0000E944D0660E070E084E393EC0E944705D7
:1010C0006DEC7CEC8CEC9EE30E944D0660E070E0E1
:1010D00084E393EC0E9447056DEC7CEC8CE49EE38A
:1010E0000E944D0660E070E084EB92E40E944705A8
:1010F00063E373E383EB9EE30E944D062196F501C3
:101100008081F80181938F01D394F4E0DF12DDCE6A
:10111000DF91CF911F910F91FF90EF90DF90CF90D3
:10112000BF90AF900895FC01A089B1898C91A689E8
:10113000B78982FD0FC09C91818D8F5F8F73228D47
:10114000821749F0218DDF01A20FB11D5D969C939E
:10115000818F08958C910895FC01848DDF01A80F83
:10116000B11DA35ABF4F2C91848D90E001968F73CF
:101170009927848FA689B7892C93A089B1898C91EE
:1011800080648C93938D848D981306C00288F389B4
:10119000E02D80818F7D80830895EF92FF920F93E1
:1011A0001F93CF93DF93EC0181E0888F9B8D8C8D13
:1011B000981305C0E889F989808185FD24C0F62E41
:1011C0000B8D10E00F5F1F4F0F731127E02E8C8DDA
:1011D000E8120CC00FB607FCFACFE889F9898081C4
:1011E00085FFF5CFCE010E94AC08F1CF8B8DFE01BB
:1011F000E80FF11DE35AFF4FF0820B8FEA89FB895C
:101200008081806207C0EE89FF896083E889F9895F
:1012100080818064808381E090E0DF91CF911F9195
:101220000F91FF90EF900895CF93DF93EC01888D9D
:101230008823C9F0EA89FB89808185FD05C0A889DA
:10124000B9898C9186FD0FC00FB607FCF5CF808160
:1012500085FFF2CFA889B9898C9185FFEDCFCE01AA
:101260000E94AC08E7CFDF91CF9108950F931F93B1
:10127000CF93DF93EC01862F6883498361E00E945E
:10128000150C60E089810E94150C61E088810E9444
:10129000E50B1FB7F89480914F03811127C0E8E850
:1012A000F2E09491EEECF2E08491E92FF0E0EE0FA1
:1012B000FF1FE15EFD4FA591B491EC91E82321F46D
:1012C00061E085E30E94E50B61E085E30E94150C77
:1012D0008CB580618CBD8CB580648CBD61E084E38D
:1012E0000E94150C61E083E30E94150C80914F036E
:1012F0008F5F80934F031FBF0BEC17E0C80101976E
:10130000F1F760E088810E94E50B88E80E943702CF
:1013100083E00E94370261E088810E94E50BC801EA
:101320000197F1F7CE01DF91CF911F910F910C94AE
:1013300042021F920F920FB60F9211240BB60F921A
:101340002F933F934F935F936F937F938F939F93CD
:10135000AF93BF93EF93FF9348E251E064E271E0F3
:1013600080E090E00E94D202FF91EF91BF91AF9197
:101370009F918F917F916F915F914F913F912F91AD
:101380000F900BBE0F900FBE0F901F9018951F92DD
:101390000F920FB60F9211240BB60F922F933F931B
:1013A0004F935F936F937F938F939F93AF93BF936D
:1013B000EF93FF9348EA50E064EA70E083E090E046
:1013C0000E94D202FF91EF91BF91AF919F918F91B7
:1013D0007F916F915F914F913F912F910F900BBE35
:1013E0000F900FBE0F901F9018951F920F920FB67F
:1013F0000F9211240BB60F922F933F934F935F934D
:101400006F937F938F939F93AF93BF93EF93FF93CC
:1014100048E950E064E970E082E090E00E94D20286
:10142000FF91EF91BF91AF919F918F917F916F91BC
:101430005F914F913F912F910F900BBE0F900FBE78
:101440000F901F9018951F920F920FB60F921124B4
:101450000BB60F922F933F934F935F936F937F93AE
:101460008F939F93AF93BF93EF93FF9348E850E020
:1014700064E870E081E090E00E94D202FF91EF9179
:10148000BF91AF919F918F917F916F915F914F919C
:101490003F912F910F900BBE0F900FBE0F901F909A
:1014A0001895FC01248131E030938E032093B00322
:1014B00010928F031092B1038485682B82EB93E026
:1014C0000E94400B0C94CA0F0F931F93CF938C0173
:1014D000C62F0E94510A6C2F6460C8010E94510AF5
:1014E0006C2F6B7FC8010E94510A83EC90E001973A
:1014F000F1F7CF911F910F910895FF920F931F93D2
:10150000CF93DF931F92CDB7DEB78C01F62E962FC7
:10151000907F692F642BC80149830E94640A80E18F
:10152000F89EB00111244981642BC8010F90DF910E
:10153000CF911F910F91FF900C94640A41E00E949B
:101540007D0A81E090E0089590918D0380918C0355
:10155000981750F4E92FF0E0E459FC4F208130E077
:101560009F5F90938D0302C02FEF3FEFC901089555
:1015700080918C0390E020918D03821B9109089546
:101580003FB7F8948091680390916903A0916A0332
:10159000B0916B0326B5A89B05C02F3F19F00196AB
:1015A000A11DB11D3FBFBA2FA92F982F8827820FE9
:1015B000911DA11DB11DBC01CD0142E0660F771F39
:1015C000881F991F4A95D1F70895CF92DF92EF9225
:1015D000FF920F931F93CF93DF936C017A018B01DE
:1015E000C0E0D0E0CE15DF0589F0D8016D918D0106
:1015F000D601ED91FC910190F081E02DC601199585
:10160000892B11F47E0102C02196ECCFC701DF9136
:10161000CF911F910F91FF90EF90DF90CF900895A1
:10162000CF92DF92EF92FF920F931F93CF93DF93AE
:101630007C01262F972F8A0180918E03882391F0B9
:10164000C62FD72F6E01C40ED51ECC15DD0571F047
:101650006991D701ED91FC910190F081E02DC701D6
:101660001995F3CF642F822F0E948A12C801DF914F
:10167000CF911F910F91FF90EF90DF90CF90089541
:10168000CF93DF931F92CDB7DEB7698320918E038E
:101690002223D1F02091B103203240F021E030E04C
:1016A000FC013383228380E090E015C080918F039A
:1016B000E82FF0E0E057FC4F998190838F5F809393
:1016C0008F038093B10305C061E0CE0101960E94B3
:1016D0008A1281E090E00F90DF91CF9108950E94EF
:1016E000431A8EEB93E00E94F90121E0892B09F463
:1016F00020E0822F08958BE594E00E94F90121E01B
:10170000892B09F420E0822F089588EF94E00E944D
:10171000F90121E0892B09F420E0822F089590E05F
:10172000FC013197E231F10508F04EC08827EC57F3
:10173000FF4F8F4F0C940617809180008F7703C066
:10174000809180008F7D809380000895809180003B
:10175000877FF9CF84B58F7702C084B58F7D84BD34
:1017600008958091B0008F7703C08091B0008F7D85
:101770008093B0000895809190008F7707C080918A
:1017800090008F7D03C080919000877F80939000B0
:1017900008958091A0008F7707C08091A0008F7D71
:1017A00003C08091A000877F8093A000089580915E
:1017B00020018F7707C0809120018F7D03C0809129
:1017C0002001877F8093200108951F93CF93DF939B
:1017D000282F30E0F901E152FD4F8491F901E756DD
:1017E000FD4FD491F901ED5AFD4FC491CC23C9F0BE
:1017F000162F81110E948F0BEC2FF0E0EE0FFF1FD0
:10180000E75CFD4FA591B4918FB7F894111105C015
:101810009C91ED2FE095E92302C0EC91ED2BEC9328
:101820008FBFDF91CF911F910895CF93DF9390E009
:10183000FC01E756FD4F2491FC01ED5AFD4F8491C8
:10184000882361F190E0880F991FFC01E15EFD4F54
:10185000C591D491FC01E75CFD4FA591B491611154
:1018600009C09FB7F8948881209582238883EC91E2
:101870002E230BC0623061F49FB7F8943881822F19
:10188000809583238883EC912E2B2C939FBF06C0D9
:101890008FB7F894E8812E2B28838FBFDF91CF91EB
:1018A00008958F929F92AF92BF92CF92DF92EF9264
:1018B000FF926B017C010E94C00A4B015C01C114C4
:1018C000D104E104F104F1F00E94C00ADC01CB0173
:1018D00088199909AA09BB09883E9340A105B10559
:1018E00070F321E0C21AD108E108F10888EE880EF1
:1018F00083E0981EA11CB11CC114D104E104F104C1
:1019000019F7DDCFFF90EF90DF90CF90BF90AF90B1
:101910009F908F9008951F920F920FB60F921124EF
:101920002F933F938F939F93AF93BF9380916403C3
:1019300090916503A0916603B091670330916303B2
:1019400023E0230F2D3720F40196A11DB11D05C002
:1019500026E8230F0296A11DB11D209363038093F7
:10196000640390936503A0936603B093670380912B
:10197000680390916903A0916A03B0916B0301968B
:10198000A11DB11D8093680390936903A0936A031E
:10199000B0936B03BF91AF919F918F913F912F9126
:1019A0000F900FBE0F901F9018950F931F93CF931A
:1019B000DF93EC0188819981009729F02A813B818E
:1019C0002617370788F48B016F5F7F4F0E945A19E3
:1019D000009761F0998388831B830A832C813D8162
:1019E000232B11F4FC01108281E001C080E0DF9123
:1019F000CF911F910F910895EF92FF920F931F9334
:101A0000CF93DF93EC01198218821B821A821D8208
:101A10001C826115710549F18B01FB0101900020C9
:101A2000E9F731977F01E61AF70AB7010E94D50C52
:101A30002881398181110DC02115310519F0C901A5
:101A40000E94C218198218821D821C821B821A826F
:101A50000CC0FD82EC82B801C901DF91CF911F91CA
:101A60000F91FF90EF900C94511ADF91CF911F913D
:101A70000F91FF90EF9008951F920F920FB60F9263
:101A800011240BB60F922F933F934F935F936F9355
:101A90007F938F939F93AF93BF93EF93FF93809127
:101AA0005D0390915E03A0915F03B0916003892B69
:101AB0008A2B8B2B59F180915C03E0915A03F091B2
:101AC0005B0390818927808380915D0390915E0301
:101AD000A0915F03B0916003181619061A061B0641
:101AE0000CF056C080915D0390915E03A0915F035E
:101AF000B09160030197A109B10980935D039093B0
:101B00005E03A0935F03B093600342C08091000224
:101B1000EEE1F2E0E4919FEF90930002E230C9F031
:101B200050F4EE2399F0E13081F590916F009D7FA4
:101B300090936F002AC0E43019F1E0F0E53029F508
:101B4000909173009D7F909373001FC010926E0060
:101B50001CC0909170009D7F9093700091E09093D5
:101B6000B0009091B100987F94609093B100109272
:101B7000B3000BC0909171009D7F9093710005C0E0
:101B8000909172009D7F9093720060E00E94E50B3F
:101B9000FF91EF91BF91AF919F918F917F916F9145
:101BA0005F914F913F912F910F900BBE0F900FBE01
:101BB0000F901F9018956115710579F0FB01019048
:101BC0000020E9F73197AF01461B570BDC01ED917F
:101BD000FC910280F381E02D199480E090E008955B
:101BE0004F925F926F927F92EF92FF920F931F93AB
:101BF000CF93DF93CDB7DEB7A1970FB6F894DEBFD2
:101C00000FBECDBF7C01FA01CB0119A2223008F42E
:101C10002AE08E010F5D1F4F422E512C612C712C3A
:101C2000BF01A30192010E947C1BF901CA0101506E
:101C300011096A3014F4605D01C0695CD8016C93CD
:101C4000232B242B252B61F7B801C7010E94DB0D44
:101C5000A1960FB6F894DEBF0FBECDBFDF91CF9136
:101C60001F910F91FF90EF907F906F905F904F903A
:101C700008950C94DB0D1F920F920FB60F92112452
:101C80000BB60F922F933F934F935F936F937F9376
:101C90008F939F93AF93BF93EF93FF938EEB93E05C
:101CA0000E94AC08FF91EF91BF91AF919F918F91EE
:101CB0007F916F915F914F913F912F910F900BBE4C
:101CC0000F900FBE0F901F9018951F920F920FB696
:101CD0000F9211240BB60F922F933F934F935F9364
:101CE0006F937F938F939F93AF93BF93EF93FF93E4
:101CF0008EEB93E00E949308FF91EF91BF91AF911B
:101D00009F918F917F916F915F914F913F912F9113
:101D10000F900BBE0F900FBE0F901F9018951F9243
:101D20000F920FB60F9211240BB60F922F933F9381
:101D30004F935F936F937F938F939F93AF93BF93D3
:101D4000EF93FF938BE594E00E94AC08FF91EF9135
:101D5000BF91AF919F918F917F916F915F914F91C3
:101D60003F912F910F900BBE0F900FBE0F901F90C1
:101D700018951F920F920FB60F9211240BB60F9267
:101D80002F933F934F935F936F937F938F939F9383
:101D9000AF93BF93EF93FF938BE594E00E9493087A
:101DA000FF91EF91BF91AF919F918F917F916F9133
:101DB0005F914F913F912F910F900BBE0F900FBEEF
:101DC0000F901F9018951F920F920FB60F9211242B
:101DD0000BB60F922F933F934F935F936F937F9325
:101DE0008F939F93AF93BF93EF93FF9388EF94E00C
:101DF0000E94AC08FF91EF91BF91AF919F918F919D
:101E00007F916F915F914F913F912F910F900BBEFA
:101E10000F900FBE0F901F9018951F920F920FB644
:101E20000F9211240BB60F922F933F934F935F9312
:101E30006F937F938F939F93AF93BF93EF93FF9392
:101E400088EF94E00E949308FF91EF91BF91AF91CA
:101E50009F918F917F916F915F914F913F912F91C2
:101E60000F900BBE0F900FBE0F901F90189585ED31
:101E70008093BC008091BC0084FDFCCF10922907A8
:101E80000895089581E090E030918D0320918C03B6
:101E9000321710F480E090E09195819591090895B2
:101EA000CF93DF93BC0188EF94E00E94DB0DEC013F
:101EB00060E672E088EF94E00E94DB0D8C0F9D1FBE
:101EC000DF91CF910895CF92DF92EF92FF920F931F
:101ED0001F93CF93DF93EC016A017B01E889F989B5
:101EE00082E080834115514E61057105B1F060E0DB
:101EF00079E08DE390E0A70196010E947C1B8901A7
:101F00009A01015011092109310936952795179534
:101F10000795980101151041A8F0E889F989108208
:101F200060E874E88EE190E0A70196010E947C1BB6
:101F3000DA01C9010197A109B109B695A79597954D
:101F400087959C01EC85FD853083EE85FF85208398
:101F5000188EEC89FD8986E08083EA89FB8980817F
:101F600080618083EA89FB89808188608083EA8937
:101F7000FB89808180688083EA89FB8980818F7DED
:101F80008083DF91CF911F910F91FF90EF90DF90B1
:101F9000CF9008952091B1039091B003213208F0C1
:101FA0004AC0809129078111FCCF32E03093290784
:101FB00031E0309328073FEF309327071092260730
:101FC00020932507A0E9B3E045E057E0FA013E2F52
:101FD000341B321718F43D913193F9CF1092040756
:101FE00020910407990F922B909304079091030777
:101FF000913061F410920307909104079093BB0015
:102000009091BC0093FDF8CF95EC01C095EE9093B4
:10201000BC00909129079230E1F3909127079F3FF0
:1020200079F080912707803241F080912707803333
:1020300031F084E005C081E003C082E001C083E0AC
:1020400010928F031092B10310928E030895EF92B5
:10205000FF921F93CF93DF931F92CDB7DEB7162F5A
:102060009DE9E92E96E0F92ED7011C969C911C97CC
:1020700021E020938E039093B00310928F0310926F
:10208000B1031A960D90BC91A02DED91FC91119782
:102090000190F081E02D682FCD0179831995F7012A
:1020A00082859385DC01ED91FC910190F081E02D1A
:1020B0007981672F1995F70182859385DC01ED9170
:1020C000FC910190F081E02D612F19950F90DF9127
:1020D000CF911F91FF90EF900C94CA0F40E060E801
:1020E0000C947D0A8F929F92AF92BF92CF92DF9213
:1020F000EF92FF920F931F93CF93DF93EC016A014E
:102100007B019A01AB01C701B6010E942818882300
:1021100019F06DE173E027C046015701E894B7F864
:102120002FEF3FEF4FE75FE7C501B4010E9428188A
:1021300081110DC02FEF3FEF4FE75FE7C501B401FD
:102140000E94581A18161CF461E273E00CC02FEFBD
:102150003FEF4FE75FE4C701B6010E94231818164E
:102160008CF465E273E0CE01DF91CF911F910F9166
:10217000FF90EF90DF90CF90BF90AF909F908F90A7
:102180000C94DB0D2FEF3FEF4FE75FECC701B6017B
:102190000E94581A87FDE5CF20E030E0A901C70171
:1021A000B6010E94581A87FF0EC0E881F98101909C
:1021B000F081E02D6DE2CE0119958C01F7FAF094D3
:1021C000F7F8F09402C000E010E02AE037ED43EAAF
:1021D0005BE3C701B6010E940F176B017C010E94EF
:1021E000F4174B015C010E945D1A9B01AC01C70111
:1021F000B6010E940E176B017C012AE0B501A40113
:10220000CE010E94F00D080F191FE881F98101909D
:10221000F081E02D6EE2CE011995080F191F20E024
:1022200030E040E251E4C701B6010E94BE1A4B0102
:102230005C010E94F4176B01E12CF12C2AE0B7013C
:10224000A601CE010E94F00D080F191FC701B601AB
:102250000E945D1A9B01AC01C501B4010E940E17DA
:1022600020E030E040E251E40E94BE1A0E94F417E0
:10227000AB0160E070E02AE0CE010E94F00D800F1B
:10228000911FDF91CF911F910F91FF90EF90DF9001
:10229000CF90BF90AF909F908F9008951F920F9214
:1022A0000FB60F9211240F900FBE0F901F9018952C
:1022B0001F920F920FB60F9211240BB60F922F930D
:1022C0003F934F935F936F937F938F939F93AF93BE
:1022D000BF93EF93FF938091B900887F803609F414
:1022E0009CC068F5883209F45BC090F4803109F431
:1022F00054C038F4882309F4F6C0883009F44DC07E
:10230000F6C0883109F44CC0803209F45DC0EFC0DA
:10231000803409F468C048F4803309F455C0883328
:1023200009F0E5C080932707D8C0803509F44FC075
:10233000883509F45DC0883409F0D9C0D6C0883921
:1023400009F4C7C0A8F4883709F467C038F48836A0
:1023500009F463C0803709F460C0C9C0883809F443
:10236000B8C0803909F45FC0803809F0C0C05BC0D4
:10237000803B09F486C038F4803A09F466C0883A94
:1023800009F47FC0B4C0803C09F4A7C0883C09F4BC
:10239000A4C0883B09F48AC0AAC08091040710C079
:1023A0009091260780912507981770F5E0912607F0
:1023B00081E08E0F80932607F0E0EB5FF84F80817D
:1023C0008093BB0085EC86C0809327078EC0E09188
:1023D000260781E08E0F809326078091BB00F0E0F6
:1023E000EB5FF84F808390912607809125076EC0A0
:1023F000E091260781E08E0F809326078091BB0035
:10240000F0E0EB5FF84F80838091280781116DC069
:1024100081E08093030784EA61C083E08093290709
:1024200010920007CFCF80910007803208F051C092
:10243000E091000781E08E0F809300078091BB0040
:10244000F0E0E052F94F8083BDCF85EC8093BC0073
:102450001092290780910007803230F4E091000744
:10246000F0E0E052F94F10826091000770E0E091D7
:10247000DE06F091DF0680EE96E0199510920007D7
:1024800036C084E0809329071092DD061092DC06A6
:10249000E091DA06F091DB0619958091DC06811156
:1024A00005C081E08093DC061092BA06E091DD065B
:1024B00081E08E0F8093DD06F0E0E654F94F8081D5
:1024C0008093BB009091DD068091DC06981708F49C
:1024D00079CF85E88093BC000AC085EC8093BC006E
:1024E0001092290704C0109227070E94370FFF910E
:1024F000EF91BF91AF919F918F917F916F915F917C
:102500004F913F912F910F900BBE0F900FBE0F90E8
:102510001F9018954091DC06262F30E0240F311DC6
:1025200021323105DCF4209129072430C9F4FC0163
:1025300080E090E0861758F43091DC062191DC01B0
:10254000A654B94FA30FB11D2C930196F3CF8091E0
:10255000DC06680F6093DC0680E0089581E0089552
:1025600082E008951092290781E080932807109255
:10257000030761E084E10E94E50B61E085E10E94D0
:10258000E50BE9EBF0E080818E7F808380818D7F99
:10259000808388E48093B80085E48093BC0008952C
:1025A00080913206909133060C94C218CF93DF933A
:1025B000CDB7DEB728970FB6F894DEBF0FBECDBFFC
:1025C000789484B5826084BD84B5816084BD85B50E
:1025D000826085BD85B5816085BD80916E0081601A
:1025E00080936E00109281008091810082608093C0
:1025F00081008091810081608093810080918000C2
:102600008160809380008091B10084608093B100EC
:102610008091B00081608093B000809191008260D1
:1026200080939100809191008160809391008091CE
:1026300090008160809390008091A10082608093DF
:10264000A1008091A10081608093A1008091A000F1
:1026500081608093A000809121018260809321019C
:10266000809121018160809321018091200181600E
:102670008093200180917A00846080937A00809119
:102680007A00826080937A0080917A0081608093E2
:102690007A0080917A00806880937A001092C1005D
:1026A00040E855E260E070E088EF94E00E94630F3C
:1026B00016E0109354038FE18093550361E086E0A8
:1026C0000E94150C61E0809155030E94150C85E075
:1026D000809356038EE18093570361E085E00E946A
:1026E000150C61E0809157030E94150C45E463E2EC
:1026F00080E593E00E94360944E462E282E593E0DB
:102700000E9436098EEB93E09093620380936103FD
:1027100040E855E260E070E00E94630F8EE7898335
:102720008FEF8A831B8389E08C831D821E8282E067
:102730008F838FEE88878E010F5F1F4F38E0F32E57
:10274000F00E8091610390916203D8016D918D012B
:10275000DC01ED91FC910190F081E02D1995F012D2
:10276000F0CF68EC70E080E090E00E94510C64E1F2
:1027700070E080E090E00E94510C0091B60610914C
:10278000B70610928D0310928C0310928F03109253
:10279000B1030E94B212F80115828385823010F0D5
:1027A00098E09583D80118968C9362E370E080E0FE
:1027B00090E00E94510CF8016485C8010E94510A02
:1027C00068EE73E080E090E00E94510C60E3C80185
:1027D0000E94640A2BE4E22E26E4F22EC701019740
:1027E000F1F760E3C8010E94640AC7010197F1F79D
:1027F00060E3C8010E94640A83E592E00197F1F763
:1028000060E2C8010E94640AD80115966C9160626A
:1028100040E0C8010E947D0A84E0F801868340E020
:102820006CE0C8010E947D0A40E061E0C8010E949E
:102830007D0A8BE39FE10197F1F7D80119968C91FE
:10284000882319F0C8010E946E1082E0F801878386
:1028500040E066E0C8010E947D0A40E062E0C801F5
:102860000E947D0A8BE39FE10197F1F78091B60604
:102870009091B70628E0DC011C962C9360E00E9442
:10288000510A8091B6069091B7060E946E10809111
:10289000B6069091B706FC016681262F216026833B
:1028A000696040E00E947D0A61E080919E060E947E
:1028B000150C60E080919E060E94E50B60E080911F
:1028C0009D060E94150C82EB93E09093A8068093DE
:1028D000A70610928D0310928C0310928F03109212
:1028E000B1030E94B21280E090E1A0E0B0E08093DA
:1028F000AA069093AB06A093AC06B093AD068AE00F
:1029000090E0A0E0B0E08093AE069093AF06A09375
:10291000B006B093B10682E090E0A0E0B0E0809312
:10292000B2069093B306A093B406B093B50660E0E8
:1029300070E185E00E9427106FE979E380E00E9452
:1029400027100FE916E094E0F92EF00E60E0D801B0
:102950008D918D010E94150CF012F8CF40E052ECE1
:1029600061E070E08BE594E00E94630F81EC94E0FD
:10297000909359038093580382E597E0909339062A
:10298000809338068AE090E0A0E0B0E080933A06B9
:1029900090933B06A0933C06B0933D0681E0809364
:1029A00042062FB7F8948091640390916503A0913B
:1029B0006603B09167032FBF40913A0650913B06E2
:1029C00060913C0670913D06840F951FA61FB71FAE
:1029D00080933E0690933F06A0934006B093410635
:1029E0008091430690914406A0914506B091460619
:1029F0008093470690934806A0934906B0934A06F1
:102A000008E316E082E4E82E86E0F82E8FB7F8940B
:102A10004091640350916503609166037091670370
:102A20008FBFF80186819781A085B18584179507AE
:102A3000A607B70708F045C0D7018C91882309F491
:102A400040C083859485A585B685892B8A2B8B2BE1
:102A5000C1F10190F081E02D1995F80183859485ED
:102A6000A585B685181619061A061B0694F4F801F2
:102A700087859089A189B2890197A109B1098787C2
:102A8000908BA18BB28B892B8A2B8B2B11F4D701C6
:102A90001C922FB7F8948091640390916503A091E4
:102AA0006603B09167032FBFF801428153816481AF
:102AB0007581840F951FA61FB71F86839783A087F4
:102AC000B1870D5E1F4FF3E1EF0EF11C86E0073971
:102AD000180709F09BCF6AE070E080E090E00E9468
:102AE000510C0E940A028CCF1092B5031092B403CD
:102AF00088EE93E0A0E0B0E08093B6039093B70334
:102B0000A093B803B093B9032FE032E03093B3033E
:102B10002093B2031092C1031092C0038093C203AA
:102B20009093C303A093C403B093C50321E232E0A2
:102B30003093BF032093BE0345E351E05093CB0392
:102B40004093CA0344E351E05093CD034093CC0338
:102B500040E351E05093CF034093CE0341E351E073
:102B60005093D1034093D00342E351E05093D303F9
:102B70004093D20346E351E05093D5034093D403EE
:102B80001092D7031092D8031092D9031092DA034F
:102B900010925E0410925D0480935F049093600431
:102BA000A0936104B093620430935C0420935B04AF
:102BB00045ED50E0509368044093670444ED50E0C5
:102BC00050936A044093690440ED50E050936C04C4
:102BD00040936B0441ED50E050936E0440936D04BC
:102BE00042ED50E05093700440936F0446ED50E086
:102BF00050937204409371041092740410927504FF
:102C000010927604109277041092FB041092FA044A
:102C10008093FC049093FD04A093FE04B093FF0402
:102C20003093F9042093F80485EC90E09093050527
:102C30008093040584EC90E090930705809306054B
:102C400080EC90E0909309058093080581EC90E07A
:102C500090930B0580930A0582EC90E090930D050C
:102C600080930C0586EC90E090930F0580930E0501
:102C7000109211051092120510921305109214056E
:102C80008DE090E00E942D18FC011382128283E3F4
:102C900092E091838083118687E2848384E1828736
:102CA00084E083871486F093B706E093B60610920B
:102CB000B8061092B9068CE080939D0684E280935A
:102CC0009E068BE180939F068DE18093A0068AE1AA
:102CD0008093A1068CE18093A20686E38093A306ED
:102CE00087E38093A40688E38093A50689E3809315
:102CF000A60680E48093A9061092AE061092AF0655
:102D00001092B0061092B1061092B2061092B3065D
:102D10001092B4061092B50680912506803320F0FB
:102D20009FEF9093970611C080939706282F30E06D
:102D3000F901EE0FFF1F2E0F3F1FF901EB56FA4F5F
:102D400028EB3BE0328321838F5F803390F48093C4
:102D50009A06282F30E0F901EE0FFF1F2E0F3F1FBC
:102D6000F901EB56FA4F28EB3BE0328321838F5F6A
:102D700003C09FEF90939A0680932506E8E3F6E060
:102D80008FEF9FEFDC01128213821482158216826C
:102D900017821086118683879487A587B6878787D1
:102DA000908BA18BB28B128611821082739626E0D3
:102DB000E739F20741F762E672E082E396E00E94AB
:102DC000FC0C80E090E0A8E4B5E480932E0690939C
:102DD0002F06A0933006B093310683E595EBA7E765
:102DE000BEE380932A0690932B06A0932C06B09303
:102DF0002D0687E898E8AEE9B8E38093260690931D
:102E00002706A0932806B09329060895EE0FFF1F0A
:102E1000881F8BBF0790F691E02D19945058BB275F
:102E2000AA270E9426170C94421B0E94341B38F0DC
:102E30000E943B1B20F039F49F3F19F426F40C94B8
:102E4000311B0EF4E095E7FB0C942B1BE92F0E943D
:102E5000531B58F3BA17620773078407950720F0CE
:102E600079F4A6F50C94751B0EF4E0950B2EBA2F91
:102E7000A02D0B01B90190010C01CA01A001112480
:102E8000FF27591B99F0593F50F4503E68F11A162C
:102E9000F040A22F232F342F4427585FF3CF4695BD
:102EA00037952795A795F0405395C9F77EF41F16DF
:102EB000BA0B620B730B840BBAF09150A1F0FF0FA9
:102EC000BB1F661F771F881FC2F70EC0BA0F621F95
:102ED000731F841F48F4879577956795B795F79585
:102EE0009E3F08F0B0CF9395880F08F09927EE0F1A
:102EF0009795879508950E948F170C94421B0E9406
:102F00003B1B58F00E94341B40F029F45F3F29F02E
:102F10000C942B1B51110C94761B0C94311B0E94AA
:102F2000531B68F39923B1F3552391F3951B550B6C
:102F3000BB27AA2762177307840738F09F5F5F4F8C
:102F4000220F331F441FAA1FA9F335D00E2E3AF0CB
:102F5000E0E832D091505040E695001CCAF72BD0E3
:102F6000FE2F29D0660F771F881FBB1F2617370734
:102F70004807AB07B0E809F0BB0B802DBF01FF2766
:102F800093585F4F3AF09E3F510578F00C942B1BFD
:102F90000C94761B5F3FE4F3983ED4F386957795C7
:102FA0006795B795F7959F5FC9F7880F911D96951F
:102FB000879597F90895E1E0660F771F881FBB1F7B
:102FC000621773078407BA0720F0621B730B840B28
:102FD000BA0BEE1F88F7E09508950E94F4176894E5
:102FE000B1110C94761B08950E945B1B88F09F57CB
:102FF00098F0B92F9927B751B0F0E1F0660F771F1D
:10300000881F991F1AF0BA95C9F714C0B13091F012
:103010000E94751BB1E008950C94751B672F782FE3
:103020008827B85F39F0B93FCCF3869577956795D7
:10303000B395D9F73EF490958095709561957F4F43
:103040008F4F9F4F08950E949A1A08F48FEF0895AA
:103050000E949A1A880B990B0895CF93DF938230C0
:10306000910510F482E090E0E0912C07F0912D079B
:1030700020E030E0C0E0D0E0309711F14081518194
:1030800048175907C0F04817590761F482819381A6
:10309000209719F09B838A832BC090932D078093F0
:1030A0002C0726C02115310519F04217530718F4D3
:1030B0009A01BE01DF01EF010280F381E02DDCCF38
:1030C0002115310509F1281B390B2430310590F405
:1030D00012968D919C9113976115710521F0FB015A
:1030E0009383828304C090932D0780932C07FD0166
:1030F000329644C0FD01E20FF31F81939193225059
:1031000031092D933C933AC020912A0730912B0727
:10311000232B41F4209103023091040230932B07BA
:1031200020932A07209101023091020221153105D6
:1031300041F42DB73EB74091050250910602241B81
:10314000350BE0912A07F0912B07E217F307A0F463
:103150002E1B3F0B2817390778F0AC014E5F5F4FED
:103160002417350748F04E0F5F1F50932B074093ED
:103170002A078193919302C0E0E0F0E0CF01DF9154
:10318000CF9108950F931F93CF93DF93009709F486
:103190008CC0FC0132971382128200912C0710918F
:1031A0002D070115110581F420813181820F931FB4
:1031B00020912A0730912B072817390779F5F093CA
:1031C0002B07E0932A0771C0D80140E050E0AE170A
:1031D000BF0750F412962D913C911397AD01211524
:1031E000310509F1D901F3CF9D01DA01338322833F
:1031F00060817181860F971F8217930769F4EC0134
:1032000028813981260F371F2E5F3F4F318320835E
:103210008A819B8193838283452B29F4F0932D0728
:10322000E0932C0742C01396FC93EE931297ED01A6
:10323000499159919E01240F351FE217F30771F44C
:1032400080819181840F951F029611969C938E9395
:103250008281938113969C938E931297E0E0F0E025
:10326000D80112968D919C911397009719F0F8014F
:103270008C01F6CF8D919C9198012E5F3F4F820F6C
:10328000931F20912A0730912B072817390769F4DB
:10329000309729F410922D0710922C0702C0138248
:1032A000128210932B0700932A07DF91CF911F9171
:1032B0000F9108956F927F928F929F92AF92BF92DB
:1032C000CF92DF92EF92FF920F931F93CF93DF93F2
:1032D000EC01009789F4CB01DF91CF911F910F9101
:1032E000FF90EF90DF90CF90BF90AF909F908F9026
:1032F0007F906F900C942D18FC01E60FF71F9C0136
:1033000022503109E217F30708F4ACC0D9010D913E
:103310001C91119706171707B0F00530110508F436
:103320009FC0C80104978617970708F499C00250F8
:103330001109061B170B019311936D937C93CF0119
:103340000E94C2188DC05B01A01AB10A4C01800E08
:10335000911EA0912C07B0912D0740E050E0E12C88
:10336000F12C109709F44AC0A815B905D1F56D9054
:103370007C901197630182E0C80ED11CCA14DB0453
:1033800080F1A3014A195B096A0182E0C80ED11CD1
:103390001296BC9012971396AC91B5E0CB16D1045F
:1033A00040F0B282A38351834083D9016D937C9313
:1033B0000AC00E5F1F4FC301800F911FF901918357
:1033C0008083EB2DFA2FE114F10431F0D70113962D
:1033D000FC93EE93129744C0F0932D07E0932C07D3
:1033E0003FC08D919C9111974817590708F4AC0183
:1033F0007D0112960D90BC91A02DB3CF80912A072C
:1034000090912B0788159905E1F446175707C8F4E2
:103410008091010290910202009741F48DB79EB70E
:103420004091050250910602841B950BE817F9079D
:10343000C8F4F0932B07E0932A07F90171836083A6
:103440000FC0CB010E942D187C01009759F0A801F4
:10345000BE010E94481ACE010E94C218C70104C0D2
:10346000CE0102C080E090E0DF91CF911F910F91DB
:10347000FF90EF90DF90CF90BF90AF909F908F9094
:103480007F906F90089581E090E0F8940C949E1BDB
:10349000FB01DC0102C001900D9241505040D8F771
:1034A0000895FB01DC0101900D920020E1F70895E1
:1034B0000E949A1A08F481E00895E89409C097FBE5
:1034C0003EF490958095709561957F4F8F4F9F4FFB
:1034D0009923A9F0F92F96E9BB279395F69587953F
:1034E00077956795B795F111F8CFFAF4BB0F11F402
:1034F00060FF1BC06F5F7F4F8F4F9F4F16C08823A9
:1035000011F096E911C0772321F09EE8872F762FDE
:1035100005C0662371F096E8862F70E060E02AF01F
:103520009A95660F771F881FDAF7880F969587950B
:1035300097F90895990F0008550FAA0BE0E8FEEFE0
:1035400016161706E807F907C0F012161306E40767
:10355000F50798F0621B730B840B950B39F40A2660
:1035600061F0232B242B252B21F408950A2609F43E
:10357000A140A6958FEF811D811D08950E94D11A4B
:103580000C94421B0E94341B38F00E943B1B20F01D
:10359000952311F00C942B1B0C94311B11240C94CB
:1035A000761B0E94531B70F3959FC1F3950F50E05B
:1035B000551F629FF001729FBB27F00DB11D639FE5
:1035C000AA27F00DB11DAA1F649F6627B00DA11D8B
:1035D000661F829F2227B00DA11D621F739FB00D31
:1035E000A11D621F839FA00D611D221F749F3327A1
:1035F000A00D611D231F849F600D211D822F762F3A
:103600006A2F11249F5750409AF0F1F088234AF016
:10361000EE0FFF1FBB1F661F771F881F9150504082
:10362000A9F79E3F510580F00C942B1B0C94761B40
:103630005F3FE4F3983ED4F3869577956795B79509
:10364000F795E7959F5FC1F7FE2B880F911D969523
:10365000879597F9089597F99F6780E870E060E093
:1036600008959FEF80EC089500240A94161617061B
:1036700018060906089500240A9412161306140663
:1036800005060895092E0394000C11F4882352F0C6
:10369000BB0F40F4BF2B11F460FF04C06F5F7F4F7E
:1036A0008F4F9F4F089557FD9058440F551F59F065
:1036B0005F3F71F04795880F97FB991F61F09F3F1F
:1036C00079F087950895121613061406551FF2CF48
:1036D0004695F1DF08C0161617061806991FF1CF98
:1036E00086957105610508940895E894BB276627BF
:1036F0007727CB0197F90895A1E21A2EAA1BBB1BCD
:10370000FD010DC0AA1FBB1FEE1FFF1FA217B307AD
:10371000E407F50720F0A21BB30BE40BF50B661FC3
:10372000771F881F991F1A9469F760957095809587
:1037300090959B01AC01BD01CF01089511E0C4E952
:10374000D1E000E006C0802FFE010E9406172196FE
:10375000011DC539D10780E00807A9F7F894FFCF0C
:10376000FF00002E07800001000000000000004064
:103770000B100B3F02410FB80AA40A420F000000D1
:1037800000CD08E50AC8011409F901D701EB0100D1
:103790000000009E0AE50A3F023E022DB29D3DDB7D
:1037A0000F49400000804200004842526563752086
:1037B00070617220626C7565746F6F74683A200076
:1037C0000D0A00496E76616C696420656E636F64F2
:1037D00065722069642100496E76616C6964206DB0
:1037E0006F746F722069642100726F746174696F05
:1037F0006E206465200020646567726520746572C0
:103800006D696E65652E004C69676E652064726F28
:103810006974652064652000206D207465726D698F
:103820006E65652E00506172652D63686F63206759
:10383000617563686520006170707579652100723B
:10384000656C616368652100506172652D63686F06
:10385000632064726F69742000506172652D636823
:103860006F63206176616E742000506172652D6314
:10387000686F63206172726965726520006E616EA7
:0A38800000696E66006F76660000B6
:00000001FF
